:020000040800F2
:1000000000000320A12B0008352B0008412B00081D
:10001000472B00084D2B0008532B00080000000060
:10002000000000000000000000000000592B000844
:10003000652B000800000000712B00087D2B0008D4
:10004000F12B0008F12B0008F12B0008F12B000820
:10005000F12B0008F12B0008F12B0008F12B000810
:10006000F12B0008F12B0008F12B0008F12B000800
:10007000F12B0008F12B0008F12B0008F12B0008F0
:10008000F12B0008F12B0008F12B0008F12B0008E0
:10009000F12B0008F12B0008F12B0008F12B0008D0
:1000A000F12B0008F12B0008F12B0008F12B0008C0
:1000B000F12B0008F12B0008F12B0008F12B0008B0
:1000C000F12B0008F12B0008F12B0008F12B0008A0
:1000D000F12B0008F12B0008F12B0008F12B000890
:1000E000F12B0008F12B0008F12B0008F12B000880
:1000F000F12B0008F12B0008F12B0008F12B000870
:10010000F12B0008F12B0008F12B0008F12B00085F
:10011000F12B0008F12B0008F12B0008F12B00084F
:10012000F12B0008F12B0008F12B0008F12B00083F
:10013000F12B0008F12B0008F12B0008F12B00082F
:10014000F12B0008F12B0008F12B0008F12B00081F
:10015000F12B0008F12B0008F12B0008F12B00080F
:10016000F12B0008F12B0008F12B0008F12B0008FF
:10017000F12B0008F12B0008F12B00080000000013
:10018000F12B0008F12B0008F12B0008F12B0008DF
:10019000F12B0008F12B0008F12B0008F12B0008CF
:0C01A0000000000000000000F12B00082F
:1001B00010B5054C237833B9044B13B10448AFF3A1
:1001C00000800123237010BD1802002000000000F1
:1001D0004C2C000808B5034B1BB103490348AFF38F
:1001E000008008BD000000001C0200204C2C00080C
:1001F0004FF0FF0C1CEAD0521EBF1CEAD15392EA0A
:100200000C0F93EA0C0F6FD01A4480EA010C4002E5
:1002100018BF5FEA41211ED04FF0006343EA50103F
:1002200043EA5111A0FB01310CF00040B1F5000F81
:100230003EBF490041EAD3715B0040EA010062F130
:100240007F02FD2A1DD8B3F1004F40EBC25008BF1A
:1002500020F00100704790F0000F0CF0004C08BF38
:1002600049024CEA502040EA51207F3AC2BFD2F105
:10027000FF0340EAC250704740F400004FF0000313
:10028000013A5DDC12F1190FDCBF00F0004070474D
:10029000C2F10002410021FA02F1C2F1200200FA8B
:1002A00002FC5FEA310040F1000053EA4C0308BF52
:1002B00020EADC70704792F0000F00F0004C02BFA3
:1002C000400010F4000F013AF9D040EA0C0093F01E
:1002D000000F01F0004C02BF490011F4000F013B78
:1002E000F9D041EA0C018FE70CEAD15392EA0C0FE6
:1002F00018BF93EA0C0F0AD030F0004C18BF31F051
:10030000004CD8D180EA010000F00040704790F026
:10031000000F17BF90F0004F084691F0000F91F0CA
:10032000004F14D092EA0C0F01D142020FD193EA90
:100330000C0F03D14B0218BF084608D180EA010018
:1003400000F0004040F0FE4040F40000704740F0F4
:10035000FE4040F44000704781F0004102E000BFE1
:1003600083F0004330B54FEA41044FEA430594EA75
:10037000050F08BF90EA020F1FBF54EA000C55EAB0
:10038000020C7FEA645C7FEA655C00F0E2804FEA81
:100390005454D4EB5555B8BF6D420CDD2C4480EA63
:1003A000020281EA030382EA000083EA010180EA93
:1003B000020281EA0303362D88BF30BD11F0004FE1
:1003C0004FEA01314FF4801C4CEA113102D0404217
:1003D00061EB410113F0004F4FEA03334CEA133352
:1003E00002D0524263EB430394EA050F00F0A7806A
:1003F000A4F10104D5F1200E0DDB02FA0EFC22FA65
:1004000005F2801841F1000103FA0EF2801843FA58
:1004100005F359410EE0A5F120050EF1200E012A49
:1004200003FA0EFC28BF4CF0020C43FA05F3C01887
:1004300051EBE37101F0004507D54FF0000EDCF100
:10044000000C7EEB00006EEB0101B1F5801F1BD3A9
:10045000B1F5001F0CD349085FEA30004FEA3C0CAD
:1004600004F101044FEA445212F5800F80F09A80A3
:10047000BCF1004F08BF5FEA500C50F1000041EBA7
:10048000045141EA050130BD5FEA4C0C404141EBAB
:100490000101013C28BFB1F5801FE9D291F0000FA6
:1004A00004BF01460020B1FA81F308BF2033A3F155
:1004B0000B03B3F120020CDA0C3208DD02F1140C4C
:1004C000C2F10C0201FA0CF021FA02F10CE002F187
:1004D0001402D8BFC2F1200C01FA02F120FA0CFC80
:1004E000DCBF41EA0C019040E41AA2BF01EB0451C9
:1004F000294330BD6FEA04041F3C1CDA0C340EDCC7
:1005000004F11404C4F1200220FA04F001FA02F309
:1005100040EA030021FA04F345EA030130BDC4F1C7
:100520000C04C4F1200220FA02F001FA04F340EABC
:100530000300294630BD21FA04F0294630BD94F06D
:10054000000F83F4801306BF81F480110134013D54
:100550004EE77FEA645C18BF7FEA655C29D094EAC5
:10056000050F08BF90EA020F05D054EA000C04BF43
:100570001946104630BD91EA030F1EBF002100202E
:1005800030BD5FEA545C05D14000494128BF41F0CD
:10059000004130BD14F580043CBF01F5801130BD31
:1005A00001F0004545F0FE4141F470014FF00000BC
:1005B00030BD7FEA645C1ABF194610467FEA655C6D
:1005C0001CBF0B46024650EA013406BF52EA03350F
:1005D00091EA030F41F4002130BD00BF90F0000FFD
:1005E00004BF0021704730B54FF4806404F1320439
:1005F0004FF000054FF0000150E700BF90F0000FF2
:1006000004BF0021704730B54FF4806404F1320418
:1006100010F0004548BF40424FF000013EE700BFE8
:1006200042004FEAE2014FEA31014FEA02701FBF78
:1006300012F07F4393F07F4F81F06051704732F0AA
:100640007F4208BF704793F07F4F04BF41F4002101
:10065000704730B54FF4607401F0004521F000415F
:100660001CE700BF50EA010208BF704730B54FF0E9
:1006700000050AE050EA010208BF704730B511F0EA
:10068000004502D5404261EB41014FF4806404F122
:1006900032045FEA915C3FF4D8AE4FF003025FEAA8
:1006A000DC0C18BF03325FEADC0C18BF033202EB2C
:1006B000DC02C2F1200300FA03FC20FA02F001FA86
:1006C00003FE40EA0E0021FA02F11444BDE600BF29
:1006D00070B54FF0FF0C4CF4E06C1CEA11541DBFD8
:1006E0001CEA135594EA0C0F95EA0C0F00F0DEF8A3
:1006F0002C4481EA030621EA4C5123EA4C5350EA88
:10070000013518BF52EA033541F4801143F48013D8
:1007100038D0A0FB02CE4FF00005E1FB02E506F069
:100720000042E0FB03E54FF00006E1FB03569CF0BE
:10073000000F18BF4EF0010EA4F1FF04B6F5007FC4
:1007400064F5407404D25FEA4E0E6D4146EB060636
:1007500042EAC62141EA55514FEAC52040EA5E50BF
:100760004FEACE2EB4F1FD0C88BFBCF5E06F1ED869
:10077000BEF1004F08BF5FEA500E50F1000041EBA0
:10078000045170BD06F0004646EA010140EA02004D
:1007900081EA0301B4EB5C04C2BFD4EB0C0541EA6F
:1007A000045170BD41F480114FF0000E013C00F384
:1007B000AB8014F1360FDEBF002001F0004170BDA8
:1007C000C4F10004203C35DA0C341BDC04F11404C1
:1007D000C4F1200500FA05F320FA04F001FA05F24D
:1007E00040EA020001F0004221F0004110EBD3701A
:1007F00021FA04F642EB06015EEA430E08BF20EA46
:10080000D37070BDC4F10C04C4F1200500FA04F3E8
:1008100020FA05F001FA04F240EA020001F000417A
:1008200010EBD37041F100015EEA430E08BF20EAED
:10083000D37070BDC4F1200500FA05F24EEA020E35
:1008400020FA04F301FA05F243EA020321FA04F064
:1008500001F0004121FA04F220EA020000EBD3701B
:100860005EEA430E08BF20EAD37070BD94F0000F1B
:100870000FD101F00046400041EB010111F4801F4F
:1008800008BF013CF7D041EA060195F0000F18BF00
:10089000704703F00046520043EB030313F4801F3C
:1008A00008BF013DF7D043EA0603704794EA0C0FF6
:1008B0000CEA135518BF95EA0C0F0CD050EA41060C
:1008C00018BF52EA4306D1D181EA030101F0004189
:1008D0004FF0000070BD50EA410606BF10461946B1
:1008E00052EA430619D094EA0C0F02D150EA0136BD
:1008F00013D195EA0C0F05D152EA03361CBF1046FE
:1009000019460AD181EA030101F0004141F0FE419C
:1009100041F470014FF0000070BD41F0FE4141F420
:10092000780170BD70B54FF0FF0C4CF4E06C1CEA20
:1009300011541DBF1CEA135594EA0C0F95EA0C0FD5
:1009400000F0A7F8A4EB050481EA030E52EA033590
:100950004FEA013100F088804FEA03334FF08055B1
:1009600045EA131343EA12634FEA022245EA1115DE
:1009700045EA10654FEA00260EF000419D4208BF8F
:10098000964244F1FD0404F5407402D25B084FEA3C
:100990003202B61A65EB03055B084FEA32024FF4E8
:1009A00080104FF4002CB6EB020E75EB030E22BF45
:1009B000B61A754640EA0C005B084FEA3202B6EB05
:1009C000020E75EB030E22BFB61A754640EA5C00B4
:1009D0005B084FEA3202B6EB020E75EB030E22BF44
:1009E000B61A754640EA9C005B084FEA3202B6EB45
:1009F000020E75EB030E22BFB61A754640EADC0004
:100A000055EA060E18D04FEA051545EA16754FEA65
:100A100006164FEAC30343EA52734FEAC2025FEA83
:100A20001C1CC0D111F4801F0BD141EA00014FF012
:100A300000004FF0004CB6E711F4801F04BF0143E3
:100A40000020B4F1FD0C88BFBCF5E06F3FF6AFAEFF
:100A5000B5EB030C04BFB6EB020C5FEA500C50F18F
:100A6000000041EB045170BD0EF0004E4EEA113112
:100A700014EB5C04C2BFD4EB0C0541EA045170BD19
:100A800041F480114FF0000E013C90E645EA060E5D
:100A90008DE60CEA135594EA0C0F08BF95EA0C0F8B
:100AA0003FF43BAF94EA0C0F0AD150EA01347FF4D3
:100AB00034AF95EA0C0F7FF425AF104619462CE7AA
:100AC00095EA0C0F06D152EA03353FF4FDAE10460D
:100AD000194622E750EA410618BF52EA43067FF45E
:100AE000C5AE50EA41047FF40DAF52EA43057FF4EE
:100AF000EBAE12E74A0011D212F5001211D20DD559
:100B00006FF47873B3EB62520ED44FEAC12343F013
:100B1000004343EA505323FA02F070474FF00000BD
:100B2000704750EA013002D14FF0FF3070474FF06C
:100B30000000704742000ED2B2F1FE4F0BD34FF0CF
:100B40009E03B3EB126209D44FEA002343F0004343
:100B500023FA02F070474FF00000704712F1610F66
:100B600001D1420202D14FF0FF3070474FF0000038
:100B7000704700BF53B94AB9002908BF00281CBFFD
:100B80004FF0FF314FF0FF3000F06CB9ADF1080CC1
:100B90006DE904CE00F006F8DDF804E0DDE902239B
:100BA00004B070472DE9F047089E0D4604468E4676
:100BB000002B40F082808A42174646D9B2FA82F270
:100BC0004AB1C2F1200105FA02F320FA01F197407F
:100BD00041EA030E94404FEA1748230CBEFBF8FC91
:100BE000B9B208FB1CEE43EA0E430CFB01F098423D
:100BF0000AD9FB180CF1FF3580F01681984240F2BB
:100C00001381ACF1020C3B441B1AA4B2B3FBF8F005
:100C100008FB103344EA034400FB01F1A14209D967
:100C20003C1900F1FF3380F00181A14240F2FE80C7
:100C300002383C44641A40EA0C4000211EB1D44002
:100C40000023C6E90043BDE8F08702B9FFDEB2FA2F
:100C500082F2002A4FD1CB1B4FEA174E1FFA87F8BA
:100C60000121B3FBFEFC250C0EFB1C3345EA0345BA
:100C700008FB0CF3AB4207D97D190CF1FF3002D20F
:100C8000AB4200F2E7808446ED1AA3B2B5FBFEF05A
:100C90000EFB105543EA054408FB00F8A04507D9B0
:100CA0003C1900F1FF3302D2A04500F2D78018466C
:100CB000A4EB080440EA0C40C0E78B4208D9002EA0
:100CC00000F0AF800021C6E900050846BDE8F087C6
:100CD000B3FA83F100294BD1AB4202D3824200F236
:100CE000B780841A65EB030301209E46002EAAD02C
:100CF000C6E9004EA7E7C2F1200C01FA02F39740C3
:100D000020FA0CF04FEA174E21FA0CFC1843BCFBFA
:100D1000FEF1050C0EFB11CC1FFA87F845EA0C45D5
:100D200001FB08F3AB4204FA02F409D97D1901F181
:100D3000FF3C80F08B80AB4240F2888002393D441A
:100D4000EB1A85B2B3FBFEF00EFB103345EA034508
:100D500000FB08F3AB4207D97D1900F1FF3C71D2CB
:100D6000AB426FD902383D44EB1A40EA014178E7C3
:100D7000C1F1200C8B4022FA0CF71F4320FA0CF42F
:100D800005FA01F34FEA174E25FA0CF51C43230C24
:100D9000B5FBFEF91FFA87F80EFB195543EA054526
:100DA00009FB08FAAA4502FA01F200FA01F308D990
:100DB0007D1909F1FF3047D2AA4545D9A9F10209A9
:100DC0003D44A5EB0A05A4B2B5FBFEF00EFB1055A1
:100DD00044EA054400FB08F8A04507D93C1900F196
:100DE000FF352DD2A0452BD902383C4440EA0940BA
:100DF000A4EB0804A0FB02894C45C6464D4619D316
:100E000016D05EB1B3EB0E0264EB050404FA0CFCE1
:100E1000CA404CEA0202CC40C6E900240021BDE8E9
:100E2000F087314630460EE7AC46EDE6184601E75E
:100E30004345E6D2B8EB020E69EB07050138E0E75F
:100E40002846D3E760468FE78146BAE7614677E7F1
:100E500008464BE7ACF1020C3D4415E702383C4430
:100E600026E700BF704700BF80B500AF0E4B1B6880
:100E70000D4A43F4007313600B4B1B680A4A43F49A
:100E800080631360084B1B68074A43F48073136048
:100E9000032000F02BF9002000F008F801F0CAFD53
:100EA0000023184680BD00BF003C024080B582B0E0
:100EB00000AF7860124B1A68124B1B7819464FF43A
:100EC0007A73B3FBF1F3B2FBF3F3184600F035F994
:100ED0000346002B01D001230EE07B680F2B0AD8BC
:100EE000002279684FF0FF3000F00BF9064A7B686A
:100EF0001360002300E0012318460837BD4680BD7B
:100F000014020020040000200000002080B400AF84
:100F1000054B1B781A46054B1B681344034A1360A4
:100F200000BFBD4680BC7047040000203402002092
:100F300080B400AF024B1B681846BD4680BC7047AA
:100F40003402002080B584B000AF7860FFF7F0FF76
:100F5000B8607B68FB60FB68B3F1FF3F05D00A4BCC
:100F60001B781A46FB681344FB6000BFFFF7E0FFE5
:100F70000246BB68D31AFA689A42F7D800BF00BF8E
:100F80001037BD4680BD00BF0400002080B485B08E
:100F900000AF78607B6803F00703FB600C4BDB68F5
:100FA000BB60BA684FF6FF031340BB60FB681A02D0
:100FB000BB68134343F0BF6343F40033BB60044A90
:100FC000BB68D36000BF1437BD4680BC704700BF0C
:100FD00000ED00E080B400AF044BDB681B0A03F0B7
:100FE00007031846BD4680BC704700BF00ED00E017
:100FF00080B483B000AF03463960FB7197F90730C6
:10100000002B0ADB3B68DAB20C4997F90730120172
:10101000D2B20B4483F800230AE03B68DAB20849F5
:10102000FB7903F00F03043B1201D2B20B441A7692
:1010300000BF0C37BD4680BC704700BF00E100E038
:1010400000ED00E080B489B000AFF860B9607A606C
:10105000FB6803F00703FB61FB69C3F10703042B83
:1010600028BF0423BB61FB690433062B02D9FB694B
:10107000033B00E000237B614FF0FF32BB6902FAC3
:1010800003F3DA43BB681A407B699A404FF0FF31A3
:101090007B6901FA03F3D9437B680B40134318467D
:1010A0002437BD4680BC704780B582B000AF786001
:1010B0007B68013BB3F1807F01D301230FE00A4A33
:1010C0007B68013B53600F214FF0FF30FFF790FF2B
:1010D000054B00229A60044B07221A600023184631
:1010E0000837BD4680BD00BF10E000E080B582B08B
:1010F00000AF78607868FFF749FF00BF0837BD464A
:1011000080BD80B586B000AF0346B9607A60FB73DE
:1011100000237B61FFF75EFF78617A68B9687869C0
:10112000FFF790FF024697F90F3011461846FFF778
:101130005FFF00BF1837BD4680BD80B582B000AFED
:1011400078607868FFF7B0FF034618460837BD4659
:1011500080BD000080B489B000AF786039600023A2
:101160007B6100233B610023BB610023FB6177E1CE
:101170000122FB6902FA03F37B613B681B687A6911
:1011800013403B613A697B699A4240F066813B6853
:101190005B68012B0BD03B685B68022B07D03B6878
:1011A0005B68112B03D03B685B68122B30D17B68E6
:1011B0009B68BB61FB695B00032202FA03F3DB431C
:1011C000BA691340BB613B68DA68FB695B0002FAED
:1011D00003F3BA691343BB617B68BA699A607B68A1
:1011E0005B68BB610122FB6902FA03F3DB43BA6966
:1011F0001340BB613B685B681B0903F00102FB699C
:1012000002FA03F3BA691343BB617B68BA695A6097
:101210007B68DB68BB61FB695B00032202FA03F3B6
:10122000DB43BA691340BB613B689A68FB695B00AA
:1012300002FA03F3BA691343BB617B68BA69DA60E7
:101240003B685B68022B03D03B685B68122B23D1A1
:10125000FB69DA087B68083253F82230BB61FB690E
:1012600003F007039B000F2202FA03F3DB43BA6982
:101270001340BB613B681A69FB6903F007039B00DD
:1012800002FA03F3BA691343BB61FB69DA087B68AE
:101290000832B96943F822107B681B68BB61FB699F
:1012A0005B00032202FA03F3DB43BA691340BB611C
:1012B0003B685B6803F00302FB695B0002FA03F31F
:1012C000BA691343BB617B68BA691A603B685B68A3
:1012D00003F08053002B00F0C0800023FB60654BBF
:1012E0005B6C644A43F480435364624B5B6C03F46D
:1012F0008043FB60FB68604AFB699B08023352F83D
:101300002330BB61FB6903F003039B000F2202FA49
:1013100003F3DB43BA691340BB617B68574A9342CE
:1013200037D07B68564A934231D07B68554A934206
:101330002BD07B68544A934225D07B68534A934212
:101340001FD07B68524A934219D07B68514A93421E
:1013500013D07B68504A93420DD07B684F4A93422A
:1013600007D07B684E4A934201D1092312E00A2339
:1013700010E008230EE007230CE006230AE0052313
:1013800008E0042306E0032304E0022302E0012333
:1013900000E00023FA6902F0030292009340BA6968
:1013A0001343BB613449FB699B080233BA6941F8B6
:1013B00023203C4B1B68BB613B69DB43BA6913408C
:1013C000BB613B685B6803F48033002B03D0BA69D0
:1013D0003B691343BB61334ABB691360314B5B68A4
:1013E000BB613B69DB43BA691340BB613B685B6827
:1013F00003F40033002B03D0BA693B691343BB618C
:10140000284ABB695360274B9B68BB613B69DB4340
:10141000BA691340BB613B685B6803F48013002B1F
:1014200003D0BA693B691343BB611E4ABB69936031
:101430001C4BDB68BB613B69DB43BA691340BB6192
:101440003B685B6803F40013002B03D0BA693B6967
:101450001343BB61134ABB69D360FB690133FB6172
:10146000FB690F2B7FF684AE00BF00BF2437BD465B
:1014700080BC704700380240003801400000024044
:101480000004024000080240000C0240001002402C
:101490000014024000180240001C024000200240DC
:1014A00000240240003C014080B586B000AF786067
:1014B0007B68002B01D101235BE27B681B6803F092
:1014C0000103002B75D0A34B9B6803F00C03042B86
:1014D0000CD0A04B9B6803F00C03082B12D19D4B42
:1014E0005B6803F48003B3F5800F0BD1994B1B6845
:1014F00003F40033002B5BD07B685B68002B57D173
:10150000012336E27B685B68B3F5803F06D1914BDF
:101510001B68904A43F4803313601DE07B685B686E
:10152000B3F5A02F0CD18B4B1B688A4A43F4802360
:101530001360884B1B68874A43F4803313600BE0C9
:10154000844B1B68834A23F480331360814B1B68F0
:10155000804A23F4802313607B685B68002B13D0E0
:10156000FFF7E6FC386108E0FFF7E2FC02463B6962
:10157000D31A642B01D90323FBE1764B1B6803F4D8
:101580000033002BF0D014E0FFF7D2FC386108E004
:10159000FFF7CEFC02463B69D31A642B01D9032323
:1015A000E7E16C4B1B6803F40033002BF0D100E043
:1015B00000BF7B681B6803F00203002B63D0654B00
:1015C0009B6803F00C03002B0BD0624B9B6803F06D
:1015D0000C03082B1CD15F4B5B6803F48003002BCA
:1015E00016D15C4B1B6803F00203002B05D07B680F
:1015F000DB68012B01D00123BBE1564B1B6823F0B4
:10160000F8027B681B69DB00524913430B603AE028
:101610007B68DB68002B20D04F4B01221A60FFF75C
:1016200087FC386108E0FFF783FC02463B69D31A68
:10163000022B01D903239CE1464B1B6803F00203F4
:10164000002BF0D0434B1B6823F0F8027B681B692A
:10165000DB00404913430B6015E03F4B00221A604A
:10166000FFF766FC386108E0FFF762FC02463B6961
:10167000D31A022B01D903237BE1364B1B6803F0FD
:101680000203002BF0D17B681B6803F00803002BDA
:1016900030D07B685B69002B16D0304B01221A607A
:1016A000FFF746FC386108E0FFF742FC02463B6961
:1016B000D31A022B01D903235BE1264B5B6F03F0A6
:1016C0000203002BF0D015E0244B00221A60FFF734
:1016D0002FFC386108E0FFF72BFC02463B69D31A68
:1016E000022B01D9032344E11A4B5B6F03F0020381
:1016F000002BF0D17B681B6803F00403002B00F083
:10170000A0800023FB75134B1B6C03F08053002B50
:101710000FD10023BB600F4B1B6C0E4A43F080536C
:1017200013640C4B1B6C03F08053BB60BB6801233C
:10173000FB750B4B1B6803F48073002B21D1084B06
:101740001B68074A43F480731360FFF7F1FB3861AD
:1017500011E000BF0038024000004742800E4742BF
:1017600000700040FFF7E4FB02463B69D31A022BEE
:1017700001D90323FDE0814B1B6803F48073002B28
:10178000F0D07B689B68012B06D17D4B1B6F7C4A98
:1017900043F0010313671CE07B689B68052B0CD1A9
:1017A000774B1B6F764A43F004031367744B1B6F30
:1017B000734A43F0010313670BE0714B1B6F704AD0
:1017C00023F0010313676E4B1B6F6D4A23F0040374
:1017D00013677B689B68002B15D0FFF7A9FB386166
:1017E0000AE0FFF7A5FB02463B69D31A41F28832B3
:1017F000934201D90323BCE0614B1B6F03F002034A
:10180000002BEED014E0FFF793FB38610AE0FFF7FE
:101810008FFB02463B69D31A41F28832934201D9C9
:101820000323A6E0564B1B6F03F00203002BEED1FF
:10183000FB7D012B05D1524B1B6C514A23F0805389
:1018400013647B689B69002B00F092804C4B9B6873
:1018500003F00C03082B5CD07B689B69022B41D101
:10186000484B00221A60FFF763FB386108E0FFF77E
:101870005FFB02463B69D31A022B01D9032378E0B0
:101880003F4B1B6803F00073002BF0D17B68DA69D3
:101890007B681B6A1A437B685B6A9B011A437B68FF
:1018A0009B6A5B08013B1B041A437B68DB6A1B06CF
:1018B000334913434B60334B01221A60FFF738FB67
:1018C000386108E0FFF734FB02463B69D31A022B6C
:1018D00001D903234DE02A4B1B6803F00073002B52
:1018E000F0D045E0274B00221A60FFF721FB38615A
:1018F00008E0FFF71DFB02463B69D31A022B01D912
:10190000032336E01E4B1B6803F00073002BF0D15D
:101910002EE07B689B69012B01D1012329E0184B44
:101920005B68FB60FB6803F480027B68DB699A42BA
:101930001CD1FB6803F03F027B681B6A9A4215D1F9
:10194000FA6847F6C07313407A68526A93420DD121
:10195000FB6803F440327B689B6A9A4206D1FB68BD
:1019600003F070627B68DB6A9A4201D0012300E0D9
:10197000002318461837BD4680BD00BF00700040E8
:10198000003802406000474280B584B000AF786004
:1019900039607B68002B01D10123CCE0684B1B68C8
:1019A00003F00F033A689A420CD9654B3A68D2B2F9
:1019B0001A70634B1B6803F00F033A689A4201D018
:1019C0000123B8E07B681B6803F00203002B20D0E2
:1019D0007B681B6803F00403002B05D0594B9B6800
:1019E000584A43F4E05393607B681B6803F0080394
:1019F000002B05D0534B9B68524A43F460439360DD
:101A0000504B9B6823F0F0027B689B684D49134361
:101A10008B607B681B6803F00103002B44D07B685C
:101A20005B68012B07D1474B1B6803F40033002B85
:101A300019D101237FE07B685B68022B03D07B68B0
:101A40005B68032B07D13F4B1B6803F00073002B2F
:101A500009D101236FE03B4B1B6803F00203002B0D
:101A600001D1012367E0374B9B6823F003027B68B9
:101A70005B68344913438B60FFF75AFAF8600AE059
:101A8000FFF756FA0246FB68D31A41F288329342B6
:101A900001D903234FE02B4B9B6803F00C027B68BA
:101AA0005B689B009A42EBD1254B1B6803F00F0348
:101AB0003A689A420CD2224B3A68D2B21A70204B42
:101AC0001B6803F00F033A689A4201D0012332E009
:101AD0007B681B6803F00403002B08D0194B9B683C
:101AE00023F4E0527B68DB68164913438B607B6804
:101AF0001B6803F00803002B09D0124B9B6823F4EA
:101B000060427B681B69DB000E4913438B6000F069
:101B100021F802460B4B9B681B0903F00F030A498F
:101B2000CB5C22FA03F3094A1360094B1B68184681
:101B3000FFF7BCF9002318461037BD4680BD00BF33
:101B4000003C024000380240642C000814020020CF
:101B500000000020B0B584B000AF00217960002102
:101B6000F960002139600021B9605249896801F0AB
:101B70000C0108290DD0082900F29480002902D018
:101B8000042903D08EE04C4BBB608EE04B4BBB6016
:101B90008BE04849496801F03F017960454949684F
:101BA00001F48001002924D0424949688909084686
:101BB0004FF0000140F2FF144FF0000500EA04026C
:101BC00001EA05033D4901FB03F0002101FB02F19D
:101BD00044183A49A2FB0101631819467B681A466A
:101BE0004FF00003FEF7C6FF02460B461346FB60AC
:101BF0004AE0304B5B689B091A464FF0000340F205
:101C0000FF104FF0000102EA000403EA010520463C
:101C100029464FF000024FF000034B0143EAD06326
:101C2000420110461946001B61EB05014FF000020E
:101C30004FF000038B0143EA90638201121A63EBB9
:101C400001034FF000004FF00001D90041EA52714A
:101C5000D00002460B46121945EB03034FF000007B
:101C60004FF00001990241EA9251900202460B4660
:101C7000104619467B681A464FF00003FEF77AFFBC
:101C800002460B461346FB600A4B5B681B0C03F0D5
:101C9000030301335B003B60FA683B68B2FBF3F37C
:101CA000BB6002E0044BBB6000BFBB681846103746
:101CB000BD46B0BD003802400024F400001BB70050
:101CC00080B582B000AF78607B68002B01D1012322
:101CD0001DE07B6893F83D30DBB2002B06D17B68BA
:101CE000002283F83C20786800F0CAFE7B6802225C
:101CF00083F83D207B681A687B68043319461046D8
:101D000000F006FA7B68012283F83D200023184684
:101D10000837BD4680BD80B582B000AF78607B6873
:101D2000002B01D101231DE07B6893F83D30DBB22D
:101D3000002B06D17B68002283F83C20786800F0F5
:101D400015F87B68022283F83D207B681A687B685F
:101D500004331946104600F0DBF97B68012283F852
:101D60003D20002318460837BD4680BD80B483B0AF
:101D700000AF786000BF0C37BD4680BC70470000E4
:101D800080B584B000AF786039607B681B68012241
:101D90003968184600F09CFC7B681B68154A934222
:101DA00004D07B681B68144A934201D1012300E0F0
:101DB0000023002B07D07B681B685A6C7B681B686C
:101DC00042F400425A647B681B689B6803F0070377
:101DD000FB60FB68062B07D07B681B681A687B6872
:101DE0001B6842F001021A60002318461037BD46F6
:101DF00080BD00BF000001400004014080B584B0F8
:101E000000AFF860B9607A60FB6893F83C30012B52
:101E100001D10223B4E0FB68012283F83C20FB6877
:101E2000022283F83D207B680C2B00F29F8001A2E8
:101E300052F823F0691E00086D1F00086D1F00088E
:101E40006D1F0008A91E00086D1F00086D1F000807
:101E50006D1F0008EB1E00086D1F00086D1F0008B5
:101E60006D1F00082B1F0008FB681B68B968184627
:101E700000F0ECF9FB681B689A69FB681B6842F08C
:101E800008029A61FB681B689A69FB681B6822F06C
:101E900004029A61FB681B689969BB681A69FB6850
:101EA0001B680A439A6162E0FB681B68B9681846C0
:101EB00000F03CFAFB681B689A69FB681B6842F4F7
:101EC00000629A61FB681B689A69FB681B6822F4D0
:101ED00080629A61FB681B689969BB681B691A027A
:101EE000FB681B680A439A6141E0FB681B68B9689C
:101EF000184600F08FFAFB681B68DA69FB681B68FC
:101F000042F00802DA61FB681B68DA69FB681B684B
:101F100022F00402DA61FB681B68D969BB681A69A0
:101F2000FB681B680A43DA6121E0FB681B68B9683B
:101F3000184600F0E3FAFB681B68DA69FB681B6867
:101F400042F40062DA61FB681B68DA69FB681B68AF
:101F500022F48062DA61FB681B68D969BB681B697F
:101F60001A02FB681B680A43DA6100E000BFFB68E5
:101F7000012283F83D20FB68002283F83C200023E7
:101F800018461037BD4680BD80B584B000AF78607C
:101F900039607B6893F83C30012B01D10223B3E018
:101FA0007B68012283F83C207B68022283F83D2075
:101FB0007B681B689B68FB60FB6823F07703FB6012
:101FC000FB6823F47F43FB607B681B68FA689A60B8
:101FD0003B681B68B3F5005F3ED0B3F5005F00F2CD
:101FE0008780B3F5805F00F08580B3F5805F7FD890
:101FF000702B1AD0702B7BD8602B50D0602B77D8E9
:10200000502B3CD0502B73D8402B58D0402B6FD83E
:10201000302B64D0302B6BD8202B60D0202B67D88E
:10202000002B5CD0102B5AD062E07B6818683B68AC
:1020300099683B685A683B68DB6800F02AFB7B685C
:102040001B689B68FB60FB6843F07703FB607B6861
:102050001B68FA689A604EE07B6818683B6899686C
:102060003B685A683B68DB6800F013FB7B681B68C1
:102070009A687B681B6842F480429A603BE07B6808
:1020800018683B6859683B68DB681A4600F08AFAB2
:102090007B681B685021184600F0E1FA2BE07B6852
:1020A00018683B6859683B68DB681A4600F0A8FA74
:1020B0007B681B686021184600F0D1FA1BE07B6842
:1020C00018683B6859683B68DB681A4600F06AFA92
:1020D0007B681B684021184600F0C1FA0BE07B6862
:1020E0001A683B681B681946104600F0B8FA02E00F
:1020F00000BF00E000BF7B68012283F83D207B68C1
:10210000002283F83C20002318461037BD4680BDCE
:1021100080B485B000AF786039607B681B68FB6075
:102120007B683F4A934213D07B68B3F1804F0FD056
:102130007B683C4A93420BD07B683B4A934207D072
:102140007B683A4A934203D07B68394A934208D16C
:10215000FB6823F07003FB603B685B68FA6813431D
:10216000FB607B682E4A93422BD07B68B3F1804F93
:1021700027D07B682B4A934223D07B682A4A93421C
:102180001FD07B68294A93421BD07B68284A934220
:1021900017D07B68274A934213D07B68264A934224
:1021A0000FD07B68254A93420BD07B68244A934228
:1021B00007D07B68234A934203D07B68224A93422C
:1021C00008D1FB6823F44073FB603B68DB68FA6866
:1021D0001343FB60FB6823F080023B685B69134399
:1021E000FB607B68FA681A603B689A687B68DA6211
:1021F0003B681A687B689A627B68094A934203D0FD
:102200007B680B4A934203D13B681A697B681A6367
:102210007B6801225A6100BF1437BD4680BC7047FD
:10222000000001400004004000080040000C004095
:1022300000040140004001400044014000480140CA
:1022400000180040001C00400020004080B487B00F
:1022500000AF786039607B681B6A23F001027B68FD
:102260001A627B681B6A7B617B685B683B617B6889
:102270009B69FB60FB6823F07003FB60FB6823F045
:102280000303FB603B681B68FA681343FB607B69D0
:1022900023F002037B613B689B687A6913437B618F
:1022A0007B68204A934203D07B681F4A93420CD13B
:1022B0007B6923F008037B613B68DB687A69134321
:1022C0007B617B6923F004037B617B68154A934241
:1022D00003D07B68144A934211D13B6923F4807385
:1022E0003B613B6923F400733B613B685B693A697E
:1022F00013433B613B689B693A6913433B617B68CD
:102300003A695A607B68FA689A613B685A687B68E8
:102310005A637B687A691A6200BF1C37BD4680BC6D
:10232000704700BF000001400004014080B487B046
:1023300000AF786039607B681B6A23F010027B680D
:102340001A627B681B6A7B617B685B683B617B68A8
:102350009B69FB60FB6823F4E043FB60FB6823F4AC
:102360004073FB603B681B681B02FA681343FB6009
:102370007B6923F020037B613B689B681B017A69C2
:1023800013437B617B68214A934203D07B68204AD8
:1023900093420DD17B6923F080037B613B68DB684E
:1023A0001B017A6913437B617B6923F040037B61E6
:1023B0007B68164A934203D07B68154A934213D137
:1023C0003B6923F480633B613B6923F400633B6119
:1023D0003B685B699B003A6913433B613B689B69BF
:1023E0009B003A6913433B617B683A695A607B689A
:1023F000FA689A613B685A687B689A637B687A6975
:102400001A6200BF1C37BD4680BC70470000014007
:102410000004014080B487B000AF786039607B6809
:102420001B6A23F480727B681A627B681B6A7B617B
:102430007B685B683B617B68DB69FB60FB6823F062
:102440007003FB60FB6823F00303FB603B681B68C1
:10245000FA681343FB607B6923F400737B613B687C
:102460009B681B027A6913437B617B68214A934214
:1024700003D07B68204A93420DD17B6923F400632B
:102480007B613B68DB681B027A6913437B617B6974
:1024900023F480637B617B68164A934203D07B6898
:1024A000154A934213D13B6923F480533B613B6946
:1024B00023F400533B613B685B691B013A6913439A
:1024C0003B613B689B691B013A6913433B617B6835
:1024D0003A695A607B68FA68DA613B685A687B68D7
:1024E000DA637B687A691A6200BF1C37BD4680BC1C
:1024F000704700BF000001400004014080B487B075
:1025000000AF786039607B681B6A23F480527B6877
:102510001A627B681B6A3B617B685B687B617B68D6
:10252000DB69FB60FB6823F4E043FB60FB6823F49A
:102530004073FB603B681B681B02FA681343FB6037
:102540003B6923F400533B613B689B681B033A697A
:1025500013433B617B68114A934203D07B68104A66
:10256000934209D17B6923F480437B613B685B69BB
:102570009B017A6913437B617B687A695A607B6847
:10258000FA68DA613B685A687B681A647B683A6962
:102590001A6200BF1C37BD4680BC70470000014076
:1025A0000004014080B487B000AFF860B9607A6081
:1025B000FB681B6A7B61FB681B6A23F00102FB68F6
:1025C0001A62FB689B693B613B6923F0F0033B6146
:1025D0007B681B013A6913433B617B6923F00A0363
:1025E0007B617A69BB6813437B61FB683A699A61D6
:1025F000FB687A691A6200BF1C37BD4680BC704711
:1026000080B487B000AFF860B9607A60FB681B6A7D
:1026100023F01002FB681A62FB689B697B61FB6810
:102620001B6A3B617B6923F470437B617B681B03FE
:102630007A6913437B613B6923F0A0033B61BB686C
:102640001B013A6913433B61FB687A699A61FB6835
:102650003A691A6200BF1C37BD4680BC704780B41F
:1026600085B000AF786039607B689B68FB60FB6871
:1026700023F07003FB603A68FB68134343F00703E1
:10268000FB607B68FA689A6000BF1437BD4680BC67
:10269000704780B487B000AFF860B9607A603B6083
:1026A000FB689B687B617B6923F47F437B613B68AC
:1026B0001A027B681A43BB6813437A6913437B6130
:1026C000FB687A699A6000BF1C37BD4680BC7047C2
:1026D00080B487B000AFF860B9607A60BB6803F07F
:1026E0001F03012202FA03F37B61FB681A6A7B690C
:1026F000DB431A40FB681A62FB681A6ABB6803F086
:102700001F03796801FA03F31A43FB681A6200BFDA
:102710001C37BD4680BC704780B500AFFEF7A4FBF8
:1027200000F014F800F0DEF800F07AF80021044818
:10273000FFF726FB0349044800F040F9FAE700BF21
:1027400038020020B80000200800002080B594B0B6
:1027500000AF07F1200330220021184600F06EFA86
:1027600007F10C0300221A605A609A60DA601A615D
:102770000023BB60284B1B6C274A43F08053136433
:10278000254B1B6C03F08053BB60BB6800237B6050
:10279000224B1B68214A43F4404313601F4B1B68C4
:1027A00003F440437B607B6801233B624FF480333A
:1027B0007B620223BB634FF48003FB6306233B640D
:1027C000A8237B640223BB640423FB6407F120037A
:1027D0001846FEF769FE0346002B01D000F024F9ED
:1027E0000F23FB6002233B6100237B614FF4A05366
:1027F000BB614FF48053FB6107F10C0305211846C0
:10280000FFF7C2F80346002B01D000F00DF900BF1E
:102810005037BD4680BD00BF003802400070004008
:1028200080B58CB000AF07F1200300221A605A6017
:102830009A60DA603B1D00221A605A609A60DA6082
:102840001A615A619A61254B254A1A60234B53221B
:102850005A60224B00229A60204B0022DA601F4B04
:1028600000221A611D4B00229A611C48FFF728FACA
:102870000346002B01D000F0D7F84FF480533B62A1
:1028800007F1200319461548FFF77EFB0346002B8E
:1028900001D000F0C9F81148FFF73DFA0346002BBC
:1028A00001D000F0C1F860237B600023BB600023EF
:1028B000FB6000237B613B1D002219460748FFF7A0
:1028C0009DFA0346002B01D000F0AEF8034800F05B
:1028D000F7F800BF3037BD4680BD00BF380200208A
:1028E0000018004080B483B000AF00237B60084B29
:1028F0001B6B074A43F080031363054B1B6B03F00C
:1029000080037B607B6800BF0C37BD4680BC70478E
:10291000003802400000000090B583B000AF0346CD
:10292000FB80B7F906301846FDF768FE02460B46F5
:102930001FA1D1E90001FDF7F5FF02460B461E4934
:102940000C6810461946FEF7D5F80346E362B7F95E
:1029500006301846FDF752FE02460B4614A1D1E997
:102960000001FDF7DFFF02460B4610461946FEF751
:10297000C1F80346104AD360B7F906305B00184629
:10298000FDF73CFE02460B4609A1D1E90001FDF727
:10299000C9FF02460B4608490C6810461946FEF767
:1029A000A9F80346636300BF0C37BD4690BD00BF66
:1029B0000000000080842E413802002080B584B0E1
:1029C00000AF786039600023FB601BE0FB685B00B0
:1029D0007A681344B3F900301846FFF79DFFFB688F
:1029E0005A1CFA609B003A6813441B680D4918464C
:1029F000FDF7FEFB03461846FEF79CF80346184613
:102A0000FEF7A0FAFB685B007A681344B3F9003064
:102A1000B3F1FF3FDAD10020FFF77EFF00BF103790
:102A2000BD4680BD0000164480B400AF00BFBD4667
:102A300080BC704780B483B000AF00237B600F4B35
:102A40005B6C0E4A43F4804353640C4B5B6C03F4A1
:102A500080437B607B6800233B60084B1B6C074A0C
:102A600043F080531364054B1B6C03F080533B60B1
:102A70003B6800BF0C37BD4680BC70470038024041
:102A800080B485B000AF78607B681B680A4A9342C7
:102A90000DD10023FB60094B1B6C084A43F0400337
:102AA0001364064B1B6C03F04003FB60FB6800BF24
:102AB0001437BD4680BC7047001800400038024003
:102AC00080B588B000AF786007F10C0300221A606F
:102AD0005A609A60DA601A617B681B68124A9342F6
:102AE0001DD10023BB60114B1B6B104A43F08003C8
:102AF00013630E4B1B6B03F08003BB60BB6840236A
:102B0000FB6002233B6100237B610023BB6109233F
:102B1000FB6107F10C0319460548FEF71BFB00BFDC
:102B20002037BD4680BD00BF00180040003802407D
:102B3000001C024080B400AF00BFBD4680BC70479F
:102B400080B400AFFEE780B400AFFEE780B400AF12
:102B5000FEE780B400AFFEE780B400AF00BFBD4623
:102B600080BC704780B400AF00BFBD4680BC7047DA
:102B700080B400AF00BFBD4680BC704780B500AFD9
:102B8000FEF7C4F900BF80BD80B400AF034B4FF027
:102B900000629A6000BFBD4680BC704700ED00E057
:102BA000DFF834D0002103E00C4B5B584350043174
:102BB0000B480C4B42189A42F6D30B4A02E0002312
:102BC00042F8043B094B9A42F9D3FFF7DDFF00F0CE
:102BD00011F8FFF7A1FD704700000320842C0008C6
:102BE00000000020180200201802002078020020B7
:102BF000FEE7000070B50D4D0D4C641BA4100026BF
:102C0000A64209D10B4D0C4C00F020F8641BA41017
:102C10000026A64205D170BD55F8043B9847013601
:102C2000EEE755F8043B98470136F2E77C2C0008A4
:102C30007C2C00087C2C0008802C000802440346F1
:102C4000934200D1704703F8011BF9E7F8B500BFC4
:102C5000F8BC08BC9E467047F8B500BFF8BC08BC7D
:042C60009E467047D5
:102C64000000000000000000010203040607080938
:082C740030DFFF7F01000000CA
:042C7C00D501000876
:042C8000B101000896
:102C840010000000010000001003100310031003E3
:102C9400BA02930210031704970427052705270592
:102CA400970417041704DC03700370037003DC0338
:102CB4001704DC031704700310037003100393025A
:102CC400100310031003100310031003BA0293023D
:102CD40010031704970427052705270597041704ED
:102CE4001704970497041704DC031704000000007A
:102CF4001003BA029302100317049704270517045C
:102D040000007003DC031704DC03170470031003D2
:102D1400930200001003BA029302100317049704ED
:102D2400270517041704970497041704DC031704F2
:102D340000000000FFFF00000000003F0000803E94
:102D44000000803E0000003F0000803E0000003F85
:102D54000000803E0000003F0000803E0000003F75
:102D64000000803E0000003F0000803E0000803FE5
:102D74000000003F0000803E0000003F0000803E55
:102D84000000003F0000803E0000003F0000803E45
:102D94000000003F0000803E0000003F0000803E35
:102DA4000000003F0000803E0000803F0000003F24
:102DB4000000803E0000003F0000803E0000003F15
:102DC4000000803E0000003F0000803E0000003F05
:102DD4000000803E0000003F0000803E0000003FF5
:102DE4000000803E0000803F0000803F0000803FE4
:102DF4000000803F0000803F0000803F0000004052
:102E04000000003F0000003F0000803F0000003F42
:102E14000000003F0000803E0000003F0000803EB4
:102E2400000000400000803F0000003F0000803FA1
:102E34000000003F0000003F0000803E0000003F13
:102E44000000803E000000400000803F0000003F82
:102E54000000803F0000003F0000003F0000803E73
:102E64000000003F0000803E000000400000803F62
:102E74000000803F0000803F0000803F0000803F52
:102E84000000803F000000400000803F0000803FC1
:082E94000000803F0024F4005F
:0400000508002BA123
:00000001FF
