:020000040800F2
:1000000000000320A92E0008052E0008112E00086C
:10001000172E00081D2E0008232E000800000000E7
:10002000000000000000000000000000292E000871
:10003000352E000800000000412E00084D2E00085B
:10004000F92E0008F92E0008F92E0008F92E0008F4
:10005000F92E0008F92E0008F92E0008F92E0008E4
:10006000592E0008F92E0008F92E0008F92E000874
:10007000692E0008F92E0008F92E0008F92E000854
:10008000F92E0008F92E0008F92E0008F92E0008B4
:10009000F92E0008F92E0008F92E0008F92E0008A4
:1000A000F92E0008F92E0008F92E0008F92E000894
:1000B000F92E0008F92E0008F92E0008F92E000884
:1000C000F92E0008F92E0008F92E0008F92E000874
:1000D000F92E0008F92E0008F92E0008F92E000864
:1000E000F92E0008F92E0008F92E0008F92E000854
:1000F000F92E0008F92E0008F92E0008F92E000844
:10010000F92E0008F92E0008F92E0008F92E000833
:10011000F92E0008F92E0008F92E0008F92E000823
:10012000F92E0008F92E0008F92E0008F92E000813
:10013000F92E0008F92E0008F92E0008F92E000803
:10014000F92E0008F92E0008F92E0008F92E0008F3
:10015000F92E0008F92E0008F92E0008F92E0008E3
:10016000F92E0008F92E0008F92E0008F92E0008D3
:10017000F92E0008F92E0008F92E000800000000F2
:10018000F92E0008F92E00087D2E0008F92E00082F
:10019000F92E0008F92E0008F92E0008F92E0008A3
:0C01A0000000000000000000F92E000824
:1001AC0010B5054C237833B9044B13B10448AFF3A5
:1001BC0000800123237010BD5809002000000000AE
:1001CC00542F000808B5034B1BB103490348AFF388
:1001DC00008008BD000000005C090020542F0008BE
:1001EC0053B94AB9002908BF00281CBF4FF0FF3192
:1001FC004FF0FF3000F06CB9ADF1080C6DE904CE96
:10020C0000F006F8DDF804E0DDE9022304B07047E5
:10021C002DE9F047089E0D4604468E46002B40F013
:10022C0082808A42174646D9B2FA82F24AB1C2F1AA
:10023C00200105FA02F320FA01F1974041EA030E7E
:10024C0094404FEA1748230CBEFBF8FCB9B208FBEC
:10025C001CEE43EA0E430CFB01F098420AD9FB1842
:10026C000CF1FF3580F01681984240F21381ACF10D
:10027C00020C3B441B1AA4B2B3FBF8F008FB10337E
:10028C0044EA034400FB01F1A14209D93C1900F1F5
:10029C00FF3380F00181A14240F2FE8002383C44E1
:1002AC00641A40EA0C4000211EB1D4400023C6E978
:1002BC000043BDE8F08702B9FFDEB2FA82F2002AF1
:1002CC004FD1CB1B4FEA174E1FFA87F80121B3FB16
:1002DC00FEFC250C0EFB1C3345EA034508FB0CF316
:1002EC00AB4207D97D190CF1FF3002D2AB4200F2C0
:1002FC00E7808446ED1AA3B2B5FBFEF00EFB105559
:10030C0043EA054408FB00F8A04507D93C1900F165
:10031C00FF3302D2A04500F2D7801846A4EB0804A4
:10032C0040EA0C40C0E78B4208D9002E00F0AF80A9
:10033C000021C6E900050846BDE8F087B3FA83F151
:10034C0000294BD1AB4202D3824200F2B780841A0F
:10035C0065EB030301209E46002EAAD0C6E9004E91
:10036C00A7E7C2F1200C01FA02F3974020FA0CF037
:10037C004FEA174E21FA0CFC1843BCFBFEF1050C9E
:10038C000EFB11CC1FFA87F845EA0C4501FB08F36C
:10039C00AB4204FA02F409D97D1901F1FF3C80F05B
:1003AC008B80AB4240F2888002393D44EB1A85B217
:1003BC00B3FBFEF00EFB103345EA034500FB08F3DC
:1003CC00AB4207D97D1900F1FF3C71D2AB426FD91A
:1003DC0002383D44EB1A40EA014178E7C1F1200CA8
:1003EC008B4022FA0CF71F4320FA0CF405FA01F3A8
:1003FC004FEA174E25FA0CF51C43230CB5FBFEF9FE
:10040C001FFA87F80EFB195543EA054509FB08FA54
:10041C00AA4502FA01F200FA01F308D97D1909F193
:10042C00FF3047D2AA4545D9A9F102093D44A5EBB5
:10043C000A05A4B2B5FBFEF00EFB105544EA0544C8
:10044C0000FB08F8A04507D93C1900F1FF352DD267
:10045C00A0452BD902383C4440EA0940A4EB0804DF
:10046C00A0FB02894C45C6464D4619D316D05EB149
:10047C00B3EB0E0264EB050404FA0CFCCA404CEA24
:10048C000202CC40C6E900240021BDE8F0873146C9
:10049C0030460EE7AC46EDE6184601E74345E6D29A
:1004AC00B8EB020E69EB07050138E0E72846D3E705
:1004BC0060468FE78146BAE7614677E708464BE727
:1004CC00ACF1020C3D4415E702383C4426E700BF72
:1004DC00704700BF034613F8012B002AFBD1181AF2
:1004EC000138704780B500AF0E4B1B680D4A43F4C2
:1004FC00007313600B4B1B680A4A43F48063136050
:10050C00084B1B68074A43F480731360032000F008
:10051C0047F9002000F008F802F0C6FB002318464B
:10052C0080BD00BF003C024080B582B000AF786057
:10053C00124B1A68124B1B7819464FF47A73B3FBA3
:10054C00F1F3B2FBF3F3184600F05FF90346002B0E
:10055C0001D001230EE07B680F2B0AD800227968AA
:10056C004FF0FF3000F027F9064A7B681360002338
:10057C0000E0012318460837BD4680BD5409002011
:10058C00040000200000002080B400AF054B1B7855
:10059C001A46054B1B681344034A136000BFBD4643
:1005AC0080BC7047040000207409002080B400AFA8
:1005BC00024B1B681846BD4680BC7047740900206E
:1005CC0080B584B000AF7860FFF7F0FFB8607B684F
:1005DC00FB60FB68B3F1FF3F05D00A4B1B781A4652
:1005EC00FB681344FB6000BFFFF7E0FF0246BB68EB
:1005FC00D31AFA689A42F7D800BF00BF1037BD462D
:10060C0080BD00BF0400002080B485B000AF7860CE
:10061C007B6803F00703FB600C4BDB68BB60BA68BC
:10062C004FF6FF031340BB60FB681A02BB68134311
:10063C0043F0BF6343F40033BB60044ABB68D36030
:10064C0000BF1437BD4680BC704700BF00ED00E012
:10065C0080B400AF044BDB681B0A03F00703184699
:10066C00BD4680BC704700BF00ED00E080B483B095
:10067C0000AF0346FB7197F90730002B0BDBFB79BE
:10068C0003F01F02064997F907305B09012000FAB5
:10069C0002F241F8232000BF0C37BD4680BC7047E6
:1006AC0000E100E080B483B000AF03463960FB7119
:1006BC0097F90730002B0ADB3B68DAB20C4997F943
:1006CC0007301201D2B20B4483F800230AE03B68D6
:1006DC00DAB20849FB7903F00F03043B1201D2B2E2
:1006EC000B441A7600BF0C37BD4680BC704700BF68
:1006FC0000E100E000ED00E080B489B000AFF860EC
:10070C00B9607A60FB6803F00703FB61FB69C3F116
:10071C000703042B28BF0423BB61FB690433062B9E
:10072C0002D9FB69033B00E000237B614FF0FF32F1
:10073C00BB6902FA03F3DA43BB681A407B699A403F
:10074C004FF0FF317B6901FA03F3D9437B680B400F
:10075C00134318462437BD4680BC704780B582B021
:10076C0000AF78607B68013BB3F1807F01D301233C
:10077C000FE00A4A7B68013B53600F214FF0FF30BA
:10078C00FFF790FF054B00229A60044B07221A607A
:10079C00002318460837BD4680BD00BF10E000E0BE
:1007AC0080B582B000AF78607868FFF72DFF00BF8E
:1007BC000837BD4680BD80B586B000AF0346B96032
:1007CC007A60FB7300237B61FFF742FF78617A68E4
:1007DC00B9687869FFF790FF024697F90F30114618
:1007EC001846FFF75FFF00BF1837BD4680BD80B5C8
:1007FC0082B000AF0346FB7197F907301846FFF73C
:10080C0035FF00BF0837BD4680BD80B582B000AF54
:10081C0078607868FFF7A2FF034618460837BD4694
:10082C0080BD000080B586B000AF786000237B618E
:10083C00FFF7BCFE38617B68002B01D1012399E0E6
:10084C007B68002283F834207B68022283F83520F1
:10085C007B681B681A687B681B6822F001021A60AF
:10086C000FE0FFF7A3FE02463B69D31A052B08D90C
:10087C007B6820225A657B68032283F8352003238A
:10088C0078E07B681B681B6803F00103002BE8D140
:10089C007B681B681B687B617A69384B13407B61F2
:1008AC007B685A687B689B681A437B68DB681A43D1
:1008BC007B681B691A437B685B691A437B689B697D
:1008CC001A437B68DB691A437B681B6A13437A699A
:1008DC0013437B617B685B6A042B07D17B68DA6A04
:1008EC007B681B6B13437A6913437B617B681B68C2
:1008FC007A691A607B681B685B697B617B6923F092
:10090C0007037B617B685B6A7A6913437B617B6855
:10091C005B6A042B17D17B689B6A7A6913437B61F2
:10092C007B68DB6A002B0ED0786800F08FFA0346E8
:10093C00002B08D07B6840225A657B68012283F823
:10094C003520012316E07B681B687A695A61786848
:10095C0000F048FA0346FB607B68DB6D3F229A404F
:10096C00FB689A607B6800225A657B68012283F8D9
:10097C003520002318461837BD4680BD3F8010F047
:10098C0080B586B000AFF860B9607A603B60002338
:10099C00FB75FB689B6D3B61FB6893F83430012B56
:1009AC0001D1022340E0FB68012283F83420FB686C
:1009BC0093F83530DBB2012B2FD1FB68022283F880
:1009CC003520FB6800225A653B687A68B968F8687C
:1009DC0000F0DAF9FB68DB6D3F229A403B699A60C4
:1009EC00FB681B681A68FB681B6842F016021A60E9
:1009FC00FB681B6C002B07D0FB681B681A68FB6834
:100A0C001B6842F008021A60FB681B681A68FB68D6
:100A1C001B6842F001021A6005E0FB68002283F8B3
:100A2C0034200223FB75FB7D18461837BD4680BD6C
:100A3C0080B483B000AF78607B6893F83530DBB25C
:100A4C00022B04D07B6880225A6501230CE07B6862
:100A5C00052283F835207B681B681A687B681B6845
:100A6C0022F001021A60002318460C37BD4680BCE8
:100A7C007047000080B586B000AF78600023BB6083
:100A8C00924B1B68924AA2FB03239B0A7B617B68F7
:100A9C009B6D3B613B691B68FB607B68DB6D0822CF
:100AAC009A40FB681340002B1AD07B681B681B68AC
:100ABC0003F00403002B13D07B681B681A687B6857
:100ACC001B6822F004021A607B68DB6D08229A40D6
:100ADC003B699A607B685B6D43F001027B685A65E9
:100AEC007B68DB6D01229A40FB681340002B12D00F
:100AFC007B681B685B6903F08003002B0BD07B6861
:100B0C00DB6D01229A403B699A607B685B6D43F018
:100B1C0002027B685A657B68DB6D04229A40FB6895
:100B2C001340002B12D07B681B681B6803F0020378
:100B3C00002B0BD07B68DB6D04229A403B699A60DA
:100B4C007B685B6D43F004027B685A657B68DB6DE8
:100B5C0010229A40FB681340002B43D07B681B6823
:100B6C001B6803F00803002B3CD07B68DB6D102264
:100B7C009A403B699A607B681B681B6803F480236E
:100B8C00002B18D07B681B681B6803F40023002B18
:100B9C0008D17B681B6C002B24D07B681B6C78689D
:100BAC0098471FE07B689B6C002B1BD07B689B6C71
:100BBC007868984716E07B681B681B6803F48073A1
:100BCC00002B07D17B681B681A687B681B6822F0B6
:100BDC0008021A607B681B6C002B03D07B681B6CB3
:100BEC00786898477B68DB6D20229A40FB6813403D
:100BFC00002B00F08E807B681B681B6803F01003D1
:100C0C00002B00F086807B68DB6D20229A403B69CC
:100C1C009A607B6893F83530DBB2052B36D17B6854
:100C2C001B681A687B681B6822F016021A607B68C6
:100C3C001B685A697B681B6822F080025A617B68CA
:100C4C001B6C002B03D17B689B6C002B07D07B6843
:100C5C001B681A687B681B6822F008021A607B68A4
:100C6C00DB6D3F229A403B699A607B68002283F8D7
:100C7C0034207B68012283F835207B681B6D002BA8
:100C8C007DD07B681B6D7868984778E07B681B6823
:100C9C001B6803F48023002B1CD07B681B681B682B
:100CAC0003F40023002B08D17B685B6C002B30D045
:100CBC007B685B6C786898472BE07B68DB6B002B60
:100CCC0027D07B68DB6B7868984722E054090020BA
:100CDC00B5814E1B7B681B681B6803F48073002B6B
:100CEC000FD17B681B681A687B681B6822F01002A6
:100CFC001A607B68002283F834207B68012283F819
:100D0C0035207B68DB6B002B03D07B68DB6B786852
:100D1C0098477B685B6D002B32D07B685B6D03F072
:100D2C000103002B22D07B68052283F835207B68D9
:100D3C001B681A687B681B6822F001021A60BB688A
:100D4C000133BB607A699A4207D37B681B681B68C6
:100D5C0003F00103002BF2D100E000BF7B680022FE
:100D6C0083F834207B68012283F835207B68DB6CA8
:100D7C00002B05D07B68DB6C7868984700E000BFDF
:100D8C001837BD4680BD00BF80B485B000AFF86099
:100D9C00B9607A603B60FB681B681A68FB681B686B
:100DAC0022F480221A60FB681B683A685A60FB6860
:100DBC009B68402B08D1FB681B687A689A60FB68BB
:100DCC001B68BA68DA6007E0FB681B68BA689A604F
:100DDC00FB681B687A68DA6000BF1437BD4680BCBC
:100DEC007047000080B485B000AF78607B681B68EA
:100DFC00DBB2103B134AA2FB03231B09FB60124A14
:100E0C00FB6813441B781A467B68DA65FB68032B76
:100E1C0009D97B681B6823F47F7323F003031A1D25
:100E2C007B689A6507E07B681B6823F47F7323F06B
:100E3C0003037A6893657B689B6D18461437BD462F
:100E4C0080BC7047ABAAAAAA6C2F000880B485B0EE
:100E5C0000AF78600023FB737B689B6ABB607B6888
:100E6C009B69002B1FD1BB68032B56D801A252F8EB
:100E7C0023F000BF910E0008A30E0008910E00088D
:100E8C00270F00087B68DB6A03F08073002B46D0C9
:100E9C000123FB7343E07B68DB6AB3F1C07F40D175
:100EAC000123FB733DE07B689B69B3F5005F21D1A7
:100EBC00BB68032B37D801A252F823F0D90E0008D7
:100ECC00DF0E0008D90E0008F10E00080123FB7399
:100EDC0030E07B68DB6A03F08073002B25D00123A4
:100EEC00FB7322E07B68DB6AB3F1C07F1FD1012367
:100EFC00FB731CE0BB68022B03D9BB68032B03D02C
:100F0C0018E00123FB7315E07B68DB6A03F0807348
:100F1C00002B0ED00123FB730BE000BF0AE000BFD7
:100F2C0008E000BF06E000BF04E000BF02E000BF25
:100F3C0000E000BFFB7B18461437BD4680BC7047F1
:100F4C0080B489B000AF7860396000237B610023E6
:100F5C003B610023BB610023FB6177E10122FB694C
:100F6C0002FA03F37B613B681B687A6913403B61AF
:100F7C003A697B699A4240F066813B685B68012B59
:100F8C000BD03B685B68022B07D03B685B68112B6E
:100F9C0003D03B685B68122B30D17B689B68BB61CC
:100FAC00FB695B00032202FA03F3DB43BA691340CB
:100FBC00BB613B68DA68FB695B0002FA03F3BA6950
:100FCC001343BB617B68BA699A607B685B68BB61E1
:100FDC000122FB6902FA03F3DB43BA691340BB61DC
:100FEC003B685B681B0903F00102FB6902FA03F31F
:100FFC00BA691343BB617B68BA695A607B68DB686A
:10100C00BB61FB695B00032202FA03F3DB43BA69A1
:10101C001340BB613B689A68FB695B0002FA03F3FF
:10102C00BA691343BB617B68BA69DA603B685B6879
:10103C00022B03D03B685B68122B23D1FB69DA08C7
:10104C007B68083253F82230BB61FB6903F007035D
:10105C009B000F2202FA03F3DB43BA691340BB6116
:10106C003B681A69FB6903F007039B0002FA03F360
:10107C00BA691343BB61FB69DA087B680832B9694A
:10108C0043F822107B681B68BB61FB695B00032281
:10109C0002FA03F3DB43BA691340BB613B685B683C
:1010AC0003F00302FB695B0002FA03F3BA69134312
:1010BC00BB617B68BA691A603B685B6803F080535C
:1010CC00002B00F0C0800023FB60654B5B6C644A16
:1010DC0043F480435364624B5B6C03F48043FB60CA
:1010EC00FB68604AFB699B08023352F82330BB61F2
:1010FC00FB6903F003039B000F2202FA03F3DB43AB
:10110C00BA691340BB617B68574A934237D07B68FE
:10111C00564A934231D07B68554A93422BD07B6818
:10112C00544A934225D07B68534A93421FD07B6824
:10113C00524A934219D07B68514A934213D07B6830
:10114C00504A93420DD07B684F4A934207D07B683C
:10115C004E4A934201D1092312E00A2310E00823DE
:10116C000EE007230CE006230AE0052308E0042325
:10117C0006E0032304E0022302E0012300E0002345
:10118C00FA6902F0030292009340BA691343BB61FF
:10119C003449FB699B080233BA6941F823203C4B64
:1011AC001B68BB613B69DB43BA691340BB613B689D
:1011BC005B6803F48033002B03D0BA693B6913439B
:1011CC00BB61334ABB691360314B5B68BB613B69E4
:1011DC00DB43BA691340BB613B685B6803F40033C3
:1011EC00002B03D0BA693B691343BB61284ABB6926
:1011FC005360274B9B68BB613B69DB43BA69134067
:10120C00BB613B685B6803F48013002B03D0BA69A5
:10121C003B691343BB611E4ABB6993601C4BDB6883
:10122C00BB613B69DB43BA691340BB613B685B68DC
:10123C0003F40013002B03D0BA693B691343BB6161
:10124C00134ABB69D360FB690133FB61FB690F2B4C
:10125C007FF684AE00BF00BF2437BD4680BC70470C
:10126C0000380240003801400000024000040240F7
:10127C0000080240000C0240001002400014024022
:10128C0000180240001C02400020024000240240D2
:10129C00003C014080B483B000AF78600B467B808B
:1012AC0013467B707B78002B03D07A887B689A611D
:1012BC0003E07B881A047B689A6100BF0C37BD463B
:1012CC0080BC704780B483B000AF78600B467B80E5
:1012DC007B685A697B881A407B889A4204D17B8848
:1012EC001A047B689A6102E07A887B689A6100BF75
:1012FC000C37BD4680BC704780B582B000AF03464A
:10130C00FB80084B5A69FB881340002B06D0054A1A
:10131C00FB885361FB88184601F084FB00BF08373B
:10132C00BD4680BD003C014080B586B000AF786002
:10133C007B68002B01D101235BE27B681B6803F007
:10134C000103002B75D0A34B9B6803F00C03042BFB
:10135C000CD0A04B9B6803F00C03082B12D19D4BB7
:10136C005B6803F48003B3F5800F0BD1994B1B68BA
:10137C0003F40033002B5BD07B685B68002B57D1E8
:10138C00012336E27B685B68B3F5803F06D1914B55
:10139C001B68904A43F4803313601DE07B685B68E4
:1013AC00B3F5A02F0CD18B4B1B688A4A43F48023D6
:1013BC001360884B1B68874A43F4803313600BE03F
:1013CC00844B1B68834A23F480331360814B1B6866
:1013DC00804A23F4802313607B685B68002B13D056
:1013EC00FFF7E4F8386108E0FFF7E0F802463B69E4
:1013FC00D31A642B01D90323FBE1764B1B6803F44E
:10140C000033002BF0D014E0FFF7D0F8386108E07F
:10141C00FFF7CCF802463B69D31A642B01D903239E
:10142C00E7E16C4B1B6803F40033002BF0D100E0B8
:10143C0000BF7B681B6803F00203002B63D0654B75
:10144C009B6803F00C03002B0BD0624B9B6803F0E2
:10145C000C03082B1CD15F4B5B6803F48003002B3F
:10146C0016D15C4B1B6803F00203002B05D07B6884
:10147C00DB68012B01D00123BBE1564B1B6823F029
:10148C00F8027B681B69DB00524913430B603AE09E
:10149C007B68DB68002B20D04F4B01221A60FFF7D2
:1014AC0085F8386108E0FFF781F802463B69D31AEA
:1014BC00022B01D903239CE1464B1B6803F002036A
:1014CC00002BF0D0434B1B6823F0F8027B681B69A0
:1014DC00DB00404913430B6015E03F4B00221A60C0
:1014EC00FFF764F8386108E0FFF760F802463B69E3
:1014FC00D31A022B01D903237BE1364B1B6803F073
:10150C000203002BF0D17B681B6803F00803002B4F
:10151C0030D07B685B69002B16D0304B01221A60EF
:10152C00FFF744F8386108E0FFF740F802463B69E2
:10153C00D31A022B01D903235BE1264B5B6F03F01B
:10154C000203002BF0D015E0244B00221A60FFF7A9
:10155C002DF8386108E0FFF729F802463B69D31AE9
:10156C00022B01D9032344E11A4B5B6F03F00203F6
:10157C00002BF0D17B681B6803F00403002B00F0F8
:10158C00A0800023FB75134B1B6C03F08053002BC6
:10159C000FD10023BB600F4B1B6C0E4A43F08053E2
:1015AC0013640C4B1B6C03F08053BB60BB680123B2
:1015BC00FB750B4B1B6803F48073002B21D1084B7C
:1015CC001B68074A43F480731360FEF7EFFF386122
:1015DC0011E000BF0038024000004742800E474235
:1015EC0000700040FEF7E2FF02463B69D31A022B63
:1015FC0001D90323FDE0814B1B6803F48073002B9E
:10160C00F0D07B689B68012B06D17D4B1B6F7C4A0D
:10161C0043F0010313671CE07B689B68052B0CD11E
:10162C00774B1B6F764A43F004031367744B1B6FA5
:10163C00734A43F0010313670BE0714B1B6F704A45
:10164C0023F0010313676E4B1B6F6D4A23F00403E9
:10165C0013677B689B68002B15D0FEF7A7FF3861DA
:10166C000AE0FEF7A3FF02463B69D31A41F2883227
:10167C00934201D90323BCE0614B1B6F03F00203BF
:10168C00002BEED014E0FEF791FF38610AE0FEF774
:10169C008DFF02463B69D31A41F28832934201D93D
:1016AC000323A6E0564B1B6F03F00203002BEED175
:1016BC00FB7D012B05D1524B1B6C514A23F08053FF
:1016CC0013647B689B69002B00F092804C4B9B68E9
:1016DC0003F00C03082B5CD07B689B69022B41D177
:1016EC00484B00221A60FEF761FF386108E0FEF7F4
:1016FC005DFF02463B69D31A022B01D9032378E024
:10170C003F4B1B6803F00073002BF0D17B68DA6948
:10171C007B681B6A1A437B685B6A9B011A437B6874
:10172C009B6A5B08013B1B041A437B68DB6A1B0644
:10173C00334913434B60334B01221A60FEF736FFDB
:10174C00386108E0FEF732FF02463B69D31A022BE0
:10175C0001D903234DE02A4B1B6803F00073002BC7
:10176C00F0D045E0274B00221A60FEF71FFF3861CE
:10177C0008E0FEF71BFF02463B69D31A022B01D986
:10178C00032336E01E4B1B6803F00073002BF0D1D3
:10179C002EE07B689B69012B01D1012329E0184BBA
:1017AC005B68FB60FB6803F480027B68DB699A4230
:1017BC001CD1FB6803F03F027B681B6A9A4215D16F
:1017CC00FA6847F6C07313407A68526A93420DD197
:1017DC00FB6803F440327B689B6A9A4206D1FB6833
:1017EC0003F070627B68DB6A9A4201D0012300E04F
:1017FC00002318461837BD4680BD00BF007000405E
:10180C00003802406000474280B584B000AF786079
:10181C0039607B68002B01D10123CCE0684B1B683D
:10182C0003F00F033A689A420CD9654B3A68D2B26E
:10183C001A70634B1B6803F00F033A689A4201D08D
:10184C000123B8E07B681B6803F00203002B20D057
:10185C007B681B6803F00403002B05D0594B9B6875
:10186C00584A43F4E05393607B681B6803F0080309
:10187C00002B05D0534B9B68524A43F46043936052
:10188C00504B9B6823F0F0027B689B684D491343D7
:10189C008B607B681B6803F00103002B44D07B68D2
:1018AC005B68012B07D1474B1B6803F40033002BFB
:1018BC0019D101237FE07B685B68022B03D07B6826
:1018CC005B68032B07D13F4B1B6803F00073002BA5
:1018DC0009D101236FE03B4B1B6803F00203002B83
:1018EC0001D1012367E0374B9B6823F003027B682F
:1018FC005B68344913438B60FEF758FEF8600AE0CE
:10190C00FEF754FE0246FB68D31A41F2883293422A
:10191C0001D903234FE02B4B9B6803F00C027B682F
:10192C005B689B009A42EBD1254B1B6803F00F03BD
:10193C003A689A420CD2224B3A68D2B21A70204BB7
:10194C001B6803F00F033A689A4201D0012332E07E
:10195C007B681B6803F00403002B08D0194B9B68B1
:10196C0023F4E0527B68DB68164913438B607B6879
:10197C001B6803F00803002B09D0124B9B6823F45F
:10198C0060427B681B69DB000E4913438B6000F0DF
:10199C0021F802460B4B9B681B0903F00F030A4905
:1019AC00CB5C22FA03F3094A1360094B1B681846F7
:1019BC00FEF7BAFD002318461037BD4680BD00BFA8
:1019CC00003C024000380240742F000854090020EB
:1019DC0000000020B0B584B000AF00217960002178
:1019EC00F960002139600021B9605249896801F021
:1019FC000C0108290DD0082900F29480002902D08E
:101A0C00042903D08EE04C4BBB608EE04B4BBB608B
:101A1C008BE04849496801F03F01796045494968C4
:101A2C0001F48001002924D04249496889090846FB
:101A3C004FF0000140F2FF144FF0000500EA0402E1
:101A4C0001EA05033D4901FB03F0002101FB02F112
:101A5C0044183A49A2FB0101631819467B681A46DF
:101A6C004FF00003FEF7BCFB02460B461346FB602F
:101A7C004AE0304B5B689B091A464FF0000340F27A
:101A8C00FF104FF0000102EA000403EA01052046B2
:101A9C0029464FF000024FF000034B0143EAD0639C
:101AAC00420110461946001B61EB05014FF0000284
:101ABC004FF000038B0143EA90638201121A63EB2F
:101ACC0001034FF000004FF00001D90041EA5271C0
:101ADC00D00002460B46121945EB03034FF00000F1
:101AEC004FF00001990241EA9251900202460B46D6
:101AFC00104619467B681A464FF00003FEF770FB40
:101B0C0002460B461346FB600A4B5B681B0C03F04A
:101B1C00030301335B003B60FA683B68B2FBF3F3F1
:101B2C00BB6002E0044BBB6000BFBB6818461037BB
:101B3C00BD46B0BD003802400024F40040787D0161
:101B4C0080B400AF024B1B681846BD4680BC704782
:101B5C005409002080B500AFFFF7F2FF0246054B99
:101B6C009B689B0A03F007030349CB5C22FA03F33F
:101B7C00184680BD00380240842F000880B500AFA5
:101B8C00FFF7DEFF0246054B9B685B0B03F0070378
:101B9C000349CB5C22FA03F3184680BD003802409F
:101BAC00842F000880B582B000AF78607B68002B72
:101BBC0001D101233FE07B6893F83930DBB2002B75
:101BCC0006D17B68002283F83820786801F092F8FF
:101BDC007B68242283F839207B681B68DA687B6871
:101BEC001B6822F40052DA60786800F065FB7B68B1
:101BFC001B681A697B681B6822F490421A617B6827
:101C0C001B685A697B681B6822F02A025A617B6840
:101C1C001B68DA687B681B6842F40052DA607B68E8
:101C2C000022DA637B68202283F839207B6820222B
:101C3C0083F83A20002318460837BD4680BD0000C3
:101C4C0080B586B000AFF860B9601346FB80FB68C6
:101C5C0093F83930DBB2202B53D1BB68002B02D068
:101C6C00FB88002B01D101234CE0FB6893F8383042
:101C7C00012B01D1022345E0FB68012283F83820B7
:101C8C00BA68FB681A62FB68FA889A84FB68FA885F
:101C9C00DA84FB680022DA63FB68212283F839209E
:101CAC00FB681B6B194ADA63FB681B6B184A1A64D6
:101CBC00FB681B6B174ADA64FB681B6B00221A6506
:101CCC0007F108037B61FB68186B7B691968FB687B
:101CDC001B6804331A46FB88FEF752FEFB681B6830
:101CEC006FF040021A60FB68002283F83820FB6812
:101CFC001B685A69FB681B6842F080025A6100231A
:101D0C0000E0022318461837BD4680BD5B1F000853
:101D1C00AD1F0008C91F000880B588B000AF7860FF
:101D2C007B681B681B68FB617B681B68DB68BB619D
:101D3C007B681B685B697B6100233B610023FB6054
:101D4C00FB6903F00F033B613B69002B0DD1FB6971
:101D5C0003F02003002B08D0BB6903F02003002BF9
:101D6C0003D0786800F027FAD0E03B69002B00F034
:101D7C00B0807B6903F00103002B05D1BB6903F430
:101D8C009073002B00F0A580FB6903F00103002B7E
:101D9C000AD0BB6903F48073002B05D07B68DB6B26
:101DAC0043F001027B68DA63FB6903F00403002B48
:101DBC000AD07B6903F00103002B05D07B68DB6B39
:101DCC0043F002027B68DA63FB6903F00203002B29
:101DDC000AD07B6903F00103002B05D07B68DB6B19
:101DEC0043F004027B68DA63FB6903F00803002B01
:101DFC000FD0BB6903F02003002B04D17B6903F0E7
:101E0C000103002B05D07B68DB6B43F008027B6879
:101E1C00DA637B68DB6B002B77D0FB6903F0200364
:101E2C00002B07D0BB6903F02003002B02D078688D
:101E3C0000F0C1F97B681B685B6903F04003402B21
:101E4C000CBF01230023DBB2FB607B68DB6B03F070
:101E5C000803002B02D1FB68002B31D0786800F00E
:101E6C000CF97B681B685B6903F04003402B23D1A2
:101E7C007B681B685A697B681B6822F040025A61B8
:101E8C007B685B6B002B13D07B685B6B214A1A65FC
:101E9C007B685B6B1846FEF7CBFD0346002B16D018
:101EAC007B685B6B1B6D7A68526B104698470EE033
:101EBC00786800F043F80AE0786800F03FF806E034
:101ECC00786800F03BF87B680022DA631DE000BF05
:101EDC001BE0FB6903F08003002B08D0BB6903F007
:101EEC008003002B03D0786800F0F8F80EE0FB6953
:101EFC0003F04003002B09D0BB6903F04003002B17
:101F0C0004D0786800F03FF900E000BF2037BD46F0
:101F1C0080BD00BFC120000880B483B000AF7860E2
:101F2C0000BF0C37BD4680BC704780B483B000AF97
:101F3C00786000BF0C37BD4680BC704780B483B05E
:101F4C0000AF786000BF0C37BD4680BC704780B5D1
:101F5C0084B000AF78607B689B6BFB607B681B6810
:101F6C001B6803F48073002B13D1FB680022DA8406
:101F7C00FB681B685A69FB681B6822F080025A6177
:101F8C00FB681B68DA68FB681B6842F04002DA6089
:101F9C0002E0F86800F064FD00BF1037BD4680BD5C
:101FAC0080B584B000AF78607B689B6BFB60F86891
:101FBC00FFF7B2FF00BF1037BD4680BD80B584B0BF
:101FCC0000AF78600023FB607B689B6BBB60BB68D9
:101FDC001B685B6903F08003802B0CBF012300237B
:101FEC00DBB2FB60BB6893F83930DBB2212B08D134
:101FFC00FB68002B05D0BB680022DA84B86800F0BF
:10200C0027F8BB681B685B6903F04003402B0CBFCF
:10201C0001230023DBB2FB60BB6893F83A30DBB2E0
:10202C00222B08D1FB68002B05D0BB680022DA8577
:10203C00B86800F022F8BB68DB6B43F01002BB6899
:10204C00DA63B868FFF77AFF00BF1037BD4680BD72
:10205C0080B483B000AF78607B681B68DA687B68FB
:10206C001B6822F0C002DA607B68202283F83920DA
:10207C0000BF0C37BD4680BC704780B483B000AF46
:10208C0078607B681B68DA687B681B6822F4907246
:10209C00DA607B681B685A697B681B6822F0010256
:1020AC005A617B68202283F83A2000BF0C37BD466A
:1020BC0080BC704780B584B000AF78607B689B6B48
:1020CC00FB60FB680022DA85FB680022DA84F86882
:1020DC00FFF734FF00BF1037BD4680BD80B485B01C
:1020EC0000AF78607B6893F83930DBB2212B44D198
:1020FC007B689B68B3F5805F1AD17B681B6AFB60B9
:10210C00FB681B881A467B681B68C2F308025A607E
:10211C007B681B69002B05D17B681B6A9A1C7B684A
:10212C001A620EE07B681B6A5A1C7B681A6208E014
:10213C007B681B6A591C7A6811621A787B681B6869
:10214C005A607B68DB8C9BB2013B9BB27A68194668
:10215C00D184002B0FD17B681B68DA687B681B6805
:10216C0022F08002DA607B681B68DA687B681B6887
:10217C0042F04002DA60002300E0022318461437D4
:10218C00BD4680BC704780B582B000AF78607B687C
:10219C001B68DA687B681B6822F04002DA607B6897
:1021AC00202283F83920786800F05AFC0023184666
:1021BC000837BD4680BD80B584B000AF78607B68C1
:1021CC0093F83A30DBB2222B71D17B689B68B3F564
:1021DC00805F23D17B689B6AFB607B681B69002B4B
:1021EC000ED17B681B685B689BB2C3F308039AB281
:1021FC00FB681A807B689B6A9A1C7B689A6229E050
:10220C007B681B685B689BB2DBB29AB2FB681A8076
:10221C007B689B6A5A1C7B689A621BE07B681B6913
:10222C00002B0AD17B681B6858687B689B6A591C19
:10223C007A689162C2B21A700CE07B681B685B68AA
:10224C00DAB27B689B6A581C7968886202F07F025C
:10225C00D2B21A707B68DB8D9BB2013B9BB27A6861
:10226C001946D185002B20D17B681B68DA687B6806
:10227C001B6822F02002DA607B681B68DA687B68D6
:10228C001B6822F48072DA607B681B685A697B6871
:10229C001B6822F001025A617B68202283F83A20E5
:1022AC007868FFF742FE002302E0002300E00223DF
:1022BC0018461037BD4680BD2DE9F04FBDB000AFBC
:1022CC00C7F8E400D7F8E4301B681B6923F44050CE
:1022DC00D7F8E430D968D7F8E4301A6840EA01033B
:1022EC001361D7F8E4309A68D7F8E4301B691A43C5
:1022FC00D7F8E4305B691A43D7F8E430DB69134351
:10230C00C7F8EC30D7F8E4301B68DB6823F41641CF
:10231C0021F00C01D7F8E4301A68D7F8EC300B43F5
:10232C00D360D7F8E4301B685B6923F44070D7F8AE
:10233C00E4309969D7F8E4301A6840EA0103536134
:10234C00D7F8E430DB69B3F5004F40F0A681D7F83D
:10235C00E4301A686A4B9A4206D0D7F8E4301A680F
:10236C00684B9A4240F0D280FFF708FCC7F8E800AF
:10237C00D7F8E8301C464FF0000522462B46911842
:10238C00C7F888105B41C7F88C30D7E922231219A3
:10239C0045EB03034FF000004FF00001D90041EA78
:1023AC005271D00002460B461119C7F8D8106B4178
:1023BC00C7F8DC30D7F8E4305B681A464FF00003FE
:1023CC009118C7F880105B41C7F88430D7E92023F7
:1023DC00D7E93601FDF704FF02460B464A4BA3FB37
:1023EC0002235B091E01D7F8E8301C464FF00005AC
:1023FC0022462B469118B9675B41FB67D7E91E2330
:10240C00121945EB03034FF000004FF00001D90007
:10241C0041EA5271D00002460B461119C7F8D01090
:10242C006B41C7F8D430D7F8E4305B681A464FF0EC
:10243C000003911839675B417B67D7E91C23D7E907
:10244C003401FDF7CDFE02460B462F4BA3FB0213C6
:10245C005B09642101FB03F3D31ADB0032332A4AF4
:10246C00A2FB03235B095B0003F4F8731E44D7F84B
:10247C00E83018464FF0000102460B469418BC6633
:10248C005B41FB66D7E91A23121841EB03034FF0AB
:10249C0000044FF00005DD0045EA5275D4002246D9
:1024AC002B461418C7F8C8404B41C7F8CC30D7F8A6
:1024BC00E4305B681A464FF00003911839665B41B3
:1024CC007B66D7E91823D7E93201FDF789FE02466E
:1024DC000B460D4BA3FB02135B09642101FB03F3B9
:1024EC00D31ADB003233084AA2FB03235B0903F047
:1024FC000702D7F8E4301B6832449A6074E200BFDC
:10250C0000100140001401401F85EB51FFF722FB26
:10251C00C7F8E800D7F8E8301C464FF00005224613
:10252C002B469118B9655B41FB65D7E91623121947
:10253C0045EB03034FF000004FF00001D90041EAD6
:10254C005271D00002460B461119C7F8C0106B41EE
:10255C00C7F8C430D7F8E4305B681A464FF0000374
:10256C00911839655B417B65D7E91423D7E93001B4
:10257C00FDF736FE02460B46B34BA3FB02235B0969
:10258C001E01D7F8E8301C464FF0000522462B46BA
:10259C009118B9645B41FB64D7E91223121945EB1E
:1025AC0003034FF000004FF00001D90041EA5271D3
:1025BC00D00002460B461119C7F8B8106B41C7F88A
:1025CC00BC30D7F8E4305B681A464FF00003911822
:1025DC0039645B417B64D7E91023D7E92E01FDF701
:1025EC00FFFD02460B46984BA3FB02135B096421CB
:1025FC0001FB03F3D31ADB003233934AA2FB032310
:10260C005B095B0003F4F8731E44D7F8E8301846F6
:10261C004FF0000102460B469418BC635B41FB6310
:10262C00D7E90E23121841EB03034FF000044FF0CF
:10263C000005DD0045EA5275D40022462B461418DD
:10264C00C7F8B0404B41C7F8B430D7F8E4305B68FA
:10265C001A464FF00003911839635B417B63D7E94D
:10266C000C23D7E92C01FDF7BBFD02460B46764B3C
:10267C00A3FB02135B09642101FB03F3D31ADB00F8
:10268C003233714AA2FB03235B0903F00702D7F82C
:10269C00E4301B6832449A60A6E1D7F8E4301A683B
:1026AC006A4B9A4206D0D7F8E4301A68684B9A42C3
:1026BC0040F0D080FFF762FAC7F8E800D7F8E830AE
:1026CC001C464FF0000522462B469118B9625B411F
:1026DC00FB62D7E90A23121945EB03034FF0000004
:1026EC004FF00001D90041EA5271D00002460B466E
:1026FC0012EB040A43EB050BD7F8E4305B68184681
:10270C004FF000014FF000024FF000038B0043EA42
:10271C009073820050465946FDF762FD02460B4607
:10272C00494BA3FB02235B091E01D7F8E83018467E
:10273C004FF0000102460B4694183C625B417B62F1
:10274C00D7E90823121841EB03034FF000044FF0B4
:10275C000005DD0045EA5275D40022462B461418BC
:10276C00C7F8A8404B41C7F8AC30D7F8E4305B68E9
:10277C0018464FF000014FF000024FF000038B00A1
:10278C0043EA90738200D7E92A01FDF729FD02463E
:10279C000B462D4BA3FB02135B09642101FB03F3D6
:1027AC00D31A1B013233284AA2FB03235B0903F023
:1027BC00F0031E44D7F8E83018464FF000010246EB
:1027CC000B469418BC615B41FB61D7E906231218D8
:1027DC0041EB03034FF000044FF00005DD0045EA28
:1027EC005275D40022462B461418C7F8A0404B4112
:1027FC00C7F8A430D7F8E4305B6818464FF00001F6
:10280C004FF000024FF000038B0043EA90738200FC
:10281C00D7E92801FDF7E4FC02460B460A4BA3FB63
:10282C0002135B09642101FB03F3D31A1B0132333E
:10283C00054AA2FB03235B0903F00F02D7F8E4302F
:10284C001B6832449A60CFE01F85EB5100100140A9
:10285C0000140140FFF77EF9C7F8E800D7F8E8301C
:10286C001C464FF0000522462B46911839615B41FE
:10287C007B61D7E90423121945EB03034FF00000E9
:10288C004FF00001D90041EA5271D00002460B46CC
:10289C0012EB040843EB0509D7F8E4305B681846E3
:1028AC004FF000014FF000024FF000038B0043EAA1
:1028BC009073820040464946FDF792FC02460B4657
:1028CC004C4BA3FB02235B091E01D7F8E8301846DA
:1028DC004FF0000102460B469418BC605B41FB6054
:1028EC00D7E90223121841EB03034FF000044FF019
:1028FC000005DD0045EA5275D40022462B4614181B
:10290C00C7F898404B41C7F89C30D7F8E4305B6867
:10291C0018464FF000014FF000024FF000038B00FF
:10292C0043EA90738200D7E92601FDF759FC024671
:10293C000B46304BA3FB02135B09642101FB03F331
:10294C00D31A1B0132332B4AA2FB03235B0903F07E
:10295C00F0031E44D7F8E83018464FF00001024649
:10296C000B4694183C605B417B60D7E9002312183E
:10297C0041EB03034FF000044FF00005DD0045EA86
:10298C005275D40022462B461418C7F890404B4180
:10299C00C7F89430D7F8E4305B6818464FF0000164
:1029AC004FF000024FF000038B0043EA907382005B
:1029BC00D7E92401FDF714FC02460B460D4BA3FB93
:1029CC0002135B09642101FB03F3D31A1B0132339D
:1029DC00084AA2FB03235B0903F00F02D7F8E4308B
:1029EC001B6832449A60FFE700BFF437BD46BDE870
:1029FC00F08F00BF1F85EB5180B500AFFDF772FD66
:102A0C0000F046F800F0EEF800F0CCF800F0A0F87A
:102A1C0001224FF400610248FEF73CFCFEE700BFC8
:102A2C000010024080B582B000AF0346FB80FB88EB
:102A3C00042B0DD14FF4FA70FDF7C2FD0648FDF7DB
:102A4C0049FD03469BB21A4603490448FFF7F8F8C0
:102A5C0000BF0837BD4680BD080000207809002063
:102A6C0080B582B000AF78604FF400610748FEF784
:102A7C0029FCC820FDF7A4FD4FF400610348FEF7C4
:102A8C0021FC00BF0837BD4680BD00BF00100240CE
:102A9C0080B594B000AF07F1200330220021184616
:102AAC0000F04AFA07F10C0300221A605A609A608F
:102ABC00DA601A610023BB60234B1B6C224A43F083
:102ACC0080531364204B1B6C03F08053BB60BB68BA
:102ADC0000237B601D4B1B6823F440431B4A43F4CB
:102AEC0080431360194B1B6803F440437B607B6885
:102AFC0002233B620123FB6210233B630023BB6375
:102B0C0007F120031846FEF70FFC0346002B01D0FB
:102B1C0000F0C4F80F23FB6000233B6100237B61B2
:102B2C000023BB610023FB6107F10C030021184655
:102B3C00FEF76AFE0346002B01D000F0AFF800BF91
:102B4C005037BD4680BD00BF0038024000700040C9
:102B5C0080B500AF114B124A1A60104B4FF4E132A2
:102B6C005A600E4B00229A600C4B0022DA600B4B21
:102B7C0000221A61094B0C225A61084B00229A61FF
:102B8C00064B0022DA610548FFF70CF80346002BD0
:102B9C0001D000F083F800BF80BD00BF7809002091
:102BAC000078004080B582B000AF00237B600C4BF6
:102BBC001B6B0B4A43F400131363094B1B6B03F49D
:102BCC0000137B607B68002201210C20FDF7F3FDD4
:102BDC000C20FDF70CFE00BF0837BD4680BD00BFC2
:102BEC000038024080B588B000AF07F10C0300221A
:102BFC001A605A609A60DA601A610023BB60234B3A
:102C0C001B6B224A43F002031363204B1B6B03F034
:102C1C000203BB60BB6800237B601C4B1B6B1B4A15
:102C2C0043F010031363194B1B6B03F010037B6011
:102C3C007B6800224FF400611548FEF72BFB042340
:102C4C00FB60144B3B6100237B6107F10C031946BD
:102C5C001148FEF775F94FF40063FB6001233B61EB
:102C6C0000237B610023BB6107F10C031946084864
:102C7C00FEF766F9002201210820FDF79CFD0820D3
:102C8C00FDF7B5FD00BF2037BD4680BD00380240C2
:102C9C0000100240000011100004024080B400AF8C
:102CAC0000BFBD4680BC704780B483B000AF00232A
:102CBC007B600F4B5B6C0E4A43F4804353640C4BAC
:102CCC005B6C03F480437B607B6800233B60084BA8
:102CDC001B6C074A43F080531364054B1B6C03F0C9
:102CEC0080533B603B6800BF0C37BD4680BC7047CF
:102CFC000038024080B58AB000AF786007F1140349
:102D0C0000221A605A609A60DA601A617B681B684C
:102D1C00344A934262D100233B61334B1B6C324AE1
:102D2C0043F080431364304B1B6C03F080433B61D6
:102D3C003B690023FB602C4B1B6B2B4A43F01003AD
:102D4C001363294B1B6B03F01003FB60FB684FF400
:102D5C00C0737B610223BB610123FB6103233B62D4
:102D6C0008237B6207F1140319462048FEF7E8F8A4
:102D7C001F4B204A1A601E4B4FF020625A601C4BAE
:102D8C0040229A601A4B0022DA60194B4FF4806291
:102D9C001A61174B00225A61154B00229A61144B91
:102DAC000022DA61124B00221A62114B00225A6285
:102DBC000F48FDF737FD0346002B01D0FFF76EFFE0
:102DCC007B680B4A1A630A4A7B68936300220121D1
:102DDC005220FDF7F0FC5220FDF709FD00BF28370B
:102DEC00BD4680BD00780040003802400010024013
:102DFC00B80900202860024080B400AF00BFBD4677
:102E0C0080BC704780B400AFFEE780B400AFFEE733
:102E1C0080B400AFFEE780B400AFFEE780B400AF33
:102E2C0000BFBD4680BC704780B400AF00BFBD463C
:102E3C0080BC704780B400AF00BFBD4680BC7047FB
:102E4C0080B500AFFDF7A0FB00BF80BD80B500AF23
:102E5C000420FEF751FA00BF80BD000080B500AF22
:102E6C000248FDF707FE00BF80BD00BFB809002077
:102E7C0080B500AF0248FEF74FFF00BF80BD00BF1A
:102E8C007809002080B400AF034B4FF000629A60C9
:102E9C0000BFBD4680BC704700ED00E0DFF834D0C9
:102EAC00002103E00C4B5B58435004310B480C4B96
:102EBC0042189A42F6D30B4A02E0002342F8043B34
:102ECC00094B9A42F9D3FFF7DDFF00F011F8FFF739
:102EDC0093FD7047000003209C2F00080000002089
:102EEC005809002058090020180A0020FEE70000AD
:102EFC0070B50D4D0D4C641BA4100026A64209D1D3
:102F0C000B4D0C4C00F020F8641BA4100026A642BC
:102F1C0005D170BD55F8043B98470136EEE755F8DE
:102F2C00043B98470136F2E7942F0008942F0008D1
:102F3C00942F0008982F000802440346934200D1B6
:102F4C00704703F8011BF9E7F8B500BFF8BC08BCE3
:102F5C009E467047F8B500BFF8BC08BC9E4670474B
:102F6C0000061016000610160000000000000000FD
:102F7C000102030406070809000000000102030413
:082F8C0090D2FF7F010000005C
:042F9400D10100085F
:042F9800AD0100087F
:102F9C0010000000010000000D0A2020202020203D
:102FAC002020202020202020202020202020202015
:102FBC0020202020202020202020202020202540E0
:102FCC00404040404040230D0A202020202020205B
:102FDC002020202020202020202020202020202ED7
:102FEC00282640262C20202020202020202640404F
:102FFC0040404040402520202020202020202A40F6
:10300C004026280D0A2020202020202020202020AF
:10301C0020202020202020202540404040404040BF
:10302C0040252526404040404040404040404040E4
:10303C0040404040404040262526404040404040D3
:10304C004040230D0A20202020202020202020205A
:10305C00202020202020202020264040404040409E
:10306C004040404040404040404040404040404054
:10307C004040404040404040404040404040404044
:10308C0040250D0A20202020202020202020202038
:10309C002020202020202020234040404040404041
:1030AC004040404040404040404040404040404014
:1030BC004040404040404040404040404040404004
:1030CC002F0D0A20202020202020202020202C2EF4
:1030DC00202020202E264040404040404040404090
:1030EC0040404026282E2020202020202020202058
:1030FC00202C28264040404040404040404040402A
:10310C0040262E202020202E2C0D0A20202020208E
:10311C002020202020264040404026404040404077
:10312C00404040404040262C2020202323232523B0
:10313C002525252523252525232323232020202A47
:10314C0026404040404040404040404026404040A7
:10315C0040250D0A20202020202020202F404040F8
:10316C0040404040404040404040404026202020CD
:10317C00202020202020202C404040404040404037
:10318C00262E2020202020202020202E26404040AB
:10319C004040404040404040404040402C0D0A20C0
:1031AC002020202020202826404040404040404005
:1031BC004040404040232020202020202020202060
:1031CC0020202028404040404040402F20202020FC
:1031DC00202020202020202020254040404040401E
:1031EC0040404040404040262A0D0A20202020200C
:1031FC0020202020202026404040404040404026B7
:10320C002E20202020202020202C2540404040260D
:10321C00404040404040402640404026252C202045
:10322C002020202020202C26404040404040404080
:10323C00250D0A202020202020202020202F404057
:10324C00404040404040252020202020202023408A
:10325C00404040402820202A404040404040262CFE
:10326C0020202540404040262820202020202020BF
:10327C002640404040404040402F0D0A2020202056
:10328C0020202020202E2640404040404040252039
:10329C00202020202023404040404025202020207A
:1032AC002A404040404040262C20202020264040F0
:1032BC0040404023202020202020264040404040F9
:1032CC004040262E2020202020202020202020209E
:1032DC0020202020232020225468657265206973E9
:1032EC00206E6F20747275746820696E20666C6530
:1032FC0073682C20202020206F6E6C7920626574FE
:10330C00726179616C2E220D0A202020202C25253B
:10331C0025252640404040404040402A2020202087
:10332C00202640404040402520202020202A40409C
:10333C0040404040262C202020202025404040406A
:10334C00402520202020202C404040404040404040
:10335C002625252525202020202020202020202047
:10336C0020232020225468657265206973206E6FBB
:10337C0020737472656E67746820696E20666C6564
:10338C0073682C20206F6E6C79207765616B6E658D
:10339C0073732E220D0A202020202F4040404040E5
:1033AC0040404040404040262E20202020234040DA
:1033BC00404040402C20202020202A4040404040CB
:1033CC0040262C20202020202C40404040404028EB
:1033DC00202020202E26404040404040404040408D
:1033EC0040262C202020202020202020202023209C
:1033FC0020225468657265206973206E6F20636F9C
:10340C006E7374616E637920696E20666C65736887
:10341C002C206F6E6C792064656361792020202EDE
:10342C00220D0A202020202F4040404040404040A8
:10343C004040404026202020202025404040404055
:10344C00402C20202020202A404040404040262C68
:10345C0020202020202C4040404040402320202091
:10346C00202E264040404040404040404040262CCA
:10347C002020202020202020202020232020225407
:10348C0068657265206973206E6F20636572746164
:10349C00696E747920696E20666C6573682C206285
:1034AC007574206465617468202020202E220D0A1A
:1034BC00202020202A2640404040404040404040B0
:1034CC0040262C202020202E4040404040402320ED
:1034DC00202020202A404040404040262C20202004
:1034EC0020202540404040402620202020202C40F9
:1034FC004040404040404040404040262E2020204C
:10350C0020202020202020202320202020202020AC
:10351C00202020202020202020202020202020209F
:10352C0020202020202020202020E2809420437284
:10353C0065646F204F6D6E6973736961680D0A2045
:10354C0020202020202020202E264040404040409B
:10355C00402320202020202E264040404040282080
:10356C002020202A404040404040262C2020202073
:10357C00254040404040262020202020202540404F
:10358C004040404040262E0D0A20202020202020A4
:10359C00202020284040404040404040282020200F
:1035AC002020202C2640404040262E20202A40401F
:1035BC0040404040262C20202A2640404040252ECA
:1035CC0020202020202023404040404040404028E4
:1035DC0020202020202020202020202020202020DF
:1035EC002057656C636F6D65206261636B20746F2F
:1035FC002041646570747573204D656368616E69F4
:10360C006375732C20416C6368656D696320526F20
:10361C006E696E210D0A20202020202020202020E1
:10362C002025404040404040404025202020202084
:10363C002020202E25404040402625404040404040
:10364C004040252640404040232E20202020202092
:10365C002020254040404040404040250D0A20207D
:10366C0020202020202E2826404040404040404032
:10367C00404040402C2020202020202020202020B2
:10368C00202A2540404040404040252A2020202030
:10369C002020202020202020284040404040404036
:1036AC004040404040262F0D0A2020202020202082
:1036BC002025404040404040404040404040404039
:1036CC00402F2020202020202020202E2840404049
:1036DC00404040404040282E202020202020202008
:1036EC00202340404040404040404040404040400B
:1036FC0040230D0A2020202020202020202E264090
:10370C0040404040404040404040404040404028C5
:10371C00202020202C2A2A2A2A2A2A2A2A2A2A2A23
:10372C002A2A2A2A2C2020202023264040404040B0
:10373C0040404040404040404040262E0D0A202052
:10374C00202020202020202020252820202020235D
:10375C0040404040404040404040404040252A2EA0
:10376C00202020202020202020202020202E2F262A
:10377C00404040404040404040404040402F20208E
:10378C00202E23230D0A2020202020202020202042
:10379C002020202020202020202E26404040404069
:1037AC00404040404040404040404040404040400D
:1037BC0040404040404040404040404040404040FD
:1037CC004040252E0D0A20202020202020202020C3
:1037DC00202020202020202020202340404040403A
:1037EC0040404040404040404040404040404040CD
:1037FC0040404040404040404040404040404040BD
:10380C004040280D0A20202020202020202020208D
:10381C0020202020202020202640404040404040B6
:10382C0040402640404040404040404040404040A6
:10383C004040404040404040264040404040404096
:10384C004040250D0A202020202020202020202050
:10385C0020202020202020202020202F26404040E7
:10386C002F2020202020202E2A264040404040405F
:10387C0040262C2E20202020202028404040262F7F
:10388C000D0A202020202020202020202020202055
:10389C00202020202020202020202020202020201C
:1038AC002020202020202540404040404040230D37
:1038BC000A20202020202020202020202020202012
:1038CC0020202020202020202020202020202020EC
:1038DC0020202020202E2C2C2C2C2C2C2C2E0D0A95
:0838EC000D0A00000024F400A5
:0400000508002EA918
:00000001FF
