:020000040800F2
:10000000000003201529000895280008A1280008F1
:10001000A7280008AD280008B32800080000000049
:10002000000000000000000000000000B9280008E7
:10003000C528000800000000D1280008DD280008BD
:100040006529000865290008652900086529000858
:100050006529000865290008652900086529000848
:100060006529000865290008652900086529000838
:100070006529000865290008652900086529000828
:100080006529000865290008652900086529000818
:100090006529000865290008652900086529000808
:1000A00065290008652900086529000865290008F8
:1000B00065290008652900086529000865290008E8
:1000C00065290008652900086529000865290008D8
:1000D00065290008652900086529000865290008C8
:1000E00065290008652900086529000865290008B8
:1000F00065290008652900086529000865290008A8
:100100006529000865290008652900086529000897
:100110006529000865290008652900086529000887
:100120006529000865290008652900086529000877
:100130006529000865290008652900086529000867
:100140006529000865290008652900086529000857
:100150006529000865290008652900086529000847
:100160006529000865290008652900086529000837
:1001700065290008652900086529000800000000BD
:100180006529000865290008E92800086529000894
:100190006529000865290008652900086529000807
:0C01A000000000000000000065290008BD
:1001AC0010B5054C237833B9044B13B10448AFF3A5
:1001BC0000800123237010BD0C0000200000000003
:1001CC00C029000808B5034B1BB103490348AFF322
:1001DC00008008BD0000000010000020C0290008AD
:1001EC0053B94AB9002908BF00281CBF4FF0FF3192
:1001FC004FF0FF3000F06CB9ADF1080C6DE904CE96
:10020C0000F006F8DDF804E0DDE9022304B07047E5
:10021C002DE9F047089E0D4604468E46002B40F013
:10022C0082808A42174646D9B2FA82F24AB1C2F1AA
:10023C00200105FA02F320FA01F1974041EA030E7E
:10024C0094404FEA1748230CBEFBF8FCB9B208FBEC
:10025C001CEE43EA0E430CFB01F098420AD9FB1842
:10026C000CF1FF3580F01681984240F21381ACF10D
:10027C00020C3B441B1AA4B2B3FBF8F008FB10337E
:10028C0044EA034400FB01F1A14209D93C1900F1F5
:10029C00FF3380F00181A14240F2FE8002383C44E1
:1002AC00641A40EA0C4000211EB1D4400023C6E978
:1002BC000043BDE8F08702B9FFDEB2FA82F2002AF1
:1002CC004FD1CB1B4FEA174E1FFA87F80121B3FB16
:1002DC00FEFC250C0EFB1C3345EA034508FB0CF316
:1002EC00AB4207D97D190CF1FF3002D2AB4200F2C0
:1002FC00E7808446ED1AA3B2B5FBFEF00EFB105559
:10030C0043EA054408FB00F8A04507D93C1900F165
:10031C00FF3302D2A04500F2D7801846A4EB0804A4
:10032C0040EA0C40C0E78B4208D9002E00F0AF80A9
:10033C000021C6E900050846BDE8F087B3FA83F151
:10034C0000294BD1AB4202D3824200F2B780841A0F
:10035C0065EB030301209E46002EAAD0C6E9004E91
:10036C00A7E7C2F1200C01FA02F3974020FA0CF037
:10037C004FEA174E21FA0CFC1843BCFBFEF1050C9E
:10038C000EFB11CC1FFA87F845EA0C4501FB08F36C
:10039C00AB4204FA02F409D97D1901F1FF3C80F05B
:1003AC008B80AB4240F2888002393D44EB1A85B217
:1003BC00B3FBFEF00EFB103345EA034500FB08F3DC
:1003CC00AB4207D97D1900F1FF3C71D2AB426FD91A
:1003DC0002383D44EB1A40EA014178E7C1F1200CA8
:1003EC008B4022FA0CF71F4320FA0CF405FA01F3A8
:1003FC004FEA174E25FA0CF51C43230CB5FBFEF9FE
:10040C001FFA87F80EFB195543EA054509FB08FA54
:10041C00AA4502FA01F200FA01F308D97D1909F193
:10042C00FF3047D2AA4545D9A9F102093D44A5EBB5
:10043C000A05A4B2B5FBFEF00EFB105544EA0544C8
:10044C0000FB08F8A04507D93C1900F1FF352DD267
:10045C00A0452BD902383C4440EA0940A4EB0804DF
:10046C00A0FB02894C45C6464D4619D316D05EB149
:10047C00B3EB0E0264EB050404FA0CFCCA404CEA24
:10048C000202CC40C6E900240021BDE8F0873146C9
:10049C0030460EE7AC46EDE6184601E74345E6D29A
:1004AC00B8EB020E69EB07050138E0E72846D3E705
:1004BC0060468FE78146BAE7614677E708464BE727
:1004CC00ACF1020C3D4415E702383C4426E700BF72
:1004DC00704700BF80B500AF0E4B1B680D4A43F44C
:1004EC00007313600B4B1B680A4A43F48063136060
:1004FC00084B1B68074A43F480731360032000F019
:10050C0023F9002000F008F802F048F900231846FF
:10051C0080BD00BF003C024080B582B000AF786067
:10052C00124B1A68124B1B7819464FF47A73B3FBB3
:10053C00F1F3B2FBF3F3184600F03BF90346002B42
:10054C0001D001230EE07B680F2B0AD800227968BA
:10055C004FF0FF3000F003F9064A7B68136000236C
:10056C0000E0012318460837BD4680BD0800002076
:10057C00040000200000002080B400AF054B1B7865
:10058C001A46054B1B681344034A136000BFBD4653
:10059C0080BC7047040000202800002080B400AF0D
:1005AC00024B1B681846BD4680BC704728000020D3
:1005BC0080B485B000AF78607B6803F00703FB6004
:1005CC000C4BDB68BB60BA684FF6FF031340BB6093
:1005DC00FB681A02BB68134343F0BF6343F4003358
:1005EC00BB60044ABB68D36000BF1437BD4680BCF7
:1005FC00704700BF00ED00E080B400AF044BDB6837
:10060C001B0A03F007031846BD4680BC704700BFA9
:10061C0000ED00E080B483B000AF0346FB7197F9A6
:10062C000730002B0BDBFB7903F01F02064997F90F
:10063C0007305B09012000FA02F241F8232000BFC9
:10064C000C37BD4680BC704700E100E080B483B03D
:10065C0000AF03463960FB7197F90730002B0ADBBA
:10066C003B68DAB20C4997F907301201D2B20B444D
:10067C0083F800230AE03B68DAB20849FB7903F0FF
:10068C000F03043B1201D2B20B441A7600BF0C3795
:10069C00BD4680BC704700BF00E100E000ED00E00B
:1006AC0080B489B000AFF860B9607A60FB6803F081
:1006BC000703FB61FB69C3F10703042B28BF042369
:1006CC00BB61FB690433062B02D9FB69033B00E0D9
:1006DC0000237B614FF0FF32BB6902FA03F3DA436C
:1006EC00BB681A407B699A404FF0FF317B6901FA75
:1006FC0003F3D9437B680B40134318462437BD469C
:10070C0080BC704780B582B000AF78607B68013BDD
:10071C00B3F1807F01D301230FE00A4A7B68013BD0
:10072C0053600F214FF0FF30FFF790FF054B002275
:10073C009A60044B07221A60002318460837BD46FE
:10074C0080BD00BF10E000E080B582B000AF7860E3
:10075C007868FFF72DFF00BF0837BD4680BD80B518
:10076C0086B000AF0346B9607A60FB7300237B61EF
:10077C00FFF742FF78617A68B9687869FFF790FFF4
:10078C00024697F90F3011461846FFF75FFF00BF7E
:10079C001837BD4680BD80B582B000AF0346FB71F3
:1007AC0097F907301846FFF735FF00BF0837BD46ED
:1007BC0080BD80B582B000AF78607868FFF7A2FF8B
:1007CC00034618460837BD4680BD80B483B000AFE1
:1007DC0078607B6893F83530DBB2022B04D07B68F1
:1007EC0080225A6501230CE07B68052283F83520B2
:1007FC007B681B681A687B681B6822F001021A6010
:10080C00002318460C37BD4680BC704780B489B0B5
:10081C0000AF7860396000237B6100233B610023CB
:10082C00BB610023FB6177E10122FB6902FA03F350
:10083C007B613B681B687A6913403B613A697B6951
:10084C009A4240F066813B685B68012B0BD03B6899
:10085C005B68022B07D03B685B68112B03D03B68AD
:10086C005B68122B30D17B689B68BB61FB695B00BA
:10087C00032202FA03F3DB43BA691340BB613B6802
:10088C00DA68FB695B0002FA03F3BA691343BB61D4
:10089C007B68BA699A607B685B68BB610122FB6903
:1008AC0002FA03F3DB43BA691340BB613B685B6834
:1008BC001B0903F00102FB6902FA03F3BA69134343
:1008CC00BB617B68BA695A607B68DB68BB61FB699A
:1008DC005B00032202FA03F3DB43BA691340BB61EA
:1008EC003B689A68FB695B0002FA03F3BA6913432D
:1008FC00BB617B68BA69DA603B685B68022B03D02A
:10090C003B685B68122B23D1FB69DA087B680832E1
:10091C0053F82230BB61FB6903F007039B000F22E5
:10092C0002FA03F3DB43BA691340BB613B681A69F3
:10093C00FB6903F007039B0002FA03F3BA69134344
:10094C00BB61FB69DA087B680832B96943F822108D
:10095C007B681B68BB61FB695B00032202FA03F333
:10096C00DB43BA691340BB613B685B6803F003026D
:10097C00FB695B0002FA03F3BA691343BB617B6842
:10098C00BA691A603B685B6803F08053002B00F077
:10099C00C0800023FB60654B5B6C644A43F480436E
:1009AC005364624B5B6C03F48043FB60FB68604AEE
:1009BC00FB699B08023352F82330BB61FB6903F0DF
:1009CC0003039B000F2202FA03F3DB43BA691340C3
:1009DC00BB617B68574A934237D07B68564A934237
:1009EC0031D07B68554A93422BD07B68544A934252
:1009FC0025D07B68534A93421FD07B68524A93425E
:100A0C0019D07B68514A934213D07B68504A934269
:100A1C000DD07B684F4A934207D07B684E4A934275
:100A2C0001D1092312E00A2310E008230EE007236A
:100A3C000CE006230AE0052308E0042306E0032368
:100A4C0004E0022302E0012300E00023FA6902F033
:100A5C00030292009340BA691343BB613449FB69AA
:100A6C009B080233BA6941F823203C4B1B68BB61DD
:100A7C003B69DB43BA691340BB613B685B6803F4B9
:100A8C008033002B03D0BA693B691343BB61334AF3
:100A9C00BB691360314B5B68BB613B69DB43BA6973
:100AAC001340BB613B685B6803F40033002B03D03D
:100ABC00BA693B691343BB61284ABB695360274B36
:100ACC009B68BB613B69DB43BA691340BB613B6804
:100ADC005B6803F48013002B03D0BA693B691343A2
:100AEC00BB611E4ABB6993601C4BDB68BB613B69F5
:100AFC00DB43BA691340BB613B685B6803F40013CA
:100B0C00002B03D0BA693B691343BB61134ABB6921
:100B1C00D360FB690133FB61FB690F2B7FF684AE5D
:100B2C0000BF00BF2437BD4680BC70470038024070
:100B3C00003801400000024000040240000802405E
:100B4C00000C024000100240001402400018024049
:100B5C00001C02400020024000240240003C0140E6
:100B6C0080B483B000AF78600B467B8013467B70FB
:100B7C007B78002B03D07A887B689A6103E07B88B2
:100B8C001A047B689A6100BF0C37BD4680BC704765
:100B9C0080B483B000AF78600B467B807B685A6969
:100BAC007B881A407B889A4204D17B881A047B6824
:100BBC009A6102E07A887B689A6100BF0C37BD4667
:100BCC0080BC704780B586B000AF78607B68002B26
:100BDC0001D101235BE27B681B6803F00103002B4E
:100BEC0075D0A34B9B6803F00C03042B0CD0A04BCB
:100BFC009B6803F00C03082B12D19D4B5B6803F42C
:100C0C008003B3F5800F0BD1994B1B6803F40033B1
:100C1C00002B5BD07B685B68002B57D1012336E23D
:100C2C007B685B68B3F5803F06D1914B1B68904A9B
:100C3C0043F4803313601DE07B685B68B3F5A02F31
:100C4C000CD18B4B1B688A4A43F480231360884B6E
:100C5C001B68874A43F4803313600BE0844B1B689A
:100C6C00834A23F480331360814B1B68804A23F43E
:100C7C00802313607B685B68002B13D0FFF78EFC1E
:100C8C00386108E0FFF78AFC02463B69D31A642BF3
:100C9C0001D90323FBE1764B1B6803F40033002BD3
:100CAC00F0D014E0FFF77AFC386108E0FFF776FC2F
:100CBC0002463B69D31A642B01D90323E7E16C4B41
:100CCC001B6803F40033002BF0D100E000BF7B68FD
:100CDC001B6803F00203002B63D0654B9B6803F089
:100CEC000C03002B0BD0624B9B6803F00C03082BFE
:100CFC001CD15F4B5B6803F48003002B16D15C4B5B
:100D0C001B6803F00203002B05D07B68DB68012B0A
:100D1C0001D00123BBE1564B1B6823F0F8027B6822
:100D2C001B69DB00524913430B603AE07B68DB68BC
:100D3C00002B20D04F4B01221A60FFF72FFC38619B
:100D4C0008E0FFF72BFC02463B69D31A022B01D9B2
:100D5C0003239CE1464B1B6803F00203002BF0D0ED
:100D6C00434B1B6823F0F8027B681B69DB0040498E
:100D7C0013430B6015E03F4B00221A60FFF70EFC8B
:100D8C00386108E0FFF70AFC02463B69D31A022BD4
:100D9C0001D903237BE1364B1B6803F00203002BC4
:100DAC00F0D17B681B6803F00803002B30D07B6804
:100DBC005B69002B16D0304B01221A60FFF7EEFB5B
:100DCC00386108E0FFF7EAFB02463B69D31A022BB5
:100DDC0001D903235BE1264B5B6F03F00203002B6D
:100DEC00F0D015E0244B00221A60FFF7D7FB3861D6
:100DFC0008E0FFF7D3FB02463B69D31A022B01D95B
:100E0C00032344E11A4B5B6F03F00203002BF0D178
:100E1C007B681B6803F00403002B00F0A080002308
:100E2C00FB75134B1B6C03F08053002B0FD100236D
:100E3C00BB600F4B1B6C0E4A43F0805313640C4B7E
:100E4C001B6C03F08053BB60BB680123FB750B4B21
:100E5C001B6803F48073002B21D1084B1B68074AD5
:100E6C0043F480731360FFF799FB386111E000BF06
:100E7C000038024000004742800E4742007000409C
:100E8C00FFF78CFB02463B69D31A022B01D90323D3
:100E9C00FDE0814B1B6803F48073002BF0D07B6862
:100EAC009B68012B06D17D4B1B6F7C4A43F00103E1
:100EBC0013671CE07B689B68052B0CD1774B1B6F71
:100ECC00764A43F004031367744B1B6F734A43F069
:100EDC00010313670BE0714B1B6F704A23F0010386
:100EEC0013676E4B1B6F6D4A23F0040313677B680B
:100EFC009B68002B15D0FFF751FB38610AE0FFF718
:100F0C004DFB02463B69D31A41F28832934201D918
:100F1C000323BCE0614B1B6F03F00203002BEED0EC
:100F2C0014E0FFF73BFB38610AE0FFF737FB0246A2
:100F3C003B69D31A41F28832934201D90323A6E0CC
:100F4C00564B1B6F03F00203002BEED1FB7D012BE4
:100F5C0005D1524B1B6C514A23F0805313647B68B0
:100F6C009B69002B00F092804C4B9B6803F00C03A8
:100F7C00082B5CD07B689B69022B41D1484B00222B
:100F8C001A60FFF70BFB386108E0FFF707FB02461E
:100F9C003B69D31A022B01D9032378E03F4B1B6822
:100FAC0003F00073002BF0D17B68DA697B681B6A55
:100FBC001A437B685B6A9B011A437B689B6A5B08DC
:100FCC00013B1B041A437B68DB6A1B063349134342
:100FDC004B60334B01221A60FFF7E0FA386108E0EE
:100FEC00FFF7DCFA02463B69D31A022B01D9032323
:100FFC004DE02A4B1B6803F00073002BF0D045E04A
:10100C00274B00221A60FFF7C9FA386108E0FFF796
:10101C00C5FA02463B69D31A022B01D9032336E0E9
:10102C001E4B1B6803F00073002BF0D12EE07B6885
:10103C009B69012B01D1012329E0184B5B68FB60F4
:10104C00FB6803F480027B68DB699A421CD1FB6865
:10105C0003F03F027B681B6A9A4215D1FA6847F687
:10106C00C07313407A68526A93420DD1FB6803F443
:10107C0040327B689B6A9A4206D1FB6803F070622F
:10108C007B68DB6A9A4201D0012300E000231846FA
:10109C001837BD4680BD00BF0070004000380240CC
:1010AC006000474280B584B000AF786039607B68DF
:1010BC00002B01D10123CCE0684B1B6803F00F031C
:1010CC003A689A420CD9654B3A68D2B21A70634BA3
:1010DC001B6803F00F033A689A4201D00123B8E071
:1010EC007B681B6803F00203002B20D07B681B6815
:1010FC0003F00403002B05D0594B9B68584A43F46A
:10110C00E05393607B681B6803F00803002B05D049
:10111C00534B9B68524A43F460439360504B9B681B
:10112C0023F0F0027B689B684D4913438B607B680E
:10113C001B6803F00103002B44D07B685B68012B18
:10114C0007D1474B1B6803F40033002B19D1012343
:10115C007FE07B685B68022B03D07B685B68032BAA
:10116C0007D13F4B1B6803F00073002B09D10123FF
:10117C006FE03B4B1B6803F00203002B01D10123F2
:10118C0067E0374B9B6823F003027B685B6834494C
:10119C0013438B60FFF702FAF8600AE0FFF7FEF9E1
:1011AC000246FB68D31A41F28832934201D90323D9
:1011BC004FE02B4B9B6803F00C027B685B689B0039
:1011CC009A42EBD1254B1B6803F00F033A689A4205
:1011DC000CD2224B3A68D2B21A70204B1B6803F027
:1011EC000F033A689A4201D0012332E07B681B68F6
:1011FC0003F00403002B08D0194B9B6823F4E05236
:10120C007B68DB68164913438B607B681B6803F0B3
:10121C000803002B09D0124B9B6823F460427B68B7
:10122C001B69DB000E4913438B6000F021F802466A
:10123C000B4B9B681B0903F00F030A49CB5C22FA8A
:10124C0003F3094A1360094B1B681846FFF764F94E
:10125C00002318461037BD4680BD00BF003C02403D
:10126C0000380240342A000808000020000000204A
:10127C00B0B584B000AF002179600021F960002185
:10128C0039600021B9605249896801F00C010829C4
:10129C000DD0082900F29480002902D0042903D033
:1012AC008EE04C4BBB608EE04B4BBB608BE04849F7
:1012BC00496801F03F0179604549496801F48001B2
:1012CC00002924D042494968890908464FF0000199
:1012DC0040F2FF144FF0000500EA040201EA050396
:1012EC003D4901FB03F0002101FB02F144183A498E
:1012FC00A2FB0101631819467B681A464FF00003E4
:10130C00FEF76EFF02460B461346FB604AE0304B7D
:10131C005B689B091A464FF0000340F2FF104FF038
:10132C00000102EA000403EA0105204629464FF0B9
:10133C0000024FF000034B0143EAD0634201104618
:10134C001946001B61EB05014FF000024FF0000342
:10135C008B0143EA90638201121A63EB01034FF095
:10136C0000004FF00001D90041EA5271D000024652
:10137C000B46121945EB03034FF000004FF0000130
:10138C00990241EA9251900202460B4610461946C8
:10139C007B681A464FF00003FEF722FF02460B460D
:1013AC001346FB600A4B5B681B0C03F00303013311
:1013BC005B003B60FA683B68B2FBF3F3BB6002E096
:1013CC00044BBB6000BFBB6818461037BD46B0BDB0
:1013DC00003802400024F40040787D0180B400AF56
:1013EC00024B1B681846BD4680BC704708000020A5
:1013FC0080B500AFFFF7F2FF0246054B9B689B0AD6
:10140C0003F007030349CB5C22FA03F3184680BDB3
:10141C0000380240442A000880B500AFFFF7DEFF19
:10142C000246054B9B685B0B03F007030349CB5C3F
:10143C0022FA03F3184680BD00380240442A000803
:10144C0080B582B000AF78607B68002B01D101239E
:10145C003FE07B6893F83930DBB2002B06D17B6818
:10146C00002283F83820786801F0BEF97B682422CA
:10147C0083F839207B681B68DA687B681B6822F468
:10148C000052DA60786800F091FB7B681B681A697F
:10149C007B681B6822F490421A617B681B685A694E
:1014AC007B681B6822F02A025A617B681B68DA6829
:1014BC007B681B6842F40052DA607B680022DA63B6
:1014CC007B68202283F839207B68202283F83A201D
:1014DC00002318460837BD4680BD80B588B002AFE2
:1014EC00F860B9603B601346FB8000237B61FB68AE
:1014FC0093F83930DBB2202B40F08380BB68002B93
:10150C0002D0FB88002B01D101237BE0FB6893F810
:10151C003830012B01D1022374E0FB68012283F8DF
:10152C003820FB680022DA63FB68212283F839201B
:10153C00FFF734F87861FB68FA889A84FB68FA88BC
:10154C00DA84FB68002283F8382042E0FB68DB8CED
:10155C009BB2013B9AB2FB68DA84FB689B68B3F5DB
:10156C00805F22D13B6800937B6900228021F86860
:10157C0000F0B2F90346002B01D0032342E0BB6814
:10158C003B613B691B881A46FB681B68C2F3080267
:10159C005A60FB681B69002B03D1BB680233BB602C
:1015AC0017E0BB680133BB6013E03B6800937B69B9
:1015BC0000228021F86800F08FF90346002B01D03F
:1015CC0003231FE0BB685A1CBA601A78FB681B68BF
:1015DC005A60FB68DB8C9BB2002BB7D13B68009345
:1015EC007B6900224021F86800F076F90346002B55
:1015FC0001D0032306E0FB68202283F83920002366
:10160C0000E0022318461837BD4680BD80B485B073
:10161C0000AFF860B9601346FB80FB6893F83A3072
:10162C00DBB2202B40D1BB68002B02D0FB88002BF7
:10163C0001D1012339E0FB6893F83830012B01D13B
:10164C00022332E0FB68012283F83820FB68BA6879
:10165C009A62FB68FA889A85FB68FA88DA85FB68D7
:10166C000022DA63FB68222283F83A20FB6800220E
:10167C0083F83820FB681B68DA68FB681B6842F447
:10168C008072DA60FB681B685A69FB681B6842F061
:10169C0001025A61FB681B68DA68FB681B6842F040
:1016AC002002DA60002300E0022318461437BD46FE
:1016BC0080BC704780B588B000AF78607B681B68D1
:1016CC001B68FB617B681B68DB68BB617B681B6804
:1016DC005B697B6100233B610023FB60FB6903F0CA
:1016EC000F033B613B69002B0DD1FB6903F0200319
:1016FC00002B08D0BB6903F02003002B03D07868C3
:10170C0000F0D2F9D0E03B69002B00F0B0807B698F
:10171C0003F00103002B05D1BB6903F49073002B7C
:10172C0000F0A580FB6903F00103002B0AD0BB6914
:10173C0003F48073002B05D07B68DB6B43F0010254
:10174C007B68DA63FB6903F00403002B0AD07B6926
:10175C0003F00103002B05D07B68DB6B43F0020226
:10176C007B68DA63FB6903F00203002B0AD07B6908
:10177C0003F00103002B05D07B68DB6B43F0040204
:10178C007B68DA63FB6903F00803002B0FD0BB699D
:10179C0003F02003002B04D17B6903F00103002B21
:1017AC0005D07B68DB6B43F008027B68DA637B68EF
:1017BC00DB6B002B77D0FB6903F02003002B07D0E9
:1017CC00BB6903F02003002B02D0786800F06CF9A1
:1017DC007B681B685B6903F04003402B0CBF012343
:1017EC000023DBB2FB607B68DB6B03F00803002B90
:1017FC0002D1FB68002B31D0786800F0B7F87B6819
:10180C001B685B6903F04003402B23D17B681B688A
:10181C005A697B681B6822F040025A617B685B6BDB
:10182C00002B13D07B685B6B214A1A657B685B6B62
:10183C001846FEF7CAFF0346002B16D07B685B6B7D
:10184C001B6D7A68526B104698470EE0786800F072
:10185C003AF80AE0786800F036F806E0786800F0AC
:10186C0032F87B680022DA631DE000BF1BE0FB69E5
:10187C0003F08003002B08D0BB6903F08003002B1E
:10188C0003D0786800F0A3F80EE0FB6903F0400386
:10189C00002B09D0BB6903F04003002B04D07868FF
:1018AC0000F0EAF800E000BF2037BD4680BD00BF65
:1018BC00B319000880B483B000AF786000BF0C3758
:1018CC00BD4680BC704780B483B000AF786000BF69
:1018DC000C37BD4680BC704780B584B000AFF86053
:1018EC00B9603B601346FB712CE0BB69B3F1FF3F61
:1018FC0028D0BB69002B07D0FEF750FE02463B6890
:10190C00D31ABA699A421DD2FB681B68DA68FB6865
:10191C001B6822F4D072DA60FB681B685A69FB689A
:10192C001B6822F001025A61FB68202283F83920DF
:10193C00FB68202283F83A20FB68002283F83820C9
:10194C0003230FE0FB681B681A68BB681340BA6876
:10195C009A420CBF01230023DBB21A46FB799A4250
:10196C00C3D0002318461037BD4680BD80B483B069
:10197C0000AF78607B681B68DA687B681B6822F4B0
:10198C009072DA607B681B685A697B681B6822F06E
:10199C0001025A617B68202283F83A2000BF0C3781
:1019AC00BD4680BC704780B584B000AF78607B6862
:1019BC009B6BFB60FB680022DA85FB680022DA84F3
:1019CC00F868FFF780FF00BF1037BD4680BD80B4BC
:1019DC0085B000AF78607B6893F83930DBB2212B8F
:1019EC0044D17B689B68B3F5805F1AD17B681B6A16
:1019FC00FB60FB681B881A467B681B68C2F30802F5
:101A0C005A607B681B69002B05D17B681B6A9A1C8A
:101A1C007B681A620EE07B681B6A5A1C7B681A6230
:101A2C0008E07B681B6A591C7A6811621A787B681B
:101A3C001B685A607B68DB8C9BB2013B9BB27A685B
:101A4C001946D184002B0FD17B681B68DA687B6840
:101A5C001B6822F08002DA607B681B68DA687B689E
:101A6C001B6842F04002DA60002300E002231846B3
:101A7C001437BD4680BC704780B582B000AF78602B
:101A8C007B681B68DA687B681B6822F04002DA60AE
:101A9C007B68202283F839207868FFF70BFF00233E
:101AAC0018460837BD4680BD80B584B000AF78605D
:101ABC007B6893F83A30DBB2222B71D17B689B6840
:101ACC00B3F5805F23D17B689B6AFB607B681B69E5
:101ADC00002B0ED17B681B685B689BB2C3F30803B9
:101AEC009AB2FB681A807B689B6A9A1C7B689A6224
:101AFC0029E07B681B685B689BB2DBB29AB2FB681F
:101B0C001A807B689B6A5A1C7B689A621BE07B6814
:101B1C001B69002B0AD17B681B6858687B689B6A21
:101B2C00591C7A689162C2B21A700CE07B681B680F
:101B3C005B68DAB27B689B6A581C7968886202F031
:101B4C007F02D2B21A707B68DB8D9BB2013B9BB2D9
:101B5C007A681946D185002B20D17B681B68DA681E
:101B6C007B681B6822F02002DA607B681B68DA68ED
:101B7C007B681B6822F48072DA607B681B685A6988
:101B8C007B681B6822F001025A617B68202283F873
:101B9C003A20786800F0C8FC002302E0002300E043
:101BAC00022318461037BD4680BD00002DE9F04FCA
:101BBC00BDB000AFC7F8E400D7F8E4301B681B6970
:101BCC0023F44050D7F8E430D968D7F8E4301A68D9
:101BDC0040EA01031361D7F8E4309A68D7F8E4308F
:101BEC001B691A43D7F8E4305B691A43D7F8E43021
:101BFC00DB691343C7F8EC30D7F8E4301B68DB68BB
:101C0C0023F4164121F00C01D7F8E4301A68D7F808
:101C1C00EC300B43D360D7F8E4301B685B6923F4DA
:101C2C004070D7F8E4309969D7F8E4301A6840EA84
:101C3C0001035361D7F8E430DB69B3F5004F40F092
:101C4C00A681D7F8E4301A686A4B9A4206D0D7F8C6
:101C5C00E4301A68684B9A4240F0D280FFF7DCFB04
:101C6C00C7F8E800D7F8E8301C464FF000052246CC
:101C7C002B469118C7F888105B41C7F88C30D7E910
:101C8C002223121945EB03034FF000004FF0000123
:101C9C00D90041EA5271D00002460B461119C7F81F
:101CAC00D8106B41C7F8DC30D7F8E4305B681A46C3
:101CBC004FF000039118C7F880105B41C7F88430CF
:101CCC00D7E92023D7E93601FEF78AFA02460B46FC
:101CDC004A4BA3FB02235B091E01D7F8E8301C46D4
:101CEC004FF0000522462B469118B9675B41FB6704
:101CFC00D7E91E23121945EB03034FF000004FF0F8
:101D0C000001D90041EA5271D00002460B4611196C
:101D1C00C7F8D0106B41C7F8D430D7F8E4305B6803
:101D2C001A464FF00003911839675B417B67D7E97E
:101D3C001C23D7E93401FEF753FA02460B462F4B0E
:101D4C00A3FB02135B09642101FB03F3D31ADB0031
:101D5C0032332A4AA2FB03235B095B0003F4F873BA
:101D6C001E44D7F8E83018464FF0000102460B46E7
:101D7C009418BC665B41FB66D7E91A23121841EB39
:101D8C0003034FF000044FF00005DD0045EA5275E7
:101D9C00D40022462B461418C7F8C8404B41C7F84C
:101DAC00CC30D7F8E4305B681A464FF0000391183A
:101DBC0039665B417B66D7E91823D7E93201FEF718
:101DCC000FFA02460B460D4BA3FB02135B09642171
:101DDC0001FB03F3D31ADB003233084AA2FB0323C3
:101DEC005B0903F00702D7F8E4301B6832449A60B1
:101DFC0074E200BF00100140001401401F85EB513C
:101E0C00FFF7F6FAC7F8E800D7F8E8301C464FF0B1
:101E1C00000522462B469118B9655B41FB65D7E955
:101E2C001623121945EB03034FF000004FF000018D
:101E3C00D90041EA5271D00002460B461119C7F87D
:101E4C00C0106B41C7F8C430D7F8E4305B681A4651
:101E5C004FF00003911839655B417B65D7E914237A
:101E6C00D7E93001FEF7BCF902460B46B34BA3FB96
:101E7C0002235B091E01D7F8E8301C464FF0000521
:101E8C0022462B469118B9645B41FB64D7E91223B7
:101E9C00121945EB03034FF000004FF00001D9007D
:101EAC0041EA5271D00002460B461119C7F8B8101E
:101EBC006B41C7F8BC30D7F8E4305B681A464FF07A
:101ECC000003911839645B417B64D7E91023D7E98F
:101EDC002E01FEF785F902460B46984BA3FB021325
:101EEC005B09642101FB03F3D31ADB003233934A01
:101EFC00A2FB03235B095B0003F4F8731E44D7F8C1
:101F0C00E83018464FF0000102460B469418BC63AB
:101F1C005B41FB63D7E90E23121841EB03034FF02F
:101F2C0000044FF00005DD0045EA5275D40022464E
:101F3C002B461418C7F8B0404B41C7F8B430D7F84B
:101F4C00E4305B681A464FF00003911839635B412B
:101F5C007B63D7E90C23D7E92C01FEF741F9024644
:101F6C000B46764BA3FB02135B09642101FB03F3C5
:101F7C00D31ADB003233714AA2FB03235B0903F053
:101F8C000702D7F8E4301B6832449A60A6E1D7F810
:101F9C00E4301A686A4B9A4206D0D7F8E4301A68D3
:101FAC00684B9A4240F0D080FFF736FAC7F8E80049
:101FBC00D7F8E8301C464FF0000522462B46911806
:101FCC00B9625B41FB62D7E90A23121945EB0303A3
:101FDC004FF000004FF00001D90041EA5271D000DF
:101FEC0002460B4612EB040A43EB050BD7F8E43020
:101FFC005B6818464FF000014FF000024FF00003F1
:10200C008B0043EA9073820050465946FEF7E8F87D
:10201C0002460B46494BA3FB02235B091E01D7F872
:10202C00E83018464FF0000102460B4694183C620B
:10203C005B417B62D7E90823121841EB03034FF095
:10204C0000044FF00005DD0045EA5275D40022462D
:10205C002B461418C7F8A8404B41C7F8AC30D7F83A
:10206C00E4305B6818464FF000014FF000024FF06F
:10207C0000038B0043EA90738200D7E92A01FEF734
:10208C00AFF802460B462D4BA3FB02135B096421F0
:10209C0001FB03F3D31A1B013233284AA2FB03239F
:1020AC005B0903F0F0031E44D7F8E83018464FF0F4
:1020BC00000102460B469418BC615B41FB61D7E9F9
:1020CC000623121841EB03034FF000044FF00005F8
:1020DC00DD0045EA5275D40022462B461418C7F889
:1020EC00A0404B41C7F8A430D7F8E4305B681846E1
:1020FC004FF000014FF000024FF000038B0043EA59
:10210C0090738200D7E92801FEF76AF802460B4665
:10211C000A4BA3FB02135B09642101FB03F3D31AE3
:10212C001B013233054AA2FB03235B0903F00F02A8
:10213C00D7F8E4301B6832449A60CFE01F85EB512E
:10214C000010014000140140FFF752F9C7F8E800F5
:10215C00D7F8E8301C464FF0000522462B46911864
:10216C0039615B417B61D7E90423121945EB030309
:10217C004FF000004FF00001D90041EA5271D0003D
:10218C0002460B4612EB040843EB0509D7F8E43082
:10219C005B6818464FF000014FF000024FF000034F
:1021AC008B0043EA9073820040464946FEF718F8CC
:1021BC0002460B464C4BA3FB02235B091E01D7F8CE
:1021CC00E83018464FF0000102460B469418BC60EC
:1021DC005B41FB60D7E90223121841EB03034FF07C
:1021EC0000044FF00005DD0045EA5275D40022468C
:1021FC002B461418C7F898404B41C7F89C30D7F8B9
:10220C00E4305B6818464FF000014FF000024FF0CD
:10221C0000038B0043EA90738200D7E92601FDF797
:10222C00DFFF02460B46304BA3FB02135B09642114
:10223C0001FB03F3D31A1B0132332B4AA2FB0323FA
:10224C005B0903F0F0031E44D7F8E83018464FF052
:10225C00000102460B4694183C605B417B60D7E959
:10226C000023121841EB03034FF000044FF000055C
:10227C00DD0045EA5275D40022462B461418C7F8E7
:10228C0090404B41C7F89430D7F8E4305B6818465F
:10229C004FF000014FF000024FF000038B0043EAB7
:1022AC0090738200D7E92401FDF79AFF02460B4692
:1022BC000D4BA3FB02135B09642101FB03F3D31A3F
:1022CC001B013233084AA2FB03235B0903F00F0204
:1022DC00D7F8E4301B6832449A60FFE700BFF4374C
:1022EC00BD46BDE8F08F00BF1F85EB5180B500AF38
:1022FC00FEF7F0F800F00EF800F096F800F06AF82F
:10230C00012202490248FFF781F9FEE76C00002028
:10231C002C00002080B594B000AF07F120033022D0
:10232C000021184600F03EFB07F10C0300221A6056
:10233C005A609A60DA601A610023BB60234B1B6CF5
:10234C00224A43F080531364204B1B6C03F08053E0
:10235C00BB60BB6800237B601D4B1B6823F44043B0
:10236C001B4A43F480431360194B1B6803F440432E
:10237C007B607B6802233B620123FB6210233B637F
:10238C000023BB6307F120031846FEF71BFC034632
:10239C00002B01D000F0FCF90F23FB6000233B6104
:1023AC0000237B610023BB610023FB6107F10C035D
:1023BC0000211846FEF776FE0346002B01D000F0F4
:1023CC00E7F900BF5037BD4680BD00BF0038024062
:1023DC000070004080B500AF114B124A1A60104BD0
:1023EC004FF4E1325A600E4B00229A600C4B0022E3
:1023FC00DA600B4B00221A61094B0C225A61084B14
:10240C0000229A61064B0022DA610548FFF718F8A2
:10241C000346002B01D000F0BBF900BF80BD00BF0C
:10242C002C0000200078004080B588B000AF07F188
:10243C000C0300221A605A609A60DA601A61002359
:10244C00BB60354B1B6B344A43F040031363324B78
:10245C001B6B03F04003BB60BB6800237B602E4BFF
:10246C001B6B2D4A43F0100313632B4B1B6B03F0B8
:10247C0010037B607B6800233B60274B1B6B264A59
:10248C0043F020031363244B1B6B03F020033B60CE
:10249C003B6800224FF4FF712048FEF761FB0022DD
:1024AC004FF400611E48FEF75BFB00224FF48041A5
:1024BC001C48FEF755FB4FF4FF73FB6001233B6197
:1024CC0000237B610023BB6107F10C031946134801
:1024DC00FEF79CF94FF40063FB6001233B61002382
:1024EC007B610023BB6107F10C0319460C48FEF716
:1024FC008DF94FF48043FB6001233B6100237B612A
:10250C000023BB6107F10C0319460648FEF77EF960
:10251C0000BF2037BD4680BD003802400018024085
:10252C00001002400014024080B582B000AF786009
:10253C00884B1B78313B412B00F2038101A252F8EE
:10254C0023F000BF8D260008A5260008BD26000834
:10255C00D5260008ED260008052700081D270008D1
:10256C00352700084F2700084F2700084F27000881
:10257C004F2700084F2700084F2700084F27000857
:10258C004F2700084F2700084F2700084F27000847
:10259C004F2700084F2700084F2700084F27000837
:1025AC004F2700084F2700084F2700084F27000827
:1025BC004F2700084F2700084F2700084F27000817
:1025CC004F2700084F2700084F2700084F27000807
:1025DC004F2700084F2700084F2700084F270008F7
:1025EC004F2700084F2700084F2700084F270008E7
:1025FC004F2700084F2700084F2700084F270008D7
:10260C004F2700084F2700084F2700084F270008C6
:10261C004F2700084F2700084F2700087326000893
:10262C004F2700084F2700084F2700084F270008A6
:10263C004F2700084F2700084F2700084F27000896
:10264C004F2700084F270008592600084FF4006157
:10265C004148FEF79DFA4FF0FF330A223F494048AC
:10266C00FEF73BFF6DE04FF480413E48FEF790FAD9
:10267C004FF0FF330C223C493948FEF72EFF60E047
:10268C0002213A48FEF784FA4FF0FF33072238490B
:10269C003348FEF722FF54E004213448FEF778FA61
:1026AC004FF0FF33072233492D48FEF716FF48E061
:1026BC0008212E48FEF76CFA4FF0FF3307222E4903
:1026CC002748FEF70AFF3CE010212848FEF760FA85
:1026DC004FF0FF33072229492148FEF7FEFE30E078
:1026EC0020212248FEF754FA4FF0FF3307222449E9
:1026FC001B48FEF7F2FE24E040211C48FEF748FA86
:10270C004FF0FF3307221F491548FEF7E6FE18E08D
:10271C0080211648FEF73CFA4FF0FF3307221A4986
:10272C000F48FEF7DAFE0CE04FF480710F48FEF70D
:10273C002FFA4FF0FF33072214490948FEF7CDFE5C
:10274C0000BF012203490648FEF760FF00BF0837AF
:10275C00BD4680BD6C00002000100240D829000846
:10276C002C00002000140240E4290008001802404C
:10277C00F4290008FC290008042A00080C2A000887
:10278C00142A00081C2A0008242A00082C2A0008F5
:10279C0080B400AF00BFBD4680BC704780B483B02E
:1027AC0000AF00237B600F4B5B6C0E4A43F48043FD
:1027BC0053640C4B5B6C03F480437B607B6800239D
:1027CC003B60084B1B6C074A43F080531364054B6A
:1027DC001B6C03F080533B603B6800BF0C37BD465D
:1027EC0080BC70470038024080B58AB000AF78607A
:1027FC0007F1140300221A605A609A60DA601A61B9
:10280C007B681B681D4A934234D100233B611C4BEF
:10281C001B6C1B4A43F080431364194B1B6C03F075
:10282C0080433B613B690023FB60154B1B6B144AD7
:10283C0043F010031363124B1B6B03F01003FB608C
:10284C00FB684FF4C0737B610223BB610123FB6106
:10285C0003233B6208237B6207F1140319460948E2
:10286C00FDF7D4FF002200215220FDF778FF522003
:10287C00FDF791FF00BF2837BD4680BD00780040B2
:10288C00003802400010024080B400AF00BFBD46CB
:10289C0080BC704780B400AFFEE780B400AFFEE7A9
:1028AC0080B400AFFEE780B400AFFEE780B400AFA9
:1028BC0000BFBD4680BC704780B400AF00BFBD46B2
:1028CC0080BC704780B400AF00BFBD4680BC704771
:1028DC0080B500AFFDF750FE00BF80BD80B500AFE6
:1028EC000248FEF7E7FE00BF80BD00BF2C000020B1
:1028FC0080B400AF034B4FF000629A6000BFBD463E
:10290C0080BC704700ED00E0DFF834D0002103E01C
:10291C000C4B5B58435004310B480C4B42189A42F9
:10292C00F6D30B4A02E0002342F8043B094B9A42CF
:10293C00F9D3FFF7DDFF00F011F8FFF7D7FC704774
:10294C00000003205C2A0008000000200C0000207E
:10295C000C00002070000020FEE7000070B50D4D4B
:10296C000D4C641BA4100026A64209D10B4D0C4C37
:10297C0000F020F8641BA4100026A64205D170BDFF
:10298C0055F8043B98470136EEE755F8043B984759
:10299C000136F2E7542A0008542A0008542A000889
:1029AC00582A000802440346934200D1704703F8AA
:1029BC00011BF9E7F8B500BFF8BC08BC9E46704790
:0C29CC00F8B500BFF8BC08BC9E46704780
:1029D8004C45445F524544210D0A00004C45445F74
:1029E800475245454E210D0A000000004C45443130
:1029F800210D0A004C454432210D0A004C45443350
:102A0800210D0A004C454434210D0A004C4544353B
:102A1800210D0A004C454436210D0A004C45443727
:102A2800210D0A004C454438210D0A000000000021
:102A38000000000001020304060708090000000066
:042A48000102030480
:082A4C00D0D7FF7F010000005C
:042A5400D1010008A4
:042A5800AD010008C4
:0C2A5C0010000000010000000024F40045
:0400000508002915B1
:00000001FF
