:020000040800F2
:100000008817002095020008DF4B0008E14B00082C
:10001000E54B0008E94B0008ED4B0008000000002C
:10002000000000000000000000000000B102000815
:10003000F14B000800000000B5020008B7020008FC
:10004000B9020008B9020008B9020008B9020008A4
:10005000B9020008B9020008B9020008B902000894
:10006000B9020008B9020008B9020008B902000884
:10007000B9020008B9020008B9020008B902000874
:10008000B9020008B9020008B90200085551000879
:1000900023510008B9020008B9020008399300088A
:1000A000B9020008B9020008B9020008B902000844
:1000B000B9020008B9020008B9020008B902000834
:1000C000B9020008B9020008B9020008B902000824
:1000D000B9020008273E0008B9020008B90200086A
:1000E000B9020008B9020008B9020008B902000804
:1000F000B9020008B9020008B9020008B9020008F4
:10010000B9020008B9020008B9020008B9020008E3
:10011000B9020008B9020008714F0008B9020008CE
:10012000B902000821640008DB5D0008B90200087C
:10013000B9020008B9020008B9020008B9020008B3
:10014000B5520008B9020008B9020008B902000857
:1001500059930008B9020008B9020008B902000862
:10016000B9020008B9020008B9020008B902000883
:10017000B9020008B9020008B90200080000000036
:10018000B9020008B902000827730008B902000884
:10019000B9020008B9020008B9020008B902000853
:1001A0000000000000000000B902000800F002F8A2
:1001B00000F060F80AA090E8000C82448344AAF1A1
:1001C0000107DA4501D100F055F8AFF2090EBAE89F
:1001D0000F0013F0010F18BFFB1A43F0010318477B
:1001E00020E1000040E100000A444FF0000C10F84C
:1001F000013B13F0070408BF10F8014B1D1108BFA5
:1002000010F8015B641E05D010F8016B641E01F844
:10021000016BF9D113F0080F1EBF10F8014BAD1C94
:100220000C1B09D16D1E58BF01F801CBFAD505E0B2
:1002300014F8016B01F8016B6D1EF9D59142D6D30C
:10024000704700000023002400250026103A28BF34
:1002500078C1FBD8520728BF30C148BF0B60704738
:100260001FB50DF0A5F89DE8030009F09FFC1FBD28
:1002700010B510BD09F04FFD1146FFF7F1FF04F076
:10028000A1FC09F06DFD03B4FFF7F2FF03BC03F01E
:100290006BFD00000C48016841F4700101600B48DF
:1002A00080470B480047FEE7FEE7FEE7FEE7FEE774
:1002B000FEE7FEE7FEE7FEE7FEE700000548064929
:1002C000044A064B7047000088ED00E0054D000829
:1002D000AD01000888130020881700208813002033
:1002E00032490143324A1160704770B50021002342
:1002F0000F22C4781CB32E4C246804F4E064C4F5C7
:10030000E064C4F30721C1F10404E3B20A41447874
:100310009C40E1B28478144021430C07210E254C07
:1003200005786155047804F01F050124AC40057878
:100330006D11AD0005F1E025C5F8004109E0047834
:1003400004F01F050124AC401B4D0678761145F8DA
:10035000264070BD194A0A400243154B1B1F1A6004
:10036000704739B1124A121D12680243104B1B1D0F
:100370001A6006E00E4A121D126882430C4B1B1DC8
:100380001A607047042808D14FF0E021096941F054
:1003900004014FF0E022116107E04FF0E02109690C
:1003A00021F004014FF0E022116170470000FA05CE
:1003B0000CED00E000E400E080E100E080FFFF1FC2
:1003C00010B50121080202F0A1F800214FF480705D
:1003D00002F09CF810BD30B50246002000235068A2
:1003E000F84C20400D790C6844EA05242043506005
:1003F0009068F54C2040D1E903542C438D682C4380
:100400004D7944EA450420439060D06A20F470009E
:100410000C7D641EE4B2234340EA0350D06230BD39
:1004200000210160017141718160C16001610121A0
:10043000017570470021E54A1168E54A1140D0E98D
:1004400000231A4383681A43C3681A431143E14ADD
:10045000C2F8041370470021016041608160C160EF
:10046000704721B1826842F00102826003E0826835
:1004700022F00102826070470A4600214168D64B93
:1004800019401143416070474162826270470A46D9
:100490000021416821F01F0111434160704738B1CC
:1004A000CA49096841F40001CA4AC2F8041306E0C7
:1004B000C649096821F40001C64AC2F8041370470E
:1004C00038B1C249096841F48001C24AC2F8041334
:1004D00006E0BE49096821F48001BE4AC2F804134F
:1004E0007047F0B504460D4600200021092D11DDAE
:1004F000E068A5F10A0606EB4607072606FA07F1AB
:100500008843A5F10A0606EB460603FA06F10843FE
:10051000E0600CE0206905EB4507072606FA07F1C5
:10052000884305EB450603FA06F108432061072AD4
:100530000FDA606B561E06EB86071F2606FA07F1D8
:100540008843561E06EB860605FA06F108436063EB
:1005500022E00D2A0FDA206BD61F06EB86071F2636
:1005600006FA07F18843D61F06EB860605FA06F160
:100570000843206310E0E06AA2F10D0606EB86074F
:100580001F2606FA07F18843A2F10D0606EB860640
:1005900005FA06F10843E062F0BD816841F0804150
:1005A00081607047014600208A6802F080420AB1EB
:1005B000012000E00020704721B1826842F480628F
:1005C000826003E0826822F480628260704721B119
:1005D000826842F00202826003E0826822F0020236
:1005E0008260704710B50A4600210023416821F45B
:1005F0006041531E41EA4331416010BD21B1426860
:1006000042F40062426003E0426822F40062426009
:1006100070470146C86C80B270476C48001D006886
:10062000704721B1826842F48072826003E0826880
:1006300022F480728260704721B1826842F40072B5
:10064000826003E0826822F400728260704738B1F1
:100650005E49096841F400515E4AC2F8041306E09D
:100660005A49096821F400515A4AC2F804137047E4
:10067000F0B504461546002000220026092911DDA8
:10068000E068A1F10A0707EB470C072707FA0CF20D
:100690009043A1F10A0707EB470703FA07F210435B
:1006A000E0600CE0206901EB410C072707FA0CF22F
:1006B000904301EB410703FA07F210432061A06B5E
:1006C000C0F30156EF1C06F1010CA7EB0C0707EB7A
:1006D000870C1F2707FA0CF29043EF1C06F1010C60
:1006E000A7EB0C0707EB870701FA07F21043A0639B
:1006F000F0BD10B50A4600210023816B21F44011A2
:10070000531E41EA0351816310BD08B500230093D5
:100710000090009B0B440093009B1A6008BD0A46A2
:100720000021816821F470211143816070470A46DD
:100730000021816821F44011114381607047816874
:1007400041F4800181607047014600208A6802F40C
:1007500080020AB1012000E00020704721B1426808
:1007600042F48062426003E0426822F480624260A8
:10077000704721B1426842F48052426003E042680F
:1007800022F480524260704708B502460020009073
:10079000009201F12800009B184400900098006826
:1007A00080B208BD10B50B460021D9B2012404FA6D
:1007B00001F11AB144680C43446002E044688C4380
:1007C000446010BDFFFEFFFCFDF7FFC004230140A5
:1007D000E030FCFF00200140FFFD3FFF024600200B
:1007E00013680B400BB1012000E000207047CA43A2
:1007F0000260704770B502460020002300240B12EF
:10080000556801268E4005EA060415681D4015B19D
:100810000CB1012000E0002070BD00220A12D34379
:100820000360704710B50446FE48844209D1012197
:10083000480601F05AFE00214FF0007001F055FE0D
:1008400008E00121880601F050FE00214FF0806091
:1008500001F04BFE10BD30B50246002000231468A5
:1008600024F002041460146844F00104146000E0F1
:100870005B1C546804F001041CB94FF6FF74A342DA
:10088000F6D1546804F001040CB900206CE08C79B6
:10089000012C04D1146844F08004146003E014684F
:1008A00024F080041460CC79012C04D1146844F045
:1008B0004004146003E0146824F0400414600C7ACF
:1008C000012C04D1146844F02004146003E014687F
:1008D00024F0200414604C7A012C04D1146844F0F4
:1008E0001004146003E0146824F0100414608C7A7F
:1008F000012C04D1146844F00804146003E0146867
:1009000024F008041460CC7A012C04D1146844F05B
:100910000404146003E0146824F0040414608C7868
:10092000A407CD7844EA05640D7944EA05444D797D
:1009300044EA05540D886D1E2C43D461146824F0DC
:1009400001041460002300E05B1C546804F00104FF
:100950001CB14FF6FF74A342F6D1546804F00104B1
:100960000CB1002000E0012030BD10B50021837AD9
:10097000012202FA03F1AC4A126842F00102AA4BCA
:100980001A60A94A1C3212688A43A74B1C331A60AA
:10099000027BCAB9A44A0C3212688A43A24B0C33B8
:1009A0001A604288C38842EA03439F4A4032847AED
:1009B00042F834300288838842EA03439A4A40323C
:1009C000847A02EBC4025360027B012A19D1964A51
:1009D0000C3212680A43944B0C331A604288038825
:1009E00042EA0343904A4032847A42F83430C28863
:1009F000838842EA03438C4A4032847A02EBC40281
:100A00005360C27A3AB9884A121D12688A43864BEB
:100A10001B1D1A6006E0844A121D12680A43824BAD
:100A20001B1D1A60028932B97F4A143212688A4348
:100A30007D4B14331A600289012A06D17A4A143296
:100A400012680A43784B14331A60427B012A06D19C
:100A5000754A1C3212680A43734B1C331A60724A7F
:100A6000126822F00102704B1A6010BD00218171E2
:100A7000C171017241728172C1728170C1700321B2
:100A800001710221417101210180704766490968A5
:100A900041F00101644A11601146096843F60E7283
:100AA0009143614A11601146096841EA00211160D1
:100AB0001146096821F001011160704721B10268F7
:100AC00042F48032026003E0026822F48032026065
:100AD0007047E1B1026842F0800202604FF4C272D6
:100AE000125842F480734FF4C27213504FF4CA721A
:100AF000125842F480734FF4CA7213504FF4D272FA
:100B0000125842F480734FF4D27213501BE0026803
:100B100022F0800202604FF4C272125822F48073F5
:100B20004FF4C27213504FF4CA72125822F48073F9
:100B30004FF4CA7213504FF4D272125822F48073D9
:100B40004FF4D2721350704710B5024600209368DC
:100B500003F08063B3F1806F00D110E0936803F07D
:100B60000063B3F1006F01D1012008E0936803F046
:100B70008053B3F1805F01D1022000E004200428FB
:100B800079D002F5C07303EB00131B6803F0010476
:100B900002F5C07303EB00131C600B7A7BB94B7A30
:100BA0000C8843EA445302F5C07404EB0014246833
:100BB000234302F5C07404EB0014236010E00B7AA9
:100BC0004C6843EAC4034C7A234302F5C07404EB37
:100BD00000142468234302F5C07404EB001423605E
:100BE0008B7A03F00F038B7202F5C07303EB0013D3
:100BF0005B6823F00F0402F5C07303EB00135C6025
:100C000002F5C07303EB00135B688C7A234302F593
:100C1000C07404EB001463608B7B1C064B7B44EABE
:100C2000034403E000640040006600400B7B44EA9C
:100C30000323CC7A234302F5C07404EB0014A360B1
:100C40008B7C1C064B7C44EA03440B7C44EA032364
:100C5000CC7B234302F5C07404EB0014E36002F57F
:100C6000C07303EB00131B6843F0010402F5C0736B
:100C700003EB00131C6010BD10B50246002321B128
:100C8000012907D002290FD109E09068F94C00EA48
:100C900004030BE09068F84C00EA040306E0906857
:100CA000F64C00EA040301E0002300BF00BFF44C4F
:100CB000181BA34216D007DC83B16FF08060184484
:100CC00070B1022818D111E0B0F5007F10D0ED4CC2
:100CD000204448B1B0F5003F0ED10BE002230DE0F7
:100CE00000230BE0002309E0002307E0012305E0D7
:100CF000012303E0012301E0002300BF00BFD8B2BD
:100D000010BD21B1012907D002290FD109E0826865
:100D100042F0800282600AE0826842F4004282600F
:100D200005E0826842F40002826000E000BF00BF7C
:100D3000704710B500F5D87303EB01131B6803F07F
:100D400004031372137A53B900F5D87303EB01133C
:100D50001B6840F2FF7404EA5353136009E000F586
:100D6000D87303EB01131B686FF0604404EAD303EC
:100D7000536000F5D87303EB01131B6803F0020303
:100D8000537200F5D87303EB01135B6803F00F0394
:100D9000937200F5D87303EB01135B681B0AD374DD
:100DA00000F5D87303EB01139B68D37200F5D87379
:100DB00003EB01139B681C0A147300F5D87303EB53
:100DC00001139B681C0C547300F5D87303EB0113DB
:100DD0009B681B0E937300F5D87303EB0113DB685C
:100DE000D37300F5D87303EB0113DB681C0A14748A
:100DF00000F5D87303EB0113DB681C0C547400F589
:100E0000D87303EB0113DB681B0E937421B9C3681D
:100E100043F02003C36003E0036943F02003036150
:100E200010BD21B9C26842F02002C26003E002692D
:100E300042F02002026170470246002019B9D368CF
:100E400003F0030006E0012903D1136903F0030056
:100E500000E00020704710B502460B4600204FF618
:100E6000FF71BBB9146824F0020444F0010414605B
:100E700000E0491E546804F00304012C01D000294D
:100E8000F7D1546804F00304012C01D0002032E0B3
:100E9000012030E0012B13D1146824F00304146006
:100EA00000E0491E546804F003040CB10029F8D195
:100EB000546804F003040CB100201CE001201AE087
:100EC000022B17D1146824F0010444F002041460CA
:100ED00000E0491E546804F00304022C01D00029EC
:100EE000F7D1546804F00304022C01D0002002E082
:100EF000012000E0002010BD014600200A6822F019
:100F0000010242F002020A604A6802F00302022A69
:100F100000D10120704701464FF6FF7200200B6898
:100F200023F002030B6000E0521E4B6803F0020343
:100F3000022B01D1002AF7D14B6803F00203022BE8
:100F400000D001207047014600208A6902F070003D
:100F50007047014600208A69100E70470146002044
:100F60008A69C2F3074070471AB143690B43436172
:100F700002E043698B434361704710B5024600208D
:100F800001F4700343B19369C1F3130423400BB11F
:100F900001202DE000202BE001F0807343B1536865
:100FA000C1F3130423400BB1012021E000201FE016
:100FB00001F0006343B19368C1F3130423400BB104
:100FC000012015E0002013E001F0007343B1D36865
:100FD000C1F3130423400BB1012009E0002007E016
:100FE0001369C1F3130423400BB1012000E000207A
:100FF00010BD0022244B994202D10023836111E0ED
:10100000C1F3130201F000730BB1C2600AE001F0FA
:1010100080630BB1026105E001F000630BB18260F7
:1010200000E0426070470246002002EA01030BB173
:10103000012000E00020704770B504460D460026F0
:1010400060692840002872D0B5F5807F69D01DDC2A
:10105000082D42D006DC012D2DD0022D31D0042DDB
:101060007FD134E0102D3ED0202D42D0402D78D1BC
:1010700045E0000003000004000300080000031026
:10108000000100080001FFF77000F030B5F5004FD7
:1010900061D009DCB5F5007F4AD0B5F5806F4DD041
:1010A000B5F5006F5DD150E0B5F5803F2DD0B5F5B9
:1010B000003F56D12FE0A0685549FFF7B4FF064620
:1010C00051E0E0680321FFF7AEFF06464BE0E06821
:1010D0000821FFF7A8FF064645E0E0681021FFF76A
:1010E000A2FF06463FE020690321FFF79CFF06466A
:1010F00039E020690821FFF796FF064633E02069B2
:101100001021FFF790FF06462DE060680821FFF7E9
:101110008AFF064627E060681021FFF784FF064635
:1011200021E0A0690121FFF77EFF06461BE01BE0DE
:10113000A0690221FFF777FF064614E0A0690421A9
:10114000FFF771FF06460EE00BE0A0697021FFF784
:101150006AFF064607E060680421FFF764FF064661
:1011600001E0002600BF00E00026304670BDB1F56A
:10117000007F3AD00FDC202928D006DC01291CD0C2
:1011800004291DD0082940D11DE0402921D0B1F506
:10119000807F3AD126E0B1F5004F31D006DCB1F5C1
:1011A000806F25D0B1F5006F2FD124E0B1F5803FDD
:1011B00012D0B1F5003F28D111E0154A826025E038
:1011C0000822C26022E01022C2601FE008220261F1
:1011D0001CE01022026119E00822426016E0102291
:1011E000426013E00422426010E0042242600DE0FD
:1011F000042242600AE0002282610422426005E08B
:10120000002282610422426000E000BF00BF7047FC
:1012100001010100016821F001010160002101606C
:1012200041608160C160016121214161DB498842E7
:1012300004D13D21D94A103A91608CE0D749183148
:10124000884205D14FF47461D44A103A916082E02B
:10125000D2493031884205D14FF47411CF4A103A47
:10126000916078E0CD494831884205D14FF07461F2
:10127000CA4A103A91606EE0C8496031884204D190
:10128000C749C64A103AD16065E0C44978318842FE
:1012900004D1C449C14A103AD1605CE0BF499031E1
:1012A000884204D1C049BD4A103AD16053E0BB49DD
:1012B000A831884205D14FF03D51B84A103AD1606B
:1012C00049E0BA49884204D13D21B84A083A116040
:1012D00041E0B6491831884205D14FF47461B34AF0
:1012E000083A116037E0B1493031884205D14FF4F6
:1012F0007411AE4A083A11602DE0AC494831884279
:1013000005D14FF07461A94A083A116023E0A7495A
:101310006031884204D1A249A44A121F11601AE028
:10132000A2497831884204D19E49A04A121F116017
:1013300011E09E499031884204D19B499B4A121F7B
:10134000116008E09949A831884204D14FF03D511D
:10135000964A121F1160704710B500220268944B24
:101360001A40CC680B6823434C6923438C692343A0
:10137000CC6923430C6A23434C6A23438C6A23437E
:101380004C6B23438C6B23431A430260426922F067
:101390000702D1E90B3423431A4342610B694360CE
:1013A0004B6883608B68C36010BD002101604160A1
:1013B0008160C160016141618161C161016241621D
:1013C0008162C162016341638163704721B1026838
:1013D00042F00102026003E0026822F001020260B2
:1013E000704721B1026842F40042026003E00268E3
:1013F00022F400420260704721B1026842F02002EC
:10140000026003E0026822F020020260704741603F
:1014100070470146486880B2704722B1036843F4C0
:101420000023036003E0036823F4002303600161E9
:10143000704721B1026842F48022026003E0026832
:1014400022F48022026070470AB1016100E0C160AD
:101450007047014600200A6802F400220AB1012008
:1014600000E000207047014600200A6802F00102F7
:101470000AB1012000E000207047014600204A69BF
:1014800002F03800704730B503460A4600200024B9
:10149000464DAB4202D24149103901E0434910396F
:1014A00002F000550DB14C6800E00C68414D2C4035
:1014B00004EA02050DB1012000E0002030BD024623
:1014C0003A4B9A4202D23548103801E0374810387A
:1014D00001F000531BB1374B0B40C36002E0354BAA
:1014E0000B408360704710B501F080034BB122B10F
:1014F000436943F08003436103E0436923F08003C1
:10150000436180290BD02AB1036801F01E042343F4
:10151000036004E0036801F01E04A343036010BDF0
:1015200070B50246002000240025204EB24202D2AF
:101530001A4B103B01E01D4B103B1F4E0E4036B1C5
:101540001E2606EAD124166806EA040502E056695A
:1015500006F0800501F000560EB15C6800E01C68E2
:10156000144E344004EA010616B10DB1012000E02A
:10157000002070BD02460D4B9A4202D20748103837
:1015800001E00A48103801F000531BB1094B0B4031
:10159000C36002E0074B0B4083607047106002405D
:1015A0003D000020400F002000003D20106402405C
:1015B0003F801CF07D0F7D0F3C0F3C0F0020414908
:1015C0000860091D0860091D0860091D08603E4883
:1015D0003C4914310860704700213A498279002A59
:1015E0003AD00A46126803689A430B461A600A1DED
:1015F000126803689A430B1D1A60027911440A6845
:1016000003681A430A602F4A0832126803689A4333
:101610002C4B08331A601A1D126803689A43294B31
:101620000C331A604279102A0ED11A1F126803680F
:101630001A43244B08331A601A1D126803681A43B0
:10164000204B0C331A600DE01E49427911440A68A0
:1016500003681A430A6005E0027911440A680368C6
:101660009A430A6070470021016001710C214171A9
:101670000021817170471349103109680143114AF3
:10168000103211607047014600200E4A1432126871
:101690000A400AB1012000E00020704709491431D6
:1016A0000860704701460020064A143212680A405A
:1016B0000AB1012000E0002070470249143108609F
:1016C00070470000003C0140FFFF7F00FE4A1070A1
:1016D000704730B1FC49096841F48071FA4A1160E1
:1016E00005E0F949096821F48071F74A11607047F3
:1016F00030B1F549096841F40071F34A116005E021
:10170000F149096821F40071EF4A1160704730B166
:10171000ED49096841F48061EB4A116005E0EA494E
:10172000096821F48061E84A11607047E648006862
:1017300040F40060E44908607047E348006840F402
:101740008050E14908607047DF481030006800F0C1
:10175000004028B1DD48DC49091D0860DC4808600C
:101760007047D9481030006840F00040D649103129
:10177000086070470920D4490C31096801F48031B0
:10178000B1F5803F01D1012020E0CF490C3109683B
:1017900001F0100109B1062018E0CB490C310968AD
:1017A00001F4807109B1022010E0C7490C310968C9
:1017B00001F0E00109B1072008E0C3490C310968D4
:1017C00001F0020109B1082000E00920704708B5C6
:1017D00009200090FFF7CEFF009002E0FFF7CAFF5C
:1017E00000909DF800000128F8D09DF8000008BD89
:1017F00070B504460A460026092502B909E0012A07
:1018000001D1160205E0022A01D1160201E04FF4CF
:101810004076FFF7DCFF0546092D2DD1AA48103090
:10182000006820F44070A84910310860084600683C
:10183000304308600846006820F0F8000860084659
:10184000006844F0020108439F49103108600846CF
:10185000006840F480300860FFF7B9FF05469A48F9
:101860001030006820F002009749103108600846E7
:10187000006820F0F8000860284670BD30B50246C8
:1018800000250924FFF7A3FF044602B909E0012A55
:1018900001D1150205E0022A01D1150201E04FF441
:1018A0004075092C23D188481030006820F440701E
:1018B00085491031086008460068284308600846DA
:1018C0000068C91308438049103108600846006861
:1018D00040F480300860FFF77AFF04467A48103001
:1018E000006848F2040188437749103108602046B7
:1018F00030BD30B5024600250924FFF768FF0446D5
:1019000002B909E0012A01D1150205E0022A01D13C
:10191000150201E04FF44075092C20D16A481030BF
:10192000006820F44070684910310860084600687B
:10193000284308600846006840F004000860084634
:10194000006840F480300860FFF741FF04465E48BD
:101950001030006820F004005B4910310860204618
:1019600030BD30B5024600250924FFF730FF04469C
:1019700002B909E0012A01D1150205E0022A01D1CC
:10198000150201E04FF44075092C20D14E4810306B
:10199000006820F440704C49103108600846006827
:1019A000284308600846006840F400400860084684
:1019B000006840F480300860FFF709FF04464248A1
:1019C0001030006820F400403F4910310860204684
:1019D00030BD70B5064614461D460922FFF7F7FED6
:1019E0000246092A1ED138481030006820F44070A1
:1019F0003549103108600846006840F440700860BE
:101A00000846006840F00100086034607560FFF728
:101A1000DEFE02462C481030006820F001002A4902
:101A200010310860104670BD30B502460C460925DD
:101A3000FFF7CDFE0546092D1DD123481030006863
:101A400020F440702049103108600846006840F4D6
:101A5000007008600846006840F0010008601460EB
:101A6000FFF7B5FE054618481030006820F0010069
:101A7000154910310860284630BD30B502460C4685
:101A80000925FFF7A4FE0546092D24D10E48103084
:101A9000006820F440700C49103108600846006866
:101AA00040F4807008600846006840F0010008605B
:101AB0001480FFF78CFE054603481030006820F0C4
:101AC00001000149103105E0003C02402301674557
:101AD000AB89EFCD0860284630BD30B502460C46D4
:101AE0000925FFF774FE0546092D17D19A480068AD
:101AF00020F440709849086008460068086008466D
:101B0000006840F0010008601470FFF760FE0546B1
:101B10009148006820F001008F490860284630BDD8
:101B20008D48001D006800F0010028B18B488A49EB
:101B3000083908608A48086070478748001D0068B7
:101B400040F001008449091D0860704730B5024625
:101B50000C460925FFF73BFE0546092D10D13CB187
:101B60007D48801D008890437B49891D088007E0DF
:101B70007948801D008891B208437749891D088003
:101B800030BD30B502460C460925FFF720FE05465C
:101B9000092D10D13CB170480A30008890436E493D
:101BA0000A31088007E06C480A30008891B2084387
:101BB00069490A31088030BDFF21674AD21D127879
:101BC00002F07F0140EA0102634BDB1D1A7070478F
:101BD00030B502460C460925FFF7F9FD0546092DEB
:101BE00010D144B15C48801D008891B208435A4925
:101BF000891D088006E05848801D0088904356499A
:101C0000891D088030BD30B502460C460925FFF716
:101C1000DEFD0546092D10D144B14F480A30008839
:101C200091B208434C490A31088006E04A480A301C
:101C30000088904348490A31088030BD10B50246FB
:101C40000924FFF7C4FD0446092C02D14248401D77
:101C5000027010BDF0B504460D46FF260927FFF7B8
:101C6000B6FD0746092F0BD13B48001D007800F058
:101C70001F0645EA0600104320433749091D087036
:101C8000F0BD3549091D097821F01001324A121DB5
:101C90001170114609780143117070472E49091DD2
:101CA000097821F00C012C4A121D11701146097897
:101CB00001431170704700B509222748001D0078C4
:101CC00040F002002449091D0870FFF780FD02461C
:101CD000104600BD2048001D0068C0F34710704743
:101CE0001D48801D008870471B480A3000887047D7
:101CF0001948801D0088704717480A3000887047CF
:101D000000201549491D0978AA2901D0012000E0C9
:101D1000002070471048001D007800F00C0070474C
:101D200029B10D4A126802430B4B1A6004E00A4ABB
:101D300012688243084B1A60704701460020064A29
:101D4000121F12680A400AB1012000E0002070470B
:101D50000149091F08607047103C02403B2A1908DE
:101D60007F6E5D4C10B504469848844208D101212D
:101D7000084600F087FB0021012000F083FB76E09D
:101D80009348844208D10121022000F07BFB00210E
:101D9000022000F077FB6AE08E48844208D10121DE
:101DA000042000F06FFB0021042000F06BFB5EE0DC
:101DB0008948844208D10121082000F063FB0021FA
:101DC000082000F05FFB52E08448844208D10121E2
:101DD000102000F057FB0021102000F053FB46E0DC
:101DE0007F48844208D10121202000F04BFB0021D4
:101DF000202000F047FB3AE07A48844208D10121D4
:101E0000402000F03FFB0021402000F03BFB2EE093
:101E10007548844208D10121802000F033FB002165
:101E2000802000F02FFB22E07048844208D101217D
:101E3000801500F027FB0021A01500F023FB16E021
:101E40006B48844208D10121401500F01BFB0021A2
:101E5000601500F017FB0AE06648844207D10121B3
:101E6000001500F00FFB0021201500F00BFB10BD4A
:101E7000F0B50A4600210023002400BF3DE0012503
:101E800005FA01F3156805EA03049C4234D105689C
:101E90004F000326BE40B543056015794E00B5409E
:101EA0000668354305601579012D02D01579022D9C
:101EB00016D185684F000326BE40B543856055792D
:101EC0004E00B540866835438560456801268E40E2
:101ED000B5434560456896798E40B6B23543456056
:101EE000C5684F000326BE40B543C560D5794E0096
:101EF000B540C6683543C560491C1029BFD3F0BD45
:101F00004FF6FF7101600021017141718171C17152
:101F1000704708B54FF480320092009A0A4300924D
:101F2000009AC261C161009AC261C2690092C2692D
:101F3000009208BD0246002013690B400BB101203E
:101F400000E0002070470146086980B270470246F1
:101F5000002053690B400BB1012000E000207047C6
:101F60000146486980B270470183704741837047DA
:101F70000AB1018300E041837047416170474269C3
:101F80004A4042617047F0B5002300244D07ED0E32
:101F900002FA05F3CE1000F1200555F826504E0741
:101FA000F70E0F26BE40B543CF1000F1200646F8CD
:101FB0002750CE1000F1200555F8265045EA0304BD
:101FC000CE1000F1200545F82640F0BD000002408B
:101FD0000004024000080240000C024000100240D1
:101FE0000014024000180240001C02400020024081
:101FF0000024024000280240F648006840F001003A
:10200000F44908600020F34908310860F14800688D
:10201000F1490840EF490860F048091D0860F048A0
:10202000EC4984310860ED481038091D0860E94822
:10203000006820F48020E74908600020E5490C3161
:102040000860E4498C31086070470021E14A921C25
:10205000117011460870704710B501460022002328
:1020600000204A11012A02D1DA4C236808E0022A32
:1020700003D1D84C7034236802E0D64C7434236802
:1020800001F01F02012494401C400CB1012000E02B
:10209000002010BD38B5002000900024002500BFAE
:1020A0003120FFF7D9FF05460098401C00900098AA
:1020B000B0F5A04F01D0002DF2D03120FFF7CCFFBA
:1020C00008B1012400E00024204638BD014600206C
:1020D000C04A106820F0F80040EAC1001060704764
:1020E000C049086070470021BA4A703211701170FF
:1020F000012802D004280AD104E00121B54A703237
:10210000117005E00521B34A7032117000E000BF84
:1021100000BF7047B4490860704770B5049C41EA3D
:1021200082150126C6EB530645EA0645054345EAF6
:102130000465A84E361D356070BDAA490866704713
:1021400010B5830143EA016343EA0273A14C84346E
:10215000236010BDA3498866704710B5830143EA28
:10216000016343EA02739B4C8834236010BD9D4990
:10217000086770479B49C864704702460020954B2A
:102180000833186820F0EC6042EA01031843914BD1
:10219000083318607047024600208E4B08331868D9
:1021A00020F0784042EA010318438A4B0833186054
:1021B000704701460020874A0832106820F003006B
:1021C00008431060704783480830006800F00C0036
:1021D0007047014600207F4A0832106820F0F00066
:1021E000084310607047014600207A4A08321068A0
:1021F00020F4E05008431060704701460020754A03
:102200000832106820F4604040EAC1001060704756
:10221000F0B50021002200240225002602236D4F84
:1022200008373F6807F00C0121B1042905D00829BF
:1022300037D105E06D4F076036E06D4F076033E042
:10224000644F3F1D3F68C7F38056624F3F1D3F6894
:1022500007F03F036EB1664FB7FBF3F7DFF874C1C9
:102260000CF1040CDCF800C0CCF3881C07FB0CF468
:102270000CE05E4FB7FBF3F7DFF858C10CF1040C2C
:10228000DCF800C0CCF3881C07FB0CF4514F3F1D59
:102290003F68C7F301477F1C7D00B4FBF5F707607B
:1022A00002E0524F076000BF00BF4A4F08373F6847
:1022B00007F0F00109094F4F7A5C0768D740476083
:1022C000444F08373F6807F4E051890A494F7A5C68
:1022D0004768D74087603F4F08373F6807F4604141
:1022E000490B444F7A5C4768D740C760F0BD002176
:1022F00000F44072B2F5407F0AD1364A08321168C4
:1023000021F4F8113C4A02401143324A083211606C
:10231000304A70321268C0F30B031A432D4B7033EE
:102320001A60704730494439086070472E49403977
:102330000860704731490860704701460020254A0F
:102340008C32106820F4401008431060704701463A
:102350000020204A8C32106820F4400008431060AE
:102360007047014600201B4A8C32106820F01F0085
:102370004A1E1043174A8C321060704701460020F5
:10238000144A8C32106820F4F8504A1E40EA0220A9
:10239000104A8C3210607047014600200D4A8C3282
:1023A000106820F4403008431060704714490860FA
:1023B000704739B1074A303212680243054B303357
:1023C0001A6006E0034A303212688243014B303310
:1023D0001A60704700380240FFFFF6EA1030002410
:1023E0000030002000004742800E47420024F400E5
:1023F000001BB70000000020FFFCFF0F5C014742FC
:10240000E011474229B1934A12680243914B1A6086
:1024100004E0904A126882438E4B1A60704739B1CB
:102420008C4A121D126802438A4B1B1D1A6006E07B
:10243000884A121D12688243864B1B1D1A60704722
:1024400039B1844A0C3212680243824B0C331A6051
:1024500006E0804A0C32126882437E4B0C331A60CD
:10246000704739B17B4A103212680243794B1033FE
:102470001A6006E0774A103212688243754B1033B7
:102480001A60704739B1734A243A12680243714B9B
:10249000243B1A6006E06F4A243A126882436D4B6F
:1024A000243B1A60704739B16A4A203A12680243E5
:1024B000684B203B1A6006E0664A203A1268824365
:1024C000644B203B1A60704739B1624A1C3A12686B
:1024D0000243604B1C3B1A6006E05E4A1C3A1268DD
:1024E00082435C4B1C3B1A60704739B1594A143A1D
:1024F00012680243574B143B1A6006E0554A143ADF
:1025000012688243534B143B1A60704739B1514AE9
:10251000103A126802434F4B103B1A6006E04D4AD6
:10252000103A126882434B4B103B1A60704739B126
:10253000484A1C3212680243464B1C331A6006E0BC
:10254000444A1C3212688243424B1C331A60704763
:1025500039B1404A2032126802433E4B20331A60A0
:1025600006E03C4A2032126882433A4B20331A601C
:10257000704739B1374A243212680243354B24334D
:102580001A6006E0334A243212688243314B243306
:102590001A60704739B12F4A2C32126802432D4B12
:1025A0002C331A6006E02B4A2C3212688243294BE6
:1025B0002C331A60704739B1264A30321268024310
:1025C000244B30331A6006E0224A303212688243CC
:1025D000204B30331A607047012808D11D493C3127
:1025E000096841F008011B4A3C32116007E01949B3
:1025F0003C31096821F00801164A3C3211607047ED
:1026000039B1144A273A12780243124B273B1A7009
:1026100006E0104A273A127882430E4B273B1A7085
:1026200070470C484030006840F0807009494031E4
:102630000860704701460020064A283A12680A409E
:102640000AB1012000E000207047024926390870D5
:10265000704700003438024010B50446FB488442FD
:1026600008D101218014FFF751FF0021A014FFF7CA
:102670004DFF3CE0F648844208D101210014FFF7E9
:1026800034FF00212014FFF730FF30E0F14884428E
:1026900008D10121C013FFF728FF0021E013FFF745
:1026A00024FF24E0EC48844208D101214014FFF7C4
:1026B0002DFF00216014FFF729FF18E0E74884424E
:1026C00009D101210805FFF721FF00214FF48010F7
:1026D000FFF71CFF0BE0E248844208D101214805C6
:1026E000FFF714FF00214FF40010FFF70FFF10BD9C
:1026F00010B50022028802F441520B884C88234313
:102700008C882343CC8823430C8923434C8923435F
:102710008C892343CC8923431A430280838B4FF255
:10272000FF74234083830B8A038210BD2DE9F04F91
:102730000025022300244FF0010900220026002773
:1027400094469046B0F81CA04FF2400B0AEA0B0AE0
:10275000A0F81CA04FF0020AA0F820A0858BD1F8A9
:1027600008A0BAF1020F01D100BF82E0B1F804A0C5
:10277000BAF1000F02D14FF0010901E04FF0020958
:10278000DFF8E0A2DAF800A00AF4000ABAF1000FBC
:1027900009D0DFF8D0A2DAF800A02AF4000ADFF8A6
:1027A000C4B2CBF800A0DFF8BCA20AF17C0ADAF8C8
:1027B00000A0CAF3881CDFF8ACA20AF17C0ADAF8A0
:1027C00000A0CAF30278DFF89CA2AAF1040ADAF8A2
:1027D00000A00AF03F07DFF88CA2AAF1040ADAF899
:1027E00000A00AF4800ABAF5800F08D1DFF878A2B9
:1027F000BAFBF7FA0AFB0CFABAFBF8F607E0DFF8C7
:102800006CA2BAFBF7FA0AFB0CFABAFBF8F6B1F8BD
:1028100006A0BAF5007F0ED14FEA162A0AEB8A0A03
:102820004FEA4A0AD1F808B0BAFBFBFA0AF1050AE6
:102830001FFA8AF20FE04FEA491AB6FBFAFA0AEBDE
:102840008A0A4FEA4A0AD1F808B0BAFBFBFA0AF141
:10285000050A1FFA8AF24FF00A0AB2FBFAF202F0F6
:102860000104A2EB040ACAF34F034FF6FF7A0AEA07
:102870000424022B01DBFF2B01DD02230024B1F82D
:1028800006A04AEA040A4AEA030AA0F820A0B1F81E
:1028900004A0B1F80CB04AEA0B0AB1F802B04AEA57
:1028A0000B0AB1F800B04AEA0B0A4AF4006A4AEA95
:1028B00005058583BDE8F08F00210180418081807E
:1028C000C180018141818181C181072101827047DD
:1028D0000021018041808180C1800221816000212E
:1028E0008181704721B1028842F04002028004E0F9
:1028F00002884FF6BF731A400280704721B1828B65
:1029000042F48062828304E0828B4FF6FF331A40E8
:102910008283704702884FF2FF731A400280028858
:102920000A4302807047B1F5804F04D1028842F417
:102930008042028004E002884BF6FF731A40028056
:1029400070474FF6FF62914204D0028842F48072D1
:10295000028004E002884FF6FF631A40028070474D
:1029600021B1828842F00402828004E082884FF61E
:10297000FB731A408280704721B1828842F01002B6
:10298000828004E082884FF6EF731A40828070479D
:1029900030B500220023848B4FF240052C40848305
:1029A00002240484828B0C88B4F5007F01D00C884B
:1029B00014B94FF4807308E00C88B4F5407F03D05D
:1029C0000C88B4F5807F00D100238C888D892C433E
:1029D0004D882C431C4344F400642243828330BD61
:1029E0000146888970478181704721B1028842F48D
:1029F0000052028004E002884DF6FF731A40028004
:102A00007047018841F480510180704702460020E0
:102A1000012901D0108B00E0908A70470146088A96
:102A200070471AB183880B43838002E083888B430D
:102A30008380704730B5002400230C110125A54088
:102A4000ABB2AAB185881D43858014E000300140F7
:102A500000380040003C004000340140005001407C
:102A60000054014008380240001BB7000024F40065
:102A700085889D43858030BD0246002013890B4028
:102A80000BB1012000E000207047CA43028170476B
:102A9000F0B50246002000240023002501F00F07B6
:102AA0000126BE40B4B20B1101269E40B3B29688F7
:102AB00006EA03051689264016B10DB1012000E093
:102AC0000020F0BD10B5002201F00F040123A34047
:102AD0009AB2D343038110BD10B501218803FFF7DB
:102AE00015FD00214FF48040FFF710FD10BD1C497B
:102AF000086070471B490862704730B500228B0799
:102B00001C0F0F2303FA04F2154B08338C1053F8F3
:102B100024309343124C08348D1044F8253023465A
:102B20008C1053F824308C07240F00FA04F423434C
:102B30000B4C08348D1044F8253030BD0949DC3188
:102B40000860704708490860704700200449203138
:102B5000096801F4807109B1012000E0002070478C
:102B600000380140000027420004274210B5044607
:102B7000FE48844208D101210846FFF7C7FC002126
:102B80000120FFF7C3FC9DE0B4F1804F08D1012183
:102B90000846FFF7AAFC00210120FFF7A6FC91E000
:102BA000F348844208D101210220FFF79EFC002156
:102BB0000220FFF79AFC85E0EE48844208D101210B
:102BC0000420FFF792FC00210420FFF78EFC79E03F
:102BD000E948844208D101210820FFF786FC002142
:102BE0000820FFF782FC6DE0E448844208D101210F
:102BF0001020FFF77AFC00211020FFF776FC61E03F
:102C0000DF48844208D101212020FFF76EFC00211B
:102C10002020FFF76AFC55E0DA48844208D1012100
:102C20000220FFF773FC00210220FFF76FFC49E050
:102C3000D548844209D101210804FFF767FC00212F
:102C40004FF48030FFF762FC3CE0D048844209D169
:102C500001214804FFF75AFC00214FF40030FFF730
:102C600055FC2FE0CA48844209D101218804FFF7AE
:102C70004DFC00214FF48020FFF748FC22E0C548BE
:102C8000844208D101214020FFF72FFC0021402081
:102C9000FFF72BFC16E0C048844208D101218020B8
:102CA000FFF723FC00218020FFF71FFC0AE0BB4850
:102CB000844207D101218015FFF717FC0021A015E0
:102CC000FFF713FC10BD00220288A84B98420ED0DB
:102CD000AC4B98420BD0B0F1804F08D0A44B984237
:102CE00005D0A44B984202D0A34B984204D14FF692
:102CF0008F731A404B881A43A04B984207D0A04BC1
:102D0000984204D04FF6FF431A400B891A430280C1
:102D10004B68C3620B880385944B984202D0994B51
:102D2000984201D18B7A03860123838270474FF04A
:102D3000FF31416000210180018141808172704733
:102D40000185828270470A46002101884FF68F7301
:102D5000194011430180704741627047C16270475A
:102D60000146486A70470146088D704721B10288C4
:102D700042F00202028004E002884FF6FD731A401E
:102D80000280704721B1028842F00402028004E010
:102D900002884FF6FB731A400280704721B1028807
:102DA00042F08002028004E002884FF67F731A40EE
:102DB0000280704702884FF6F7731A40028002883B
:102DC0000A430280704702884FF6FF431A40028090
:102DD00002880A430280704721B1028842F0010252
:102DE000028004E002884FF6FE731A4002807047AA
:102DF00070B5002400220023058C4FF6FE76354086
:102E00000584028C8388048B4FF68F752C40B51E89
:102E10002C400D882C43751E2A408D892A434D88ED
:102E20002A43524DA84202D0564DA84213D14FF624
:102E3000F7752A40CD892A434FF6FB752A408D88C5
:102E40002A434FF6FF652B404FF6FF552B400D8A66
:102E50002B434D8A2B43838004838D684563028412
:102E600070BD70B5002400220023058C4FF6EF766C
:102E700035400584028C8388048B48F6FF752C400E
:102E80004FF6FF452C400D884FF6FF7606EA0525E4
:102E90002C434FF6DF752A408D8906EA05152A4333
:102EA0004D8806EA05152A43304DA84202D0354D1B
:102EB000A8421DD14FF67F752A40CD894FF6FF7687
:102EC00006EA05152A434FF6BF752A408D8806EAA3
:102ED00005152A434FF6FF352B404FF2FF752B4067
:102EE0000D8A06EA85052B434D8A06EA85052B43A4
:102EF000838004838D688563028470BD70B500246F
:102F000000220023058C4FF6FF6635400584028CB5
:102F10008388848B4FF68F752C404FF6FC752C40C0
:102F20000D882C434FF6FF552A408D894FF6FF76CA
:102F300006EA05252A434D8806EA05252A430B4D56
:102F4000A84202D00F4DA84238D14FF2FF752A4057
:102F5000CD894FF6FF7606EA05252A434FF6FF3561
:102F60002A408D8806EA05252A4319E00000014021
:102F70000004004000080040000C00400010004029
:102F800000140040000401400040014000440140A2
:102F90000048014000180040001C00400020004094
:102FA0004EF6FF752B404DF6FF752B400D8A06EA55
:102FB00005152B434D8A06EA05152B438380848330
:102FC0008D68C563028470BD70B5002200230024A3
:102FD000058C4EF6FF7635400584038C8488828B01
:102FE00048F6FF752A404FF6FF452A400D884FF6F8
:102FF000FF7606EA05252A434DF6FF752B408D899D
:1030000006EA05352B434D8806EA05352B43FE4D70
:10301000A84202D0FD4DA84208D14BF6FF752C40C6
:103020000D8A4FF6FF7606EA85152C43848082834D
:103030008D680564038470BD00210180418081801A
:1030400081608181C18101824182704770B50346F0
:10305000002000241846183001258D40ACB21D8C8C
:10306000A5431D8409B108290AD100EB6100056858
:103070004FF68F76354005600568154305600FE013
:103080000D1FC5F34E052844056848F6FF76354008
:10309000056005684FF6FF7606EA022635430560AF
:1030A00070BD4163704781637047C16370470164BD
:1030B00070470A460021018B4FF68F731940114368
:1030C000018370470A460021018B48F6FF731940BF
:1030D0004FF6FF7303EA02231943018370470A4640
:1030E0000021818B4FF68F73194011438183704704
:1030F0000A460021818B48F6FF7319404FF6FF7393
:1031000003EA02231943818370470A460021018B99
:103110004FF6F77319401143018370470A460021A7
:10312000018B4FF2FF7319404FF6FF7303EA02233E
:103130001943018370470A460021818B4FF6F773CC
:1031400019401143818370470A460021818B4FF259
:10315000FF7319404FF6FF7303EA0223194381837B
:1031600070470A460021018B4FF6FB73194011434B
:10317000018370470A460021018B4FF6FF33194047
:103180004FF6FF7303EA02231943018370470A468F
:103190000021818B4FF6FB731940114381837047E7
:1031A0000A460021818B4FF6FF3319404FF6FF731B
:1031B00003EA02231943818370470A460021018BE9
:1031C0004FF67F7319401143018370470A4600216F
:1031D000018BC1F30E014FF6FF7303EA022319437B
:1031E000018370470A460021818B4FF67F73194097
:1031F0001143818370470A460021818BC1F30E0180
:103200004FF6FF7303EA02231943818370470A468E
:103210000021018C4FF6FD73194011430184704762
:103220000A460021018C4FF6F773194011430184BF
:1032300070470A460021018C4FF6DF7319404FF6A4
:10324000FF7303EA02131943018470470A46002101
:10325000018C4FF67F7319404FF6FF7303EA021398
:103260001943018470470A460021018C4FF6FF5331
:1032700019404FF6FF7303EA022319430184704794
:103280000A460021018C4FF2FF7319404FF6FF737D
:1032900003EA02231943018470470A460021018C86
:1032A0004DF6FF7319404FF6FF7303EA02331943DB
:1032B0000184704730B5002301248C40A3B2048CF4
:1032C0009C430484048C02FA01F5ADB22C430484BF
:1032D00030BD30B5002304248C40A3B2048C9C4341
:1032E0000484048C02FA01F5ADB22C43048430BD91
:1032F000828B4FF2FF331A408283828B4FF6FF732B
:1033000003EA01231A4382837047F0B50C46154641
:10331000002100220026078C4EF6FF7C07EA0C07EE
:103320000784818B028C4FF6FF7707EA043640F65C
:10333000FF4739404FF6FF7707EA052739434FF635
:10334000FF7707EA0337394345F6FF773A4046F4FB
:1033500080573A4381830284F0BD828B4FF6F3732A
:103360001A408283828B0A4382837047F0B50C46F1
:103370001546002100220026078C4FF6FF6C07EA55
:103380000C070784818B028C4FF6FF7707EA04262F
:103390004FF60C7739404FF6FF7707EA03172F43B4
:1033A00039434FF2FF573A4046F480773A438183DE
:1033B0000284F0BD028B4FF2FF331A400283028B6E
:1033C0004FF6FF7303EA01231A4302837047F0B5F7
:1033D0000C461546002100220026078C4FF6EF7C94
:1033E00007EA0C070784018B028C4FF6FF7707EA88
:1033F000041640F6FF4739404FF6FF7707EA0337D8
:1034000039434FF6FF7703E000000140000401401C
:1034100007EA052739434FF65F773A4046F0100731
:103420003A4301830284F0BD028B4FF6F3731A40D6
:103430000283028B0A4302837047F0B50C4615469F
:1034400000210022068C4FF6FE773E400684018B59
:10345000028C4FF60C7631407E1C06EA03162E4392
:1034600031434FF6F576324044F001063243018392
:103470000284F0BD70B505460C46208850B92389FA
:10348000A28861882846FFF7D8FFE1882846FFF721
:10349000CBFF25E0208804280AD12389A2886188EF
:1034A0002846FFF794FFE1882846FFF783FF17E0DF
:1034B000208808280AD12389A28861882846FFF736
:1034C00055FFE1882846FFF748FF09E02389A288D5
:1034D00061882846FFF719FFE1882846FFF708FFB3
:1034E00070BD002101804180012181800021C180C7
:1034F000018170472DE9F04105460C460026012761
:10350000608808B9022600E00026A088012801D1C1
:10351000022700E001272088A0B92389A2886188BA
:103520002846FFF78AFFE1882846FFF77DFF2389B9
:103530003A4631462846FFF74AFFE1882846FFF71A
:1035400039FF13E02389A28861882846FFF73FFFEF
:10355000E1882846FFF72EFF23893A463146284660
:10356000FFF76BFFE1882846FFF75EFFBDE8F081BB
:103570000146486B70470146886B70470146C86B2F
:1035800070470146086C70470A884B881A438B883D
:103590001A43CB881A430B891A434B891A438B89E8
:1035A0001A43A0F8442070470021018041808180A7
:1035B000C180018141818181704731B1B0F84420DF
:1035C00042F40042A0F8442005E0B0F84420C2F3E1
:1035D0000E02A0F84420704721B1828842F0040214
:1035E000828004E082884FF6FB731A408280704725
:1035F00021B1828842F00102828004E082884FF685
:10360000FE731A40828070471AB183890B4383810D
:1036100002E083898B438381704781827047024631
:103620000020138A0B400BB1012000E000207047FE
:10363000CA430282704730B50246002000230024AE
:10364000158A05EA0103958905EA010413B10CB155
:10365000012000E0002030BDCA430282704741EAE9
:103660000203A0F8483070471AB183890B43838165
:1036700002E083898B438381704721B1828842F0C5
:103680000802828004E082884FF6F7731A40828035
:10369000704701894FF6F8721140018170470A4660
:1036A000002101894FF68F73194011430181704742
:1036B00030B504460D4629462046FFF7F0FF208925
:1036C00040F00700208130BD2DE9F04104460D4651
:1036D00016461F46602D06D13B4601223146204644
:1036E000FFF775FE05E03B46012231462046FFF715
:1036F000A4FE29462046FFF7D2FF208940F00700AC
:103700002081BDE8F08130B50C4600210189C9B2A5
:103710004FF6FF7505EA032515432543294301812B
:1037200030BD2DE9F04105460E4617469846002467
:1037300043463A4631462846FFF7E5FF2C894FF6C7
:10374000F870044044F007044FF68F70044044F0D2
:1037500070042C81BDE8F081F0B504460D46164694
:103760001F463B46324629462046FFF7CCFF2089BC
:1037700040F480402081F0BD82884FF68F731A405C
:10378000828082880A438280704702894FF6F873EC
:103790001A40028102890A430281704702894FF66A
:1037A0007F731A40028102890A4302817047F0B593
:1037B0000C4615461E460021002200230189028B7B
:1037C000038C4FF6F877394021434FF6FC473A40D7
:1037D00040F201173A434FF6DD773B404FF6FF7753
:1037E00007EA06172F433B43018102830384F0BDA0
:1037F00021B1828842F08002828004E082884FF604
:103800007F731A4082807047A0F850107047000004
:1038100010B50446FA48844208D101211020FEF771
:1038200075FE00211020FEF771FE57E0F548844236
:1038300009D101214804FEF758FE00214FF4003061
:10384000FEF753FE4AE0F048844209D10121880482
:10385000FEF74BFE00214FF48020FEF746FE3DE0D0
:10386000EA48844209D10121C804FEF73EFE002146
:103870004FF40020FEF739FE30E0E548844209D1DC
:1038800001210805FEF731FE00214FF48010FEF7FC
:103890002CFE23E0DF48844208D101212020FEF7DE
:1038A00035FE00212020FEF731FE17E0DA48844281
:1038B00009D101218807FEF718FE00214FF0804052
:1038C000FEF713FE0AE0D548844207D101214005E6
:1038D000FEF70BFE00216005FEF707FE10BD2DE987
:1038E000FF4705460E460024A14600BFA046B0890A
:1038F00000B100BF2C8A24F44054F08804432C8289
:10390000AC8941F20C608443B088318908437189E5
:1039100008430443AC81AC8A24F44074B089044366
:10392000AC826846FEF774FCB548854202D0B948BF
:10393000854202D1DDF80C9001E0DDF80890A889FD
:1039400000F4004040B109EBC90000EB09103168F8
:103950004900B0FBF1F707E009EBC90000EB0910E3
:1039600031688900B0FBF1F76420B7FBF0F0040187
:103970002009642101FB1078A88900F4004040B1BF
:10398000322000EBC800B0FBF1F000F00700044368
:1039900008E0322000EB08106421B0FBF1F000F0E9
:1039A0000F0004432C81BDE8FF874FF416510160DE
:1039B00000218180C18001810C2141810021818110
:1039C000704710B502460020108A20F470600B8802
:1039D0004C8823438C882343CC882343184310828C
:1039E00010BD0021018041808180C180704721B1DC
:1039F000828942F40052828104E082894DF6FF738D
:103A00001A4082817047028B02F47F420283028B4C
:103A10000A430283704721B1828942F400428281C5
:103A200003E08289C2F30E028281704721B1828A4B
:103A300042F40062828204E0828A4FF2FF731A40ED
:103A400082827047C1F308028280704701468888ED
:103A5000C0F308007047028A4FF6F0731A400282E2
:103A6000028A0A430282704721B1828942F002022F
:103A7000828104E082894FF6FD731A40828170478B
:103A800082894FF2FF731A40828182890A438281C0
:103A90007047028A4FF6DF731A400282028A0A4395
:103AA0000282704721B1028A42F48042028204E01D
:103AB000028A4BF6FF731A4002827047818941F0F7
:103AC00001018181704721B1828A42F0080282821D
:103AD00004E0828A4FF6F7731A4082827047028BA5
:103AE000D2B20283028B42EA01220283704721B1E3
:103AF000828A42F02002828204E0828A4FF6DF73DB
:103B00001A408282704721B1828A42F0100282827A
:103B100004E0828A4FF6EF731A4082827047828AED
:103B20004FF6FB731A408282828A0A438282704770
:103B300021B1828A42F00202828204E0828A4FF638
:103B4000FD731A40828270471AB1838A0B438382C5
:103B500002E0838A8B4383827047F0B503460024DA
:103B600000260025002040F66A17B94200D100BFA8
:103B70001846C1F3421401F01F06012707FA06F5A3
:103B8000012C01D10C3004E0022C01D1103000E0F6
:103B900014301AB107682F43076002E00768AF438B
:103BA0000760F0BD02460020B1F5007F00D100BFE4
:103BB00013880B400BB1012000E00020704701F496
:103BC0000072B2F5007F00D100BFCA430280704787
:103BD00070B50246002400230025002040F66A1636
:103BE000B14200D100BFC1F3421501F01F0301260D
:103BF00006FA03F3012D13D19689334017E0000034
:103C0000001001400044004000480040004C0040CB
:103C1000005000400014014000780040007C00404B
:103C2000022D02D1168A334001E0968A33400C12ED
:103C3000012606FA04F41688344013B10CB10120B1
:103C400000E0002070BD10B50022002340F66A1489
:103C5000A14200D100BF0A1201249440A3B2DC4368
:103C6000048010BD10B504466FF00400FCF78AFB19
:103C7000E11704EB5171C1F3C701394A11701046C5
:103C8000007800EB4001C1EBC0104FF6FF7101EA74
:103C9000C0003449088010BD0146314A12784A43B9
:103CA0004FF0E0235A6100229A611A46126942F0ED
:103CB00001021A6100BF4FF0E022106900F001021A
:103CC0001AB100F48032002AF5D04FF0E0221269D8
:103CD00022F001024FF0E0231A6100229A6170473E
:103CE0000146204A12884A434FF0E0235A610022DD
:103CF0009A611A46126942F001021A6100BF4FF040
:103D0000E022106900F001021AB100F48032002AAA
:103D1000F5D04FF0E022126922F001024FF0E023CB
:103D20001A6100229A61704770B504464FF407701B
:103D300094FBF0F0C6B24FF4077094FBF0F100FB77
:103D4000114085B205E04FF40770FFF7C9FF701E00
:103D5000C6B2002EF7D115B12846FFF7C1FF70BDDE
:103D6000100000201200002000BF704700BF4C4A26
:103D7000128802F04002002AF9D0C2B2484B9A8061
:103D8000704710B588B0044601210846FEF711FBC4
:103D900001211020FEF765FB072209214148FEF7AB
:103DA000F2F807220A213F48FEF7EDF84FF4C06011
:103DB000069002208DF81C008DF81D0000208DF863
:103DC0001E0001208DF81F0006A93648FEF750F8A6
:103DD00002940020ADF80C00ADF80E00ADF8100014
:103DE000ADF814000C20ADF8120002A92C48FFF722
:103DF00076FD01212A48FFF7FAFD012240F2255104
:103E00002748FFF7AAFE25208DF8040003208DF82F
:103E100005008DF8060001208DF8070001A8FCF7C9
:103E200064FA08B010BD10B540F225511C48FFF7E8
:103E3000CFFE10B31A48FFF709FEC4B21A48008833
:103E400000F40040C8B91848008800F4804060B110
:103E50000A2C03D000201449088020E01248008872
:103E600040F400401049088019E00D2C06D10E489E
:103E7000008840F480400C49088010E00A4800881F
:103E8000C0F30D0009490C5407480088401C06493E
:103E9000088008460088C72801DD0020088010BD82
:103EA0000010014000000240180000207C040020A7
:103EB00018B19FED370A80ED000A70477047F0EEA9
:103EC000400AF6EE001A60EEA11AB0EE611AB0EEEA
:103ED000600A10EE100A2F49A1EB600000EE100AF4
:103EE00021EE002AF7EE081A42EE401A61EE801A1F
:103EF000B0EE610A704710B52DED028BB0EE408A2E
:103F0000B0EE480A05F09CFCBDEC028B10BD10B56C
:103F10002DED028BB0EE408AB0EE480A05F054FC5D
:103F2000BDEC028B10BD10B52DED028BB0EE408ABA
:103F3000B0EE480A06F03EFDBDEC028B10BD10B598
:103F40002DED028BB0EE408AB0EE480A06F062FA20
:103F5000BDEC028B10BD10B52DED028BB0EE408A8A
:103F6000B0EE480A06F0CAF9BDEC028B10BD10B5E0
:103F70002DED028BB0EE408AF0EE608AF0EE680A1A
:103F8000B0EE480A06F0DCFABDEC028B10BD7047BB
:103F900000000000DF59375F2DE9F041002596262B
:103FA0003227002400F0DAF900F0F0F9752000F073
:103FB0003EFA304600F0F4F9752000F038FA304649
:103FC00000F0EEF980216B2000F023FA384600F073
:103FD000E1F9752000F02BFA304600F0E1F9752088
:103FE00000F025FA304600F0DBF9752000F01FFAEA
:103FF0000546304600F0D4F9702D02D08020BDE88F
:10400000F081002424E004EB4402CE4B1A445178A2
:1040100004EB4402985C00F0FCF9304600F0C0F973
:1040200004EB4401C74A505C00F001FA05463046F3
:1040300000F0B6F904EB4400C24908444078A842B5
:1040400004D004EB440008448078D8E7601CC4B274
:104050000E2CD8DB0020D2E700B101B970470278FE
:1040600002F040021AB10A7842F002020A700A789D
:1040700002F0020272B1B44A1278521CB24B1A70AA
:104080001A4612780A2A05DD00221A700A7822F0F0
:1040900002020A70027802F00102002A72D00022A5
:1040A00000EE102A0A7842F001020A7042781202E9
:1040B00012B283781A4300EE102AF8EEC00A9FED80
:1040C000A31A60EE810AC1ED010AC278120212B28F
:1040D00003791A4300EE102AF8EEC00A9FED9B1AEE
:1040E00060EE810AC1ED020A4279120212B28379AE
:1040F0001A4300EE102AF8EEC00A9FED941A60EE03
:10410000810AC1ED030AC279120212B2037A1A437C
:1041100000EE102AB8EEC01ADFED8D1AF3EE070A92
:1041200041EE210AC1ED040A427A120212B2837AE8
:104130001A4300EE102AF8EEC00A9FED861A60EED0
:10414000810AC1ED050AC27A120212B2037B1A4338
:1041500000EE102AF8EEC00A9FED7E1A60EE810A8A
:10416000C1ED060A427B120212B2837B1A4300EEB3
:10417000102AF8EEC00A9FED771A60EE810AC1EDB1
:10418000070A00BF00BF69E710B508B101B103B964
:1041900010BD02F0020414B100241C80F8E702F004
:1041A000010404B390ED000AD1ED000A9FED6A1AF4
:1041B00001EE600A80ED000A90ED010AD1ED010ADE
:1041C0009FED651A01EE600A80ED010A90ED020A8A
:1041D000D1ED020A9FED601A01EE600A80ED020A3D
:1041E0001C88641C1C8000BFD2E710B52DED028B2B
:1041F00082B00446002008EE100A062269464320D9
:1042000000F03FF99DF80000000200B29DF8011097
:10421000084308EE100AB8EEC80ADFED4E0A20EE99
:10422000200A84ED000A9DF80200000200B29DF809
:104230000310084308EE100AB8EEC80ADFED450A7D
:1042400020EE200A84ED010A9DF80400000200B26D
:104250009DF80510084308EE100AB8EEC80ADFED15
:104260003D0A20EE200A84ED020A02B0BDEC028B6A
:1042700010BD10B52DED028B82B00446002008EE73
:10428000100A062269463B2000F0FBF89DF800006A
:10429000000200B29DF80110084308EE100AB8EEC3
:1042A000C80ADFED2A0A20EE200A84ED000A9DF8F4
:1042B0000200000200B29DF80310084308EE100A45
:1042C000B8EEC80ADFED210A20EE200A84ED010ACB
:1042D0009DF80400000200B29DF80510084308EEA6
:1042E000100AB8EEC80ADFED190A20EE200A84EDA4
:1042F000020A02B0BDEC028B10BD10B52DED028B91
:1043000082B00446002008EE100A022201A94120D2
:1043100000F0B7F89DF80400000200B29DF8051007
:10432000084308EE100AF8EEC80A9FED091AB3EE2A
:10433000070A00EE810A84ED000A02B0BDEC028B90
:1043400010BD000030D600081A000020CDCC1C3A69
:104350006F12033B58A00B3A52499D391CB50121FD
:104360002020FEF726F84020009001208DF8040060
:1043700000208DF8060001208DF8070003208DF83D
:10438000050069464D48FDF773FD1CBD10B502F0F0
:1043900023FA10BD10B504462046FFF7C5FC10BD3A
:1043A00010B504462046FFF777FC10BD10B540213C
:1043B0004248FDF7D9FD10BD10B540213F48FDF73B
:1043C000D5FD10BD70B50546002405E0601CC4B2E3
:1043D000C82C01DD002070BD02213948FEF74CFBDE
:1043E0000028F3D029463648FEF7FDFA002405E000
:1043F000601CC4B2C82C01DD0020ECE7012130486C
:10440000FEF73AFB0028F3D02D48FEF7E9FAC0B2D8
:10441000E1E770B505460C46FFF7CEFF2846FFF7EB
:10442000D1FF2046FFF7CEFFFFF7C0FF70BD70B58C
:104430000446FFF7C1FF44F08000FFF7C3FFFF20F1
:10444000FFF7C0FF0546FFF7B1FF284670BD2DE915
:10445000F04107460C461546FFF7AEFF3846FFF71A
:10446000B1FF55B1002605E02078FFF7ABFF641CD3
:10447000701CC6B2AE42F7DB00BFFFF797FFBDE886
:10448000F0812DE9F04106460C461546FFF794FFF2
:1044900046F08000FFF796FF5DB1002706E0FF20A1
:1044A000FFF790FF2070641C781CC7B2AF42F6DBA8
:1044B00000BFFFF77BFFBDE8F08100000014024061
:1044C0000050014000B587B0002001908DF8080031
:1044D0008DF809000390059001208DF8180001A9BE
:1044E0005C48FBF778FF07B000BD1FB5012108024B
:1044F000FDF7B7FF01210802FEF708F800214FF48D
:104500008070FEF703F80120FBF7C9FF0020009040
:10451000039002904FF4803001906846FBF78AFFC9
:10452000FFF7D0FF01231A4612214A48FBF7D9FFB3
:1045300001214848FBF795FF1FBD10B50446322105
:104540004448FCF754F901231A4621464148FBF739
:10455000C8FF4048FCF721F800BF02213D48FCF7A6
:104560003DF90028F9D03B48FCF753F810BD10B5D1
:104570002DED028B002008EE900AFFF7A3FF12201A
:10458000FFF7DBFF08EE900AB8EE680ADFED320AAB
:1045900020EE200AB0EE408A9FED300A38EE400A45
:1045A000DFED2F0A80EE201AB3EE090A31EE000A81
:1045B000B0EE408AB0EE480ABDEC028B10BD10B5DB
:1045C000FFF7D5FFBDEEC00A10EE100A40B20A3068
:1045D00000EE100AB8EEC00A224880ED000AD0EDC5
:1045E000000A90ED020ABDEEC00A10EE100A40B2B9
:1045F00000EE100AB8EEC00AF4EEC00AF1EE10FAAE
:104600000EDD184890ED020ABDEEC00A10EE100A49
:1046100040B200EE100AB8EEC00A124880ED000A5F
:10462000104890ED000AB5EEC00AF1EE10FA03D280
:104630009FED0D0A80ED000A0A4890ED000ABDEEDC
:10464000C00A10EE100A40B208B9002010BD0120C7
:10465000FCE70000002001403333533A5C8F423FB7
:104660000AD7233B1C0000200000000010B52DEDF0
:10467000028BB0EE408AFE48007820B3FD4890EDF2
:10468000000AF0EE400AB0EE480AFB4800F055FE82
:10469000FA4880ED050A90ED050AB5EEC00AF1EE84
:1046A00010FA03D29FEDF60A80ED050AF34890ED6B
:1046B000050ABCEEC00A10EE100A84B22146F14889
:1046C000FEF7F1FC1DE0EB4890ED000AB4EEC80ADD
:1046D000F1EE10FA10D2EC480078401CEA4908705C
:1046E000084600780A2807DD0120E14908709FED9F
:1046F000E70AE74880ED630A41F28731E148FEF7B7
:10470000D2FCBDEC028B10BDF0B50546059C002027
:104710007FE093ED050A00EB4006DE4F07EB8606CF
:10472000D6ED000A20EE200AD3ED060A00EB400683
:1047300007EB860696ED011A00EE810AD3ED070A13
:1047400000EB400607EB860696ED021A00EE810AA2
:10475000D14E06EB8006D6ED000A30EE200A05EBBE
:10476000800686ED000A93ED010A00EB4006CB4F70
:1047700007EB8606D6ED000A20EE200AD3ED020AEA
:1047800000EB400607EB860696ED011A00EE810A63
:10479000D3ED030A00EB400607EB860696ED021AFE
:1047A00000EE810ABE4E06EB8006D6ED000A30EE22
:1047B000200A01EB800686ED000A94ED010A00EB69
:1047C0004006B84F07EB8606D6ED000A20EE200A19
:1047D000D4ED020A00EB400607EB860696ED011ABF
:1047E00000EE810AD4ED030A00EB400607EB8606D3
:1047F00096ED021A00EE810AAB4E06EB8006D6ED6E
:10480000000A30EE200A02EB800686ED000A461C04
:10481000F0B20328FFF67DAFF0BD08B5A349A44868
:10482000FFF71AFCA348A14BA34AA4490090A4484F
:10483000FFF76AFF9D48007800F00100002845D08E
:10484000A0480078F0BB012141F2883002F085F9E0
:10485000DFED9D0A9FED9D0A9D49874800F044FDCC
:10486000954A96499B4805F033FB9B4B1A1F111F35
:10487000984807F0A1F8914890ED000A974880ED1C
:10488000000A974880ED000A964880ED000A8B48A0
:1048900090ED010A914880ED010A914880ED010AEE
:1048A000904880ED010A854890ED020A8B4880ED22
:1048B000020A8B4880ED020A8A4880ED020A81488C
:1048C000007800E003E0401C7E490870A3E08448C3
:1048D00090ED000A834880ED000A804890ED000AC0
:1048E0007F4880ED000A90ED000A7F48D0ED000A75
:1048F00020EE200A7B48D0ED000A7B4890ED011A9B
:1049000000EE810A6D48D0ED000A774890ED021A5A
:1049100000EE810A714880ED000A714890ED010AAD
:10492000704880ED010A6D4890ED010A6C4880EDF9
:10493000010A90ED010A6C48D0ED000A20EE200A31
:104940006848D0ED010A684890ED011A00EE810A2E
:104950005A48D0ED010A644890ED021A00EE810A2F
:104960005E4880ED010A5E4890ED020A5D4880EDE8
:10497000020A5A4890ED020A594880ED020A90ED69
:10498000020A5948D0ED000A20EE200A5548D0ED21
:10499000020A554890ED011A00EE810A4748D0ED11
:1049A000020A514890ED021A00EE810A4B4880ED50
:1049B000020A414B024642499FED4C0A454805F028
:1049C000D5FB454B1A1F111F424806F0F5FF48481A
:1049D0000088C0B902F032FD464890ED000A2E482A
:1049E00080ED000A434890ED010A2B4880ED010A52
:1049F000404890ED020A284880ED020A3C480088B1
:104A0000401C3B4908801A48007820B101203A49EF
:104A1000087002F0D3FC2548D0ED040AB0EE600A1D
:104A2000FFF724FE08BD70B506460C461546104833
:104A30000078D8B1288888B92E4890ED000A164829
:104A400080ED000A2B4890ED010A134880ED010A21
:104A5000284890ED020A104880ED020A13480278B7
:104A60002B4617490C48FFF78FFB47E053E0000047
:104A7000A00000201C000020800C0020080D002059
:104A80000000000000040040AA0000205555D0435B
:104A90002006002028000020980500204C0000205F
:104AA000A405002070000020B00500205C05002057
:104AB0004505002088050020D4050020C8050020F9
:104AC000BC050020A60000200080894500389C45D8
:104AD00094000020EC050020E805002014060020CA
:104AE00008060020FC0500205CD600086F12833AFF
:104AF000A80000207C05002066040020284890EDD6
:104B0000000A84ED000A90ED010A84ED010A90ED9F
:104B1000020A84ED020A70BD224A1288521C12B2A7
:104B2000204B1A8091ED000A1F4A82ED000A91ED98
:104B3000010A82ED010A91ED020A82ED020A704734
:104B40001A4870471A4870471A48704700B587B02E
:104B5000194A01A904A8FFF766FF1748008844F620
:104B60002061884218DD0020134908809DED010A6C
:104B7000124880ED000A9DED020A80ED010A9DEDCC
:104B8000030A80ED020A01F005FE02F017FC012085
:104B90000B49087007B000BD02F050FC0020F9E797
:104BA00098050020A20000207C050020E0050020E0
:104BB000BC050020C8050020A40000203010002003
:104BC000650400204FF4A060FBF78AFBB420FFF7D8
:104BD00049F800F031F904F04BFC00BFFEE77047E4
:104BE00000BFFEE700BFFEE700BFFEE700BFFEE735
:104BF000704700000CB500200190009083480068C9
:104C000040F480308149086000BF8048006800F4AB
:104C1000003000900198401C0190009818B901984C
:104C2000B0F5A04FF1D17948006800F4003010B120
:104C30000120009001E0002000900098012860D140
:104C400072484030006840F0805070494031086040
:104C50006F48006840F440406D4908606B48083078
:104C600000686A49083108600846006840F400405E
:104C700008600846006840F4A05008606548091FB5
:104C80000860081F006840F08070091F086000BFBE
:104C90005E48006800F000700028F9D05C480068A9
:104CA00040F480305A49086000BF5948406800F419
:104CB00080300028F9D05648006840F4003054494C
:104CC000086000BF5248406800F400300028F9D066
:104CD00040F20570504908604C480830006820F0E8
:104CE00003004A49083108600846006840F00200A5
:104CF000086000BF45480830006800F00C00082834
:104D0000F8D10CBD10B54548006840F47000434927
:104D100008603E48006840F001003C4908600020FF
:104D20003A4908310860394800683D490840374928
:104D300008603C48091D0860081F006820F48020B6
:104D4000091F0860002031490C310860FFF752FF4D
:104D50004FF0006031498039086010BD70B5002007
:104D60000022022300240221284D08352D6805F079
:104D70000C0020B1042806D0082834D107E02A4DC1
:104D80002A4E356033E02A4D284E35602FE01F4D06
:104D90002D1D2D68C5F380541C4D2D1D2D6805F06B
:104DA0003F0154B1224DB5FBF1F5184E361D366862
:104DB000C6F3881605FB06F209E01B4DB5FBF1F5BD
:104DC000124E361D3668C6F3881605FB06F20F4DE7
:104DD0002D1D2D68C5F301456D1C6B00B2FBF3F56D
:104DE000124E356003E0104D104E356000BF00BF1D
:104DF000064D08352D68C5F303150E4E705D0B4D3D
:104E00002D68C540094E356070BD00000038024075
:104E100000700040062D4008003C024088ED00E094
:104E2000FFFFF6FE103000240024F400AC00002048
:104E3000001BB700B000002038B5FFF756FB00BFDD
:104E4000FFF7BDFB0028FBD001F092FC03E0FFF769
:104E5000A3F826490870254800780028F7D15A2180
:104E600047F2305001F01EFF02F0B6FA204800F081
:104E700051FB00F0DDFA04F0B7F901F0EFFE01F0AC
:104E8000C1FF01F082FF03F067FF02F01FFE00F098
:104E900031F801F0E1FD002005231A4601210090C0
:104EA00000F094F8002005231A460121009000F03C
:104EB00063F9002408E0204601F088FF40F2C52095
:104EC000FEF7EAFE601CC4B2042CF4DB4FF47A70E7
:104ED000FEF72AFF00F0FCFE01F09CF902F08EF9CB
:104EE00004F0F4F900F02AF838BD0000C0000020FA
:104EF000200600201FB501211020FDF7A1FA362061
:104F00008DF8000001208DF8010000208DF80200CE
:104F100001208DF803006846FBF7E7F95920ADF84A
:104F200004000020ADF80600ADF80C004FF47A70D4
:104F3000029001A92148FDF7C6FE1FBD10B5012151
:104F40001E48FDF749FF012211461C48FEF75CFB95
:104F500001211A48FEF76CFB10BD10B5002117485F
:104F6000FDF73AFF002201211448FEF74DFB10BD6A
:104F700010B501211148FEF75EFBF0B101210F4889
:104F8000FEF76AFB01210D48FEF752FBFFF745FCD7
:104F90000B480078401C0A4908700846007805282C
:104FA00009DD002008704C21064804F0CDF852219C
:104FB000054804F0C9F804F0CDFB10BD0010004016
:104FC000C1000020A0120020CC1200202DE9F041E9
:104FD0008AB004460D4616461F46DDF84080012182
:104FE0000820FDF7E6F901214806FDF729FA01211D
:104FF0004806FDF77AFA00214FF00070FDF775FAC8
:105000000320089002208DF8240000208DF826004F
:1050100003208DF8250001208DF8270008A95348AA
:10502000FCF726FF092200215048FCF7ACFF0922BB
:1050300001214E48FCF7A7FF00208DF81A0001203F
:105040008DF81B0000208DF81C008DF81D008DF8D8
:105050001E008DF81F008DF816808DF817408DF812
:1050600018608DF81950ADF8147005A94048FBF789
:10507000F2FB00208DF80E008DF80F0001208DF856
:1050800010000020ADF80400ADF80600ADF80800EF
:10509000ADF80A00ADF80C0001208DF8110001A850
:1050A000FBF763FC012202213148FBF75DFF14206E
:1050B0008DF8000000208DF8010002208DF802001C
:1050C00001208DF803006846FBF70FF913208DF8D7
:1050D000000000208DF8010002208DF80200012060
:1050E0008DF803006846FBF700F900200AB0BDE820
:1050F000F08110B5002202211D48FBF735FF002288
:1051000001211B48FBF730FF10BD10B50122022121
:105110001748FBF729FF012211461548FBF724FF2A
:1051200010BD00B585B002211148FBF785FF78B1AD
:1051300004210F48FCF71BF80E490D48FBF759FFF7
:105140006A4600210A48FBF7F4FD684600F07CFD42
:1051500005B000BD10B501210548FBF76DFF18B182
:1051600001210348FCF703F810BD0000000C0240C9
:1051700000640040080000322DE9F0418AB0044686
:105180000D4616461F46DDF8408001210220FDF73E
:1051900010F901218806FDF753F901218806FDF772
:1051A000A4F900214FF08060FDF79FF94FF44050C3
:1051B000089002208DF8240000208DF8260003209E
:1051C0008DF8250001208DF8270008A94448FCF738
:1051D0004FFE09220C214248FCF7D5FE09220D2181
:1051E0003F48FCF7D0FE00208DF81A0001208DF812
:1051F0001B0000208DF81C008DF81D008DF81E008E
:105200008DF81F008DF816808DF817408DF8186006
:105210008DF81950ADF8147005A93248FBF71BFB47
:105220000E208DF80E0000208DF80F0001208DF863
:1052300010000020ADF80400ADF80600ADF808003D
:10524000ADF80A00ADF80C0001208DF8110001A89E
:10525000FBF78BFB012202212248FBF785FE402051
:105260008DF8000000208DF8010003208DF8020069
:1052700001208DF803006846FBF737F800200AB0DC
:10528000BDE8F08110B5002202211648FBF76CFE44
:10529000002201211348FBF767FE10BD10B5012263
:1052A00002211048FBF760FE012211460D48FBF772
:1052B0005BFE10BD00B585B002210A48FBF7BCFEBD
:1052C00058B102210748FBF752FF6A460021054802
:1052D000FBF72FFD684600F0B7FC05B000BD0000ED
:1052E000000402400068004091ED001A80ED001AB1
:1052F00091ED011A80ED011A91ED021A80ED021A6A
:1053000080ED030AC0ED040A9FEDFE1A80ED0D1A30
:1053100080ED0C1A80ED0B1A9FEDFA1A80ED071A3A
:1053200080ED0A1A80ED091A80ED081A80ED101A36
:1053300080ED0F1A80ED0E1A7047B0EE401A90ED16
:105340000F0A80ED100A90ED0E0A80ED0F0AC0EDF5
:10535000050A80ED061A30EEC10A80ED0E0A90EDC6
:105360000E0AD0ED0F1A30EE610AD0ED001A20EED1
:10537000210A80ED080A90ED010AD0ED0E1A20EE08
:10538000210A80ED090A90ED0C0A80ED0D0A90EDDE
:105390000B0A80ED0C0A90ED0E0AD0ED0F1AB0EE5C
:1053A000002A02EE610AD0ED101A30EE210A80EDDB
:1053B0000B0A90ED020AD0ED0B1A20EE210A80EDC7
:1053C0000A0A90ED080AD0ED091A30EE210AD0ED54
:1053D0000A1A30EE210AD0ED071A30EE210A80EDCC
:1053E000070A90ED070AD0ED031AB4EEE10AF1EED8
:1053F00010FA02DD90ED030A01E090ED070A80ED5E
:10540000070A90ED070AD0ED031AF1EE611AB4EE27
:10541000E10AF1EE10FA04D290ED030AB1EE400A6F
:1054200001E090ED070A80ED070A90ED070A70474A
:105430000EB5B54A07CA8DE80700DFEDB40A9FED47
:10544000B40A6946B348FFF74FFFDFEDB00A9FED9E
:10545000B00A6946AF484430FFF746FFDFEDAB0ABC
:105460009FEDAB0A6946AB488830FFF73DFFDFEDA3
:10547000A70A9FEDA70A6946A648CC30FFF734FF7C
:105480000EBD9FEDA00A80ED030A9FED9E0A80ED00
:10549000040A9FED9C0A80ED050A9FED9A0A80EDB3
:1054A0000C0A704710B52DED088B0446B0EE408A0B
:1054B000F0EE608AB0EE419AF0EE619AB0EE42AA48
:1054C000F0EE62AAB0EE43BA84ED008AC4ED018A20
:1054D00084ED029AC4ED069A84ED07AAC4ED08AAE9
:1054E00084ED09BA8C48A0642046A16C88479FEDE2
:1054F000850A84ED0D0A9FED830A84ED0E0A9FED67
:10550000810A84ED0F0A9FED7F0A84ED100ABDEC3D
:10551000088B10BD10B5044680494FF4BA70015194
:1055200001599FED7F3ADFED7F2A9FED782ADFED6D
:105530007C1A9FED741ADFED730A9FED740A04F56F
:105540009870884775494FF4E070015101599FEDFB
:10555000703ADFED752A9FED752ADFED6D1A9FED2C
:10556000741AF7EE000A9FED730A04F5BE708847BF
:105570006A494FF40370015101599FED6B3ADFED19
:105580006B2A9FED622ADFED681A9FED5E1ADFED50
:105590005D0AB3EE090A04F5E47088475F494FF4E9
:1055A0001670015101599FED643ADFED642A9FEDB9
:1055B0005E2ADFED611A9FED5E1AF1EE000A9FEDA3
:1055C000600A04F50570884754494FF42970015169
:1055D00001599FED563ADFED552A9FED4A2ADFED3E
:1055E000531AB3EE0E1ADFED470AB2EE040A04F5C1
:1055F0001870884749494FF43C70015101599FED9B
:10560000443ADFED402A9FED3F2ADFED411A9FED3E
:105610003D1ADFED3C0A9FED460A04F52B708847E2
:105620003E494FF44F70015101599FED393ADFED7A
:10563000382A9FED342ADFED361A9FED3A1ADFED56
:10564000310AB2EE090A04F53E70884733494FF437
:105650007570015101599FED3B3ADFED3B2A9FEDFB
:10566000292AF7EE081A9FED391ADFED260A9FED79
:10567000380A04F56470884728494FF48460015162
:1056800001599FED303ADFED302A9FED1E2AF7EEEB
:10569000081A9FED2E1ADFED1B0A9FED2D0A04F567
:1056A000777088471D4940F26C40015101599FEDC8
:1056B000173ADFED142A9FED132ADFED141A9FED40
:1056C000111ADFED100AB1EE040A04F5856088476F
:1056D00012494FF49760015101599FED0C3ADFEDEB
:1056E000092A9FED082ADFED091A9FED061ADFED62
:1056F000050AB1EE040A04F274408847074940F2F3
:10570000045027E00000000068D60008000048426E
:1057100000409C452C0B002083540008A554000831
:1057200000007A430000C84200007A440000FA43B7
:105730000000A042000034420060EA4600401C46DF
:105740000000A0439A99D93FCDCC4C3E17B7D13831
:105750000AD7A33B015101599FEDE43ADFEDE32A5B
:105760001FED0E2ADFEDE11A1FED1A1A5FED1B0A7D
:105770009FEDDF0A04F59860884710BD10B52DED48
:10578000028B0446B0EE408AF0EE608AD948A064ED
:105790002046A16C884784ED0A8AC4ED0B8A94EDFB
:1057A0000D0A84ED0E0A94ED0A0AD4ED0B0A30EED0
:1057B000600A84ED0D0A94ED100AD4ED0D0A30EE66
:1057C000200A84ED100A94ED000AD4ED0D0A20EEB3
:1057D000200A84ED030A94ED030AD4ED060AB4EE20
:1057E000E00AF1EE10FA02D294ED030A01E094ED22
:1057F000060A84ED030A94ED030AD4ED060AF1EEDD
:10580000600AB4EEE00AF1EE10FA02DD94ED030A4C
:1058100003E094ED060AB1EE400A84ED030A94ED2C
:10582000010AD4ED100A20EE200A84ED040A94ED5A
:10583000040AD4ED070AB4EEE00AF1EE10FA02D23F
:1058400094ED040A01E094ED070A84ED040A94ED56
:10585000040AD4ED070AF1EE600AB4EEE00AF1EEB4
:1058600010FA02DD94ED040A03E094ED070AB1EEAC
:10587000400A84ED040A94ED0D0AD4ED0E0A30EED0
:10588000600AD4ED020A20EE200A84ED050A94EDA8
:10589000050AD4ED080AB4EEE00AF1EE10FA02D2DD
:1058A00094ED050A01E094ED080A84ED050A94EDF3
:1058B000050AD4ED080AF1EE600AB4EEE00AF1EE52
:1058C00010FA02DD94ED050A03E094ED080AB1EE4A
:1058D000400A84ED050A94ED030AD4ED040A30EE83
:1058E000200AD4ED050A30EE200A84ED0C0A94ED6E
:1058F0000C0AD4ED090AB4EEE00AF1EE10FA02D275
:1059000094ED0C0A01E094ED090A84ED0C0A94ED83
:105910000C0AD4ED090AF1EE600AB4EEE00AF1EEE9
:1059200010FA02DD94ED0C0A03E094ED090AB1EEE1
:10593000400A84ED0C0A94ED0C0ABDEC028B10BDFC
:1059400010B52DED028B0446B0EE408A6948A06484
:105950002046A16C884794ED0D0A84ED0E0A84ED73
:105960000D8A94ED100AD4ED0D0A30EE200A84ED74
:10597000100A94ED000AD4ED0D0A20EE200A84ED01
:10598000030A94ED030AD4ED060AB4EEE00AF1EE40
:1059900010FA02D294ED030A01E094ED060A84EDB8
:1059A000030A94ED030AD4ED060AF1EE600AB4EEA0
:1059B000E00AF1EE10FA02DD94ED030A03E094ED43
:1059C000060AB1EE400A84ED030A94ED010AD4ED13
:1059D000100A20EE200A84ED040A94ED040AD4EDA6
:1059E000070AB4EEE00AF1EE10FA02D294ED040ACE
:1059F00001E094ED070A84ED040A94ED040AD4ED65
:105A0000070AF1EE600AB4EEE00AF1EE10FA02DDE8
:105A100094ED040A03E094ED070AB1EE400A84ED28
:105A2000040A94ED0D0AD4ED0E0A30EE600AD4EDAE
:105A3000020A20EE200A84ED050A94ED050AD4ED51
:105A4000080AB4EEE00AF1EE10FA02D294ED050A6B
:105A500001E094ED080A84ED050A94ED050AD4ED01
:105A6000080AF1EE600AB4EEE00AF1EE10FA02DD87
:105A700094ED050A03E094ED080AB1EE400A84EDC6
:105A8000050A94ED030AD4ED040A30EE200AD4EDA1
:105A9000050A30EE200A84ED0C0A94ED0C0AD4EDD0
:105AA000090AB4EEE00AF1EE10FA02D294ED0C0A03
:105AB00001E094ED090A84ED0C0A94ED0C0AD4ED92
:105AC000090AF1EE600AB4EEE00AF1EE10FA02DD26
:105AD00094ED0C0A03E094ED090AB1EE400A84ED5E
