:020000040800F2
:10000000200E00205D0400083102000833020008C1
:10001000370200083B0200083F0200080000000011
:100020000000000000000000000000004302000883
:1000300045020008000000004702000849020008CD
:1000400077040008770400087704000877040008A4
:100050007704000877040008770400087704000894
:10006000FF550008770400087704000877040008AB
:100070007704000877040008770400087704000874
:10008000893D000877040008770400082F32000833
:100090004532000877040008770400087704000858
:1000A0007704000877040008770400087704000844
:1000B0007704000877040008770400087704000834
:1000C0007704000877040008770400087704000824
:1000D00077040008633000087704000877040008FC
:1000E0007704000877040008770400087704000804
:1000F00077040008770400087704000877040008F4
:1001000077040008770400087704000877040008E3
:1001100077040008770400084733000877040008D4
:1001200077040008770400087704000877040008C3
:1001300077040008770400087704000877040008B3
:1001400077040008770400087704000877040008A3
:100150007704000877040008770400087704000893
:100160007704000877040008770400087704000883
:100170007704000877040008770400087704000873
:10018000770400087704000800F002F800F03CF85B
:100190000AA090E8000C82448344AAF10107DA45E2
:1001A00001D100F031F8AFF2090EBAE80F0013F0F8
:1001B000010F18BFFB1A43F001031847AC6B000096
:1001C000CC6B0000103A24BF78C878C1FAD8520727
:1001D00024BF30C830C144BF04680C6070470000C1
:1001E0000023002400250026103A28BF78C1FBD840
:1001F000520728BF30C148BF0B6070471FB506F0DB
:100200002EFD1FBD10B510BD05F062FA1146FFF7B7
:10021000F5FF00F008F805F080FA03B4FFF7F2FFED
:1002200003BC02F0BFFE10B502F060FF002010BD5D
:10023000704700BFFEE700BFFEE700BFFEE700BF5C
:10024000FEE7704770477047704700000CB500200C
:10025000019000907648006840F48030744908604E
:1002600000BF7348006800F4003000900198401C03
:100270000190009818B90198B0F5A04FF1D16C48E1
:10028000006800F4003010B10120009001E000206F
:1002900000900098012846D165484030006840F041
:1002A00080506349403108606248006840F4404033
:1002B000604908605E48083000685D4908310860A0
:1002C0000846006840F4004008600846006840F4B2
:1002D000A05008605848091F0860081F006840F0D7
:1002E0008070091F086000BF5148006800F000706E
:1002F0000028F9D040F20570504908604C48083099
:10030000006820F003004A49083108600846006888
:1003100040F00200086000BF45480830006800F067
:100320000C000828F8D10CBD10B54548006840F411
:100330007000434908603E48006840F001003C49B5
:10034000086000203A4908310860394800683D4992
:100350000840374908603C48091D0860081F0068CC
:1003600020F48020091F0860002031490C3108600A
:10037000FFF76CFF4FF0006031498039086010BD15
:1003800070B500200022022300240221284D0835E8
:100390002D6805F00C0020B1042806D0082834D1BF
:1003A00007E02A4D2A4E356033E02A4D284E35604D
:1003B0002FE01F4D2D1D2D68C5F380541C4D2D1DA4
:1003C0002D6805F03F0154B1224DB5FBF1F5184EF3
:1003D000361D3668C6F3881605FB06F209E01B4D8C
:1003E000B5FBF1F5124E361D3668C6F3881605FBCF
:1003F00006F20F4D2D1D2D68C5F301456D1C6B00D8
:10040000B2FBF3F5124E356003E0104D104E35602F
:1004100000BF00BF064D08352D68C5F303150E4E0D
:10042000705D0B4D2D68C540094E356070BD0000F4
:10043000003802400070004008544007003C024071
:1004400088ED00E0FFFFF6FE103000240024F400E9
:100450000000002000127A000400002009488047B4
:1004600009480047FEE7FEE7FEE7FEE7FEE7FEE796
:10047000FEE7FEE7FEE7FEE704480549054A064BAE
:1004800070470000290300088901000820080020A7
:10049000200E0020200A0020200A002032490143BB
:1004A000324A1160704770B5002100230F22C478D2
:1004B0001CB32E4C246804F4E064C4F5E064C4F377
:1004C0000721C1F10404E3B20A4144789C40E1B23F
:1004D0008478144021430C07210E254C0578615582
:1004E000047804F01F050124AC4005786D11AD00BF
:1004F00005F1E025C5F8004109E0047804F01F0586
:100500000124AC401B4D0678761145F8264070BD9D
:10051000194A0A400243154B1B1F1A60704739B134
:10052000124A121D12680243104B1B1D1A6006E08E
:100530000E4A121D126882430C4B1B1D1A60704735
:10054000042808D14FF0E021096941F004014FF07F
:10055000E022116107E04FF0E021096921F0040178
:100560004FF0E022116170470000FA050CED00E049
:1005700000E400E080E100E080FFFF1F10B50446CA
:10058000FE48844209D10121480601F00DFB0021FB
:100590004FF0007001F008FB08E00121880601F02F
:1005A00003FB00214FF0806001F0FEFA10BD30B572
:1005B000024600200023146824F00204146014682A
:1005C00044F00104146000E05B1C546804F0010472
:1005D0001CB94FF6FF74A342F6D1546804F001042D
:1005E0000CB900206CE08C79012C04D1146844F023
:1005F0008004146003E0146824F080041460CC7953
:10060000012C04D1146844F04004146003E0146821
:1006100024F0400414600C7A012C04D1146844F0D6
:100620002004146003E0146824F0200414604C7A61
:10063000012C04D1146844F01004146003E0146821
:1006400024F0100414608C7A012C04D1146844F056
:100650000804146003E0146824F008041460CC7AE1
:10066000012C04D1146844F00404146003E01468FD
:1006700024F0040414608C78A407CD7844EA05645F
:100680000D7944EA05444D7944EA05540D886D1E00
:100690002C43D461146824F001041460002300E0AA
:1006A0005B1C546804F001041CB14FF6FF74A342B4
:1006B000F6D1546804F001040CB1002000E00120E0
:1006C00030BD10B50021837A012202FA03F1AC4A51
:1006D000126842F00102AA4B1A60A94A1C32126841
:1006E0008A43A74B1C331A60027BCAB9A44A0C3256
:1006F00012688A43A24B0C331A604288C38842EACC
:1007000003439F4A4032847A42F834300288838817
:1007100042EA03439A4A4032847A02EBC4025360AD
:10072000027B012A19D1964A0C3212680A43944B73
:100730000C331A604288038842EA0343904A4032ED
:10074000847A42F83430C288838842EA03438C4A70
:100750004032847A02EBC4025360C27A3AB9884AC2
:10076000121D12688A43864B1B1D1A6006E0844ADC
:10077000121D12680A43824B1B1D1A60028932B98E
:100780007F4A143212688A437D4B14331A600289FF
:10079000012A06D17A4A143212680A43784B14337C
:1007A0001A60427B012A06D1754A1C3212680A433C
:1007B000734B1C331A60724A126822F00102704BAC
:1007C0001A6010BD00218171C17101724172817284
:1007D000C1728170C1700321017102214171012137
:1007E000018070476649096841F00101644A11605F
:1007F0001146096843F60E729143614A1160114631
:10080000096841EA002111601146096821F00101DF
:100810001160704721B1026842F48032026003E047
:10082000026822F4803202607047E1B1026842F04F
:10083000800202604FF4C272125842F480734FF487
:10084000C27213504FF4CA72125842F480734FF4BC
:10085000CA7213504FF4D272125842F480734FF49C
:10086000D27213501BE0026822F0800202604FF443
:10087000C272125822F480734FF4C27213504FF4B4
:10088000CA72125822F480734FF4CA7213504FF494
:10089000D272125822F480734FF4D2721350704700
:1008A00010B502460020936803F08063B3F1806FB7
:1008B00000D110E0936803F00063B3F1006F01D141
:1008C000012008E0936803F08053B3F1805F01D109
:1008D000022000E00420042879D002F5C07303EB65
:1008E00000131B6803F0010402F5C07303EB00134F
:1008F0001C600B7A7BB94B7A0C8843EA445302F5AF
:10090000C07404EB00142468234302F5C07404EBA4
:100910000014236010E00B7A4C6843EAC4034C7A5D
:10092000234302F5C07404EB00142468234302F54A
:10093000C07404EB001423608B7A03F00F038B72F6
:1009400002F5C07303EB00135B6823F00F0402F59C
:10095000C07303EB00135C6002F5C07303EB00137C
:100960005B688C7A234302F5C07404EB0014636067
:100970008B7B1C064B7B44EA034403E0006400408D
:10098000006600400B7B44EA0323CC7A234302F544
:10099000C07404EB0014A3608B7C1C064B7C44EAFF
:1009A00003440B7C44EA0323CC7B234302F5C0744D
:1009B00004EB0014E36002F5C07303EB00131B6843
:1009C00043F0010402F5C07303EB00131C6010BD7B
:1009D00010B50246002321B1012907D002290FD109
:1009E00009E09068F94C00EA04030BE09068F84CC9
:1009F00000EA040306E09068F64C00EA040301E014
:100A0000002300BF00BFF44C181BA34216D007DC24
:100A100083B16FF08060184470B1022818D111E0E2
:100A2000B0F5007F10D0ED4C204448B1B0F5003F48
:100A30000ED10BE002230DE000230BE0002309E0C0
:100A4000002307E0012305E0012303E0012301E087
:100A5000002300BF00BFD8B210BD21B1012907D0CB
:100A600002290FD109E0826842F0800282600AE028
:100A7000826842F40042826005E0826842F400022B
:100A8000826000E000BF00BF704710B500F5D8736A
:100A900003EB01131B6803F004031372137A53B9B9
:100AA00000F5D87303EB01131B6840F2FF7404EAEE
:100AB0005353136009E000F5D87303EB01131B686F
:100AC0006FF0604404EAD303536000F5D87303EB7E
:100AD00001131B6803F00203537200F5D87303EB94
:100AE00001135B6803F00F03937200F5D87303EBF7
:100AF00001135B681B0AD37400F5D87303EB011371
:100B00009B68D37200F5D87303EB01139B681C0A32
:100B1000147300F5D87303EB01139B681C0C54731A
:100B200000F5D87303EB01139B681B0E937300F55C
:100B3000D87303EB0113DB68D37300F5D87303EBB1
:100B40000113DB681C0A147400F5D87303EB01135E
:100B5000DB681C0C547400F5D87303EB0113DB68DD
:100B60001B0E937421B9C36843F02003C36003E0F4
:100B7000036943F02003036110BD21B9C26842F04C
:100B80002002C26003E0026942F020020261704765
:100B90000246002019B9D36803F0030006E00129DA
:100BA00003D1136903F0030000E00020704710B583
:100BB00002460B4600204FF6FF71BBB9146824F0C3
:100BC000020444F00104146000E0491E546804F07B
:100BD0000304012C01D00029F7D1546804F0030468
:100BE000012C01D0002032E0012030E0012B13D194
:100BF000146824F00304146000E0491E546804F0F3
:100C000003040CB10029F8D1546804F003040CB1BA
:100C100000201CE001201AE0022B17D1146824F0F8
:100C2000010444F00204146000E0491E546804F01A
:100C30000304022C01D00029F7D1546804F0030406
:100C4000022C01D0002002E0012000E0002010BDB5
:100C5000014600200A6822F0010242F002020A6006
:100C60004A6802F00302022A00D1012070470146BF
:100C70004FF6FF7200200B6823F002030B6000E0C8
:100C8000521E4B6803F00203022B01D1002AF7D158
:100C90004B6803F00203022B00D00120704701468D
:100CA00000208A6902F070007047014600208A69BE
:100CB000100E7047014600208A69C2F30740704752
:100CC0001AB143690B43436102E043698B434361BB
:100CD000704710B50246002001F4700343B19369D8
:100CE000C1F3130423400BB101202DE000202BE0C1
:100CF00001F0807343B15368C1F3130423400BB177
:100D0000012021E000201FE001F0006343B193685F
:100D1000C1F3130423400BB1012015E0002013E0C0
:100D200001F0007343B1D368C1F3130423400BB146
:100D3000012009E0002007E01369C1F313042340F8
:100D40000BB1012000E0002010BD0022244B99428D
:100D500002D10023836111E0C1F3130201F000739B
:100D60000BB1C2600AE001F080630BB1026105E0E3
:100D700001F000630BB1826000E042607047024600
:100D8000002002EA01030BB1012000E000207047BF
:100D900070B504460D46002660692840002872D0D0
:100DA000B5F5807F69D01DDC082D42D006DC012D11
:100DB0002DD0022D31D0042D7FD134E0102D3ED026
:100DC000202D42D0402D78D145E0000003000004E2
:100DD0000003000800000310000100080001FFF7F5
:100DE0007000F030B5F5004F61D009DCB5F5007F3B
:100DF0004AD0B5F5806F4DD0B5F5006F5DD150E0AC
:100E0000B5F5803F2DD0B5F5003F56D12FE0A06855
:100E10005549FFF7B4FF064651E0E0680321FFF7AC
:100E2000AEFF06464BE0E0680821FFF7A8FF064644
:100E300045E0E0681021FFF7A2FF06463FE0206989
:100E40000321FFF79CFF064639E020690821FFF7E0
:100E500096FF064633E020691021FFF790FF064613
:100E60002DE060680821FFF78AFF064627E06068EA
:100E70001021FFF784FF064621E0A0690121FFF75A
:100E80007EFF06461BE01BE0A0690221FFF777FF0B
:100E9000064614E0A0690421FFF771FF06460EE044
:100EA0000BE0A0697021FFF76AFF064607E0606863
:100EB0000421FFF764FF064601E0002600BF00E0C2
:100EC0000026304670BDB1F5007F3AD00FDC2029F6
:100ED00028D006DC01291CD004291DD0082940D1C6
:100EE0001DE0402921D0B1F5807F3AD126E0B1F54F
:100EF000004F31D006DCB1F5806F25D0B1F5006F21
:100F00002FD124E0B1F5803F12D0B1F5003F28D1B8
:100F100011E0154A826025E00822C26022E010221A
:100F2000C2601FE0082202611CE01022026119E089
:100F30000822426016E01022426013E00422426060
:100F400010E0042242600DE0042242600AE0002228
:100F500082610422426005E0002282610422426034
:100F600000E000BF00BF704701010100016821F0EF
:100F7000010101600021016041608160C160016187
:100F800021214161DB49884204D13D21D94A103AEF
:100F900091608CE0D7491831884205D14FF47461D3
:100FA000D44A103A916082E0D2493031884205D16A
:100FB0004FF47411CF4A103A916078E0CD4948312E
:100FC000884205D14FF07461CA4A103A91606EE0D0
:100FD000C8496031884204D1C749C64A103AD16035
:100FE00065E0C4497831884204D1C449C14A103A05
:100FF000D1605CE0BF499031884204D1C049BD4A0C
:10100000103AD16053E0BB49A831884205D14FF076
:101010003D51B84A103AD16049E0BA49884204D1FA
:101020003D21B84A083A116041E0B649183188427A
:1010300005D14FF47461B34A083A116037E0B14901
:101040003031884205D14FF47411AE4A083A11602C
:101050002DE0AC494831884205D14FF07461A94A6E
:10106000083A116023E0A7496031884204D1A249BF
:10107000A44A121F11601AE0A2497831884204D1B3
:101080009E49A04A121F116011E09E49903188428A
:1010900004D19B499B4A121F116008E09949A8316D
:1010A000884204D14FF03D51964A121F116070479B
:1010B00010B500220268944B1A40CC680B68234399
:1010C0004C6923438C692343CC6923430C6A234333
:1010D0004C6A23438C6A23434C6B23438C6B23431E
:1010E0001A430260426922F00702D1E90B3423431C
:1010F0001A4342610B6943604B6883608B68C3602D
:1011000010BD0021016041608160C16001614161E9
:101110008161C161016241628162C16201634163B7
:101120008163704721B1026842F00102026003E06E
:10113000026822F001020260704721B1026842F4A5
:101140000042026003E0026822F40042026070473D
:1011500021B1026842F02002026003E0026822F03E
:10116000200202607047416070470146486880B2C3
:10117000704722B1036843F40023036003E003686F
:1011800023F4002303600161704721B1026842F437
:101190008022026003E0026822F48022026070472D
:1011A0000AB1016100E0C1607047014600200A6891
:1011B00002F400220AB1012000E00020704701463D
:1011C00000200A6802F001020AB1012000E00020BC
:1011D0007047014600204A6902F03800704730B578
:1011E00003460A4600200024464DAB4202D2414944
:1011F000103901E04349103902F000550DB14C6837
:1012000000E00C68414D2C4004EA02050DB10120BC
:1012100000E0002030BD02463A4B9A4202D23548E7
:10122000103801E03748103801F000531BB1374B3C
:101230000B40C36002E0354B0B408360704710B534
:1012400001F080034BB122B1436943F08003436155
:1012500003E0436923F08003436180290BD02AB166
:10126000036801F01E042343036004E0036801F0F7
:101270001E04A343036010BD70B502460020002485
:101280000025204EB24202D21A4B103B01E01D4B0A
:10129000103B1F4E0E4036B11E2606EAD1241668BA
:1012A00006EA040502E0566906F0800501F00056E2
:1012B0000EB15C6800E01C68144E344004EA01067C
:1012C00016B10DB1012000E0002070BD02460D4BAB
:1012D0009A4202D20748103801E00A48103801F05B
:1012E00000531BB1094B0B40C36002E0074B0B409E
:1012F00083607047106002403D000020400F0020D6
:1013000000003D20106402403F801CF07D0F7D0FE7
:101310003C0F3C0F002041490860091D0860091D71
:101320000860091D08603E483C4914310860704758
:1013300000213A498279002A3AD00A4612680368A5
:101340009A430B461A600A1D126803689A430B1DE4
:101350001A60027911440A6803681A430A602F4A26
:101360000832126803689A432C4B08331A601A1D1E
:10137000126803689A43294B0C331A604279102A89
:101380000ED11A1F126803681A43244B08331A60DF
:101390001A1D126803681A43204B0C331A600DE0C3
:1013A0001E49427911440A6803681A430A6005E03D
:1013B000027911440A6803689A430A607047002161
:1013C000016001710C214171002181717047134945
:1013D000103109680143114A10321160704701460B
:1013E00000200E4A143212680A400AB1012000E0BF
:1013F00000207047094914310860704701460020F9
:10140000064A143212680A400AB1012000E00020A6
:10141000704702491431086070470000003C0140E9
:10142000FFFF7F0010B504469848844208D101218F
:10143000084600F086FB0021012000F082FB76E0E8
:101440009348844208D10121022000F07AFB002158
:10145000022000F076FB6AE08E48844208D1012128
:10146000042000F06EFB0021042000F06AFB5EE027
:101470008948844208D10121082000F062FB002144
:10148000082000F05EFB52E08448844208D101212C
:10149000102000F056FB0021102000F052FB46E027
:1014A0007F48844208D10121202000F04AFB00211E
:1014B000202000F046FB3AE07A48844208D101211E
:1014C000402000F03EFB0021402000F03AFB2EE0DF
:1014D0007548844208D10121802000F032FB0021B0
:1014E000802000F02EFB22E07048844208D10121C8
:1014F000801500F026FB0021A01500F022FB16E06D
:101500006B48844208D10121401500F01AFB0021EC
:10151000601500F016FB0AE06648844207D10121FD
:10152000001500F00EFB0021201500F00AFB10BD95
:10153000F0B50A4600210023002400BF3DE001254C
:1015400005FA01F3156805EA03049C4234D10568E5
:101550004F000326BE40B543056015794E00B540E7
:101560000668354305601579012D02D01579022DE5
:1015700016D185684F000326BE40B5438560557976
:101580004E00B540866835438560456801268E402B
:10159000B5434560456896798E40B6B2354345609F
:1015A000C5684F000326BE40B543C560D5794E00DF
:1015B000B540C6683543C560491C1029BFD3F0BD8E
:1015C0004FF6FF7101600021017141718171C1719C
:1015D000704708B54FF480320092009A0A43009297
:1015E000009AC261C161009AC261C2690092C26977
:1015F000009208BD0246002013690B400BB1012088
:1016000000E0002070470146086980B2704702463A
:10161000002053690B400BB1012000E0002070470F
:101620000146486980B27047018370474183704723
:101630000AB1018300E0418370474161704742690C
:101640004A4042617047F0B5002300244D07ED0E7B
:1016500002FA05F3CE1000F1200555F826504E078A
:10166000F70E0F26BE40B543CF1000F1200646F816
:101670002750CE1000F1200555F8265045EA030406
:10168000CE1000F1200545F82640F0BD00000240D4
:101690000004024000080240000C0240001002401A
:1016A0000014024000180240001C024000200240CA
:1016B0000024024000280240F948006840F0010080
:1016C000F74908600020F64908310860F4480068CE
:1016D000F4490840F2490860F348091D0860F348DE
:1016E000EF4984310860F0481038091D0860EC4863
:1016F000006820F48020EA4908600020E8490C31A5
:101700000860E7498C31086070470021E44A921C68
:10171000117011460870704710B501460022002371
:1017200000204A11012A02D1DD4C236808E0022A78
:1017300003D1DB4C7034236802E0D94C7434236845
:1017400001F01F02012494401C400CB1012000E074
:10175000002010BD38B5002000900024002500BFF7
:101760003120FFF7D9FF05460098401C00900098F3
:10177000B0F5A04F01D0002DF2D03120FFF7CCFF03
:1017800008B1012400E00024204638BD01460020B5
:10179000C34A106820F0F80040EAC10010607047AA
:1017A000C349086070470021BD4A70321170117042
:1017B000012802D004280AD104E00121B84A70327D
:1017C000117005E00521B64A7032117000E000BFCB
:1017D00000BF7047B7490860704770B5049C41EA84
:1017E00082150126C6EB530645EA0645054345EA40
:1017F0000465AB4E361D356070BDAD490866704757
:10180000820142EA0172A64B84331A607047A849EC
:101810008866704710B5830143EA016343EA0273A7
:101820009F4C8834236010BDA14908677047A049C8
:10183000C864704702460020994B0833186820F0AE
:10184000EC6042EA01031843954B08331860704777
:1018500002460020924B0833186820F0784042EA94
:10186000010318438E4B083318607047014600206F
:101870008B4A0832106820F003000843106070475C
:1018800087480830006800F00C00704701460020CF
:10189000834A0832106820F0F00008431060704757
:1018A000014600207E4A0832106820F4E0500843C8
:1018B0001060704701460020794A0832106820F411
:1018C000604040EAC10010607047F0B5002100227E
:1018D0000024022500260223714F08373F6807F0D5
:1018E0000C0121B1042905D0082937D105E0724F38
:1018F000076036E0714F076033E0694F3F1D3F6876
:10190000C7F38056664F3F1D3F6807F03F036EB137
:101910006A4FB7FBF3F7DFF888C10CF1040CDCF871
:1019200000C0CCF3881C07FB0CF40CE0624FB7FB43
:10193000F3F7DFF86CC10CF1040CDCF800C0CCF359
:10194000881C07FB0CF4564F3F1D3F68C7F3014747
:101950007F1C7D00B4FBF5F7076002E0564F07607F
:1019600000BF00BF4E4F08373F6807F0F00109097C
:10197000534F7A5C0768D7404760494F08373F6844
:1019800007F4E051890A4E4F7A5C4768D740876078
:10199000434F08373F6807F46041490B484F7A5C72
:1019A0004768D740C760F0BD002100F44072B2F52F
:1019B000407F0AD13A4A0832116821F4F811414AAD
:1019C00002401143364A08321160354A70321268BB
:1019D000C0F30B031A43324B70331A60704735491A
:1019E00044390860704733494039086070473649C8
:1019F0000860704701460020294A8C32106820F0A8
:101A00001F004A1E1043264A8C3210607047014660
:101A10000020234A8C32106820F4F8504A1E40EA15
:101A200002201F4A8C3210607047014600201C4A79
:101A30008C32106820F44010084310607047014653
:101A40000020174A8C32106820F4400008431060D0
:101A5000704701460020124A8C32106820F4403052
:101A600008431060704719490860704739B10C4A43
:101A70003032126802430A4B30331A6006E0084ADB
:101A8000303212688243064B30331A607047F9B126
:101A9000034A343212680243014B34331A601CE0AB
:101AA00000380240FFFFF6EA10300024003000202A
:101AB00000004742800E47420024F40000127A00E2
:101AC00014000020FFFCFF0F5C014742E011474279
:101AD0008F4A126882438E4B1A60704739B18C4A24
:101AE000121D126802438A4B1B1D1A6006E0884AC9
:101AF000121D12688243864B1B1D1A60704739B154
:101B0000834A0C3212680243814B0C331A6006E0A0
:101B10007F4A0C32126882437D4B0C331A60704747
:101B200039B17B4A103212680243794B10331A6084
:101B300006E0774A103212688243754B10331A6000
:101B4000704739B1724A243A12680243704B243B01
:101B50001A6006E06E4A243A126882436C4B243BBA
:101B60001A60704739B16A4A203A12680243684BDA
:101B7000203B1A6006E0664A203A12688243644BB2
:101B8000203B1A60704739B1614A1C3A126802431F
:101B90005F4B1C3B1A6006E05D4A1C3A12688243A8
:101BA0005B4B1C3B1A60704739B1594A143A1268B2
:101BB0000243574B143B1A6006E0554A143A126828
:101BC0008243534B143B1A60704739B1504A103A64
:101BD000126802434E4B103B1A6006E04C4A103A22
:101BE000126882434A4B103B1A60704739B1484A29
:101BF0001C3212680243464B1C331A6006E0444A0A
:101C00001C3212688243424B1C331A60704739B150
:101C10003F4A2032126802433D4B20331A6006E0EF
:101C20003B4A203212688243394B20331A60704796
:101C300039B1374A243212680243354B24331A60D3
:101C400006E0334A243212688243314B24331A604F
:101C5000704739B12E4A2C32126802432C4B2C3378
:101C60001A6006E02A4A2C3212688243284B2C3331
:101C70001A60704739B1264A303212680243244B49
:101C800030331A6006E0224A303212688243204B19
:101C900030331A607047012808D11D493C3109686A
:101CA00041F008011A4A3C32116007E018493C3102
:101CB000096821F00801164A3C321160704739B1B9
:101CC000134A273A12780243114B273B1A7006E059
:101CD0000F4A273A127882430D4B273B1A70704700
:101CE0000B484030006840F080700949403108607E
:101CF000704701460020064A283A12680A400AB195
:101D0000012000E000207047014926390870704723
:101D10003438024010B501218803FFF756FF002137
:101D20004FF48040FFF751FF10BD1C490860704719
:101D30001B490862704730B500228B071C0F0F2328
:101D400003FA04F2154B08338C1053F824309343F4
:101D5000124C08348D1044F8253023468C1053F86B
:101D600024308C07240F00FA04F423430B4C08346E
:101D70008D1044F8253030BD0949DC3108607047CA
:101D8000084908607047002004492031096801F4BF
:101D9000807109B1012000E0002070470038014047
:101DA000000027420004274210B50446FE48844242
:101DB00008D101210846FFF708FF00210120FFF7A5
:101DC00004FF9DE0B4F1804F08D101210846FFF7E0
:101DD000EBFE00210120FFF7E7FE91E0F34884428B
:101DE00008D101210220FFF7DFFE00210220FFF7CA
:101DF000DBFE85E0EE48844208D101210420FFF794
:101E0000D3FE00210420FFF7CFFE79E0E9488442A9
:101E100008D101210820FFF7C7FE00210820FFF7A5
:101E2000C3FE6DE0E448844208D101211020FFF791
:101E3000BBFE00211020FFF7B7FE61E0DF488442BF
:101E400008D101212020FFF7AFFE00212020FFF75D
:101E5000ABFE55E0DA48844208D101210220FFF7A9
:101E6000B4FE00210220FFF7B0FE49E0D5488442CD
:101E700009D101210804FFF7A8FE00214FF48030AA
:101E8000FFF7A3FE3CE0D048844209D10121480479
:101E9000FFF79BFE00214FF40030FFF796FE2FE086
:101EA000CA48844209D101218804FFF78EFE00212F
:101EB0004FF48020FFF789FE22E0C548844208D114
:101EC00001214020FFF770FE00214020FFF76CFE4B
:101ED00016E0C048844208D101218020FFF764FE4B
:101EE00000218020FFF760FE0AE0BB48844207D152
:101EF00001218015FFF758FE0021A015FFF754FEC1
:101F000010BD00220288A84B98420ED0AC4B9842DC
:101F10000BD0B0F1804F08D0A44B984205D0A44B11
:101F2000984202D0A34B984204D14FF68F731A40C7
:101F30004B881A43A04B984207D0A04B984204D03C
:101F40004FF6FF431A400B891A4302804B68C36265
:101F50000B880385944B984202D0994B984201D14B
:101F60008B7A03860123838270474FF0FF314160F3
:101F70000021018001814180817270470185828248
:101F800070470A46002101884FF68F7319401143AC
:101F90000180704741627047C16270470146486ADC
:101FA00070470146088D704721B1028842F0020255
:101FB000028004E002884FF6FD731A4002807047E9
:101FC00021B1028842F00402028004E002884FF648
:101FD000FB731A400280704721B1028842F08002F0
:101FE000028004E002884FF67F731A400280704737
:101FF00002884FF6F7731A40028002880A43028073
:10200000704702884FF6FF431A40028002880A4355
:102010000280704721B1028842F00102028004E090
:1020200002884FF6FE731A400280704770B5002494
:1020300000220023058C4FF6FE7635400584028C85
:102040008388048B4FF68F752C40B51E2C400D886D
:102050002C43751E2A408D892A434D882A43524DB0
:10206000A84202D0564DA84213D14FF6F7752A4028
:10207000CD892A434FF6FB752A408D882A434FF6B7
:10208000FF652B404FF6FF552B400D8A2B434D8AA1
:102090002B43838004838D684563028470BD70B5D3
:1020A000002400220023058C4FF6EF76354005848E
:1020B000028C8388048B48F6FF752C404FF6FF4551
:1020C0002C400D884FF6FF7606EA05252C434FF687
:1020D000DF752A408D8906EA05152A434D8806EAF0
:1020E00005152A43304DA84202D0354DA8421DD1D6
:1020F0004FF67F752A40CD894FF6FF7606EA051523
:102100002A434FF6BF752A408D8806EA05152A43F3
:102110004FF6FF352B404FF2FF752B400D8A06EA34
:1021200085052B434D8A06EA85052B43838004836E
:102130008D688563028470BD70B500240022002381
:10214000058C4FF6FF6635400584028C8388848BAE
:102150004FF68F752C404FF6FC752C400D882C43A4
:102160004FF6FF552A408D894FF6FF7606EA052582
:102170002A434D8806EA05252A430B4DA84202D082
:102180000F4DA84238D14FF2FF752A40CD894FF646
:10219000FF7606EA05252A434FF6FF352A408D884B
:1021A00006EA05252A4319E000000140000400402A
:1021B00000080040000C00400010004000140040E7
:1021C000000401400040014000440140004801403B
:1021D00000180040001C0040002000404EF6FF7533
:1021E0002B404DF6FF752B400D8A06EA05152B4353
:1021F0004D8A06EA05152B43838084838D68C56369
:10220000028470BD70B5002200230024058C4EF6B8
:10221000FF7635400584038C8488828B48F6FF75F1
:102220002A404FF6FF452A400D884FF6FF7606EA12
:1022300005252A434DF6FF752B408D8906EA0535A5
:102240002B434D8806EA05352B43FE4DA84202D0AC
:10225000FD4DA84208D14BF6FF752C400D8A4FF674
:10226000FF7606EA85152C43848082838D68056499
:10227000038470BD00210180418081808160818163
:10228000C18101824182704770B50346002000245D
:102290001846183001258D40ACB21D8CA5431D8415
:1022A00009B108290AD100EB610005684FF68F7665
:1022B000354005600568154305600FE00D1FC5F347
:1022C0004E052844056848F6FF76354005600568E8
:1022D0004FF6FF7606EA02263543056070BD41637E
:1022E000704781637047C1637047016470470A4655
:1022F0000021018B4FF68F73194011430183704702
:102300000A460021018B48F6FF7319404FF6FF7310
:1023100003EA02231943018370470A460021818B97
:102320004FF68F7319401143818370470A4600218D
:10233000818B48F6FF7319404FF6FF7303EA0223BF
:102340001943818370470A460021018B4FF6F773CA
:1023500019401143018370470A460021018B4FF257
:10236000FF7319404FF6FF7303EA022319430183F9
:1023700070470A460021818B4FF6F77319401143CD
:10238000818370470A460021818B4FF2FF73194009
:102390004FF6FF7303EA02231943818370470A460D
:1023A0000021018B4FF6FB731940114301837047E5
:1023B0000A460021018B4FF6FF3319404FF6FF7399
:1023C00003EA02231943018370470A460021818BE7
:1023D0004FF6FB7319401143818370470A46002171
:1023E000818B4FF6FF3319404FF6FF7303EA022348
:1023F0001943818370470A460021018B4FF67F7392
:1024000019401143018370470A460021018BC1F333
:102410000E014FF6FF7303EA02231943018370474D
:102420000A460021818B4FF67F7319401143818347
:1024300070470A460021818BC1F30E014FF6FF73EE
:1024400003EA02231943818370470A460021018C65
:102450004FF6FD7319401143018470470A4600216D
:10246000018C4FF6F77319401143018470470A46F7
:102470000021018C4FF6DF7319404FF6FF7303EA1A
:1024800002131943018470470A460021018C4FF65C
:102490007F7319404FF6FF7303EA02131943018457
:1024A00070470A460021018C4FF6FF5319404FF642
:1024B000FF7303EA02231943018470470A4600218F
:1024C000018C4FF2FF7319404FF6FF7303EA0223AA
:1024D0001943018470470A460021018C4DF6FF73B1
:1024E00019404FF6FF7303EA023319430184704722
:1024F00030B5002301248C40A3B2048C9C43048497
:10250000048C02FA01F5ADB22C43048430BD30B521
:10251000002304248C40A3B2048C9C430484048CC8
:1025200002FA01F5ADB22C43048430BD828B4FF228
:10253000FF331A408283828B4FF6FF7303EA012335
:102540001A4382837047F0B50C46154600210022DD
:102550000026078C4EF6FF7C07EA0C070784818B68
:10256000028C4FF6FF7707EA043640F6FF47394002
:102570004FF6FF7707EA052739434FF6FF7707EA5B
:102580000337394345F6FF773A4046F480573A43DC
:1025900081830284F0BD828B4FF6F3731A408283ED
:1025A000828B0A4382837047F0B50C4615460021A2
:1025B00000220026078C4FF6FF6C07EA0C07078401
:1025C000818B028C4FF6FF7707EA04264FF60C77D3
:1025D00039404FF6FF7707EA03172F4339434FF28D
:1025E000FF573A4046F480773A4381830284F0BD36
:1025F000028B4FF2FF331A400283028B4FF6FF73B8
:1026000003EA01231A4302837047F0B50C461546CE
:10261000002100220026078C4FF6EF7C07EA0C070A
:102620000784018B028C4FF6FF7707EA041640F609
:10263000FF4739404FF6FF7707EA033739434FF634
:10264000FF7703E0000001400004014007EA05278E
:1026500039434FF65F773A4046F010073A4301831B
:102660000284F0BD028B4FF6F3731A400283028B93
:102670000A4302837047F0B50C461546002100223C
:10268000068C4FF6FE773E400684018B028C4FF697
:102690000C7631407E1C06EA03162E4331434FF67A
:1026A000F576324044F00106324301830284F0BDE6
:1026B00070B505460C46208850B92389A2886188E8
:1026C0002846FFF7D8FFE1882846FFF7CBFF25E033
:1026D000208804280AD12389A28861882846FFF728
:1026E00094FFE1882846FFF783FF17E02088082839
:1026F0000AD12389A28861882846FFF755FFE1881F
:102700002846FFF748FF09E02389A2886188284608
:10271000FFF719FFE1882846FFF708FF70BD002189
:1027200001804180012181800021C18001817047A9
:102730002DE9F04105460C4600260127608808B9BE
:10274000022600E00026A088012801D1022700E02F
:1027500001272088A0B92389A28861882846FFF72D
:102760008AFFE1882846FFF77DFF23893A463146F4
:102770002846FFF74AFFE1882846FFF739FF13E0B4
:102780002389A28861882846FFF73FFFE188284611
:10279000FFF72EFF23893A4631462846FFF76BFFA5
:1027A000E1882846FFF75EFFBDE8F0810146486BEF
:1027B00070470146886B70470146C86B70470146F9
:1027C000086C70470A884B881A438B881A43CB8859
:1027D0001A430B891A434B891A438B891A43A0F871
:1027E000442070470021018041808180C1800181A7
:1027F00041818181704731B1B0F8442042F40042F8
:10280000A0F8442005E0B0F84420C2F30E02A0F87E
:102810004420704721B1828842F00402828004E0A3
:1028200082884FF6FB731A408280704721B18288FC
:1028300042F00102828004E082884FF6FE731A4063
:10284000828070471AB183890B43838102E08389B8
:102850008B43838170478182704702460020138A30
:102860000B400BB1012000E000207047CA430282F8
:10287000704730B50246002000230024158A05EA7F
:102880000103958905EA010413B10CB1012000E0B0
:10289000002030BDCA430282704741EA0203A0F81B
:1028A000483070471AB183890B43838102E08389E2
:1028B0008B438381704721B1828842F00802828075
:1028C00004E082884FF6F7731A40828070470189CE
:1028D0004FF6F8721140018170470A4600210189C4
:1028E0004FF68F73194011430181704730B504468C
:1028F0000D4629462046FFF7F0FF208940F00700EB
:10290000208130BD2DE9F04104460D4616461F4694
:10291000602D06D13B46012231462046FFF775FE69
:1029200005E03B46012231462046FFF7A4FE29463A
:102930002046FFF7D2FF208940F007002081BDE844
:10294000F08130B50C4600210189C9B24FF6FF7500
:1029500005EA0325154325432943018130BD2DE9AF
:10296000F04105460E4617469846002443463A462F
:1029700031462846FFF7E5FF2C894FF6F8700440F2
:1029800044F007044FF68F70044044F070042C812B
:10299000BDE8F081F0B504460D4616461F463B469D
:1029A000324629462046FFF7CCFF208940F480407C
:1029B0002081F0BD82884FF68F731A408280828812
:1029C0000A438280704702894FF6F8731A400281E9
:1029D00002890A430281704702894FF67F731A40C9
:1029E000028102890A4302817047F0B50C46154600
:1029F0001E460021002200230189028B038C4FF622
:102A0000F877394021434FF6FC473A4040F201172E
:102A10003A434FF6DD773B404FF6FF7707EA06175C
:102A20002F433B43018102830384F0BD21B182889F
:102A300042F08002828004E082884FF67F731A4061
:102A400082807047A0F850107047000010B504460F
:102A5000FA48844208D101211020FFF7B6F800217E
:102A60001020FFF7B2F857E0F548844209D1012160
:102A70004804FFF799F800214FF40030FFF794F86D
:102A80004AE0F048844209D101218804FFF78CF81C
:102A900000214FF48020FFF787F83DE0EA488442A8
:102AA00009D10121C804FFF77FF800214FF400206D
:102AB000FFF77AF830E0E548844209D101210805A2
:102AC000FFF772F800214FF48010FFF76DF823E054
:102AD000DF48844208D101212020FFF776F8002149
:102AE0002020FFF772F817E0DA48844209D101216B
:102AF0008807FFF759F800214FF08040FFF754F89E
:102B00000AE0D548844207D101214005FFF74CF87F
:102B100000216005FFF748F810BD2DE9FF47054685
:102B20000E460024A14600BFA046B08900B100BFF8
:102B30002C8A24F44054F08804432C82AC8941F25E
:102B40000C608443B0883189084371890843044389
:102B5000AC81AC8A24F44074B0890443AC826846EA
:102B6000FEF7B3FEB548854202D0B948854202D18E
:102B7000DDF80C9001E0DDF80890A88900F4004031
:102B800040B109EBC90000EB091031684900B0FB06
:102B9000F1F707E009EBC90000EB09103168890083
:102BA000B0FBF1F76420B7FBF0F0040120096421C9
:102BB00001FB1078A88900F4004040B1322000EBFE
:102BC000C800B0FBF1F000F00700044308E0322039
:102BD00000EB08106421B0FBF1F000F00F0004439B
:102BE0002C81BDE8FF874FF41651016000218180E0
:102BF000C18001810C21418100218181704710B584
:102C000002460020108A20F470600B884C88234311
:102C10008C882343CC8823431843108210BD0021A5
:102C2000018041808180C180704721B1828942F456
:102C30000052828104E082894DF6FF731A4082813E
:102C40007047028B02F47F420283028B0A430283A5
:102C5000704721B1828942F40042828103E0828977
:102C6000C2F30E028281704721B1828A42F400626F
:102C7000828204E0828A4FF2FF731A408282704798
:102C8000C1F308028280704701468888C0F30800BB
:102C90007047028A4FF6F0731A400282028A0A4392
:102CA0000282704721B1828942F00202828104E0EF
:102CB00082894FF6FD731A408281704782894FF2F4
:102CC000FF731A40828182890A4382817047028A97
:102CD0004FF6DF731A400282028A0A43028270476B
:102CE00021B1028A42F48042028204E0028A4BF659
:102CF000FF731A4002827047818941F0010181818E
:102D0000704721B1828A42F00802828204E0828AFE
:102D10004FF6F7731A4082827047028BD2B2028359
:102D2000028B42EA01220283704721B1828A42F07B
:102D30002002828204E0828A4FF6DF731A40828288
:102D4000704721B1828A42F01002828204E0828AB6
:102D50004FF6EF731A4082827047828A4FF6FB73F8
:102D60001A408282828A0A438282704721B1828A13
:102D700042F00202828204E0828A4FF6FD731A401A
:102D8000828270471AB1838A0B43838202E0838A6E
:102D90008B4383827047F0B503460024002600254C
:102DA000002040F66A17B94200D100BF1846C1F3AF
:102DB000421401F01F06012707FA06F5012C01D184
:102DC0000C3004E0022C01D1103000E014301AB1B4
:102DD00007682F43076002E00768AF430760F0BD54
:102DE00002460020B1F5007F00D100BF13880B40E0
:102DF0000BB1012000E00020704701F40072B2F531
:102E0000007F00D100BFCA430280704770B5024600
:102E1000002400230025002040F66A16B14200D1AC
:102E200000BFC1F3421501F01F03012606FA03F3A8
:102E3000012D13D19689334017E0000000100140A6
:102E40000044004000480040004C0040005000405A
:102E50000014014000780040007C0040022D02D1A7
:102E6000168A334001E0968A33400C12012606FA96
:102E700004F41688344013B10CB1012000E00020A6
:102E800070BD10B50022002340F66A14A14200D1A3
:102E900000BF0A1201249440A3B2DC43048010BD99
:102EA00010B504466FF00400FDF74AFBE11704EB90
:102EB0005171C1F3C701394A11701046007800EB17
:102EC0004001C1EBC0104FF6FF7101EAC000344968
:102ED000088010BD0146314A12784A434FF0E02382
:102EE0005A6100229A611A46126942F001021A617F
:102EF00000BF4FF0E022106900F001021AB100F4A7
:102F00008032002AF5D04FF0E022126922F001024F
:102F10004FF0E0231A6100229A6170470146204A6F
:102F200012884A434FF0E0235A6100229A611A4600
:102F3000126942F001021A6100BF4FF0E0221069ED
:102F400000F001021AB100F48032002AF5D04FF0EF
:102F5000E022126922F001024FF0E0231A61002200
:102F60009A61704770B504464FF4077094FBF0F017
:102F7000C6B24FF4077094FBF0F100FB114085B22C
:102F800005E04FF40770FFF7C9FF701EC6B2002EB0
:102F9000F7D115B12846FFF7C1FF70BD240000200E
:102FA0002600002000BF704700BF4C4A128802F084
:102FB0004002002AF9D0C2B2484B9A80704710B53F
:102FC00088B0044601210846FEF750FD012110207B
:102FD000FEF7A6FD072209214148FEF734FB072230
:102FE0000A213F48FEF72FFB4FF4C06006900220F5
:102FF0008DF81C008DF81D0000208DF81E000120AA
:103000008DF81F0006A93648FEF792FA02940020B8
:10301000ADF80C00ADF80E00ADF81000ADF81400DE
:103020000C20ADF8120002A92C48FFF776FD012113
:103030002A48FFF7FAFD012240F225512748FFF701
:10304000AAFE25208DF8040003208DF805008DF8D8
:10305000060001208DF8070001A8FDF724FA08B04A
:1030600010BD10B540F225511C48FFF7CFFE10B33C
:103070001A48FFF709FEC4B21A48008800F400405D
:10308000C8B91848008800F4804060B10A2C03D009
:1030900000201449088020E01248008840F40040D5
:1030A0001049088019E00D2C06D10E48008840F424
:1030B00080400C49088010E00A480088C0F30D00E9
:1030C00009490C5407480088401C064908800846F6
:1030D0000088C72801DD0020088010BD00100140D5
:1030E000000002402C0000200801002010B5A8209C
:1030F000FFF7D6FE4FF4E130FFF761FF4FF4A06019
:10310000FDF7CCF900F010F800F0EAF801F0ACFAA5
:10311000044800F048FB00F0B1FD01F0F0FA00F0C7
:1031200003F910BDD001002000B58BB00121084685
:10313000FEF79CFC01214806FEF7E1FC09220B2169
:103140006448FEF780FA09220C216248FEF77BFAF8
:103150004FF4C050029002208DF80C0002A95D4887
:10316000FEF7E6F914208DF8040001208DF8050023
:103170008DF806008DF8070001A8FDF794F91320DB
:103180008DF8040000208DF8050001208DF8060060
:103190008DF8070001A8FDF786F94F48FDF7EEF915
:1031A00008A8FDF70FFB00208DF826008DF82700FA
:1031B0008DF828008DF829008DF82A0001208DF85F
:1031C0002B0000208DF822008DF8230008208DF8B8
:1031D000240003208DF82500ADF8200008A93E4802
:1031E000FDF7E5F900208DF81A008DF81B0001208D
:1031F0008DF81C000020ADF81000ADF81200ADF8FD
:103200001400ADF81600ADF8180001208DF81D006F
:1032100004A8FDF756FA012202212F48FDF750FDC0
:10322000012211462C48FDF74BFD0BB000BD10B537
:1032300001212948FDF7ACFD18B101212648FDF711
:1032400042FE10BD00B585B002212348FDF7A0FD68
:1032500078B104212048FDF736FE20491E48FDF7CD
:1032600074FD6A4600211C48FDF70FFC684600F01B
:10327000C6FC05B000BDF0B585B004460D46164647
:103280001F464FF40070009000208DF808008DF864
:10329000090008208DF80A00200A8DF80B00E1B221
:1032A0008DF80C10290A8DF80D10E9B28DF80E106A
:1032B000310A8DF80F10F1B28DF81010390A8DF81F
:1032C0001110F9B28DF8121069460348FDF7E8FABB
:1032D00005B0F0BD0000024000640040080000326C
:1032E0001FB501211020FEF70AFC36208DF80000E2
:1032F00001208DF8010000208DF8020001208DF8DA
:1033000003006846FDF7CFF85320ADF80400002015
:10331000ADF80600ADF80C004FF47A70029001A9E8
:103320002548FEF7EEFD1FBD10B501212248FEF72E
:1033300071FE012211462048FFF784FA01211E4840
:10334000FFF794FA10BD10B501211B48FFF791FA61
:1033500038B301211848FFF79DFA01211648FFF7FD
:1033600085FA1648D0E900305A1C40F10000134994
:10337000C1E90020124801F0E9FF1048D0E900102F
:1033800041F27073C91A70F100000BDA0B4841F278
:103390007C5306C80020591A90410BDA094800F006
:1033A0007DFD07E002F06AF941F271710020034AE5
:1033B000C2E9001010BD00000010004030000020E5
:1033C000B00700202006002010B5CF48006820F488
:1033D0004060CD4908600846006840F4806008609D
:1033E0000020CA490860CA49C1F894020420FFF7C6
:1033F00071FD0120C5490860C549C1F89402042047
:10340000FFF768FD10BD10B50020C0490860BE4838
:10341000006820F44060BC4908600846006840F439
:10342000806008600020BA49C1F894020220FFF7CA
:1034300051FD0120B54908600220FFF74BFD002037
:10344000B349C1F88C0210BD10B50020AF49086027
:10345000AD48006820F44060AB4908600846006849
:1034600040F4806008600120A949C1F8940202205C
:10347000FFF730FD0120A54908600220FFF72AFD73
:103480000020A349C1F88C0210BD70B50546002488
:103490009D48006820F440609B4908600846006829
:1034A0000860002616E00020984908600220FFF717
:1034B00011FD01209649C1F88C026006040E934864
:1034C0007838006808B1601CC4B20120FFF702FD23
:1034D000701CC6B2082EE6DB15B9FFF7B5FF01E098
:1034E000FFF791FF204670BD10B5002486480068A4
:1034F00020F44060844908600846006808600120A4
:10350000824908310860FFF7E5FC01208049C1F8D5
:103510008C02FFF7DFFC07E0601CC4B2FA2C03DD6D
:10352000FFF752FF012010BD784878380068002866
:10353000F2D17649086000BFF5E770B504467248DD
:10354000006820F44060704908600846006840F454
:103550008060086000206D490860002517E0E009E0
:103560006A49083108606006040E0220FFF7B2FCC9
:1035700001206749C1F88C020220FFF7ABFC002054
:10358000624908600220FFF7A5FC681CC5B2082D3F
:10359000E5DB70BD10B55C48006820F440605A4916
:1035A00008600846006840F48060086001205749C0
:1035B000083108605649C1F88C020420FFF78AFCE4
:1035C00000205249083108600420FFF783FC0020E6
:1035D0004F49C1F88C0210BD2DE9F04106460F4657
:1035E00014461D46FFF7D6FF002141EA4601C8B246
:1035F000FFF7A3FFFFF778FF20B1FFF7E5FE0120FB
:10360000BDE8F0813846FFF798FFFFF76DFFFFF741
:10361000C1FF012101EB4601C8B2FFF78EFFFFF7A2
:1036200063FF0DE0012C04D10020FFF72EFF28706E
:1036300003E00120FFF729FF2870601EC4B26D1C53
:10364000002CEFD1FFF7C0FE0020D9E770B505468A
:103650000C46FFF79FFFD020FFF76FFFFFF744FFF7
:1036600018B1FFF7B1FE012070BD2846FFF765FFD6
:10367000FFF73AFF2046FFF760FFFFF735FF18B16D
:10368000FFF7A2FE0120EFE7FFF79EFE0020EBE729
:1036900070B50446FFF77EFFD020FFF74EFFFFF71F
:1036A00023FF2046FFF749FFFFF71EFFFFF772FFDA
:1036B000D120FFF742FFFFF717FF0020FFF7E5FEDD
:1036C0000546FFF781FE284670BD1CB5012120206C
:1036D000FEF7CCF92820009001208DF8040000208E
:1036E0008DF8060003208DF8050001208DF80700F5
:1036F00069460548FDF71CFF01200449086004499C
:10370000C1F894021CBD0000001402408C824242A9
:10371000008042429FEDF50A80ED030A9FEDF30A17
:1037200080ED040A9FEDF10A80ED050A9FEDEF0A96
:1037300080ED0C0A704710B52DED088B0446B0EEF5
:10374000408AF0EE608AB0EE419AF0EE619AB0EEF7
:1037500042AAF0EE62AAB0EE43BA84ED008AC4ED4C
:10376000018A84ED029AC4ED069A84ED07AAC4ED9D
:1037700008AA84ED09BADE48A0642046A16C8847F7
:103780009FEDDA0A84ED0D0A9FEDD80A84ED0E0A4A
:103790009FEDD60A84ED0F0A9FEDD40A84ED100A3E
:1037A000BDEC088B10BD10B50446D24860649FED97
:1037B000CF3ADFEDCE2A9FEDCD2ADFEDCC1A9FED7B
:1037C000CB1ADFEDCA0A9FEDC90A2046616C884713
:1037D000C8499020015101599FEDC43ADFEDC32A39
:1037E0009FEDC22ADFEDC11A9FEDC01ADFEDBF0ABF
:1037F0009FEDBE0A04F14C008847BE49DC20015110
:1038000001599FEDBA3ADFEDB92A9FEDB82ADFEDF5
:10381000B71A9FEDB61ADFEDB50A9FEDB40A04F1B1
:1038200098008847B3494FF49470015101599FEDB6
:10383000AF3ADFEDAE2A9FEDAD2ADFEDAC1A9FED7A
:10384000AB1ADFEDAA0A9FEDA90A04F1E40088474C
:10385000A8494FF4BA70015101599FEDA73AF1EE12
:10386000042A9FEDA22ADFEDA41AB7EE001ADFEDBD
:103870009F0AB0EE080A04F5987088479D494FF4F6
:10388000E070015101599FED9D3ADFED9D2A9FEDBA
:10389000972ADFED9A1AB3EE0E1ADFED940A9FED28
:1038A000990A04F5BE70884792494FF4037001519C
:1038B00001599FED923ADFED922A9FED932ADFEDB9
:1038C0008F1A9FED8A1ADFED890AB7EE000A04F518
:1038D000E470884787494FF41670015101599FEDF4
:1038E0008B3ADFED862A9FED852ADFED841A9FED66
:1038F0007F1ADFED7E0A9FED860A04F50570884782
:1039000010BD10B52DED028B0446B0EE408AF0EEEE
:10391000608A7748A0642046A16C884784ED0A8AB3
:10392000C4ED0B8A94ED0D0A84ED0E0A94ED0A0A9B
:10393000D4ED0B0A30EE600A84ED0D0A94ED100A06
:10394000D4ED0D0A30EE200A84ED100A94ED000A41
:10395000D4ED0D0A20EE200A84ED030A94ED030A4B
:10396000D4ED060AB4EEE00AF1EE10FA02D294EDBC
:10397000030A01E094ED060A84ED030A94ED030ABC
:10398000D4ED060AF1EE600AB4EEE00AF1EE10FAA8
:1039900002DD94ED030A03E094ED060AB1EE400A5D
:1039A00084ED030A94ED010AD4ED100A20EE200AFA
:1039B00084ED040A94ED040AD4ED070AB4EEE00A9B
:1039C000F1EE10FA02D294ED040A01E094ED070A38
:1039D00084ED040A94ED040AD4ED070AF1EE600ABE
:1039E000B4EEE00AF1EE10FA02DD94ED040A03E011
:1039F00094ED070AB1EE400A84ED040A94ED0D0A35
:103A0000D4ED0E0A30EE600AD4ED020A20EE200A50
:103A100084ED050A94ED050AD4ED080AB4EEE00A37
:103A2000F1EE10FA02D294ED050A01E094ED080AD5
:103A300084ED050A94ED050AD4ED080AF1EE600A5A
:103A4000B4EEE00AF1EE10FA02DD94ED050A03E0AF
:103A500094ED080AB1EE400A84ED050A94ED030ADC
:103A6000D4ED040A30EE200AD4ED050A30EE200A27
:103A700084ED0C0A94ED0C0AD4ED090AB4EEE00AC8
:103A8000F1EE10FA02D294ED0C0A01E094ED090A6D
:103A900084ED0C0A94ED0C0AD4ED090AF1EE600AEB
:103AA000B4EEE00AF1EE10FA02DD94ED0C0A03E048
:103AB00094ED090AB1EE400A84ED0C0A94ED0C0A6B
:103AC000BDEC028B10BD134890ED560A124880EDF4
:103AD000000A104890ED570A104880ED000A0D4882
:103AE00090ED580A0E4880ED000A70470000000073
:103AF00015370008373700080000484200409C4551
:103B00000000C842000034430000FA4300401C4655
:103B10000000C843D0010020380000203C000020F5
:103B20004000002070B500220023046844600C7B34
:103B3000CD7A44EA0524046004684568641BC460C7
:103B4000C468454DAC4207DA846B641C8463C46866
:103B500004F50054C4610EE0C46841F29415AC420F
:103B600007DD846B641E8463C468A4F50054C461DB
:103B700001E0C468C4610568846B05EB443484606B
:103B800004688569641B00EE104AB8EEC00ADFEDD8
:103B9000330A20EE200A9FED321AC0EE010A846B30
:103BA0004FF4B4756C4300EE104AB8EEC00A30EE24
:103BB000800A80ED100AC669047D651C057500F158
:103BC000200545F82460047D062C01D100240475ED
:103BD000002205E000F1200454F822402344521C46
:103BE000062AF7DB062493FBF4F4C463446C1CB987
:103BF00090ED100A80ED120A0124446470BD10B5E6
:103C000004462068A0F20120062822D2DFE800F056
:103C100003080D12171C21461248FFF783FF18E016
:103C200021461148FFF77EFF13E021460F48FFF7BA
:103C300079FF0EE021460E48FFF774FF09E02146A8
:103C40000C48FFF76FFF04E021460B48FFF76AFFBF
:103C500000BF00BF10BD00006CEEFFFF0000B443CA
:103C600000000046300400207C040020C80400202E
:103C70001405002060050020AC05002000B597B0B9
:103C800001210820FDF7F2FE01214804FDF737FF6E
:103C900001214805FDF7EAFE072206217748FDF7D6
:103CA000D2FC4020159002208DF8580000208DF89D
:103CB0005A0003208DF8590001208DF85B0015A9EA
:103CC0006E48FDF735FC6E48FEF7C0FE6D4811905A
:103CD0000020ADF84800ADF84A004FF48060ADF820
:103CE0004C000420ADF84E000020ADF8500011A9A2
:103CF0006348FEF712FF01216148FEF796FF01229B
:103D000040215F48FFF73EF810208DF8400000206A
:103D10008DF8410002208DF8420001208DF843000B
:103D200010A8FCF7C0FB5848FDF720F94FF00060E1
:103D300001905348001D02905448039000200490C5
:103D400012200590002006904FF48060079000201C
:103D5000089009904FF480700A904FF440300B9017
:103D600000200C900D900E900F9001A94648FDF791
:103D70009FF9012210214448FDF761FA01214248D0
:103D8000FDF7D0F917B000BD10B541493E48FDF729
:103D900073FA002871D03F493B48FDF73CFA3C4993
:103DA0003948FDF793FA394800783849497840EAAC
:103DB0000120C0F30A00C0F580603749088033480D
:103DC0004078C0103149897840EA4110C0F30A00B8
:103DD000C0F58060304948802C48807880112B499C
:103DE000C97840EA81002949097940EA8120C0F375
:103DF0000A00C0F580602849888024480079401076
:103E00002249497940EAC110C0F30A00C0F5806038
:103E10002149C8801D4840790011800808721B485C
:103E20004079C0F301104872184880791749C97960
:103E300040EA012000B2184948811448007A134929
:103E4000497A40EA012000B2134988810F48807AFC
:103E50000E49C97A40EA012000B20F49C8810B48D7
:103E6000007B08740948407B48740848807B0749F8
:103E7000C97B40EA01200849488210BD000C02407D
:103E800000440040A086010088600240F805002040
:103E900000880020000800200A060020002101629E
:103EA000B44991ED000A80ED020A91ED010A80ED1E
:103EB000030AB3EE040A80ED040ABBEE040A80EDA7
:103EC000050AAD4991ED120ADFEDAC0A30EE200A89
:103ED00080ED060A91ED120ADFEDA90A30EE200A04
:103EE00080ED070A9FEDA70A80ED010A90ED070A11
:103EF000D0ED060A30EE200AF0EE000A80EE201A1D
:103F000080ED001A7047016AE9BB90ED020ABDEE30
:103F1000C00A10EE101A90ED000ABDEEC00A10EEB5
:103F2000102A91420DD190ED030ABDEEC00A10EEA9
:103F3000101A90ED010ABDEEC00A10EE102A91424F
:103F400032D090ED020AD0ED000AB4EEE00AF1EEB4
:103F500010FA06D290ED020ADFED8B0A30EE200A4D
:103F600005E090ED020ADFED880A30EE600A80ED90
:103F7000020A90ED030AD0ED010AB4EEE00AF1EE78
:103F800010FA08D200E012E090ED030ADFED7E0A9D
:103F900030EE200A05E090ED030ADFED7B0A30EEFB
:103FA000600A80ED030A42E0012101623FE090EDEA
:103FB000020AD0ED070AB4EEE00AF1EE10FA02DBD5
:103FC00090ED070A01E090ED020A80ED020A90ED03
:103FD000020AD0ED060AB4EEE00AF1EE10FA02D8B9
:103FE00090ED070A01E090ED020A80ED020A90EDE3
:103FF000030AD0ED050AB4EEE00AF1EE10FA02D899
:1040000090ED050A01E090ED030A80ED030A90EDC2
:10401000030AD0ED040AB4EEE00AF1EE10FA02DB76
:1040200090ED040A01E090ED030A80ED030A704769
:1040300030B585B004460D4640F2FF1000900020D8
:104040008DF808008DF8090008208DF80A00200A74
:104050008DF80B00E1B28DF80C10290A8DF80D10C7
:10406000E9B28DF80E1000218DF80F108DF81010A8
:104070008DF811108DF8121069464448FCF710FCB9
:1040800005B030BD10B504464148B0F9020000EE5D
:10409000100AB8EEC00A9FED3F1AC0EE010A94ED77
:1040A000030A30EE800A84ED030A3948B0F90200B1
:1040B00000EE100AB8EEC00ADFED360A80EE201AD4
:1040C00094ED020A31EE000A84ED020A2046FFF761
:1040D0001AFF284890ED001AF0EE410A94ED021AFA
:1040E000B0EE410A2C48FFF70CFC2C4880ED060A84
:1040F000204890ED031AF0EE410A284890ED061A88
:10410000B0EE410A24484C30FFF7FBFB234880ED1A
:10411000070A184890ED011AF0EE410A94ED031ACF
:10412000B0EE410A1C489838FFF7EBFB1B4880EDC6
:10413000040A104890ED021AF0EE410A174890ED7B
:10414000041AB1EE411AB0EE410A13484C38FFF799
:10415000D8FB124880ED050A90ED050AB1EE400A41
:10416000BDEEC00A10EE100A01B20020FFF760FF9A
:1041700010BD00006406002060050020CDCC08437F
:10418000D7A30C4200000000CDCC4C3E00640040A0
:104190000A06002000401C47980300204406002027
:1041A000F0EE400AF6EE001A60EEA11AB0EE611AC7
:1041B000B0EE600A10EE100AFD49A1EB600000EEBF
:1041C000100A21EE002AF7EE081A42EE401A61EEBC
:1041D000801AB0EE610A70472DE9F04F2DED048B87
:1041E00087B04FF00008C146C2469FEDF20AB0EE1C
:1041F000408A9FEDF00AF0EE408A9FEDEE0AB0EEA5
:10420000409A0020069047F6FF7005900020049029
:1042100047F6FF7003900020029047F6FF70019070
:1042200000243AE0E44B0E223B216820FFF7D4F94A
:10423000E148407AE049097A40EA012005B2DE48C7
:10424000C07ADD49897A40EA012006B2DA48407B2B
:10425000D949097B40EA012007B24FF47A70FEF792
:1042600039FE0698874201DD069703E005988742EC
:1042700000DA05970498854201DD049503E0039870
:10428000854200DA03950298864201DD029603E03A
:104290000198864200DA0196641C142CC2DBDDE929
:1042A0000321114408B200EBD0714910C34A1180B8
:1042B000DDE90121114408B200EBD0714910BF4A79
:1042C0005180DDE90521114408B200EBD07149109D
:1042D000BA4A918000249FE04FF0000B35E0B64BC6
:1042E0000E223B216820FFF777F9B348407AB249A4
:1042F000097A40EA012005B2AF48C07AAE49897A0E
:1043000040EA012006B2AC48407BAB49097B40EA59
:10431000012007B208EB0700A8498988401A0FFA64
:1043200080F809EB0600A5494988401A0FFA80F980
:104330000AEB0500A1490988401A0FFA80FA4FF4E8
:10434000FA70FEF7C7FD0BF1010BBBF1140FC6DBD2
:10435000B8F1000F0CDDC4F1140000EBD07149106E
:10436000491C964A9288114409B2944A91800EE001
:10437000B8F1000F0BDAC4F1140000EBD071491052
:10438000491C8E4A9288511A09B28C4A91804FF08A
:104390000008BAF1000F0CDDC4F1140000EBD0717D
:1043A0004910491C854A1288114409B2834A118078
:1043B0000EE0BAF1000F0BDAC4F1140000EBD0717B
:1043C0004910491C7D4A1288511A09B27B4A118052
:1043D0004FF0000AB9F1000F0CDDC4F1140000EB3E
:1043E000D0714910491C754A5288114409B2734A68
:1043F00051800EE0B9F1000F0BDAC4F1140000EBAC
:10440000D0714910491C6D4A5288511A09B26B4A41
:1044100051804FF00009641C142CFFF65DAF00249E
:104420001AE14FF0000B5FE0634B0E223B21682046
:10443000FFF7D2F86048407A5F49097A40EA0120E4
:1044400005B25D48C07A5C49897A40EA012006B22B
:104450005948407B5849097B40EA012007B2574838
:10446000B0F90000281A00EE100AB8EEC00ADFED1D
:10447000540A80EE201A534890ED000A31EE400AAB
:1044800030EE280AF0EE408A4C48B0F90200301AAB
:1044900000EE100AB8EEC00ADFED490A80EE201ADD
:1044A000494890ED000A31EE400A30EE090AB0EEBC
:1044B000409A4248B0F90400381A00EE100AB8EEEB
:1044C000C00ADFED3F0A80EE201A404890ED000A56
:1044D00031EE400A30EE080AB0EE408A4FF4FA702E
:1044E000FEF7F8FC0BF1010BBBF11E0F9CDBB5EEE8
:1044F000C08AF1EE10FA13DDC4F1140000EE100AC8
:10450000B8EEC00AB0EE001AC0EE010A2F4890EDD6
:10451000000A9FED2F1A01EE200A80ED000A17E035
:10452000B5EEC08AF1EE10FA12D2C4F1140000EE1A
:10453000100AB8EEC00AB0EE001AC0EE010A234815
:1045400090ED000A9FED231A01EE600A80ED000A4B
:104550009FED180AB0EE408AF5EEC08AF1EE10FA2F
:1045600013DDC4F1140000EE100AB8EEC00AB0EE7C
:10457000001AC0EE010A134890ED000A9FED141ACC
:1045800001EE200A80ED000A2CE0F5EEC08AF1EE83
:1045900010FA27D2C4F1140000EE100AB8EEC00AD7
:1045A000B0EE001AC0EE010A064890ED000A13E0D2
:1045B000DF59375F00000000AB0600205B000020E1
:1045C00033330342680000206C00002064000020A8
:1045D000E02D903A52499D3A1FED021A01EE600A11
:1045E00080ED000A1FED0D0AF0EE408AB5EEC09A8C
:1045F000F1EE10FA13DDC4F1140000EE100AB8EE6B
:10460000C00AB0EE001AC0EE010AFE4890ED000AA2
:104610001FED111A01EE200A80ED000A17E0B5EE39
:10462000C09AF1EE10FA12D2C4F1140000EE100A92
:10463000B8EEC00AB0EE001AC0EE010AF14890EDE3
:10464000000A1FED1C1A01EE600A80ED000A1FED42
:10465000270AB0EE409A641C142CFFF6E2AE07B0B5
:10466000BDEC048BBDE8F08F10B5FFF72EF880216C
:104670006B20FEF7EBFF6420FEF774FC00216B203B
:10468000FEF7E4FF10211B20FEF7E0FF00211C20B5
:10469000FEF7DCFF00211920FEF7D8FF00213820AB
:1046A000FEF7D4FF00216A20FEF7D0FF002123206F
:1046B000FEF7CCFF02213720FEF7C8FF012138208A
:1046C000FEF7C4FF7520FEF7E3FF0446682C12D105
:1046D00001216B20FEF7BAFF00216C20FEF7B6FF28
:1046E00000211920FEF7B2FF4FF4FA70FEF73AFCF2
:1046F000FFF772FD01E0012010BD0020FCE700B5CE
:1047000085B001210846FDF7B1F901218803FDF7C5
:1047100007FA00208DF8100002208DF8110000200B
:104720008DF8120001208DF813000420039003A9D6
:10473000B548FCF7FDFE02210020FDF7FCFA04203D
:10474000009000208DF804000C208DF80500012059
:104750008DF806006846FCF7EBFD08208DF8080090
:1047600000208DF809008DF80A0001208DF80B005B
:1047700002A8FBF798FE05B000BD2DE9F043044602
:104780000D46DDE9076700200021012041E0DFF848
:104790007CC23CF81080A0F1010CDFF8709229F87F
:1047A0001C8009F1160C3CF81090A0F1010CDFF808
:1047B0005C8208F1160828F81C9008F1160C3CF8E9
:1047C0001090A0F1010C08F1160828F81C9008F1CF
:1047D000160C3CF81090A0F1010C08F1160828F80E
:1047E0001C9008F1160C3CF81090A0F1010C08F197
:1047F000160828F81C9008F1160C3CF81090A0F14F
:10480000010C08F1160828F81C9000F1010C0CF0BE
:10481000FF000A28BBDBDFF8F4C1ACF81240ACF8AB
:104820002850ACF83E20ACF85430ACF86A60ACF8D4
:104830008070002008E0DFF8D4C13CF910C061446A
:1048400000F1010C0CF0FF000A28F4DB4FF00A0C19
:1048500091FBFCFC0FFA8CFCDFF8B081A8F814C0C7
:10486000002100200AE0DFF8A4C10CF1160C3CF98D
:1048700010C0614400F1010C0CF0FF000A28F2DBCB
:104880004FF00A0C91FBFCFC0FFA8CF8DFF87CC1AE
:10489000ACF82A80002100200AE0DFF870C10CF19A
:1048A0002C0C3CF910C0614400F1010C0CF0FF002D
:1048B0000A28F2DB4FF00A0C91FBFCFC0FFA8CF893
:1048C000DFF848C1ACF84080002100200AE0DFF8A2
:1048D0003CC10CF1420C3CF910C0614400F1010CE8
:1048E0000CF0FF000A28F2DB4FF00A0C91FBFCFCF5
:1048F0000FFA8CF8DFF814C1ACF8568000210020C4
:104900000AE0DFF808C10CF1580C3CF910C0614412
:1049100000F1010C0CF0FF000A28F2DB4FF00A0C4A
:1049200091FBFCFC0FFA8CF8DFF8E0C0ACF86C806F
:10493000002100200AE0DFF8D4C00CF16E0C3CF935
:1049400010C0614400F1010C0CF0FF000A28F2DBFA
:104950004FF00A0C91FBFCFC0FFA8CF8DFF8ACC0AE
:10496000ACF88280BDE8F0832DE9FC4704460D4693
:1049700016461F46DDE90A892548007800287DD0C3
:10498000002023490870234B0E223B216820FEF7AC
:1049900023FE204840781F49097840EA012000B2F0
:1049A0001D4908801B48C0781A49897840EA0120CF
:1049B00000B21A490880174840791649097940EA37
:1049C000012000B2164908801248407A1149097A3C
:1049D00040EA012000B2134908800E48C07A0D4910
:1049E000897A40EA012000B20F4908800948407BDB
:1049F0000849097B40EA012000B20C4908800846BA
:104A000016E000006C0000200000024004070020B7
:104A100070000020AB060020E0000020E200002033
:104A2000E4000020E6000020E8000020EA0000206A
:104A3000B0F90000FE49B1F90010CDE90010FD48C1
:104A4000B0F90030FC48B0F90020FC48B0F9001083
:104A5000FB48B0F90000FFF790FEFA48808A2080FA
:104A6000F848408D2880F748B0F840003080F5487D
:104A7000B0F85600F4490988401A00E014E000B28A
:104A80003880F048B0F86C00EF494988401A00B20D
:104A9000A8F80000EB48B0F88200EB498988401A7A
:104AA00000B2A9F8000023E0E648808A2080E548AB
:104AB000408D2880E348B0F840003080E148B0F8ED
:104AC0005600E1490988401A00B23880DD48B0F844
:104AD0006C00DD494988401A00B2A8F80000D948A6
:104AE000B0F88200D8498988401A00B2A9F80000BD
:104AF000BDE8FC87F0B5DDE90545D24EB68A0680F3
:104B0000D04E768D0E80CF4EB6F840601680CD4EDA
:104B1000B6F85660CC4F3F88F61B36B21E80C94EA1
:104B2000B6F86C60C84F7F88F61B36B22680C54E3B
:104B3000B6F88260C44FBF88F61B36B22E80F0BD37
:104B400030B585B004460DF1120004A9031F03AA75
:104B5000CDE90010891F02A8FFF706FFBDF8080085
:104B6000BA490880BDF80A004880BDF80C0088806A
:104B7000BDF80E000881BDF810004881BDF8120094
:104B8000888100251DE0032D0BDA02A830F91500FD
:104B900000EE100AB8EEC00A04EB850080ED000AB2
:104BA0000EE002A830F9150000EE100AB8EEC00AB7
:104BB000DFEDA70A80EE201A04EB850080ED001AD5
:104BC0006D1C062DDFDB94ED030AA248D0ED000A30
:104BD00030EE600A84ED030A94ED040A9E48D0ED9D
:104BE000000A30EE600A84ED040A94ED050A9B4841
:104BF000D0ED000A30EE600A84ED050A05B030BD44
:104C000000B52DED108B8DB0954890ED000AD0EDDC
:104C1000000A20EE200A8DED0C0A90ED000A914862
:104C2000D0ED000A20EE200AF0EE40EA8C4890ED2C
:104C3000000A8D48D0ED000A20EE200A8DED0B0A07
:104C4000874890ED000A8948D0ED000A20EE200A3E
:104C50008DED0A0A834890ED000AD0ED000A20EE9F
:104C6000200A8DED090A90ED000A7F48D0ED000A78
:104C700020EE200A8DED080A7A4890ED000A7B4864
:104C8000D0ED000A20EE200A8DED070A764890ED5F
:104C9000000AD0ED000A20EE200A8DED060A90ED04
:104CA000000A7248D0ED000A20EE200A8DED050AB8
:104CB00090ED000AD0ED000A20EE200A8DED040AE6
:104CC0006B4890ED030ADFED6B0A20EE200ADFED62
:104CD0006A0A80EE201A694880ED001A644890ED57
:104CE000040ADFED640A20EE200ADFED630A80EE9D
:104CF000201A634880ED001A5D4890ED050ADFED4B
:104D00005D0A20EE200ADFED5C0A80EE201A5D4885
:104D100080ED001A564890ED000A5B4880ED000ACD
:104D2000534890ED010A594880ED000A504890ED33
:104D3000020A574880ED000A9FED560B574880ED58
:104D4000000B5148D0ED000A90ED001A60EE810A88
:104D50004E4890ED001AD0ED001A41EE210A4C4861
:104D600090ED001AD0ED001A41EE210AB0EE600A73
:104D7000FFF716FAB0EE408A434890ED000A20EEA5
:104D8000080A80ED000A414890ED000A20EE080A6A
:104D900080ED000A3E4890ED000A20EE080A80ED02
:104DA000000A9DED070ADDED0B0A30EE600AF0EE19
:104DB000000A20EE200AB0EE40DA9DED050A3EEE34
:104DC000800AF0EE000A20EE200AF0EE40DA2F48CA
:104DD00090ED000A20EE0E0A2D48D0ED000A00EEFC
:104DE000ED0AF0EE40AA90ED000A20EE0D0A2648EA
:104DF000D0ED000A00EECE0AB0EE40BA90ED000A07
:104E000020EE2D0A2148D0ED000A00EECD0AF0EE8A
:104E1000408AF5EEC0AAF1EE10FA50D0B5EEC0BA55
:104E2000F1EE10FAF9D0F5EEC08AF1EE10FA37E0A3
:104E3000E8000020E6000020E4000020E20000205E
:104E4000E0000020040700205B000020BA060020DC
:104E500033330342680000206C000020640000200F
:104E60008000002084000020880000208C000020AA
:104E700088070020DB0F49400000344390000020E9
:104E800094000020980000209C000020A00000203A
:104E9000A4000020000000A0F9D53C3FD80000206D
:104EA000BBD0FE480068B0F5FA6F09DAFB4800682D
:104EB000401CFA49086018EE900AF949C860D2E02F
:104EC000F748C06800EE100A38EEC00AF0EE408ADB
:104ED000F44890ED000A2AEE800A10EE101A0846F7
:104EE00001F04CFE41EC1F0BEF4890ED000B53EC32
:104EF000102B51EC1F0B01F081FBCDE90201EB48B7
:104F000090ED000A10EE100A01F038FECDE9000124
:104F10009DED020B53EC102B9DED000B51EC100B93
:104F200001F06CF941EC1C0B01F036F900EE100AAF
:104F3000DE4880ED000ADB4890ED000A2BEE000A07
:104F400010EE101A084601F019FECDE90001D6480E
:104F500090ED000B53EC102B9DED000B51EC100B62
:104F600001F04CFB41EC1F0BD14890ED000A10EE14
:104F7000100A01F003FE53EC1F2BCDE902019DED59
:104F8000020B51EC100B01F039F941EC1C0B01F054
:104F900003F900EE100AC64880ED000AC14890ED02
:104FA000000A28EE800A10EE101A084601F0E6FD0D
:104FB00041EC1C0BBC4890ED000B53EC102B51EC5A
:104FC0001C0B01F01BFB41EC1F0BBA4890ED000AD3
:104FD00010EE100A01F0D2FD53EC1F2BCDE90001B9
:104FE0009DED000B51EC100B01F008F9CDE9020129
:104FF0009DED020B51EC100B01F0CEF800EE100A03
:10500000AC4880ED000AAC4890ED000AAB48D0ED0A
:10501000000A00EEAA0AA548D0ED000A30EE200AE8
:10502000A54880ED000AA64890ED000AA348D0EDFF
:10503000000A00EE8B0A9E48D0ED000A30EE200AEE
:105040009F4880ED000A9F4890ED000A9B48D0EDF4
:10505000000A00EEA80A9748D0ED000A30EE200AB8
:10506000984880ED000A984890ED000AB1EE400A99
:105070009148D0ED000A20EE200A9448D0ED000AB5
:105080008F4890ED001A00EEC10A9148D0ED000A59
:105090008C4890ED001A00EEC10A10EE101A084676
:1050A00001F06CFDCDE900017F4890ED000B53EC61
:1050B000102B9DED000B51EC100B01F09FFA41EC11
:1050C0001C0B844890ED000A10EE100A01F056FD0A
:1050D00053EC1C2BCDE902019DED020B51EC100BA2
:1050E00001F08CF841EC1F0B01F056F80BEE900A22
:1050F000784890ED000A7048D0ED000A20EE200AB2
:105100007248D0ED000A6F4890ED001A00EE810A57
:105110006F48D0ED000A6A4890ED001A00EEC10A0F
:1051200010EE101A084601F029FD41EC1F0B5E48F5
:1051300090ED000B53EC102B51EC1F0B01F05EFABD
:10514000CDE90001604890ED000A10EE100A01F070
:1051500015FD41EC1C0B9DED000B53EC102B01F0E9
:105160004DF8CDE902019DED020B51EC100B01F061
:1051700013F809EE100A574890ED000A5048D0ED98
:10518000000A20EE200A5048D0ED000A4D4890ED6C
:10519000001A00EEC10A4E48D0ED000A464890EDD4
:1051A000001A00EE810A10EE101A084601F0E6FC23
:1051B00041EC1C0B3C4890ED000B53EC102B51ECD8
:1051C0001C0B01F01BFA41EC1F0B404890ED000A4C
:1051D00010EE100A01F0D2FC53EC1F2BCDE90001B8
:1051E0009DED000B51EC100B01F008F8CDE9020128
:1051F0009DED020B51EC100B00F0CEFF09EE900A72
:10520000344890ED000A2F48D0ED000A20EE200A25
:105210002D48D0ED000A2A4890ED001A00EE810AD0
:105220002A48D0ED000A244890ED001A00EEC10A89
:1052300010EE101A084601F0A1FC41EC1F0B1A48B1
:1052400090ED000B53EC102B51EC1F0B01F0D6F935
:1052500041EC1C0B1E4890ED000A10EE100A01F004
:105260008DFC53EC1C2BCDE900019DED000B51ECA6
:10527000100B00F0C3FFCDE902019DED020B51ECD4
:10528000100B00F089FF0AEE100A6BEEAB0A49EE34
:10529000090A49EEA90A4AEE0A0A1DE0F4000020B4
:1052A00093060020F0000020D800002074000020A9
:1052B000780000207C00002090000020EC000020FE
:1052C0009400002098000020840000208800002026
:1052D0008C00002080000020B0EE600AFEF760FF26
:1052E000B0EE408A2BEE880ACD4880ED000A29EE08
:1052F000080ACC4880ED000A29EE880ACA4880EDE9
:10530000000A2AEE080AC94880ED000A0DB0BDEC7B
:10531000108B00BD10B50446C548FFF711FCFFF720
:105320006FFCBF4890ED000A84ED000ABD4890ED87
:10533000000A84ED010ABC4890ED000A84ED020ADF
:10534000BA4890ED000A84ED030A10BD10B52DEDAA
:105350000A8B0446B748FFF7DDFFB54890ED050A14
:10536000DFEDB50A80EE201AB44890ED000A31EE68
:10537000000A80ED000A90ED000ADFEDB10AB4EEFC
:10538000E00AF1EE10FA02DD9FEDAE0A02E0AB4852
:1053900090ED000AA94880ED000A90ED000ADFEDCB
:1053A000A90AB4EEE00AF1EE10FA02D29FEDA40AC7
:1053B00002E0A24890ED000AA04880ED000A90EDBE
:1053C000000ADFEDA10A30EE200A84ED000A9948B8
:1053D00090ED010AF8EE000A20EE200AD0ED030A53
:1053E00020EE200AD0ED000AB0EE001A60EE810A2D
:1053F00090ED021A00EE810A10EE101A084601F034
:10540000BDFB41EC1C0BB0EE4C0AF0EE6C0A00F058
:10541000A7F9B0EE40BAF0EE60BA51EC1B0B00F009
:10542000AEFE41EC1A0B9FED890B53EC102B01F0F3
:10543000E5F841EC190B9FED870B53EC102B00F0B6
:1054400085FF41EC180B00F0A7FE00EE100A84ED7A
:10545000010A94ED010AB5EEC00AF1EE10FA06D287
:1054600094ED010ADFED7D0A30EE200A01E094EDB3
:10547000010A84ED010A6F4890ED010AF8EE000A76
:1054800020EE200AD0ED010A20EE200AD0ED020A1B
:10549000B0EE001A60EE810A90ED021A00EEC10A29
:1054A000F7EE000A30EE200A10EE101A084601F05E
:1054B00065FB41EC1B0B5F4890ED020AF0EE000A21
:1054C00020EE200AD0ED030A20EE200AD0ED000ADB
:1054D000B0EE001A60EE810A90ED011A00EE810A2A
:1054E00010EE101A084601F049FB41EC1C0BB0EE1F
:1054F0004B1AF0EE6B1AB0EE4C0AF0EE6C0A00F0AC
:105500004BFCB0EE40AAF0EE60AA9FED500B53ECBE
:10551000102B51EC1A0B01F071F841EC190B9FEDB7
:105520004D0B53EC102B00F011FF41EC180B00F069
:1055300033FE00EE100A84ED020A94ED020AB5EE85
:10554000C00AF1EE10FA08D294ED020ADFED430A28
:1055500030EE200AB1EE400A03E094ED020AB1EE0B
:10556000400A84ED020ABDEC0A8B10BD304890ED74
:10557000030A3B4880ED040A2D4890ED040AB1EE81
:10558000400A374880ED050A294890ED050A34485D
:1055900080ED060A334890ED000AB1EE400A324829
:1055A00080ED000A2F4890ED020A304880ED000A95
:1055B0002C4890ED010A2E4880ED000A2A4890ED13
:1055C000000A2C4880ED000A284890ED000A29487E
:1055D00080ED010A224890ED040AF2EE040A80EE02
:1055E000201A244880ED021A1D4890ED060AF2EEBA
:1055F000040A80EE201A1F4880ED031A704710B588
:105600000420FBF7FBFE50B10420FBF7F3FE04205F
:10561000FBF7FFFE012018490870FFF7A7FF10BD38
:105620008000002084000020880000208C000020E2
:1056300088070020A007002000804A44D4000020F2
:1056400000003443000034C30000B44200000000F6
:105650000080664000000060FB2109400000B44368
:10566000D0060020B0070020C8000020CC00002099
:10567000D0000020640600207000002010B506480D
:10568000D0E900305A1C40F100000349C1E9002074
:105690000248FEF7F7FC10BD0001002020060020A4
:1056A0007047704770477047704710B500F008F8B2
:1056B000006810BD10B5044600F002F8046010BD8B
:1056C00000487047BC07002000487047BC07002016
:1056D0007546FFF7F9FFAE4605006946534620F0D0
:1056E0000700854618B020B5FAF7C6FEBDE8204091
:1056F0004FF000064FF000074FF000084FF0000B8E
:1057000021F00701AC46ACE8C009ACE8C009ACE840
:10571000C009ACE8C0098D46704710B50446AFF328
:1057200000802046BDE81040FAF777BD03B4019829
:105730004100009850EAC12018BF04204A0D18BF4C
:1057400040F0010040F2FF72B2EB515F08BF40F041
:105750000200012808BF052002B0704700000000C9
:1057600070B5C1482DED020B2DED0E8B82B0119D51
:1057700025F000449FEDBEDB9FEDBFEB84423EDB96
:10578000A4F140511098A1F17F6108430FD0BC48AB
:10579000844202DC28D1109830B39DED100B02B08A
:1057A000BDEC0E8B02B0BDE8704000F069BC9DED11
:1057B000100B53EC1D2B51EC100B00F01FFF9DED57
:1057C000100B41EC180B53EC1E2B51EC100B00F09E
:1057D00015FF53EC182B00F011FD41EC100B02B03B
:1057E000BDEC0E8B02B070BD0120FFF763FF02B06D
:1057F000BDEC0E8B02B0BDE8704000F055BCA14876
:105800009FEDA18B844256DA9DED100BB4F1795FC8
:105810000ADA51EC100BFFF789FF042808BF00F0EB
:1058200053FC9DED100BDAE753EC102B51EC100BF1
:1058300000F0E4FE41EC190B95480621B0EE490A50
:10584000F0EE690A784400F09FFB53EC192B51EC01
:10585000100B00F0D3FE41EC1A0B8E48B0EE490A53
:10586000F0EE690A0421784400F08EFB53EC192B0A
:1058700051EC100B00F0C2FE53EC182B00F0BEFCF4
:1058800041EC100B51EC1A0B53EC102B00F05EFDA9
:10589000CDE900019DED000B53EC102B9DED100B9D
:1058A00051EC100B00F0AAFE9DED101B53EC112BD8
:1058B00000F0A4FCD2E09DED100B51EC100B00F0B9
:1058C0001BFC53EC182B00F097FF9FED730BCDE9F9
:1058D000000153EC102B9DED000B51EC100B00F070
:1058E0008DFE41EC190B6E480621B0EE490AF0EE30
:1058F000690A784400F048FB53EC192B51EC100B6B
:1059000000F07CFE41EC1B0B6648B0EE490AF0EE5D
:10591000690A0421784400F037FB53EC192B51EC51
:10592000100B00F06BFE53EC182B00F067FC41EC01
:105930001C0B51EC190B00F0EBFB41EC180B5A4817
:105940009FED5BABA04222DC53EC1C2B51EC1B0BFC
:1059500000F0FCFCCDE900019DED000B51EC180BB3
:1059600053EC102B00F04AFE53EC182B00F046FCD1
:1059700053EC1A2B00F042FE53EC1D2B01F014F8EF
:1059800053EC1E2B00F038FF41EC100B5FE08DED67
:10599000008B002000909DED000B51EC180B53EC98
:1059A000102B00F02BFC9DED000B41EC1E0B53EC7B
:1059B000102B51EC100B00F021FE53EC192B00F0D2
:1059C0001BFF53EC1E2B00F0C1FC41EC190B53ECF8
:1059D0001C2B51EC1B0B00F0B9FC41EC1B0B53ECE6
:1059E0001A2B51EC190B00F009FE53EC1D2B00F0A3
:1059F00003FF41EC190B53EC1A2B51EC180B00F080
:105A0000FDFD53EC1B2B00F0F9FD53EC192B00F0BE
:105A1000CBFF9DED000B41EC180B53EC1A2B51EC16
:105A2000100B00F0EBFD9FED249B53EC192B00F0C5
:105A3000E3FE41EC100B51EC180B53EC102B00F073
:105A4000B3FF53EC192B00F0D7FE41EC100B002DE7
:105A50003FF7C5AE51EC100B00F091FB41EC100B81
:105A6000BDE60000000000000000F03F0000000064
:105A7000075C143326A6913C182D4454FB21F93FB2
:105A80000000F07F0000E03F000000000000F03F59
:105A9000301400003E140000000000000000E03F51
:105AA00082130000901300003333EF3F000000002A
:105AB0000000000000000040182D4454FB21E93F85
:105AC00070B59B482DED020B2DED068B079D25F043
:105AD0000044A04218DC9748844202DC0AD10698B0
