:020000040800F2
:1000000000000320ED380008DD370008E93700085C
:10001000EF370008F5370008FB3700080000000044
:10002000000000000000000000000000013800088F
:100030000D380008000000001938000825380008B5
:100040003D3900083D3900083D3900083D390008B8
:100050003D3900083D3900083D3900083D390008A8
:10006000313800083D3900083D3900083D390008A5
:100070003D3900083D3900083D3900083D39000888
:100080003D3900083D3900083D3900084138000875
:10009000553800083D3900083D3900083D39000851
:1000A0003D3900083D3900083D3900083D39000858
:1000B0003D3900083D3900083D3900083D39000848
:1000C0003D3900083D3900083D3900083D39000838
:1000D0003D3900083D3900083D3900083D39000828
:1000E0003D3900083D3900083D3900083D39000818
:1000F0003D3900083D3900083D3900083D39000808
:100100003D3900083D3900083D3900083D390008F7
:100110003D3900083D3900083D3900083D390008E7
:100120003D3900083D3900083D3900083D390008D7
:100130003D3900083D3900083D3900083D390008C7
:100140003D3900083D3900083D3900083D390008B7
:100150003D3900083D3900083D3900083D390008A7
:100160003D3900083D3900083D3900083D39000897
:100170003D3900083D3900083D3900080000000005
:100180003D3900083D390008693800083D3900084C
:100190003D3900083D3900083D3900083D39000867
:0C01A00000000000000000003D390008D5
:1001B00010B5054C237833B9044B13B10448AFF3A1
:1001C00000800123237010BD7C000020000000008F
:1001D000FC41000808B5034B1BB103490348AFF3CA
:1001E000008008BD0000000080000020FC410008E5
:1001F00053B94AB9002908BF00281CBF4FF0FF318E
:100200004FF0FF3000F06CB9ADF1080C6DE904CE91
:1002100000F006F8DDF804E0DDE9022304B07047E1
:100220002DE9F047089E0D4604468E46002B40F00F
:1002300082808A42174646D9B2FA82F24AB1C2F1A6
:10024000200105FA02F320FA01F1974041EA030E7A
:1002500094404FEA1748230CBEFBF8FCB9B208FBE8
:100260001CEE43EA0E430CFB01F098420AD9FB183E
:100270000CF1FF3580F01681984240F21381ACF109
:10028000020C3B441B1AA4B2B3FBF8F008FB10337A
:1002900044EA034400FB01F1A14209D93C1900F1F1
:1002A000FF3380F00181A14240F2FE8002383C44DD
:1002B000641A40EA0C4000211EB1D4400023C6E974
:1002C0000043BDE8F08702B9FFDEB2FA82F2002AED
:1002D0004FD1CB1B4FEA174E1FFA87F80121B3FB12
:1002E000FEFC250C0EFB1C3345EA034508FB0CF312
:1002F000AB4207D97D190CF1FF3002D2AB4200F2BC
:10030000E7808446ED1AA3B2B5FBFEF00EFB105554
:1003100043EA054408FB00F8A04507D93C1900F161
:10032000FF3302D2A04500F2D7801846A4EB0804A0
:1003300040EA0C40C0E78B4208D9002E00F0AF80A5
:100340000021C6E900050846BDE8F087B3FA83F14D
:1003500000294BD1AB4202D3824200F2B780841A0B
:1003600065EB030301209E46002EAAD0C6E9004E8D
:10037000A7E7C2F1200C01FA02F3974020FA0CF033
:100380004FEA174E21FA0CFC1843BCFBFEF1050C9A
:100390000EFB11CC1FFA87F845EA0C4501FB08F368
:1003A000AB4204FA02F409D97D1901F1FF3C80F057
:1003B0008B80AB4240F2888002393D44EB1A85B213
:1003C000B3FBFEF00EFB103345EA034500FB08F3D8
:1003D000AB4207D97D1900F1FF3C71D2AB426FD916
:1003E00002383D44EB1A40EA014178E7C1F1200CA4
:1003F0008B4022FA0CF71F4320FA0CF405FA01F3A4
:100400004FEA174E25FA0CF51C43230CB5FBFEF9F9
:100410001FFA87F80EFB195543EA054509FB08FA50
:10042000AA4502FA01F200FA01F308D97D1909F18F
:10043000FF3047D2AA4545D9A9F102093D44A5EBB1
:100440000A05A4B2B5FBFEF00EFB105544EA0544C4
:1004500000FB08F8A04507D93C1900F1FF352DD263
:10046000A0452BD902383C4440EA0940A4EB0804DB
:10047000A0FB02894C45C6464D4619D316D05EB145
:10048000B3EB0E0264EB050404FA0CFCCA404CEA20
:100490000202CC40C6E900240021BDE8F0873146C5
:1004A00030460EE7AC46EDE6184601E74345E6D296
:1004B000B8EB020E69EB07050138E0E72846D3E701
:1004C00060468FE78146BAE7614677E708464BE723
:1004D000ACF1020C3D4415E702383C4426E700BF6E
:1004E000704700BF034613F8012B002AFBD1181AEE
:1004F000013870470000000000000000000000000C
:1005000001F0FF01102A2BDB10F0070F08D010F8C4
:10051000013B013A8B422DD010F0070F42B3F6D1C8
:10052000F0B441EA012141EA014122F007047FF0E1
:1005300000070023F0E80256083C85EA010586EA38
:10054000010685FA47F5A3FA87F586FA47F6A5FA74
:1005500087F68EB9EED1F0BC01F0FF0102F0070280
:1005600032B110F8013B013A83EA010313B1F8D12B
:100570000020704701387047002D06BF354603380C
:10058000073815F0010F07D1013015F4807F02BF45
:10059000013015F4C03F0130F0BC0138704700BF96
:1005A00080B500AF0E4B1B680D4A43F40073136017
:1005B0000B4B1B680A4A43F480631360084B1B68AB
:1005C000074A43F480731360032000F0BDFF00204E
:1005D00000F008F803F034F80023184680BD00BF8F
:1005E000003C024080B582B000AF7860124B1A68C0
:1005F000124B1B7819464FF47A73B3FBF1F3B2FB3D
:10060000F3F3184600F0D5FF0346002B01D0012379
:100610000EE07B680F2B0AD8002279684FF0FF307C
:1006200000F09DFF064A7B681360002300E0012371
:1006300018460837BD4680BD140000200400002085
:100640000000002080B400AF054B1B781A46054B14
:100650001B681344034A136000BFBD4680BC70474B
:10066000040000209800002080B400AF024B1B68FB
:100670001846BD4680BC70479800002080B584B005
:1006800000AF7860FFF7F0FFB8607B68FB60FB6845
:10069000B3F1FF3F05D00A4B1B781A46FB681344A1
:1006A000FB6000BFFFF7E0FF0246BB68D31AFA68A1
:1006B0009A42F7D800BF00BF1037BD4680BD00BFCB
:1006C0000400002080B584B000AF78607B68002B08
:1006D00001D10123EDE07B6893F82030DBB2002BE1
:1006E00002D1786802F0D2FF7B681B681A687B68C9
:1006F0001B6822F002021A60FFF7B6FFF86012E0F2
:10070000FFF7B2FF0246FB68D31A0A2B0BD97B68AE
:100710005B6A43F400327B685A627B68052283F887
:1007200020200123C5E07B681B685B6803F002039F
:10073000002BE5D17B681B681A687B681B6842F058
:1007400001021A60FFF790FFF86012E0FFF78CFFDC
:100750000246FB68D31A0A2B0BD97B685B6A43F409
:1007600000327B685A627B68052283F820200123CF
:100770009FE07B681B685B6803F00103002BE5D0FA
:100780007B681B7E012B08D17B681B681A687B681D
:100790001B6842F080021A6007E07B681B681A68D9
:1007A0007B681B6822F080021A607B685B7E012BED
:1007B00008D17B681B681A687B681B6842F040029E
:1007C0001A6007E07B681B681A687B681B6822F068
:1007D00040021A607B689B7E012B08D17B681B68F6
:1007E0001A687B681B6842F020021A6007E07B6889
:1007F0001B681A687B681B6822F020021A607B68FD
:10080000DB7E012B08D17B681B681A687B681B683C
:1008100022F010021A6007E07B681B681A687B6888
:100820001B6842F010021A607B681B7F012B08D105
:100830007B681B681A687B681B6842F008021A60B4
:1008400007E07B681B681A687B681B6822F0080257
:100850001A607B685B7F012B08D17B681B681A6874
:100860007B681B6842F004021A6007E07B681B6823
:100870001A687B681B6822F004021A607B689A6819
:100880007B68DB681A437B681B691A437B685B697A
:1008900042EA03017B685B685A1E7B681B680A4357
:1008A000DA617B6800225A627B68012283F820208B
:1008B000002318461037BD4680BD000080B487B0C5
:1008C00000AF786039607B681B687B617B6893F858
:1008D0002030FB74FB7C012B03D0FB7C022B40F00F
:1008E000BE80654B7B617B69D3F8003243F0010227
:1008F0007B69C3F800227B69D3F8003223F47C5271
:100900007B69C3F800227B69D3F800223B685B6AED
:100910001B021A437B69C3F800223B685B6903F042
:100920001F03012202FA03F3FB607B69D3F81C2248
:10093000FB68DB431A407B69C3F81C223B68DB6918
:10094000002B23D17B69D3F80C22FB68DB431A40D0
:100950007B69C3F80C223B68DB6819043B685B6861
:100960009BB23A68526919437B69483243F83210A6
:100970003B689B6819043B681B689AB23B685B69DB
:100980000A4379694833DB000B445A603B68DB69F2
:10099000012B22D17B69D3F80C22FB681A437B69B7
:1009A000C3F80C223B681B6819043B685B689BB268
:1009B0003A68526919437B69483243F832103B6800
:1009C0009B6819043B68DB689AB23B685B690A4321
:1009D00079694833DB000B445A603B689B69002B04
:1009E00009D17B69D3F80422FB68DB431A407B6999
:1009F000C3F8042207E07B69D3F80422FB681A439A
:100A00007B69C3F804223B681B69002B09D17B6911
:100A1000D3F81422FB68DB431A407B69C3F8142225
:100A200007E07B69D3F81422FB681A437B69C3F89B
:100A300014223B681B6A012B07D17B69D3F81C2267
:100A4000FB681A437B69C3F81C227B69D3F8003228
:100A500023F001027B69C3F80022002306E07B68D3
:100A60005B6A43F480227B685A62012318461C3774
:100A7000BD4680BC704700BF0064004080B584B0B4
:100A800000AF78607B6893F82030DBB2012B2ED169
:100A90007B68022283F820207B681B681A687B68C9
:100AA0001B6822F001021A60FFF7DEFDF86012E019
:100AB000FFF7DAFD0246FB68D31A0A2B0BD97B68D5
:100AC0005B6A43F400327B685A627B68052283F8D4
:100AD0002020012312E07B681B685B6803F00103A0
:100AE000002BE5D17B6800225A62002306E07B6878
:100AF0005B6A43F400227B685A6201231846103770
:100B0000BD4680BD80B489B000AFF860B9607A603E
:100B10003B60FB6893F82030FB77FB681B689B68A1
:100B2000BB61FB7F012B03D0FB7F022B40F0B88021
:100B3000BB6903F08063002B0AD1BB6903F000633B
:100B4000002B05D1BB6903F08053002B00F0A0807F
:100B5000BB691B0E03F003037B617B69022B07D982
:100B6000FB685B6A43F40002FB685A6201239EE063
:100B700001227B699A403B681A60BB689B68002B26
:100B80000DD1BB681B685A05BB68DB68F96809684A
:100B90001A437B6918331B010B441A600FE0BB68D2
:100BA0005B68DA00BB689B681A43BB68DB68F9685E
:100BB00009681A437B6918331B010B441A60FB68F0
:100BC0001968BB681A697B6918331B010B4404332D
:100BD0001A60BB681B7D012B11D1FB681A687B6909
:100BE00018331B01134404331B68FA68116843F47B
:100BF00080727B6918331B010B4404331A607B68D5
:100C000007331B781A067B6806331B781B041A43CC
:100C10007B6805331B781B0213437A680432127811
:100C20001046FA68116843EA00027B691B010B4415
:100C300003F5C6731A607B6803331B781A067B685A
:100C400002331B781B041A437B6801331B781B0299
:100C500013437A6812781046FA68116843EA000272
:100C60007B691B010B4403F5C4731A60FB681A68A7
:100C70007B6918331B0113441B68FA68116843F041
:100C800001027B6918331B010B441A6000230EE03C
:100C9000FB685B6A43F40012FB685A62012306E0BA
:100CA000FB685B6A43F48022FB685A6201231846A2
:100CB0002437BD4680BC704780B485B000AF7860F3
:100CC00039600023FB607B6893F82030FB72FB7A6D
:100CD000012B02D0FB7A022B0BD17B681B689A6830
:100CE0003B689B061A403B689B069A4201D0012351
:100CF000FB60FB6818461437BD4680BC704780B463
:100D000087B000AFF860B9607A603B60FB6893F829
:100D10002030FB75FB7D012B03D0FB7D022B40F0C7
:100D2000F380BB68002B0ED1FB681B68DB6803F007
:100D30000303002B16D1FB685B6A43F40012FB68C7
:100D40005A620123E7E0FB681B681B6903F0030399
:100D5000002B07D1FB685B6A43F40012FB685A6200
:100D60000123D8E0FB681A68BB681B331B011344DE
:100D70001B6803F004027B689A607B689B68002B09
:100D80000CD1FB681A68BB681B331B0113441B683A
:100D90005B0DC3F30A027B681A600BE0FB681A68FC
:100DA000BB681B331B0113441B68DB0823F0604244
:100DB0007B685A60FB681A68BB681B331B011344CD
:100DC0001B6803F002027B68DA60FB681A68BB6884
:100DD0001B331B01134404331B6803F00F027B68B1
:100DE0001A61FB681A68BB681B331B011344043388
:100DF0001B681B0ADAB27B689A61FB681A68BB68D9
:100E00001B331B01134404331B681B0C9AB27B6811
:100E10005A61FB681A68BB681B01134403F5DC7355
:100E20001B68DAB23B681A70FB681A68BB681B0162
:100E3000134403F5DC731B681A0A3B680133D2B212
:100E40001A70FB681A68BB681B01134403F5DC7356
:100E50001B681A0C3B680233D2B21A70FB681A681E
:100E6000BB681B01134403F5DC731B681A0E3B6857
:100E70000333D2B21A70FB681A68BB681B011344B3
:100E800003F5DE731A683B680433D2B21A70FB684C
:100E90001A68BB681B01134403F5DE731B681A0A4A
:100EA0003B680533D2B21A70FB681A68BB681B0135
:100EB000134403F5DE731B681A0C3B680633D2B289
:100EC0001A70FB681A68BB681B01134403F5DE73D4
:100ED0001B681A0E3B680733D2B21A70BB68002B2E
:100EE00008D1FB681B68DA68FB681B6842F02002C7
:100EF000DA6007E0FB681B681A69FB681B6842F050
:100F000020021A61002306E0FB685B6A43F480223A
:100F1000FB685A62012318461C37BD4680BC7047E7
:100F200080B485B000AF786039607B6893F820307A
:100F3000FB73FB7B012B02D0FB7B022B09D17B686F
:100F40001B6859697B681B683A680A435A61002329
:100F500006E07B685B6A43F480227B685A62012367
:100F600018461437BD4680BC704780B58AB000AFC4
:100F7000786000237B627B681B685B693B627B68EF
:100F80001B685B68FB617B681B689B68BB617B6857
:100F90001B68DB687B617B681B681B693B617B6846
:100FA0001B689B69FB603B6A03F00103002B7CD04C
:100FB000BB6903F00103002B23D07B681B6801226F
:100FC0009A60BB6903F00203002B03D0786800F03D
:100FD00083F916E0BB6903F00403002B04D07B6A9D
:100FE00043F400637B620CE0BB6903F00803002B51
:100FF00004D07B6A43F480537B6202E0786800F09F
:1010000086F9BB6903F48073002B24D07B681B68CE
:101010004FF480729A60BB6903F40073002B03D015
:10102000786800F062F916E0BB6903F48063002B76
:1010300004D07B6A43F400537B620CE0BB6903F489
:101040000063002B04D07B6A43F480437B6202E0A0
:10105000786800F065F9BB6903F48033002B24D075
:101060007B681B684FF480329A60BB6903F40033DD
:10107000002B03D0786800F041F916E0BB6903F457
:101080008023002B04D07B6A43F400437B620CE096
:10109000BB6903F40023002B04D07B6A43F4803344
:1010A0007B6202E0786800F044F93B6A03F00803D1
:1010B000002B0CD07B6903F01003002B07D07B6A58
:1010C00043F400737B627B681B681022DA603B6A22
:1010D00003F00403002B0BD07B6903F00803002B03
:1010E00006D07B681B680822DA60786800F02AF96D
:1010F0003B6A03F00203002B09D07B681B68DB68A6
:1011000003F00303002B02D0786802F0C1F93B6AB8
:1011100003F04003002B0CD03B6903F01003002BBD
:1011200007D07B6A43F480637B627B681B68102274
:101130001A613B6A03F02003002B0BD03B6903F0DC
:101140000803002B06D07B681B6808221A617868A8
:1011500000F00AF93B6A03F01003002B09D07B680A
:101160001B681B6903F00303002B02D0786800F0B2
:10117000F2F83B6A03F40033002B0BD0FB6903F059
:101180001003002B06D07B681B6810225A60786819
:1011900000F0F3F83B6A03F48033002B0BD0FB69BB
:1011A00003F00803002B06D07B681B6808225A60F6
:1011B000786800F0EBF83B6A03F40043002B7BD027
:1011C000FB6903F00403002B72D03B6A03F48073C5
:1011D000002B08D0FB6803F00103002B03D07B6ACF
:1011E00043F001037B623B6A03F40073002B08D0D9
:1011F000FB6803F00203002B03D07B6A43F0020379
:101200007B623B6A03F48063002B08D0FB6803F029
:101210000403002B03D07B6A43F004037B623B6A28
:1012200003F40063002B43D0FB6803F07003002B32
:101230003ED0FB6803F07003602B2BD0602B2ED8C0
:10124000502B22D0502B2AD8402B19D0402B26D8F7
:10125000302B10D0302B22D8102B02D0202B05D0D1
:101260001DE07B6A43F008037B6219E07B6A43F070
:1012700010037B6214E07B6A43F020037B620FE083
:101280007B6A43F040037B620AE07B6A43F08003A1
:101290007B6205E07B6A43F480737B6200E000BF01
:1012A0007B681B689A697B681B6822F070029A61F0
:1012B0007B681B6804225A607B6A002B08D07B681D
:1012C0005A6A7B6A1A437B685A62786800F067F84A
:1012D00000BF2837BD4680BD80B483B000AF7860C2
:1012E00000BF0C37BD4680BC704780B483B000AFF0
:1012F000786000BF0C37BD4680BC704780B483B0B7
:1013000000AF786000BF0C37BD4680BC704780B42A
:1013100083B000AF786000BF0C37BD4680BC70471B
:1013200080B483B000AF786000BF0C37BD4680BC8E
:10133000704780B483B000AF786000BF0C37BD4603
:1013400080BC704780B483B000AF786000BF0C37BA
:10135000BD4680BC704780B483B000AF786000BFEA
:101360000C37BD4680BC704780B483B000AF786056
:1013700000BF0C37BD4680BC704780B483B000AF5F
:10138000786000BF0C37BD4680BC704780B483B026
:1013900000AF786000BF0C37BD4680BC704780B49A
:1013A00083B000AF786000BF0C37BD4680BC70478B
:1013B00080B485B000AF78607B6803F00703FB6002
:1013C0000C4BDB68BB60BA684FF6FF031340BB6091
:1013D000FB681A02BB68134343F0BF6343F4003356
:1013E000BB60044ABB68D36000BF1437BD4680BCF5
:1013F000704700BF00ED00E080B400AF044BDB6835
:101400001B0A03F007031846BD4680BC704700BFA7
:1014100000ED00E080B483B000AF0346FB7197F9A4
:101420000730002B0BDBFB7903F01F02064997F90D
:1014300007305B09012000FA02F241F8232000BFC7
:101440000C37BD4680BC704700E100E080B483B03B
:1014500000AF03463960FB7197F90730002B0ADBB8
:101460003B68DAB20C4997F907301201D2B20B444B
:1014700083F800230AE03B68DAB20849FB7903F0FD
:101480000F03043B1201D2B20B441A7600BF0C3793
:10149000BD4680BC704700BF00E100E000ED00E009
:1014A00080B489B000AFF860B9607A60FB6803F07F
:1014B0000703FB61FB69C3F10703042B28BF042367
:1014C000BB61FB690433062B02D9FB69033B00E0D7
:1014D00000237B614FF0FF32BB6902FA03F3DA436A
:1014E000BB681A407B699A404FF0FF317B6901FA73
:1014F00003F3D9437B680B40134318462437BD469A
:1015000080BC704780B582B000AF78607B68013BDB
:10151000B3F1807F01D301230FE00A4A7B68013BCE
:1015200053600F214FF0FF30FFF790FF054B002273
:101530009A60044B07221A60002318460837BD46FC
:1015400080BD00BF10E000E080B582B000AF7860E1
:101550007868FFF72DFF00BF0837BD4680BD80B516
:1015600086B000AF0346B9607A60FB7300237B61ED
:10157000FFF742FF78617A68B9687869FFF790FFF2
:10158000024697F90F3011461846FFF75FFF00BF7C
:101590001837BD4680BD80B582B000AF0346FB71F1
:1015A00097F907301846FFF735FF00BF0837BD46EB
:1015B00080BD80B582B000AF78607868FFF7A2FF89
:1015C000034618460837BD4680BD80B483B000AFDF
:1015D00078607B6893F83530DBB2022B04D07B68EF
:1015E00080225A6501230CE07B68052283F83520B0
:1015F0007B681B681A687B681B6822F001021A600E
:10160000002318460C37BD4680BC704780B489B0B3
:1016100000AF7860396000237B6100233B610023C9
:10162000BB610023FB6177E10122FB6902FA03F34E
:101630007B613B681B687A6913403B613A697B694F
:101640009A4240F066813B685B68012B0BD03B6897
:101650005B68022B07D03B685B68112B03D03B68AB
:101660005B68122B30D17B689B68BB61FB695B00B8
:10167000032202FA03F3DB43BA691340BB613B6800
:10168000DA68FB695B0002FA03F3BA691343BB61D2
:101690007B68BA699A607B685B68BB610122FB6901
:1016A00002FA03F3DB43BA691340BB613B685B6832
:1016B0001B0903F00102FB6902FA03F3BA69134341
:1016C000BB617B68BA695A607B68DB68BB61FB6998
:1016D0005B00032202FA03F3DB43BA691340BB61E8
:1016E0003B689A68FB695B0002FA03F3BA6913432B
:1016F000BB617B68BA69DA603B685B68022B03D028
:101700003B685B68122B23D1FB69DA087B680832DF
:1017100053F82230BB61FB6903F007039B000F22E3
:1017200002FA03F3DB43BA691340BB613B681A69F1
:10173000FB6903F007039B0002FA03F3BA69134342
:10174000BB61FB69DA087B680832B96943F822108B
:101750007B681B68BB61FB695B00032202FA03F331
:10176000DB43BA691340BB613B685B6803F003026B
:10177000FB695B0002FA03F3BA691343BB617B6840
:10178000BA691A603B685B6803F08053002B00F075
:10179000C0800023FB60654B5B6C644A43F480436C
:1017A0005364624B5B6C03F48043FB60FB68604AEC
:1017B000FB699B08023352F82330BB61FB6903F0DD
:1017C00003039B000F2202FA03F3DB43BA691340C1
:1017D000BB617B68574A934237D07B68564A934235
:1017E00031D07B68554A93422BD07B68544A934250
:1017F00025D07B68534A93421FD07B68524A93425C
:1018000019D07B68514A934213D07B68504A934267
:101810000DD07B684F4A934207D07B684E4A934273
:1018200001D1092312E00A2310E008230EE0072368
:101830000CE006230AE0052308E0042306E0032366
:1018400004E0022302E0012300E00023FA6902F031
:10185000030292009340BA691343BB613449FB69A8
:101860009B080233BA6941F823203C4B1B68BB61DB
:101870003B69DB43BA691340BB613B685B6803F4B7
:101880008033002B03D0BA693B691343BB61334AF1
:10189000BB691360314B5B68BB613B69DB43BA6971
:1018A0001340BB613B685B6803F40033002B03D03B
:1018B000BA693B691343BB61284ABB695360274B34
:1018C0009B68BB613B69DB43BA691340BB613B6802
:1018D0005B6803F48013002B03D0BA693B691343A0
:1018E000BB611E4ABB6993601C4BDB68BB613B69F3
:1018F000DB43BA691340BB613B685B6803F40013C8
:10190000002B03D0BA693B691343BB61134ABB691F
:10191000D360FB690133FB61FB690F2B7FF684AE5B
:1019200000BF00BF2437BD4680BC7047003802406E
:10193000003801400000024000040240000802405C
:10194000000C024000100240001402400018024047
:10195000001C02400020024000240240003C0140E4
:1019600080B582B000AF0346FB80084B5A69FB8804
:101970001340002B06D0054AFB885361FB881846AC
:1019800001F01CFE00BF0837BD4680BD003C014091
:1019900080B586B000AF78607B68002B01D1012351
:1019A0005BE27B681B6803F00103002B75D0A34B3F
:1019B0009B6803F00C03042B0CD0A04B9B6803F036
:1019C0000C03082B12D19D4B5B6803F48003B3F525
:1019D000800F0BD1994B1B6803F40033002B5BD0B5
:1019E0007B685B68002B57D1012336E27B685B681C
:1019F000B3F5803F06D1914B1B68904A43F4803386
:101A000013601DE07B685B68B3F5A02F0CD18B4B96
:101A10001B688A4A43F480231360884B1B68874AFB
:101A200043F4803313600BE0844B1B68834A23F438
:101A300080331360814B1B68804A23F4802313603A
:101A40007B685B68002B13D0FEF70EFE386108E060
:101A5000FEF70AFE02463B69D31A642B01D9032321
:101A6000FBE1764B1B6803F40033002BF0D014E04D
:101A7000FEF7FAFD386108E0FEF7F6FD02463B6925
:101A8000D31A642B01D90323E7E16C4B1B6803F4E1
:101A90000033002BF0D100E000BF7B681B6803F02F
:101AA0000203002B63D0654B9B6803F00C03002BF3
:101AB0000BD0624B9B6803F00C03082B1CD15F4BCF
:101AC0005B6803F48003002B16D15C4B1B6803F0AA
:101AD0000203002B05D07B68DB68012B01D00123BA
:101AE000BBE1564B1B6823F0F8027B681B69DB00E7
:101AF000524913430B603AE07B68DB68002B20D02F
:101B00004F4B01221A60FEF7AFFD386108E0FEF787
:101B1000ABFD02463B69D31A022B01D903239CE19A
:101B2000464B1B6803F00203002BF0D0434B1B68AD
:101B300023F0F8027B681B69DB00404913430B600C
:101B400015E03F4B00221A60FEF78EFD386108E079
:101B5000FEF78AFD02463B69D31A022B01D9032303
:101B60007BE1364B1B6803F00203002BF0D17B684E
:101B70001B6803F00803002B30D07B685B69002BE7
:101B800016D0304B01221A60FEF76EFD386108E076
:101B9000FEF76AFD02463B69D31A022B01D90323E3
:101BA0005BE1264B5B6F03F00203002BF0D015E0E6
:101BB000244B00221A60FEF757FD386108E0FEF75B
:101BC00053FD02463B69D31A022B01D9032344E19A
:101BD0001A4B5B6F03F00203002BF0D17B681B688C
:101BE00003F00403002B00F0A0800023FB75134BCF
:101BF0001B6C03F08053002B0FD10023BB600F4BF5
:101C00001B6C0E4A43F0805313640C4B1B6C03F0A7
:101C10008053BB60BB680123FB750B4B1B6803F44F
:101C20008073002B21D1084B1B68074A43F4807353
:101C30001360FEF719FD386111E000BF0038024063
:101C400000004742800E474200700040FEF70CFD46
:101C500002463B69D31A022B01D90323FDE0814BD5
:101C60001B6803F48073002BF0D07B689B68012B0A
:101C700006D17D4B1B6F7C4A43F0010313671CE0C8
:101C80007B689B68052B0CD1774B1B6F764A43F022
:101C900004031367744B1B6F734A43F0010313670C
:101CA0000BE0714B1B6F704A23F0010313676E4BFF
:101CB0001B6F6D4A23F0040313677B689B68002B3E
:101CC00015D0FEF7D1FC38610AE0FEF7CDFC0246E4
:101CD0003B69D31A41F28832934201D90323BCE015
:101CE000614B1B6F03F00203002BEED014E0FEF7F4
:101CF000BBFC38610AE0FEF7B7FC02463B69D31A29
:101D000041F28832934201D90323A6E0564B1B6F60
:101D100003F00203002BEED1FB7D012B05D1524BCA
:101D20001B6C514A23F0805313647B689B69002B22
:101D300000F092804C4B9B6803F00C03082B5CD0A6
:101D40007B689B69022B41D1484B00221A60FEF749
:101D50008BFC386108E0FEF787FC02463B69D31A2A
:101D6000022B01D9032378E03F4B1B6803F000737B
:101D7000002BF0D17B68DA697B681B6A1A437B68A9
:101D80005B6A9B011A437B689B6A5B08013B1B04EF
:101D90001A437B68DB6A1B06334913434B60334BA2
:101DA00001221A60FEF760FC386108E0FEF75CFC77
:101DB00002463B69D31A022B01D903234DE02A4B7B
:101DC0001B6803F00073002BF0D045E0274B002286
:101DD0001A60FEF749FC386108E0FEF745FC024650
:101DE0003B69D31A022B01D9032336E01E4B1B6833
:101DF00003F00073002BF0D12EE07B689B69012B70
:101E000001D1012329E0184B5B68FB60FB6803F4F8
:101E100080027B68DB699A421CD1FB6803F03F02B9
:101E20007B681B6A9A4215D1FA6847F6C073134063
:101E30007A68526A93420DD1FB6803F440327B68A2
:101E40009B6A9A4206D1FB6803F070627B68DB6A8A
:101E50009A4201D0012300E0002318461837BD46FE
:101E600080BD00BF00700040003802406000474263
:101E700080B584B000AF786039607B68002B01D1F9
:101E80000123CCE0684B1B6803F00F033A689A42C9
:101E90000CD9654B3A68D2B21A70634B1B6803F0D9
:101EA0000F033A689A4201D00123B8E07B681B68AF
:101EB00003F00203002B20D07B681B6803F00403AF
:101EC000002B05D0594B9B68584A43F4E05393606C
:101ED0007B681B6803F00803002B05D0534B9B68FD
:101EE000524A43F460439360504B9B6823F0F002E6
:101EF0007B689B684D4913438B607B681B6803F0CC
:101F00000103002B44D07B685B68012B07D1474B52
:101F10001B6803F40033002B19D101237FE07B6899
:101F20005B68022B03D07B685B68032B07D13F4BB8
:101F30001B6803F00073002B09D101236FE03B4BBA
:101F40001B6803F00203002B01D1012367E0374B2C
:101F50009B6823F003027B685B68344913438B6002
:101F6000FEF782FBF8600AE0FEF77EFB0246FB68A4
:101F7000D31A41F28832934201D903234FE02B4B0D
:101F80009B6803F00C027B685B689B009A42EBD174
:101F9000254B1B6803F00F033A689A420CD2224B80
:101FA0003A68D2B21A70204B1B6803F00F033A68EC
:101FB0009A4201D0012332E07B681B6803F00403DE
:101FC000002B08D0194B9B6823F4E0527B68DB6838
:101FD000164913438B607B681B6803F00803002BD2
:101FE00009D0124B9B6823F460427B681B69DB00BD
:101FF0000E4913438B6000F021F802460B4B9B689F
:102000001B0903F00F030A49CB5C22FA03F3094AC8
:102010001360094B1B681846FEF7E4FA00231846C4
:102020001037BD4680BD00BF003C02400038024072
:10203000B44200081400002000000020B0B584B0B5
:1020400000AF002179600021F96000213960002192
:10205000B9605249896801F00C0108290DD008299E
:1020600000F29480002902D0042903D08EE04C4B6A
:10207000BB608EE04B4BBB608BE04849496801F088
:102080003F0179604549496801F48001002924D065
:1020900042494968890908464FF0000140F2FF149F
:1020A0004FF0000500EA040201EA05033D4901FB87
:1020B00003F0002101FB02F144183A49A2FB01019F
:1020C000631819467B681A464FF00003FEF790F834
:1020D00002460B461346FB604AE0304B5B689B09A7
:1020E0001A464FF0000340F2FF104FF0000102EAE1
:1020F000000403EA0105204629464FF000024FF094
:1021000000034B0143EAD063420110461946001B0D
:1021100061EB05014FF000024FF000038B0143EA31
:1021200090638201121A63EB01034FF000004FF03D
:102130000001D90041EA5271D00002460B46121943
:1021400045EB03034FF000004FF00001990241EA14
:102150009251900202460B46104619467B681A4679
:102160004FF00003FEF744F802460B461346FB60AF
:102170000A4B5B681B0C03F0030301335B003B60FD
:10218000FA683B68B2FBF3F3BB6002E0044BBB6050
:1021900000BFBB6818461037BD46B0BD00380240CE
:1021A0000024F400001BB70080B400AF024B1B6892
:1021B0001846BD4680BC70471400002080B500AFB3
:1021C000FFF7F2FF0246054B9B689B0A03F00703EB
:1021D0000349CB5C22FA03F3184680BD0038024065
:1021E000C442000880B500AFFFF7DEFF0246054B92
:1021F0009B685B0B03F007030349CB5C22FA03F3F4
:10220000184680BD00380240C442000880B582B044
:1022100000AF78607B68002B01D101233FE07B6831
:1022200093F83930DBB2002B06D17B68002283F8AB
:102230003820786801F082FA7B68242283F83920FC
:102240007B681B68DA687B681B6822F40052DA60DE
:10225000786800F045FB7B681B681A697B681B681F
:1022600022F490421A617B681B685A697B681B687C
:1022700022F02A025A617B681B68DA687B681B6857
:1022800042F40052DA607B680022DA637B68202225
:1022900083F839207B68202283F83A2000231846EF
:1022A0000837BD4680BD80B588B002AFF860B96020
:1022B0003B601346FB8000237B61FB6893F8393059
:1022C000DBB2202B40F08380BB68002B02D0FB8860
:1022D000002B01D101237BE0FB6893F83830012B00
:1022E00001D1022374E0FB68012283F83820FB68E7
:1022F0000022DA63FB68212283F83920FEF7B4F963
:102300007861FB68FA889A84FB68FA88DA84FB684B
:10231000002283F8382042E0FB68DB8C9BB2013B53
:102320009AB2FB68DA84FB689B68B3F5805F22D1C0
:102330003B6800937B6900228021F86800F067F910
:102340000346002B01D0032342E0BB683B613B699D
:102350001B881A46FB681B68C2F308025A60FB68B8
:102360001B69002B03D1BB680233BB6017E0BB685D
:102370000133BB6013E03B6800937B69002280213E
:10238000F86800F044F90346002B01D003231FE056
:10239000BB685A1CBA601A78FB681B685A60FB68F5
:1023A000DB8C9BB2002BB7D13B6800937B6900228A
:1023B0004021F86800F02BF90346002B01D00323DD
:1023C00006E0FB68202283F83920002300E0022386
:1023D00018461837BD4680BD80B588B000AF78601C
:1023E0007B681B681B68FB617B681B68DB68BB61E3
:1023F0007B681B685B697B6100233B610023FB609A
:10240000FB6903F00F033B613B69002B0DD1FB69B6
:1024100003F02003002B08D0BB6903F02003002B3E
:1024200003D0786800F0DBF9D0E03B69002B00F0C6
:10243000B0807B6903F00103002B05D1BB6903F475
:102440009073002B00F0A580FB6903F00103002BC3
:102450000AD0BB6903F48073002B05D07B68DB6B6B
:1024600043F001027B68DA63FB6903F00403002B8D
:102470000AD07B6903F00103002B05D07B68DB6B7E
:1024800043F002027B68DA63FB6903F00203002B6E
:102490000AD07B6903F00103002B05D07B68DB6B5E
:1024A00043F004027B68DA63FB6903F00803002B46
:1024B0000FD0BB6903F02003002B04D17B6903F02C
:1024C0000103002B05D07B68DB6B43F008027B68BF
:1024D000DA637B68DB6B002B77D0FB6903F02003AA
:1024E000002B07D0BB6903F02003002B02D07868D3
:1024F00000F075F97B681B685B6903F04003402BB3
:102500000CBF01230023DBB2FB607B68DB6B03F0B5
:102510000803002B02D1FB68002B31D0786800F053
:10252000C0F87B681B685B6903F04003402B23D134
:102530007B681B685A697B681B6822F040025A61FD
:102540007B685B6B002B13D07B685B6B214A1A6541
:102550007B685B6B1846FFF738F80346002B16D0F4
:102560007B685B6B1B6D7A68526B104698470EE078
:10257000786800F043F80AE0786800F03FF806E079
:10258000786800F03BF87B680022DA631DE000BF4A
:102590001BE0FB6903F08003002B08D0BB6903F04C
:1025A0008003002B03D0786800F0ACF80EE0FB69E4
:1025B00003F04003002B09D0BB6903F04003002B5C
:1025C00004D0786800F0F3F800E000BF2037BD4683
:1025D00080BD00BFDD26000880B483B000AF786006
:1025E00000BF0C37BD4680BC704780B483B000AFDD
:1025F000786000BF0C37BD4680BC704780B483B0A4
:1026000000AF786000BF0C37BD4680BC704780B516
:1026100084B000AFF860B9603B601346FB712CE0FA
:10262000BB69B3F1FF3F28D0BB69002B07D0FEF791
:102630001BF802463B68D31ABA699A421DD2FB685E
:102640001B68DA68FB681B6822F4D072DA60FB68EA
:102650001B685A69FB681B6822F001025A61FB681B
:10266000202283F83920FB68202283F83A20FB6877
:10267000002283F8382003230FE0FB681B681A68E8
:10268000BB681340BA689A420CBF01230023DBB237
:102690001A46FB799A42C3D0002318461037BD462C
:1026A00080BD80B483B000AF78607B681B68DA6857
:1026B0007B681B6822F49072DA607B681B685A6939
:1026C0007B681B6822F001025A617B68202283F834
:1026D0003A2000BF0C37BD4680BC704780B584B03F
:1026E00000AF78607B689B6BFB60FB680022DA853B
:1026F000FB680022DA84F868FFF780FF00BF10371C
:10270000BD4680BD80B485B000AF78607B6893F82B
:102710003930DBB2212B44D17B689B68B3F5805FF5
:102720001AD17B681B6AFB60FB681B881A467B68B2
:102730001B68C2F308025A607B681B69002B05D135
:102740007B681B6A9A1C7B681A620EE07B681B6AB6
:102750005A1C7B681A6208E07B681B6A591C7A68FD
:1027600011621A787B681B685A607B68DB8C9BB2AD
:10277000013B9BB27A681946D184002B0FD17B684C
:102780001B68DA687B681B6822F08002DA607B686D
:102790001B68DA687B681B6842F04002DA6000233D
:1027A00000E0022318461437BD4680BC704780B550
:1027B00082B000AF78607B681B68DA687B681B6852
:1027C00022F04002DA607B68202283F839207868A2
:1027D000FFF702FF002318460837BD4680BD80B5CD
:1027E00084B000AF78607B6893F83A30DBB2222B7C
:1027F00071D17B689B68B3F5805F23D17B689B6A4E
:10280000FB607B681B69002B0ED17B681B685B68D3
:102810009BB2C3F308039AB2FB681A807B689B6A79
:102820009A1C7B689A6229E07B681B685B689BB294
:10283000DBB29AB2FB681A807B689B6A5A1C7B6881
:102840009A621BE07B681B69002B0AD17B681B68BE
:1028500058687B689B6A591C7A689162C2B21A7088
:102860000CE07B681B685B68DAB27B689B6A581C6B
:102870007968886202F07F02D2B21A707B68DB8DC1
:102880009BB2013B9BB27A681946D185002B20D1BF
:102890007B681B68DA687B681B6822F02002DA60BC
:1028A0007B681B68DA687B681B6822F48072DA60D8
:1028B0007B681B685A697B681B6822F001025A61B9
:1028C0007B68202283F83A207868FFF78EFE002389
:1028D00002E0002300E0022318461037BD4680BD09
:1028E0002DE9F04FBDB000AFC7F8E400D7F8E430F1
:1028F0001B681B6923F44050D7F8E430D968D7F837
:10290000E4301A6840EA01031361D7F8E4309A68AA
:10291000D7F8E4301B691A43D7F8E4305B691A43EF
:10292000D7F8E430DB691343C7F8EC30D7F8E4306C
:102930001B68DB6823F4164121F00C01D7F8E43062
:102940001A68D7F8EC300B43D360D7F8E4301B6833
:102950005B6923F44070D7F8E4309969D7F8E43024
:102960001A6840EA01035361D7F8E430DB69B3F534
:10297000004F40F0A681D7F8E4301A686A4B9A42BB
:1029800006D0D7F8E4301A68684B9A4240F0D280FB
:10299000FFF728FCC7F8E800D7F8E8301C464FF0EE
:1029A000000522462B469118C7F888105B41C7F8EE
:1029B0008C30D7E92223121945EB03034FF00000B6
:1029C0004FF00001D90041EA5271D00002460B4697
:1029D0001119C7F8D8106B41C7F8DC30D7F8E430CC
:1029E0005B681A464FF000039118C7F880105B41EE
:1029F000C7F88430D7E92023D7E93601FDF7F8FB83
:102A000002460B464A4BA3FB02235B091E01D7F883
:102A1000E8301C464FF0000522462B469118B96756
:102A20005B41FB67D7E91E23121945EB03034FF007
:102A300000004FF00001D90041EA5271D000024677
:102A40000B461119C7F8D0106B41C7F8D430D7F82E
:102A5000E4305B681A464FF00003911839675B4118
:102A60007B67D7E91C23D7E93401FDF7C1FB024698
:102A70000B462F4BA3FB02135B09642101FB03F3FD
:102A8000D31ADB0032332A4AA2FB03235B095B0023
:102A900003F4F8731E44D7F8E83018464FF00001ED
:102AA00002460B469418BC665B41FB66D7E91A23C5
:102AB000121841EB03034FF000044FF00005DD0056
:102AC00045EA5275D40022462B461418C7F8C84070
:102AD0004B41C7F8CC30D7F8E4305B681A464FF06A
:102AE0000003911839665B417B66D7E91823D7E963
:102AF0003201FDF77DFB02460B460D4BA3FB021393
:102B00005B09642101FB03F3D31ADB003233084A6B
:102B1000A2FB03235B0903F00702D7F8E4301B682C
:102B200032449A6074E200BF00100140001401407A
:102B30001F85EB51FFF742FBC7F8E800D7F8E830F4
:102B40001C464FF0000522462B469118B9655B41A3
:102B5000FB65D7E91623121945EB03034FF000007C
:102B60004FF00001D90041EA5271D00002460B46F5
:102B70001119C7F8C0106B41C7F8C430D7F8E4305A
:102B80005B681A464FF00003911839655B417B651D
:102B9000D7E91423D7E93001FDF72AFB02460B469B
:102BA000B34BA3FB02235B091E01D7F8E8301C4698
:102BB0004FF0000522462B469118B9645B41FB6437
:102BC000D7E91223121945EB03034FF000004FF031
:102BD0000001D90041EA5271D00002460B4611199A
:102BE000C7F8B8106B41C7F8BC30D7F8E4305B6861
:102BF0001A464FF00003911839645B417B64D7E9B2
:102C00001023D7E92E01FDF7F3FA02460B46984B45
:102C1000A3FB02135B09642101FB03F3D31ADB005E
:102C20003233934AA2FB03235B095B0003F4F8737E
:102C30001E44D7F8E83018464FF0000102460B4614
:102C40009418BC635B41FB63D7E90E23121841EB78
:102C500003034FF000044FF00005DD0045EA527514
:102C6000D40022462B461418C7F8B0404B41C7F891
:102C7000B430D7F8E4305B681A464FF0000391187F
:102C800039635B417B63D7E90C23D7E92C01FDF75E
:102C9000AFFA02460B46764BA3FB02135B09642195
:102CA00001FB03F3D31ADB003233714AA2FB032387
:102CB0005B0903F00702D7F8E4301B6832449A60DE
:102CC000A6E1D7F8E4301A686A4B9A4206D0D7F8E2
:102CD000E4301A68684B9A4240F0D080FFF782FADD
:102CE000C7F8E800D7F8E8301C464FF00005224648
:102CF0002B469118B9625B41FB62D7E90A2312198E
:102D000045EB03034FF000004FF00001D90041EA0A
:102D10005271D00002460B4612EB040A43EB050B3E
:102D2000D7F8E4305B6818464FF000014FF000021E
:102D30004FF000038B0043EA9073820050465946DF
:102D4000FDF756FA02460B46494BA3FB02235B09EB
:102D50001E01D7F8E83018464FF0000102460B4636
:102D600094183C625B417B62D7E90823121841EB5F
:102D700003034FF000044FF00005DD0045EA5275F3
:102D8000D40022462B461418C7F8A8404B41C7F878
:102D9000AC30D7F8E4305B6818464FF000014FF0D4
:102DA00000024FF000038B0043EA90738200D7E9E2
:102DB0002A01FDF71DFA02460B462D4BA3FB021319
:102DC0005B09642101FB03F3D31A1B013233284A48
:102DD000A2FB03235B0903F0F0031E44D7F8E8309D
:102DE00018464FF0000102460B469418BC615B4147
:102DF000FB61D7E90623121841EB03034FF00004EF
:102E00004FF00005DD0045EA5275D40022462B46FE
:102E10001418C7F8A0404B41C7F8A430D7F8E430E5
:102E20005B6818464FF000014FF000024FF00003BE
:102E30008B0043EA90738200D7E92801FDF7D8F9A7
:102E400002460B460A4BA3FB02135B09642101FBFC
:102E500003F3D31A1B013233054AA2FB03235B0998
:102E600003F00F02D7F8E4301B6832449A60CFE0D9
:102E70001F85EB510010014000140140FFF79EF93F
:102E8000C7F8E800D7F8E8301C464FF000052246A6
:102E90002B46911839615B417B61D7E904231219F4
:102EA00045EB03034FF000004FF00001D90041EA69
:102EB0005271D00002460B4612EB040843EB0509A1
:102EC000D7F8E4305B6818464FF000014FF000027D
:102ED0004FF000038B0043EA90738200404649465E
:102EE000FDF786F902460B464C4BA3FB02235B0918
:102EF0001E01D7F8E83018464FF0000102460B4695
:102F00009418BC605B41FB60D7E90223121841EBC7
:102F100003034FF000044FF00005DD0045EA527551
:102F2000D40022462B461418C7F898404B41C7F8E6
:102F30009C30D7F8E4305B6818464FF000014FF042
:102F400000024FF000038B0043EA90738200D7E940
:102F50002601FDF74DF902460B46304BA3FB021349
:102F60005B09642101FB03F3D31A1B0132332B4AA3
:102F7000A2FB03235B0903F0F0031E44D7F8E830FB
:102F800018464FF0000102460B4694183C605B4126
:102F90007B60D7E90023121841EB03034FF00004D4
:102FA0004FF00005DD0045EA5275D40022462B465D
:102FB0001418C7F890404B41C7F89430D7F8E43064
:102FC0005B6818464FF000014FF000024FF000031D
:102FD0008B0043EA90738200D7E92401FDF708F9DA
:102FE00002460B460D4BA3FB02135B09642101FB58
:102FF00003F3D31A1B013233084AA2FB03235B09F4
:1030000003F00F02D7F8E4301B6832449A60FFE700
:1030100000BFF437BD46BDE8F08F00BF1F85EB5100
:1030200080B582B002AFFDF7BBFA00F069F800F09E
:1030300031F900F0CFF800F003F92E4800F0AEF9B6
:1030400002212C48FDF76CFF2A48FDF717FD20E010
:10305000294BB3F90010284BB3F90000264BB3F904
:103060000030254AB2F900200192009303460A4637
:103070004FF400711F4800F0B3F91F4BB3F9003053
:103080009BB201339BB21AB21B4B1A800120FDF791
:10309000F5FA194BB3F9003040F255529342D7DD9F
:1030A00020E0154BB3F90010134BB3F90000124B9D
:1030B000B3F90030104AB2F90020019200930346A0
:1030C0000A464FF400710B4800F08AF90A4BB3F935
:1030D00000309BB2013B9BB21AB2074B1A80012011
:1030E000FDF7CCFA044BB3F90030044A9342D8DA26
:1030F000CFE700BF9C00002004010020ABFAFFFFD7
:1031000080B594B000AF07F12003302200211846AB
:1031100000F04EFC07F10C0300221A605A609A601E
:10312000DA601A610023BB60284B1B6C274A43F00E
:1031300080531364254B1B6C03F08053BB60BB684A
:1031400000237B60224B1B68214A43F440431360F9
:103150001F4B1B6803F440437B607B6801233B6289
:103160004FF480337B620223BB634FF48003FB6325
:1031700006233B64A8237B640223BB640423FB6413
:1031800007F120031846FEF703FC0346002B01D08D
:1031900000F050FA0F23FB6002233B6100237B61A8
:1031A0004FF4A053BB614FF48053FB6107F10C0354
:1031B00005211846FEF75CFE0346002B01D000F007
:1031C00039FA00BF5037BD4680BD00BF003802400D
:1031D0000070004080B500AF174B184A1A60164BBC
:1031E00003225A60144B00229A60134B0022DA60CB
:1031F000114B4FF420221A610F4B4FF480125A6189
:103200000D4B00221A760C4B01225A760A4B0022F3
:103210009A76094B0122DA76074B00221A77064B81
:1032200000225A770448FDF74DFA0346002B01D0DF
:1032300000F000FA00BF80BD9C0000200064004048
:1032400080B500AF114B124A1A60104B4FF4E132B7
:103250005A600E4B00229A600C4B0022DA600B4B36
:1032600000221A61094B0C225A61084B00229A6114
:10327000064B0022DA610548FEF7C8FF0346002B23
:1032800001D000F0D7F900BF80BD00BFC40000200E
:103290000078004080B58AB000AF07F11403002227
:1032A0001A605A609A60DA601A6100233B61274B0A
:1032B0001B6B264A43F008031363244B1B6B03F07C
:1032C00008033B613B690023FB60204B1B6B1F4ADB
:1032D00043F0800313631D4B1B6B03F08003FB6003
:1032E000FB680023BB60194B1B6B184A43F00203B9
:1032F0001363164B1B6B03F00203BB60BB68002318
:103300007B60124B1B6B114A43F0100313630F4B8E
:103310001B6B03F010037B607B6804237B610C4B09
:10332000BB610023FB6107F1140319460948FEF74E
:103330006DF9002201210820FEF711F90820FEF79F
:103340002AF900BF2837BD4680BD00BF00380240C3
:10335000000011100004024080B58CB000AF78600E
:103360000023BB600023FB6000233B6100237B61E3
:103370000023BB6100233B6201237B620123BB620C
:103380001B23FB620023FB6107F1080319467868E1
:10339000FDF794FA00BF3037BD4680BD80B58CB0D4
:1033A00000AF78600023BB600023FB6000233B611B
:1033B00000237B610023BB6100233B6201237B620E
:1033C0000023BB621B23FB620023FB6107F10803A0
:1033D00019467868FDF772FA00BF3037BD4680BDE8
:1033E00080B58EB000AFF860084611461A46034615
:1033F0007B810B463B811346FB807B893B6200232C
:10340000BB620023FB6208233B63002387F8343050
:10341000B7F908301B121BB2DBB23B763B89DBB23B
:103420007B76B7F906301B121BB2DBB2BB76FB888A
:10343000DBB2FB76B7F940301B121BB2DBB23B7735
:10344000B7F84030DBB27B77B7F944301B121BB2C0
:10345000DBB2BB77B7F84430DBB2FB7707F114037C
:1034600007F1180207F12001F868FDF74BFB03464E
:10347000002B08D100BF7B691946F868FDF71CFCDA
:103480000346002BF7D100BF3837BD4680BD000092
:1034900080B58AB000AF78607B681B68D3F8B03124
:1034A0005B0DC3F30A03BB60BB68DBB2013B87F86B
:1034B000273097F82730DB00054A134407F108024C
:1034C00000217868FDF71BFC00BF2837BD4680BD92
:1034D0000801002080B582B000AF03463960FB715F
:1034E000FB79013BFB71FB79DB00054A13440822A1
:1034F0001946386800F04EFA00BF0837BD4680BD57
:103500000801002080B483B000AF786039603B6868
:103510001B781B021AB23B6801331B781BB21343A2
:103520001AB27B685A803B6802331B781B021AB2BE
:103530003B6803331B781BB213431AB27B68DA80F3
:103540003B6804331B781B021AB23B6805331B78B7
:103550001BB213431AB27B689A803B6806331A7811
:103560007B681A7200BF0C37BD4680BC70470000F4
:1035700090B587B004AF786039607B681B781846D7
:103580007B68B3F902301C467B68B3F904301A46F5
:103590007B68B3F9063019467B681B7A0293019168
:1035A0000092234602460449386800F009FA00BF39
:1035B0000C37BD4690BD00BF1442000880B5C4B0B2
:1035C00000AF0246BB1D1A80BB1D1B88042B25D1F2
:1035D0001548FFF7C1FE07F5847319460220FFF76F
:1035E00079FF07F5847319461048FFF78BFF07F141
:1035F0000C0319460D48FFF7BBFF07F10C031846F3
:10360000FCF770FF03469AB207F10C014FF0FF334D
:103610000748FEF748FE0448FFF7C0FE00BF07F565
:103620008877BD4680BD00BF9C00002008000020B8
:10363000C400002080B400AF00BFBD4680BC70470E
:1036400080B483B000AF00237B600F4B5B6C0E4AED
:1036500043F4804353640C4B5B6C03F480437B6006
:103660007B6800233B60084B1B6C074A43F0805388
:103670001364054B1B6C03F080533B603B6800BF39
:103680000C37BD4680BC70470038024080B58AB018
:1036900000AF786007F1140300221A605A609A6044
:1036A000DA601A617B681B68214A93423BD1002390
:1036B0003B61204B1B6C1F4A43F0007313641D4B8E
:1036C0001B6C03F000733B613B690023FB60194BEB
:1036D0001B6B184A43F008031363164B1B6B03F074
:1036E0000803FB60FB6803237B610223BB610023AB
:1036F000FB6103233B6209237B6207F11403194634
:103700000D48FDF783FF002201211320FDF727FF5D
:103710001320FDF740FF002201211420FDF71FFFB9
:103720001420FDF738FF00BF2837BD4680BD00BF1D
:103730000064004000380240000C024080B58AB0AE
:1037400000AF786007F1140300221A605A609A6093
:10375000DA601A617B681B681D4A934234D10023EA
:103760003B611C4B1B6C1B4A43F080431364194B99
:103770001B6C03F080433B613B690023FB60154BEE
:103780001B6B144A43F010031363124B1B6B03F0C3
:103790001003FB60FB684FF4C0737B610223BB61C5
:1037A0000123FB6103233B6208237B6207F11403BF
:1037B00019460948FDF72AFF002201215220FDF792
:1037C000CEFE5220FDF7E7FE00BF2837BD4680BD84
:1037D00000780040003802400010024080B400AF82
:1037E00000BFBD4680BC704780B400AFFEE780B428
:1037F00000AFFEE780B400AFFEE780B400AFFEE7A5
:1038000080B400AF00BFBD4680BC704780B400AF3D
:1038100000BFBD4680BC704780B400AF00BFBD464E
:1038200080BC704780B500AFFCF70CFF00BF80BDC7
:1038300080B500AF0420FEF793F800BF80BD000004
:1038400080B500AF0248FDF790FB00BF80BD00BF10
:103850009C00002080B500AF0248FDF786FB00BF4A
:1038600080BD00BF9C00002080B500AF0248FEF77D
:10387000B3FD00BF80BD00BFC400002080B584B090
:1038800000AF7860114B1B68002B02D10F4B104A20
:103890001A600E4B1B68FB600C4B1A687B68134464
:1038A0006A46934207D900F04BF803460C221A608F
:1038B0004FF0FF3306E0054B1A687B681344034A58
:1038C0001360FB6818461037BD4680BD28010020F4
:1038D0004801002080B400AF034B4FF000629A60B3
:1038E00000BFBD4680BC704700ED00E0DFF834D07B
:1038F000002103E00C4B5B58435004310B480C4B48
:1039000042189A42F6D30B4A02E0002342F8043BE5
:10391000094B9A42F9D3FFF7DDFF00F017F8FFF7E4
:103920007FFB7047000003201043000800000020C8
:103930007C0000207C00002044010020FEE7000005
:10394000014B1868704700BF1800002070B50D4D7E
:103950000D4C641BA4100026A64209D10B4D0C4C43
:1039600000F04CFC641BA4100026A64205D170BDDB
:1039700055F8043B98470136EEE755F8043B984765
:103980000136F2E70843000808430008084300082E
:103990000C4300080A44914200F1FF3300D1704704
:1039A00010B511F8014B03F8014F9142F9D110BD48
:1039B00002440346934200D1704703F8011BF9E724
:1039C0000EB400B59CB01DAB029006906FF00041A4
:1039D000094807910491094953F8042B059100689F
:1039E000019302A900F068F8029B00221A701CB033
:1039F0005DF804EB03B07047180000200802FFFFD9
:103A00002DE9F0478E689E4282460C4690461F463E
:103A100038D88A8912F4906F32D025680969A5EBED
:103A20000109656905EB450505EBD57501334B4487
:103A30006D109D4238BF1D46530531D5294600F013
:103A400037FB064650B90C23CAF80030A38943F06F
:103A50004003A3814FF0FF30BDE8F08721694A465B
:103A6000FFF798FFA38923F4906343F08003A381B9
:103A7000266165614E44A5EB09052660A5603E46BA
:103A8000BE4200D93E4632462068414600F0A8FAC0
:103A9000A36822689B1B3244A36022600020DBE7FE
:103AA0002A4600F05FFB06460028E1D12169504616
:103AB00000F0B0FAC7E700002DE9F04F98468B8977
:103AC0001B069DB007460D4614460ED50B6963B91B
:103AD000402100F0EDFA2860286120B90C233B60FA
:103AE0004FF0FF30D1E040236B6100230993202386
:103AF0008DF82930CDF80C803023DFF8A8818DF8BF
:103B00002A304FF0010923469A4613F8012B0AB1D7
:103B1000252AF9D1BAEB040B0BD05B462246294685
:103B20003846FFF76DFF013000F0AA80099A5A4429
:103B300009929AF80030002B00F0A28000234FF089
:103B4000FF32CDE905230AF1010A049307938DF8AA
:103B500053301A935446052214F8011B5148FCF7C0
:103B6000CFFC049AD8B9D00644BF20238DF8533037
:103B7000110744BF2B238DF853309AF800302A2BBD
:103B800015D0079A544600204FF00A0C214611F830
:103B9000013B303B092B4ED9B0B1079214E0A0EBAA
:103BA000080309FA03F313430493A246D2E7039BE5
:103BB000191D1B680391002BBBBF5B4242F0020240
:103BC00007930793B8BF049223782E2B0CD1637808
:103BD0002A2B35D1039B1A1D1B680392002BB8BFFB
:103BE0004FF0FF3302340593DFF8C8A02178032299
:103BF0005046FCF785FC40B14023A0EB0A0003FAD5
:103C000000F0049B03430134049314F8011B26487D
:103C10008DF828100622FCF773FC002838D0234BBF
:103C20001BBB039B073323F0070308330393099B54
:103C30003344099367E70CFB02320C460120A5E7E9
:103C400000230134059319464FF00A0C204610F862
:103C5000012B303A092A03D9002BC5D00591C3E7BF
:103C60000CFB012104460123F0E703AB00932A4635
:103C70000F4B04A93846AFF30080421C0646D6D14C
:103C8000AB895B063FF52CAF09981DB0BDE8F08FFE
:103C900003AB00932A46064B04A9384600F07AF895
:103CA000EBE700BFCC420008D6420008000000004D
:103CB000013A0008D24200082DE9F047164699461D
:103CC0008A680B69DDF820809342B8BF13463360E1
:103CD00091F8432007460C460AB10133336023684C
:103CE000990642BF336802333360256815F0060534
:103CF00006D104F1190AE36832689B1AAB4226DC4C
:103D000094F84320131E226818BF012392062BD477
:103D100004F1430249463846C04701301ED02368AB
:103D2000E568326803F00603042B08BFAD1AA368E8
:103D300022690CBF25EAE57500259342C4BF9B1A92
:103D4000ED1800261A34B5421AD1002008E00123EC
:103D5000524649463846C047013003D14FF0FF3044
:103D6000BDE8F0870135C6E7E1185A1C302081F81C
:103D70004300224494F8451082F843100233C7E709
:103D80000123224649463846C0470130E6D0013675
:103D9000D9E700002DE9FF470C469146277E0C9994
:103DA000782F80469A4604F1430207D8622F0AD83A
:103DB000002F00F0D880582F00F0A38004F14206B5
:103DC00084F842703AE0A7F16303152BF6D801A0FE
:103DD00050F823F02D3E0008413E0008BD3D00088C
:103DE000BD3D0008BD3D0008BD3D0008413E000846
:103DF000BD3D0008BD3D0008BD3D0008BD3D0008BB
:103E00004D3F0008713E00082F3F0008BD3D0008EF
:103E1000BD3D00086F3F0008BD3D0008713E000831
:103E2000BD3D0008BD3D0008373F00080B681A1D66
:103E30001B680A6004F1420684F842300123A3E0C3
:103E4000256808682E0600F104030AD505680B6092
:103E5000002D03DA2D236D4284F843305E480A2397
:103E600019E015F0400F05680B6018BF2DB2EFE7A1
:103E70000B682568181D0860280601D51D6802E03A
:103E80006906FBD51D8854486F2F0CBF08230A23F1
:103E9000002184F843106668A660002EA2BF216846
:103EA00021F0040121600DB9002E4DD01646B5FB5E
:103EB000F3F103FB1157C75D06F8017D2F46BB42A6
:103EC0000D46F4D9082B0BD12368DF0708D52369E9
:103ED00061689942DEBF302306F8013C06F1FF36E7
:103EE000921B2261CDF800A04B4603AA2146404612
:103EF000FFF7E2FE01304CD14FF0FF3004B0BDE8D7
:103F0000F087354884F8457023680E681F0656F818
:103F1000045B0E6014D5D90744BF43F0200323602F
:103F20001DB9236823F0200323601023B0E7236822
:103F300043F0200323607823284884F84530E3E7E2
:103F40005E0648BFADB2E6E71646BBE70B682668DB
:103F500060691D1D0D6035061B6801D5186002E003
:103F60007106FBD51880002323611646BAE70B685B
:103F70001A1D0A601E68626800213046FCF7C0FA0C
:103F800008B1801B606063682361002384F84330BC
:103F9000A8E72369324649464046D0470130ABD0B6
:103FA00023689B0713D4E068039B9842B8BF184668
:103FB000A4E70123324649464046D04701309BD012
:103FC0000135E36803995B1AAB42F2DCEBE70025AD
:103FD00004F11906F5E700BFDD420008EE420008D3
:103FE000884210B501EB020402D98442234607D867
:103FF000431EA14208D011F8012B03F8012FF8E766
:10400000024401468A4200D110BD13F8014D02F866
:10401000014DF7E738B50546002945D051F8043C75
:104020000C1F002BB8BFE41800F0D2F81F4A136829
:10403000104633B9636014602846BDE8384000F08C
:10404000CDB8A3420BD921686218934204BF1A6805
:104050005B68636004BF521822600460ECE71A4694
:104060005B680BB1A342FAD911685018A0420BD17A
:1040700020680144501883421160DDD118685B68E4
:10408000536001441160D7E702D90C232B60D3E7BA
:10409000206821188B4204BF19685B68636004BF05
:1040A000091821605460C7E738BD00BF2C0100200B
:1040B000F8B5CD1C25F0030508350C2D38BF0C25AF
:1040C000002D064601DBA94203D90C2333600020F2
:1040D000F8BD00F07DF821490A6814469CB9204FCC
:1040E0003B6823B92146304600F062F83860294623
:1040F000304600F05DF8431C23D10C23336030467A
:1041000000F06CF8E3E723685B1B17D40B2B03D993
:1041100023601C44256004E06368A2420CBF0B606E
:104120005360304600F05AF804F10B00231D20F0D4
:104130000700C21ACCD01B1AA350C9E722466468F4
:10414000CCE7C41C24F00304A042E3D0211A30467B
:1041500000F02EF80130DDD1CFE700BF2C010020A8
:1041600030010020F8B5074614460E4621B9BDE8D7
:10417000F8401146FFF79CBF22B9FFF74BFF2546D9
:104180002846F8BD00F030F8A0420FD2214638464C
:10419000FFF78EFF05460028F2D031462246FFF792
:1041A000F9FB31463846FFF735FFE9E73546E7E7E3
:1041B00038B5064D0023044608462B60FFF75EFB2A
:1041C000431C02D12B6803B1236038BD34010020A9
:1041D000014800F011B800BF3C010020014800F088
:1041E0000CB800BF3C01002051F8043C181F002B04
:1041F000BCBF0B58C018704770477047F8B500BF78
:10420000F8BC08BC9E467047F8B500BFF8BC08BCB7
:044210009E4670470F
:104214003D3D3D3D3D3D3D3D2033353038206174CD
:104224002043414E20627573203D3D3D3D3D3D3D63
:104234003D0D0A4944202020202020202020202039
:1042440025640D0A416E676C652020202020202003
:104254002025640D0A43757272656E742020202037
:10426400202025640D0A53706565642020202020D9
:1042740020202025640D0A54656D70657261747583
:104284007265202025750D0A3D3D3D3D3D3D3D3D7A
:104294003D3D3D3D3D3D3D3D3D3D3D3D3D3D3D3D4A
:1042A4003D3D3D3D3D3D3D3D3D0D0A0D0A000000B7
:1042B40000000000000000000102030406070809D2
:1042C4000000000001020304232D302B2000686C41
:1042D4004C00656667454647003031323334353625
:1042E400373839414243444546003031323334355E
:0C42F4003637383961626364656600008B
:0843000020BFFF7F0100000057
:04430800D5010008D3
:04430C00B1010008F3
:10431000100000000100000002000000000000008A
:10432000000000000024F4001C0000200000000039
:10433000000000000000000000000000000000007D
:10434000000000000000000000000000000000006D
:10435000000000000000000000000000000000005D
:10436000000000000000000000000000000000004D
:10437000000000000000000000000000000000003D
:0C43800000000000000000000000000031
:04000005080038EDCA
:00000001FF
