:020000040800F2
:10000000000003207D250008FD24000809250008C4
:100010000F250008152500081B250008000000001A
:100020000000000000000000000000002125000882
:100030002D2500080000000039250008452500088E
:10004000CD250008CD250008CD250008CD250008C8
:10005000CD250008CD250008CD250008CD250008B8
:10006000CD250008CD250008CD250008CD250008A8
:10007000CD250008CD250008CD250008CD25000898
:10008000CD250008CD250008CD250008CD25000888
:10009000CD250008CD250008CD250008CD25000878
:1000A000CD250008CD250008CD250008CD25000868
:1000B00051250008CD250008CD250008CD250008D4
:1000C000CD250008CD250008CD250008CD25000848
:1000D000CD250008CD250008CD250008CD25000838
:1000E000CD250008CD250008CD250008CD25000828
:1000F000CD250008CD250008CD250008CD25000818
:10010000CD250008CD250008CD250008CD25000807
:10011000CD250008CD250008CD250008CD250008F7
:10012000CD250008CD250008CD250008CD250008E7
:10013000CD250008CD250008CD250008CD250008D7
:10014000CD250008CD250008CD250008CD250008C7
:10015000CD250008CD250008CD250008CD250008B7
:10016000CD250008CD250008CD250008CD250008A7
:10017000CD250008CD250008CD2500080000000091
:10018000CD250008CD250008CD250008CD25000887
:10019000CD250008CD250008CD250008CD25000877
:0C01A0000000000000000000CD25000859
:1001AC0010B5054C237833B9044B13B10448AFF3A5
:1001BC0000800123237010BD0C0000200000000003
:1001CC002826000808B5034B1BB103490348AFF3BD
:1001DC00008008BD00000000100000202826000848
:1001EC0053B94AB9002908BF00281CBF4FF0FF3192
:1001FC004FF0FF3000F06CB9ADF1080C6DE904CE96
:10020C0000F006F8DDF804E0DDE9022304B07047E5
:10021C002DE9F047089E0D4604468E46002B40F013
:10022C0082808A42174646D9B2FA82F24AB1C2F1AA
:10023C00200105FA02F320FA01F1974041EA030E7E
:10024C0094404FEA1748230CBEFBF8FCB9B208FBEC
:10025C001CEE43EA0E430CFB01F098420AD9FB1842
:10026C000CF1FF3580F01681984240F21381ACF10D
:10027C00020C3B441B1AA4B2B3FBF8F008FB10337E
:10028C0044EA034400FB01F1A14209D93C1900F1F5
:10029C00FF3380F00181A14240F2FE8002383C44E1
:1002AC00641A40EA0C4000211EB1D4400023C6E978
:1002BC000043BDE8F08702B9FFDEB2FA82F2002AF1
:1002CC004FD1CB1B4FEA174E1FFA87F80121B3FB16
:1002DC00FEFC250C0EFB1C3345EA034508FB0CF316
:1002EC00AB4207D97D190CF1FF3002D2AB4200F2C0
:1002FC00E7808446ED1AA3B2B5FBFEF00EFB105559
:10030C0043EA054408FB00F8A04507D93C1900F165
:10031C00FF3302D2A04500F2D7801846A4EB0804A4
:10032C0040EA0C40C0E78B4208D9002E00F0AF80A9
:10033C000021C6E900050846BDE8F087B3FA83F151
:10034C0000294BD1AB4202D3824200F2B780841A0F
:10035C0065EB030301209E46002EAAD0C6E9004E91
:10036C00A7E7C2F1200C01FA02F3974020FA0CF037
:10037C004FEA174E21FA0CFC1843BCFBFEF1050C9E
:10038C000EFB11CC1FFA87F845EA0C4501FB08F36C
:10039C00AB4204FA02F409D97D1901F1FF3C80F05B
:1003AC008B80AB4240F2888002393D44EB1A85B217
:1003BC00B3FBFEF00EFB103345EA034500FB08F3DC
:1003CC00AB4207D97D1900F1FF3C71D2AB426FD91A
:1003DC0002383D44EB1A40EA014178E7C1F1200CA8
:1003EC008B4022FA0CF71F4320FA0CF405FA01F3A8
:1003FC004FEA174E25FA0CF51C43230CB5FBFEF9FE
:10040C001FFA87F80EFB195543EA054509FB08FA54
:10041C00AA4502FA01F200FA01F308D97D1909F193
:10042C00FF3047D2AA4545D9A9F102093D44A5EBB5
:10043C000A05A4B2B5FBFEF00EFB105544EA0544C8
:10044C0000FB08F8A04507D93C1900F1FF352DD267
:10045C00A0452BD902383C4440EA0940A4EB0804DF
:10046C00A0FB02894C45C6464D4619D316D05EB149
:10047C00B3EB0E0264EB050404FA0CFCCA404CEA24
:10048C000202CC40C6E900240021BDE8F0873146C9
:10049C0030460EE7AC46EDE6184601E74345E6D29A
:1004AC00B8EB020E69EB07050138E0E72846D3E705
:1004BC0060468FE78146BAE7614677E708464BE727
:1004CC00ACF1020C3D4415E702383C4426E700BF72
:1004DC00704700BF80B500AF0E4B1B680D4A43F44C
:1004EC00007313600B4B1B680A4A43F48063136060
:1004FC00084B1B68074A43F480731360032000F019
:10050C0047F9002000F008F801F06EFF00231846B0
:10051C0080BD00BF003C024080B582B000AF786067
:10052C00124B1A68124B1B7819464FF47A73B3FBB3
:10053C00F1F3B2FBF3F3184600F05FF90346002B1E
:10054C0001D001230EE07B680F2B0AD800227968BA
:10055C004FF0FF3000F027F9064A7B681360002348
:10056C0000E0012318460837BD4680BD0800002076
:10057C00040000200000002080B400AF054B1B7865
:10058C001A46054B1B681344034A136000BFBD4653
:10059C0080BC7047040000202800002080B400AF0D
:1005AC00024B1B681846BD4680BC704728000020D3
:1005BC0080B584B000AF7860FFF7F0FFB8607B685F
:1005CC00FB60FB68B3F1FF3F05D00A4B1B781A4662
:1005DC00FB681344FB6000BFFFF7E0FF0246BB68FB
:1005EC00D31AFA689A42F7D800BF00BF1037BD463D
:1005FC0080BD00BF0400002080B485B000AF7860DF
:10060C007B6803F00703FB600C4BDB68BB60BA68CC
:10061C004FF6FF031340BB60FB681A02BB68134321
:10062C0043F0BF6343F40033BB60044ABB68D36040
:10063C0000BF1437BD4680BC704700BF00ED00E022
:10064C0080B400AF044BDB681B0A03F007031846A9
:10065C00BD4680BC704700BF00ED00E080B483B0A5
:10066C0000AF0346FB7197F90730002B0BDBFB79CE
:10067C0003F01F02064997F907305B09012000FAC5
:10068C0002F241F8232000BF0C37BD4680BC7047F6
:10069C0000E100E080B483B000AF03463960FB7129
:1006AC0097F90730002B0ADB3B68DAB20C4997F953
:1006BC0007301201D2B20B4483F800230AE03B68E6
:1006CC00DAB20849FB7903F00F03043B1201D2B2F2
:1006DC000B441A7600BF0C37BD4680BC704700BF78
:1006EC0000E100E000ED00E080B489B000AFF860FC
:1006FC00B9607A60FB6803F00703FB61FB69C3F127
:10070C000703042B28BF0423BB61FB690433062BAE
:10071C0002D9FB69033B00E000237B614FF0FF3201
:10072C00BB6902FA03F3DA43BB681A407B699A404F
:10073C004FF0FF317B6901FA03F3D9437B680B401F
:10074C00134318462437BD4680BC704780B582B031
:10075C0000AF78607B68013BB3F1807F01D301234C
:10076C000FE00A4A7B68013B53600F214FF0FF30CA
:10077C00FFF790FF054B00229A60044B07221A608A
:10078C00002318460837BD4680BD00BF10E000E0CE
:10079C0080B582B000AF78607868FFF72DFF00BF9E
:1007AC000837BD4680BD80B586B000AF0346B96042
:1007BC007A60FB7300237B61FFF742FF78617A68F4
:1007CC00B9687869FFF790FF024697F90F30114628
:1007DC001846FFF75FFF00BF1837BD4680BD80B5D8
:1007EC0082B000AF0346FB7197F907301846FFF74C
:1007FC0035FF00BF0837BD4680BD80B582B000AF65
:10080C0078607868FFF7A2FF034618460837BD46A4
:10081C0080BD000080B489B000AF786039600023DF
:10082C007B6100233B610023BB610023FB6177E10B
:10083C000122FB6902FA03F37B613B681B687A694E
:10084C0013403B613A697B699A4240F066813B6890
:10085C005B68012B0BD03B685B68022B07D03B68B5
:10086C005B68112B03D03B685B68122B30D17B6823
:10087C009B68BB61FB695B00032202FA03F3DB4359
:10088C00BA691340BB613B68DA68FB695B0002FA2A
:10089C0003F3BA691343BB617B68BA699A607B68DE
:1008AC005B68BB610122FB6902FA03F3DB43BA69A3
:1008BC001340BB613B685B681B0903F00102FB69D9
:1008CC0002FA03F3BA691343BB617B68BA695A60D5
:1008DC007B68DB68BB61FB695B00032202FA03F3F4
:1008EC00DB43BA691340BB613B689A68FB695B00E8
:1008FC0002FA03F3BA691343BB617B68BA69DA6025
:10090C003B685B68022B03D03B685B68122B23D1DE
:10091C00FB69DA087B68083253F82230BB61FB694B
:10092C0003F007039B000F2202FA03F3DB43BA69BF
:10093C001340BB613B681A69FB6903F007039B001A
:10094C0002FA03F3BA691343BB61FB69DA087B68EB
:10095C000832B96943F822107B681B68BB61FB69DC
:10096C005B00032202FA03F3DB43BA691340BB6159
:10097C003B685B6803F00302FB695B0002FA03F35C
:10098C00BA691343BB617B68BA691A603B685B68E0
:10099C0003F08053002B00F0C0800023FB60654BFC
:1009AC005B6C644A43F480435364624B5B6C03F4AA
:1009BC008043FB60FB68604AFB699B08023352F87A
:1009CC002330BB61FB6903F003039B000F2202FA87
:1009DC0003F3DB43BA691340BB617B68574A93420C
:1009EC0037D07B68564A934231D07B68554A934244
:1009FC002BD07B68544A934225D07B68534A934250
:100A0C001FD07B68524A934219D07B68514A93425B
:100A1C0013D07B68504A93420DD07B684F4A934267
:100A2C0007D07B684E4A934201D1092312E00A2376
:100A3C0010E008230EE007230CE006230AE0052350
:100A4C0008E0042306E0032304E0022302E0012370
:100A5C0000E00023FA6902F0030292009340BA69A5
:100A6C001343BB613449FB699B080233BA6941F8F3
:100A7C0023203C4B1B68BB613B69DB43BA691340C9
:100A8C00BB613B685B6803F48033002B03D0BA690D
:100A9C003B691343BB61334ABB691360314B5B68E1
:100AAC00BB613B69DB43BA691340BB613B685B6864
:100ABC0003F40033002B03D0BA693B691343BB61C9
:100ACC00284ABB695360274B9B68BB613B69DB437E
:100ADC00BA691340BB613B685B6803F48013002B5D
:100AEC0003D0BA693B691343BB611E4ABB6993606F
:100AFC001C4BDB68BB613B69DB43BA691340BB61D0
:100B0C003B685B6803F40013002B03D0BA693B69A4
:100B1C001343BB61134ABB69D360FB690133FB61AF
:100B2C00FB690F2B7FF684AE00BF00BF2437BD4698
:100B3C0080BC704700380240003801400000024081
:100B4C000004024000080240000C02400010024069
:100B5C000014024000180240001C02400020024019
:100B6C0000240240003C014080B586B000AF7860A4
:100B7C007B68002B01D101235BE27B681B6803F0CF
:100B8C000103002B75D0A34B9B6803F00C03042BC3
:100B9C000CD0A04B9B6803F00C03082B12D19D4B7F
:100BAC005B6803F48003B3F5800F0BD1994B1B6882
:100BBC0003F40033002B5BD07B685B68002B57D1B0
:100BCC00012336E27B685B68B3F5803F06D1914B1D
:100BDC001B68904A43F4803313601DE07B685B68AC
:100BEC00B3F5A02F0CD18B4B1B688A4A43F480239E
:100BFC001360884B1B68874A43F4803313600BE007
:100C0C00844B1B68834A23F480331360814B1B682D
:100C1C00804A23F4802313607B685B68002B13D01D
:100C2C00FFF7BCFC386108E0FFF7B8FC02463B69F3
:100C3C00D31A642B01D90323FBE1764B1B6803F415
:100C4C000033002BF0D014E0FFF7A8FC386108E06B
:100C5C00FFF7A4FC02463B69D31A642B01D903238A
:100C6C00E7E16C4B1B6803F40033002BF0D100E080
:100C7C0000BF7B681B6803F00203002B63D0654B3D
:100C8C009B6803F00C03002B0BD0624B9B6803F0AA
:100C9C000C03082B1CD15F4B5B6803F48003002B07
:100CAC0016D15C4B1B6803F00203002B05D07B684C
:100CBC00DB68012B01D00123BBE1564B1B6823F0F1
:100CCC00F8027B681B69DB00524913430B603AE066
:100CDC007B68DB68002B20D04F4B01221A60FFF79A
:100CEC005DFC386108E0FFF759FC02463B69D31AFA
:100CFC00022B01D903239CE1464B1B6803F0020332
:100D0C00002BF0D0434B1B6823F0F8027B681B6967
:100D1C00DB00404913430B6015E03F4B00221A6087
:100D2C00FFF73CFC386108E0FFF738FC02463B69F2
:100D3C00D31A022B01D903237BE1364B1B6803F03A
:100D4C000203002BF0D17B681B6803F00803002B17
:100D5C0030D07B685B69002B16D0304B01221A60B7
:100D6C00FFF71CFC386108E0FFF718FC02463B69F2
:100D7C00D31A022B01D903235BE1264B5B6F03F0E3
:100D8C000203002BF0D015E0244B00221A60FFF771
:100D9C0005FC386108E0FFF701FC02463B69D31AF9
:100DAC00022B01D9032344E11A4B5B6F03F00203BE
:100DBC00002BF0D17B681B6803F00403002B00F0C0
:100DCC00A0800023FB75134B1B6C03F08053002B8E
:100DDC000FD10023BB600F4B1B6C0E4A43F08053AA
:100DEC0013640C4B1B6C03F08053BB60BB6801237A
:100DFC00FB750B4B1B6803F48073002B21D1084B44
:100E0C001B68074A43F480731360FFF7C7FB386114
:100E1C0011E000BF0038024000004742800E4742FC
:100E2C0000700040FFF7BAFB02463B69D31A022B55
:100E3C0001D90323FDE0814B1B6803F48073002B65
:100E4C00F0D07B689B68012B06D17D4B1B6F7C4AD5
:100E5C0043F0010313671CE07B689B68052B0CD1E6
:100E6C00774B1B6F764A43F004031367744B1B6F6D
:100E7C00734A43F0010313670BE0714B1B6F704A0D
:100E8C0023F0010313676E4B1B6F6D4A23F00403B1
:100E9C0013677B689B68002B15D0FFF77FFB3861CD
:100EAC000AE0FFF77BFB02463B69D31A41F288321A
:100EBC00934201D90323BCE0614B1B6F03F0020387
:100ECC00002BEED014E0FFF769FB38610AE0FFF766
:100EDC0065FB02463B69D31A41F28832934201D931
:100EEC000323A6E0564B1B6F03F00203002BEED13D
:100EFC00FB7D012B05D1524B1B6C514A23F08053C7
:100F0C0013647B689B69002B00F092804C4B9B68B0
:100F1C0003F00C03082B5CD07B689B69022B41D13E
:100F2C00484B00221A60FFF739FB386108E0FFF7E5
:100F3C0035FB02463B69D31A022B01D9032378E017
:100F4C003F4B1B6803F00073002BF0D17B68DA6910
:100F5C007B681B6A1A437B685B6A9B011A437B683C
:100F6C009B6A5B08013B1B041A437B68DB6A1B060C
:100F7C00334913434B60334B01221A60FFF70EFBCE
:100F8C00386108E0FFF70AFB02463B69D31A022BD3
:100F9C0001D903234DE02A4B1B6803F00073002B8F
:100FAC00F0D045E0274B00221A60FFF7F7FA3861C2
:100FBC0008E0FFF7F3FA02463B69D31A022B01D97A
:100FCC00032336E01E4B1B6803F00073002BF0D19B
:100FDC002EE07B689B69012B01D1012329E0184B82
:100FEC005B68FB60FB6803F480027B68DB699A42F8
:100FFC001CD1FB6803F03F027B681B6A9A4215D137
:10100C00FA6847F6C07313407A68526A93420DD15E
:10101C00FB6803F440327B689B6A9A4206D1FB68FA
:10102C0003F070627B68DB6A9A4201D0012300E016
:10103C00002318461837BD4680BD00BF0070004025
:10104C00003802406000474280B584B000AF786041
:10105C0039607B68002B01D10123CCE0684B1B6805
:10106C0003F00F033A689A420CD9654B3A68D2B236
:10107C001A70634B1B6803F00F033A689A4201D055
:10108C000123B8E07B681B6803F00203002B20D01F
:10109C007B681B6803F00403002B05D0594B9B683D
:1010AC00584A43F4E05393607B681B6803F00803D1
:1010BC00002B05D0534B9B68524A43F4604393601A
:1010CC00504B9B6823F0F0027B689B684D4913439F
:1010DC008B607B681B6803F00103002B44D07B689A
:1010EC005B68012B07D1474B1B6803F40033002BC3
:1010FC0019D101237FE07B685B68022B03D07B68EE
:10110C005B68032B07D13F4B1B6803F00073002B6C
:10111C0009D101236FE03B4B1B6803F00203002B4A
:10112C0001D1012367E0374B9B6823F003027B68F6
:10113C005B68344913438B60FFF730FAF8600AE0C0
:10114C00FFF72CFA0246FB68D31A41F2883293421D
:10115C0001D903234FE02B4B9B6803F00C027B68F7
:10116C005B689B009A42EBD1254B1B6803F00F0385
:10117C003A689A420CD2224B3A68D2B21A70204B7F
:10118C001B6803F00F033A689A4201D0012332E046
:10119C007B681B6803F00403002B08D0194B9B6879
:1011AC0023F4E0527B68DB68164913438B607B6841
:1011BC001B6803F00803002B09D0124B9B6823F427
:1011CC0060427B681B69DB000E4913438B6000F0A7
:1011DC0021F802460B4B9B681B0903F00F030A49CD
:1011EC00CB5C22FA03F3094A1360094B1B681846BF
:1011FC00FFF792F9002318461037BD4680BD00BF9B
:10120C00003C024000380240402600080800002044
:10121C0000000020B0B584B000AF0021796000213F
:10122C00F960002139600021B9605249896801F0E8
:10123C000C0108290DD0082900F29480002902D055
:10124C00042903D08EE04C4BBB608EE04B4BBB6053
:10125C008BE04849496801F03F017960454949688C
:10126C0001F48001002924D04249496889090846C3
:10127C004FF0000140F2FF144FF0000500EA0402A9
:10128C0001EA05033D4901FB03F0002101FB02F1DA
:10129C0044183A49A2FB0101631819467B681A46A7
:1012AC004FF00003FEF79CFF02460B461346FB6013
:1012BC004AE0304B5B689B091A464FF0000340F242
:1012CC00FF104FF0000102EA000403EA010520467A
:1012DC0029464FF000024FF000034B0143EAD06364
:1012EC00420110461946001B61EB05014FF000024C
:1012FC004FF000038B0143EA90638201121A63EBF7
:10130C0001034FF000004FF00001D90041EA527187
:10131C00D00002460B46121945EB03034FF00000B8
:10132C004FF00001990241EA9251900202460B469D
:10133C00104619467B681A464FF00003FEF750FF23
:10134C0002460B461346FB600A4B5B681B0C03F012
:10135C00030301335B003B60FA683B68B2FBF3F3B9
:10136C00BB6002E0044BBB6000BFBB681846103783
:10137C00BD46B0BD003802400024F400001BB7008D
:10138C0080B582B000AF78607B68002B01D101235F
:10139C001DE07B6893F83D30DBB2002B06D17B68F7
:1013AC00002283F83C20786801F044F87B68022224
:1013BC0083F83D207B681A687B6804331946104615
:1013CC0000F03CFB7B68012283F83D20002318468B
:1013DC000837BD4680BD80B582B000AF78607B68B1
:1013EC00002B01D101231DE07B6893F83D30DBB26B
:1013FC00002B06D17B68002283F83C20786800F033
:10140C0015F87B68022283F83D207B681A687B689C
:10141C0004331946104600F011FB7B68012283F857
:10142C003D20002318460837BD4680BD80B483B0EC
:10143C0000AF786000BF0C37BD4680BC7047000021
:10144C0080B584B000AF786039607B681B6801227E
:10145C003968184600F0D2FD7B681B68154A934228
:10146C0004D07B681B68144A934201D1012300E02D
:10147C000023002B07D07B681B685A6C7B681B68A9
:10148C0042F400425A647B681B689B6803F00703B4
:10149C00FB60FB68062B07D07B681B681A687B68AF
:1014AC001B6842F001021A60002318461037BD4633
:1014BC0080BD00BF000001400004014080B582B037
:1014CC0000AF78607B681B681B6903F00203022B7A
:1014DC0022D17B681B68DB6803F00203022B1BD153
:1014EC007B681B686FF002021A617B6801221A7715
:1014FC007B681B689B6903F00303002B03D078689F
:10150C0000F080FA05E0786800F073FA786800F073
:10151C0082FA7B6800221A777B681B681B6903F0D0
:10152C000403042B22D17B681B68DB6803F00403E3
:10153C00042B1BD17B681B686FF004021A617B685B
:10154C0002221A777B681B689B6903F44073002B9B
:10155C0003D0786800F056FA05E0786800F049FA94
:10156C00786800F058FA7B6800221A777B681B6851
:10157C001B6903F00803082B22D17B681B68DB680E
:10158C0003F00803082B1BD17B681B686FF0080263
:10159C001A617B6804221A777B681B68DB6903F08D
:1015AC000303002B03D0786800F02CFA05E0786870
:1015BC0000F01FFA786800F02EFA7B6800221A7788
:1015CC007B681B681B6903F01003102B22D17B680E
:1015DC001B68DB6803F01003102B1BD17B681B68A6
:1015EC006FF010021A617B6808221A777B681B68FF
:1015FC00DB6903F44073002B03D0786800F002FA27
:10160C0005E0786800F0F5F9786800F004FA7B687A
:10161C0000221A777B681B681B6903F00103012BFE
:10162C000ED17B681B68DB6803F00103012B07D12B
:10163C007B681B686FF001021A61786800F0D0F9C2
:10164C007B681B681B6903F08003802B0ED17B68C1
:10165C001B68DB6803F08003802B07D17B681B6859
:10166C006FF080021A61786800F06FFD7B681B6870
:10167C001B6903F04003402B0ED17B681B68DB68B1
:10168C0003F04003402B07D17B681B686FF04002CE
:10169C001A61786800F0C8F97B681B681B6903F055
:1016AC002003202B0ED17B681B68DB6803F0200322
:1016BC00202B07D17B681B686FF020021A617868B9
:1016CC0000F03AFD00BF0837BD4680BD80B584B040
:1016DC0000AFF860B9607A60FB6893F83C30012B7E
:1016EC0001D10223B4E0FB68012283F83C20FB68A3
:1016FC00022283F83D207B680C2B00F29F8001A214
:10170C0052F823F04517000849180008491800083A
:10171C0049180008851700084918000849180008DE
:10172C0049180008C717000849180008491800088C
:10173C004918000807180008FB681B68B9681846A8
:10174C0000F01AFAFB681B689A69FB681B6842F088
:10175C0008029A61FB681B689A69FB681B6822F097
:10176C0004029A61FB681B689969BB681A69FB687B
:10177C001B680A439A6162E0FB681B68B9681846EB
:10178C0000F06AFAFB681B689A69FB681B6842F4F4
:10179C0000629A61FB681B689A69FB681B6822F4FB
:1017AC0080629A61FB681B689969BB681B691A02A5
:1017BC00FB681B680A439A6141E0FB681B68B968C7
:1017CC00184600F0BDFAFB681B68DA69FB681B68F9
:1017DC0042F00802DA61FB681B68DA69FB681B6877
:1017EC0022F00402DA61FB681B68D969BB681A69CC
:1017FC00FB681B680A43DA6121E0FB681B68B96867
:10180C00184600F011FBFB681B68DA69FB681B6863
:10181C0042F40062DA61FB681B68DA69FB681B68DA
:10182C0022F48062DA61FB681B68D969BB681B69AA
:10183C001A02FB681B680A43DA6100E000BFFB6810
:10184C00012283F83D20FB68002283F83C20002312
:10185C0018461037BD4680BD80B584B000AF7860A7
:10186C0039607B6893F83C30012B01D10223B3E043
:10187C007B68012283F83C207B68022283F83D20A0
:10188C007B681B689B68FB60FB6823F07703FB603D
:10189C00FB6823F47F43FB607B681B68FA689A60E3
:1018AC003B681B68B3F5005F3ED0B3F5005F00F2F8
:1018BC008780B3F5805F00F08580B3F5805F7FD8BB
:1018CC00702B1AD0702B7BD8602B50D0602B77D814
:1018DC00502B3CD0502B73D8402B58D0402B6FD86A
:1018EC00302B64D0302B6BD8202B60D0202B67D8BA
:1018FC00002B5CD0102B5AD062E07B6818683B68D8
:10190C0099683B685A683B68DB6800F058FB7B6859
:10191C001B689B68FB60FB6843F07703FB607B688C
:10192C001B68FA689A604EE07B6818683B68996897
:10193C003B685A683B68DB6800F041FB7B681B68BE
:10194C009A687B681B6842F480429A603BE07B6833
:10195C0018683B6859683B68DB681A4600F0B8FAAF
:10196C007B681B685021184600F00FFB2BE07B684E
:10197C0018683B6859683B68DB681A4600F0D6FA71
:10198C007B681B686021184600F0FFFA1BE07B683F
:10199C0018683B6859683B68DB681A4600F098FA8F
:1019AC007B681B684021184600F0EFFA0BE07B685F
:1019BC001A683B681B681946104600F0E6FA02E00C
:1019CC0000BF00E000BF7B68012283F83D207B68EC
:1019DC00002283F83C20002318461037BD4680BDFA
:1019EC0080B483B000AF786000BF0C37BD4680BCBC
:1019FC00704780B483B000AF786000BF0C37BD4631
:101A0C0080BC704780B483B000AF786000BF0C37E7
:101A1C00BD4680BC704780B483B000AF786000BF17
:101A2C000C37BD4680BC704780B483B000AF786083
:101A3C0000BF0C37BD4680BC7047000080B485B039
:101A4C0000AF786039607B681B68FB607B683F4A3D
:101A5C00934213D07B68B3F1804F0FD07B683C4A24
:101A6C0093420BD07B683B4A934207D07B683A4A3F
:101A7C00934203D07B68394A934208D1FB6823F028
:101A8C007003FB603B685B68FA681343FB607B6820
:101A9C002E4A93422BD07B68B3F1804F27D07B68C2
:101AAC002B4A934223D07B682A4A93421FD07B68EF
:101ABC00294A93421BD07B68284A934217D07B68F3
:101ACC00274A934213D07B68264A93420FD07B68F7
:101ADC00254A93420BD07B68244A934207D07B68FB
:101AEC00234A934203D07B68224A934208D1FB6875
:101AFC0023F44073FB603B68DB68FA681343FB60BC
:101B0C00FB6823F080023B685B691343FB607B68D6
:101B1C00FA681A603B689A687B68DA623B681A68F4
:101B2C007B689A627B68094A934203D07B680B4AB4
:101B3C00934203D13B681A697B681A637B68012264
:101B4C005A6100BF1437BD4680BC7047000001408D
:101B5C000004004000080040000C0040000401405C
:101B6C000040014000440140004801400018004082
:101B7C00001C00400020004080B487B000AF7860AB
:101B8C0039607B681B6A23F001027B681A627B68F0
:101B9C001B6A7B617B685B683B617B689B69FB6054
:101BAC00FB6823F07003FB60FB6823F00303FB600E
:101BBC003B681B68FA681343FB607B6923F00203E4
:101BCC007B613B689B687A6913437B617B68204A25
:101BDC00934203D07B681F4A93420CD17B6923F05C
:101BEC0008037B613B68DB687A6913437B617B6923
:101BFC0023F004037B617B68154A934203D07B6816
:101C0C00144A934211D13B6923F480733B613B69C5
:101C1C0023F400733B613B685B693A6913433B6196
:101C2C003B689B693A6913433B617B683A695A602C
:101C3C007B68FA689A613B685A687B685A637B6870
:101C4C007A691A6200BF1C37BD4680BC704700BF62
:101C5C00000001400004014080B487B000AF786000
:101C6C0039607B681B6A23F010027B681A627B6800
:101C7C001B6A7B617B685B683B617B689B69FB6073
:101C8C00FB6823F4E043FB60FB6823F44073FB60C8
:101C9C003B681B681B02FA681343FB607B6923F0EB
:101CAC0020037B613B689B681B017A6913437B6152
:101CBC007B68214A934203D07B68204A93420DD122
:101CCC007B6923F080037B613B68DB681B017A69CD
:101CDC0013437B617B6923F040037B617B68164A6D
:101CEC00934203D07B68154A934213D13B6923F48A
:101CFC0080633B613B6923F400633B613B685B6938
:101D0C009B003A6913433B613B689B699B003A69B2
:101D1C0013433B617B683A695A607B68FA689A6145
:101D2C003B685A687B689A637B687A691A6200BF61
:101D3C001C37BD4680BC70470000014000040140C8
:101D4C0080B487B000AF786039607B681B6A23F47D
:101D5C0080727B681A627B681B6A7B617B685B683C
:101D6C003B617B68DB69FB60FB6823F07003FB6005
:101D7C00FB6823F00303FB603B681B68FA681343A2
:101D8C00FB607B6923F400737B613B689B681B02DF
:101D9C007A6913437B617B68214A934203D07B6849
:101DAC00204A93420DD17B6923F400637B613B682D
:101DBC00DB681B027A6913437B617B6923F48063C4
:101DCC007B617B68164A934203D07B68154A934229
:101DDC0013D13B6923F480533B613B6923F40053DB
:101DEC003B613B685B691B013A6913433B613B6890
:101DFC009B691B013A6913433B617B683A695A60E2
:101E0C007B68FA68DA613B685A687B68DA637B68DE
:101E1C007A691A6200BF1C37BD4680BC704700BF90
:101E2C00000001400004014080B487B000AF78602E
:101E3C0039607B681B6A23F480527B681A627B686A
:101E4C001B6A3B617B685B687B617B68DB69FB6061
:101E5C00FB6823F4E043FB60FB6823F44073FB60F6
:101E6C003B681B681B02FA681343FB603B6923F455
:101E7C0000533B613B689B681B033A6913433B610E
:101E8C007B68114A934203D07B68104A934209D174
:101E9C007B6923F480437B613B685B699B017A69B6
:101EAC0013437B617B687A695A607B68FA68DA61F4
:101EBC003B685A687B681A647B683A691A6200BF8F
:101ECC001C37BD4680BC7047000001400004014037
:101EDC0080B487B000AFF860B9607A60FB681B6AA9
:101EEC007B61FB681B6A23F00102FB681A62FB68CA
:101EFC009B693B613B6923F0F0033B617B681B01F1
:101F0C003A6913433B617B6923F00A037B617A696D
:101F1C00BB6813437B61FB683A699A61FB687A6919
:101F2C001A6200BF1C37BD4680BC704780B487B0B6
:101F3C0000AFF860B9607A60FB681B6A23F010028E
:101F4C00FB681A62FB689B697B61FB681B6A3B61DF
:101F5C007B6923F470437B617B681B037A691343B1
:101F6C007B613B6923F0A0033B61BB681B013A69B1
:101F7C0013433B61FB687A699A61FB683A691A62A0
:101F8C0000BF1C37BD4680BC704780B485B000AF25
:101F9C00786039607B689B68FB60FB6823F070039A
:101FAC00FB603A68FB68134343F00703FB607B68F4
:101FBC00FA689A6000BF1437BD4680BC704780B485
:101FCC0087B000AFF860B9607A603B60FB689B68D3
:101FDC007B617B6923F47F437B613B681A027B68DE
:101FEC001A43BB6813437A6913437B61FB687A69B4
:101FFC009A6000BF1C37BD4680BC704780B487B068
:10200C0000AFF860B9607A60BB6803F01F0301226F
:10201C0002FA03F37B61FB681A6A7B69DB431A40A3
:10202C00FB681A62FB681A6ABB6803F01F037968C5
:10203C0001FA03F31A43FB681A6200BF1C37BD4652
:10204C0080BC704780B485B000AF786039607B6825
:10205C0093F83C30012B01D102235AE07B6801221A
:10206C0083F83C207B68022283F83D207B681B6848
:10207C005B68FB607B681B689B68BB60FB6823F03C
:10208C007003FB603B681B68FA681343FB607B685A
:10209C001B68FA685A607B681B68204A934222D0FE
:1020AC007B681B68B3F1804F1DD07B681B681C4A92
:1020BC00934218D07B681B681A4A934213D07B68F2
:1020CC001B68194A93420ED07B681B68174A9342CF
:1020DC0009D07B681B68164A934204D07B681B6846
:1020EC00144A93420CD1BB6823F08003BB603B685D
:1020FC005B68BA681343BB607B681B68BA689A60FC
:10210C007B68012283F83D207B68002283F83C2009
:10211C00002318461437BD4680BC704700000140B0
:10212C000004004000080040000C00400004014086
:10213C00004001400018004080B483B000AF7860CC
:10214C0000BF0C37BD4680BC704780B483B000AF75
:10215C00786000BF0C37BD4680BC704780B500AFBF
:10216C00FEF7B8F900F034F800F012F900F09AF824
:10217C0000211648FFF764F9144B1B6832225A638E
:10218C004FF47A70FEF714FA104B1B6864225A63F2
:10219C004FF4FA70FEF70CFA0C4B1B6896225A633C
:1021AC004FF4FA70FEF704FA084B1B68C8225A6306
:1021BC004FF4FA70FEF7FCF9044B1B68FA225A63D1
:1021CC004FF4FA70FEF7F4F9D6E700BF2C000020AC
:1021DC0080B594B000AF07F12003302200211846DF
:1021EC0000F014FA07F10C0300221A605A609A608E
:1021FC00DA601A610023BB60284B1B6C274A43F042
:10220C0080531364254B1B6C03F08053BB60BB687D
:10221C0000237B60224B1B68214A43F4404313602C
:10222C001F4B1B6803F440437B607B6801233B62BC
:10223C004FF480337B620223BB634FF48003FB6358
:10224C0006233B64A8237B640223BB640423FB6446
:10225C0007F120031846FEF787FC0346002B01D03C
:10226C0000F0BCF80F23FB6002233B6100237B6171
:10227C004FF4A053BB614FF48053FB6107F10C0387
:10228C0005211846FEF7E0FE0346002B01D000F0B6
:10229C00A5F800BF5037BD4680BD00BF00380240D6
:1022AC000070004080B58EB000AF07F1280300220B
:1022BC001A605A609A60DA6007F1200300221A60F3
:1022CC005A603B1D00221A605A609A60DA601A61EB
:1022DC005A619A612D4B4FF080421A602B4B40F2A1
:1022EC0047325A60294B00229A60284B40F2CF7239
:1022FC00DA60264B00221A61244B00229A61234893
:10230C00FFF73EF80346002B01D000F067F84FF4BE
:10231C008053BB6207F1280319461C48FFF79CFA4F
:10232C000346002B01D000F059F81848FFF753F87A
:10233C000346002B01D000F051F800233B62002330
:10234C007B6207F1200319461048FFF77BFE03461A
:10235C00002B01D000F042F860237B609623BB6019
:10236C000023FB6000237B613B1D002219460748BC
:10237C00FFF7ACF90346002B01D000F02FF803480F
:10238C0000F07EF800BF3837BD4680BD2C00002021
:10239C0080B483B000AF00237B600F4B1B6B0E4AE5
:1023AC0043F0800313630C4B1B6B03F080037B60C7
:1023BC007B6800233B60084B1B6B074A43F001030F
:1023CC001363054B1B6B03F001033B603B6800BFC1
:1023DC000C37BD4680BC70470038024080B400AF5B
:1023EC0000BFBD4680BC704780B483B000AF0023F3
:1023FC007B600F4B5B6C0E4A43F4804353640C4B75
:10240C005B6C03F480437B607B6800233B60084B70
:10241C001B6C074A43F080531364054B1B6C03F091
:10242C0080533B603B6800BF0C37BD4680BC704797
:10243C000038024080B584B000AF78607B681B68C0
:10244C00B3F1804F15D10023FB600C4B1B6C0B4A76
:10245C0043F001031364094B1B6C03F00103FB6095
:10246C00FB68002201211C20FEF79DF91C20FEF7C1
:10247C00B6F900BF1037BD4680BD00BF0038024022
:10248C0080B588B000AF786007F10C0300221A60A9
:10249C005A609A60DA601A617B681B68B3F1804FEE
:1024AC001DD10023BB60104B1B6B0F4A43F0010383
:1024BC0013630D4B1B6B03F00103BB60BB68012363
:1024CC00FB6002233B6100237B610023BB61012382
:1024DC00FB6107F10C0319460448FEF79BF900BF9A
:1024EC002037BD4680BD00BF0038024000000240CE
:1024FC0080B400AF00BFBD4680BC704780B400AF55
:10250C00FEE780B400AFFEE780B400AFFEE780B416
:10251C0000AFFEE780B400AF00BFBD4680BC704783
:10252C0080B400AF00BFBD4680BC704780B400AF24
:10253C0000BFBD4680BC704780B500AFFEF71CF8ED
:10254C0000BF80BD80B500AF0248FEF7B7FF00BFEB
:10255C0080BD00BF2C00002080B400AF034B4FF0B7
:10256C0000629A6000BFBD4680BC704700ED00E081
:10257C00DFF834D0002103E00C4B5B58435004319E
:10258C000B480C4B42189A42F6D30B4A02E000233C
:10259C0042F8043B094B9A42F9D3FFF7DDFF00F0F8
:1025AC0011F8FFF7DBFD70470000032060260008E0
:1025BC00000000200C0000200C0000206C0000200B
:1025CC00FEE7000070B50D4D0D4C641BA4100026E9
:1025DC00A64209D10B4D0C4C00F020F8641BA41042
:1025EC000026A64205D170BD55F8043B984701362C
:1025FC00EEE755F8043B98470136F2E758260008F9
:10260C0058260008582600085C2600080244034699
:10261C00934200D1704703F8011BF9E7F8B500BFEE
:10262C00F8BC08BC9E467047F8B500BFF8BC08BCA7
:04263C009E467047FF
:102640000000000000000000010203040607080962
:08265000CCDBFF7F010000005C
:04265800D1010008A4
:04265C00AD010008C4
:0C26600010000000010000000024F40045
:040000050800257D4D
:00000001FF
