:020000040800F2
:10000000000003204D170008E1160008ED16000857
:10001000F3160008F9160008FF160008000000009B
:1000200000000000000000000000000005170008AC
:1000300011170008000000001D170008291700080C
:100040009D1700089D1700089D1700089D170008C0
:100050009D1700089D1700089D1700089D170008B0
:100060009D1700089D1700089D1700089D170008A0
:100070009D1700089D1700089D1700089D17000890
:100080009D1700089D1700089D1700089D17000880
:100090009D1700089D1700089D1700089D17000870
:1000A0009D1700089D1700089D1700089D17000860
:1000B0009D1700089D1700089D1700089D17000850
:1000C0009D1700089D1700089D1700089D17000840
:1000D0009D1700089D1700089D1700089D17000830
:1000E0009D1700089D1700089D1700089D17000820
:1000F0009D1700089D1700089D1700089D17000810
:100100009D1700089D1700089D1700089D170008FF
:100110009D1700089D1700089D1700089D170008EF
:100120009D1700089D1700089D1700089D170008DF
:100130009D1700089D1700089D1700089D170008CF
:100140009D1700089D1700089D1700089D170008BF
:100150009D1700089D1700089D1700089D170008AF
:100160009D1700089D1700089D1700089D1700089F
:100170009D1700089D1700089D170008000000004B
:100180009D1700089D1700089D1700089D1700087F
:100190009D1700089D1700089D1700089D1700086F
:0C01A00000000000000000009D17000897
:1001AC0010B5054C237833B9044B13B10448AFF3A5
:1001BC0000800123237010BD0C0000200000000003
:1001CC00F817000808B5034B1BB103490348AFF3FC
:1001DC00008008BD0000000010000020F817000887
:1001EC0053B94AB9002908BF00281CBF4FF0FF3192
:1001FC004FF0FF3000F06CB9ADF1080C6DE904CE96
:10020C0000F006F8DDF804E0DDE9022304B07047E5
:10021C002DE9F047089E0D4604468E46002B40F013
:10022C0082808A42174646D9B2FA82F24AB1C2F1AA
:10023C00200105FA02F320FA01F1974041EA030E7E
:10024C0094404FEA1748230CBEFBF8FCB9B208FBEC
:10025C001CEE43EA0E430CFB01F098420AD9FB1842
:10026C000CF1FF3580F01681984240F21381ACF10D
:10027C00020C3B441B1AA4B2B3FBF8F008FB10337E
:10028C0044EA034400FB01F1A14209D93C1900F1F5
:10029C00FF3380F00181A14240F2FE8002383C44E1
:1002AC00641A40EA0C4000211EB1D4400023C6E978
:1002BC000043BDE8F08702B9FFDEB2FA82F2002AF1
:1002CC004FD1CB1B4FEA174E1FFA87F80121B3FB16
:1002DC00FEFC250C0EFB1C3345EA034508FB0CF316
:1002EC00AB4207D97D190CF1FF3002D2AB4200F2C0
:1002FC00E7808446ED1AA3B2B5FBFEF00EFB105559
:10030C0043EA054408FB00F8A04507D93C1900F165
:10031C00FF3302D2A04500F2D7801846A4EB0804A4
:10032C0040EA0C40C0E78B4208D9002E00F0AF80A9
:10033C000021C6E900050846BDE8F087B3FA83F151
:10034C0000294BD1AB4202D3824200F2B780841A0F
:10035C0065EB030301209E46002EAAD0C6E9004E91
:10036C00A7E7C2F1200C01FA02F3974020FA0CF037
:10037C004FEA174E21FA0CFC1843BCFBFEF1050C9E
:10038C000EFB11CC1FFA87F845EA0C4501FB08F36C
:10039C00AB4204FA02F409D97D1901F1FF3C80F05B
:1003AC008B80AB4240F2888002393D44EB1A85B217
:1003BC00B3FBFEF00EFB103345EA034500FB08F3DC
:1003CC00AB4207D97D1900F1FF3C71D2AB426FD91A
:1003DC0002383D44EB1A40EA014178E7C1F1200CA8
:1003EC008B4022FA0CF71F4320FA0CF405FA01F3A8
:1003FC004FEA174E25FA0CF51C43230CB5FBFEF9FE
:10040C001FFA87F80EFB195543EA054509FB08FA54
:10041C00AA4502FA01F200FA01F308D97D1909F193
:10042C00FF3047D2AA4545D9A9F102093D44A5EBB5
:10043C000A05A4B2B5FBFEF00EFB105544EA0544C8
:10044C0000FB08F8A04507D93C1900F1FF352DD267
:10045C00A0452BD902383C4440EA0940A4EB0804DF
:10046C00A0FB02894C45C6464D4619D316D05EB149
:10047C00B3EB0E0264EB050404FA0CFCCA404CEA24
:10048C000202CC40C6E900240021BDE8F0873146C9
:10049C0030460EE7AC46EDE6184601E74345E6D29A
:1004AC00B8EB020E69EB07050138E0E72846D3E705
:1004BC0060468FE78146BAE7614677E708464BE727
:1004CC00ACF1020C3D4415E702383C4426E700BF72
:1004DC00704700BF80B500AF0E4B1B680D4A43F44C
:1004EC00007313600B4B1B680A4A43F48063136060
:1004FC00084B1B68074A43F480731360032000F019
:10050C002BF9002000F008F801F0BEF80023184683
:10051C0080BD00BF003C024080B582B000AF786067
:10052C00124B1A68124B1B7819464FF47A73B3FBB3
:10053C00F1F3B2FBF3F3184600F035F90346002B48
:10054C0001D001230EE07B680F2B0AD800227968BA
:10055C004FF0FF3000F00BF9064A7B681360002364
:10056C0000E0012318460837BD4680BD0800002076
:10057C00040000200000002080B400AF054B1B7865
:10058C001A46054B1B681344034A136000BFBD4653
:10059C0080BC7047040000202800002080B400AF0D
:1005AC00024B1B681846BD4680BC704728000020D3
:1005BC0080B584B000AF7860FFF7F0FFB8607B685F
:1005CC00FB60FB68B3F1FF3F05D00A4B1B781A4662
:1005DC00FB681344FB6000BFFFF7E0FF0246BB68FB
:1005EC00D31AFA689A42F7D800BF00BF1037BD463D
:1005FC0080BD00BF0400002080B485B000AF7860DF
:10060C007B6803F00703FB600C4BDB68BB60BA68CC
:10061C004FF6FF031340BB60FB681A02BB68134321
:10062C0043F0BF6343F40033BB60044ABB68D36040
:10063C0000BF1437BD4680BC704700BF00ED00E022
:10064C0080B400AF044BDB681B0A03F007031846A9
:10065C00BD4680BC704700BF00ED00E080B483B0A5
:10066C0000AF03463960FB7197F90730002B0ADBAA
:10067C003B68DAB20C4997F907301201D2B20B443D
:10068C0083F800230AE03B68DAB20849FB7903F0EF
:10069C000F03043B1201D2B20B441A7600BF0C3785
:1006AC00BD4680BC704700BF00E100E000ED00E0FB
:1006BC0080B489B000AFF860B9607A60FB6803F071
:1006CC000703FB61FB69C3F10703042B28BF042359
:1006DC00BB61FB690433062B02D9FB69033B00E0C9
:1006EC0000237B614FF0FF32BB6902FA03F3DA435C
:1006FC00BB681A407B699A404FF0FF317B6901FA65
:10070C0003F3D9437B680B40134318462437BD468B
:10071C0080BC704780B582B000AF78607B68013BCD
:10072C00B3F1807F01D301230FE00A4A7B68013BC0
:10073C0053600F214FF0FF30FFF790FF054B002265
:10074C009A60044B07221A60002318460837BD46EE
:10075C0080BD00BF10E000E080B582B000AF7860D3
:10076C007868FFF749FF00BF0837BD4680BD80B5EC
:10077C0086B000AF0346B9607A60FB7300237B61DF
:10078C00FFF75EFF78617A68B9687869FFF790FFC8
:10079C00024697F90F3011461846FFF75FFF00BF6E
:1007AC001837BD4680BD80B582B000AF78607868E0
:1007BC00FFF7B0FF034618460837BD4680BD000062
:1007CC0080B489B000AF7860396000237B6100236E
:1007DC003B610023BB610023FB6177E10122FB69D4
:1007EC0002FA03F37B613B681B687A6913403B6137
:1007FC003A697B699A4240F066813B685B68012BE1
:10080C000BD03B685B68022B07D03B685B68112BF5
:10081C0003D03B685B68122B30D17B689B68BB6153
:10082C00FB695B00032202FA03F3DB43BA69134052
:10083C00BB613B68DA68FB695B0002FA03F3BA69D7
:10084C001343BB617B68BA699A607B685B68BB6168
:10085C000122FB6902FA03F3DB43BA691340BB6163
:10086C003B685B681B0903F00102FB6902FA03F3A6
:10087C00BA691343BB617B68BA695A607B68DB68F1
:10088C00BB61FB695B00032202FA03F3DB43BA6929
:10089C001340BB613B689A68FB695B0002FA03F387
:1008AC00BA691343BB617B68BA69DA603B685B6801
:1008BC00022B03D03B685B68122B23D1FB69DA084F
:1008CC007B68083253F82230BB61FB6903F00703E5
:1008DC009B000F2202FA03F3DB43BA691340BB619E
:1008EC003B681A69FB6903F007039B0002FA03F3E8
:1008FC00BA691343BB61FB69DA087B680832B969D2
:10090C0043F822107B681B68BB61FB695B00032208
:10091C0002FA03F3DB43BA691340BB613B685B68C3
:10092C0003F00302FB695B0002FA03F3BA69134399
:10093C00BB617B68BA691A603B685B6803F08053E3
:10094C00002B00F0C0800023FB60654B5B6C644A9D
:10095C0043F480435364624B5B6C03F48043FB6051
:10096C00FB68604AFB699B08023352F82330BB6179
:10097C00FB6903F003039B000F2202FA03F3DB4332
:10098C00BA691340BB617B68574A934237D07B6886
:10099C00564A934231D07B68554A93422BD07B68A0
:1009AC00544A934225D07B68534A93421FD07B68AC
:1009BC00524A934219D07B68514A934213D07B68B8
:1009CC00504A93420DD07B684F4A934207D07B68C4
:1009DC004E4A934201D1092312E00A2310E0082366
:1009EC000EE007230CE006230AE0052308E00423AD
:1009FC0006E0032304E0022302E0012300E00023CD
:100A0C00FA6902F0030292009340BA691343BB6186
:100A1C003449FB699B080233BA6941F823203C4BEB
:100A2C001B68BB613B69DB43BA691340BB613B6824
:100A3C005B6803F48033002B03D0BA693B69134322
:100A4C00BB61334ABB691360314B5B68BB613B696B
:100A5C00DB43BA691340BB613B685B6803F400334A
:100A6C00002B03D0BA693B691343BB61284ABB69AD
:100A7C005360274B9B68BB613B69DB43BA691340EE
:100A8C00BB613B685B6803F48013002B03D0BA692D
:100A9C003B691343BB611E4ABB6993601C4BDB680B
:100AAC00BB613B69DB43BA691340BB613B685B6864
:100ABC0003F40013002B03D0BA693B691343BB61E9
:100ACC00134ABB69D360FB690133FB61FB690F2BD4
:100ADC007FF684AE00BF00BF2437BD4680BC704794
:100AEC00003802400038014000000240000402407F
:100AFC0000080240000C02400010024000140240AA
:100B0C0000180240001C0240002002400024024059
:100B1C00003C014080B485B000AF78600B467B8010
:100B2C007B681A697B881340002B02D00123FB736E
:100B3C0001E00023FB73FB7B18461437BD4680BCD9
:100B4C00704780B483B000AF78600B467B8013464F
:100B5C007B707B78002B03D07A887B689A6103E0EA
:100B6C007B881A047B689A6100BF0C37BD4680BC39
:100B7C00704780B483B000AF78600B467B807B6895
:100B8C005A697B881A407B889A4204D17B881A0464
:100B9C007B689A6102E07A887B689A6100BF0C37A7
:100BAC00BD4680BC7047000080B586B000AF786051
:100BBC007B68002B01D101235BE27B681B6803F08F
:100BCC000103002B75D0A34B9B6803F00C03042B83
:100BDC000CD0A04B9B6803F00C03082B12D19D4B3F
:100BEC005B6803F48003B3F5800F0BD1994B1B6842
:100BFC0003F40033002B5BD07B685B68002B57D170
:100C0C00012336E27B685B68B3F5803F06D1914BDC
:100C1C001B68904A43F4803313601DE07B685B686B
:100C2C00B3F5A02F0CD18B4B1B688A4A43F480235D
:100C3C001360884B1B68874A43F4803313600BE0C6
:100C4C00844B1B68834A23F480331360814B1B68ED
:100C5C00804A23F4802313607B685B68002B13D0DD
:100C6C00FFF79CFC386108E0FFF798FC02463B69F3
:100C7C00D31A642B01D90323FBE1764B1B6803F4D5
:100C8C000033002BF0D014E0FFF788FC386108E04B
:100C9C00FFF784FC02463B69D31A642B01D903236A
:100CAC00E7E16C4B1B6803F40033002BF0D100E040
:100CBC0000BF7B681B6803F00203002B63D0654BFD
:100CCC009B6803F00C03002B0BD0624B9B6803F06A
:100CDC000C03082B1CD15F4B5B6803F48003002BC7
:100CEC0016D15C4B1B6803F00203002B05D07B680C
:100CFC00DB68012B01D00123BBE1564B1B6823F0B1
:100D0C00F8027B681B69DB00524913430B603AE025
:100D1C007B68DB68002B20D04F4B01221A60FFF759
:100D2C003DFC386108E0FFF739FC02463B69D31AF9
:100D3C00022B01D903239CE1464B1B6803F00203F1
:100D4C00002BF0D0434B1B6823F0F8027B681B6927
:100D5C00DB00404913430B6015E03F4B00221A6047
:100D6C00FFF71CFC386108E0FFF718FC02463B69F2
:100D7C00D31A022B01D903237BE1364B1B6803F0FA
:100D8C000203002BF0D17B681B6803F00803002BD7
:100D9C0030D07B685B69002B16D0304B01221A6077
:100DAC00FFF7FCFB386108E0FFF7F8FB02463B69F4
:100DBC00D31A022B01D903235BE1264B5B6F03F0A3
:100DCC000203002BF0D015E0244B00221A60FFF731
:100DDC00E5FB386108E0FFF7E1FB02463B69D31AFB
:100DEC00022B01D9032344E11A4B5B6F03F002037E
:100DFC00002BF0D17B681B6803F00403002B00F080
:100E0C00A0800023FB75134B1B6C03F08053002B4D
:100E1C000FD10023BB600F4B1B6C0E4A43F0805369
:100E2C0013640C4B1B6C03F08053BB60BB68012339
:100E3C00FB750B4B1B6803F48073002B21D1084B03
:100E4C001B68074A43F480731360FFF7A7FB3861F4
:100E5C0011E000BF0038024000004742800E4742BC
:100E6C0000700040FFF79AFB02463B69D31A022B35
:100E7C0001D90323FDE0814B1B6803F48073002B25
:100E8C00F0D07B689B68012B06D17D4B1B6F7C4A95
:100E9C0043F0010313671CE07B689B68052B0CD1A6
:100EAC00774B1B6F764A43F004031367744B1B6F2D
:100EBC00734A43F0010313670BE0714B1B6F704ACD
:100ECC0023F0010313676E4B1B6F6D4A23F0040371
:100EDC0013677B689B68002B15D0FFF75FFB3861AD
:100EEC000AE0FFF75BFB02463B69D31A41F28832FA
:100EFC00934201D90323BCE0614B1B6F03F0020347
:100F0C00002BEED014E0FFF749FB38610AE0FFF745
:100F1C0045FB02463B69D31A41F28832934201D910
:100F2C000323A6E0564B1B6F03F00203002BEED1FC
:100F3C00FB7D012B05D1524B1B6C514A23F0805386
:100F4C0013647B689B69002B00F092804C4B9B6870
:100F5C0003F00C03082B5CD07B689B69022B41D1FE
:100F6C00484B00221A60FFF719FB386108E0FFF7C5
:100F7C0015FB02463B69D31A022B01D9032378E0F7
:100F8C003F4B1B6803F00073002BF0D17B68DA69D0
:100F9C007B681B6A1A437B685B6A9B011A437B68FC
:100FAC009B6A5B08013B1B041A437B68DB6A1B06CC
:100FBC00334913434B60334B01221A60FFF7EEFAAF
:100FCC00386108E0FFF7EAFA02463B69D31A022BB4
:100FDC0001D903234DE02A4B1B6803F00073002B4F
:100FEC00F0D045E0274B00221A60FFF7D7FA3861A2
:100FFC0008E0FFF7D3FA02463B69D31A022B01D95A
:10100C00032336E01E4B1B6803F00073002BF0D15A
:10101C002EE07B689B69012B01D1012329E0184B41
:10102C005B68FB60FB6803F480027B68DB699A42B7
:10103C001CD1FB6803F03F027B681B6A9A4215D1F6
:10104C00FA6847F6C07313407A68526A93420DD11E
:10105C00FB6803F440327B689B6A9A4206D1FB68BA
:10106C0003F070627B68DB6A9A4201D0012300E0D6
:10107C00002318461837BD4680BD00BF00700040E5
:10108C00003802406000474280B584B000AF786001
:10109C0039607B68002B01D10123CCE0684B1B68C5
:1010AC0003F00F033A689A420CD9654B3A68D2B2F6
:1010BC001A70634B1B6803F00F033A689A4201D015
:1010CC000123B8E07B681B6803F00203002B20D0DF
:1010DC007B681B6803F00403002B05D0594B9B68FD
:1010EC00584A43F4E05393607B681B6803F0080391
:1010FC00002B05D0534B9B68524A43F460439360DA
:10110C00504B9B6823F0F0027B689B684D4913435E
:10111C008B607B681B6803F00103002B44D07B6859
:10112C005B68012B07D1474B1B6803F40033002B82
:10113C0019D101237FE07B685B68022B03D07B68AD
:10114C005B68032B07D13F4B1B6803F00073002B2C
:10115C0009D101236FE03B4B1B6803F00203002B0A
:10116C0001D1012367E0374B9B6823F003027B68B6
:10117C005B68344913438B60FFF710FAF8600AE0A0
:10118C00FFF70CFA0246FB68D31A41F288329342FD
:10119C0001D903234FE02B4B9B6803F00C027B68B7
:1011AC005B689B009A42EBD1254B1B6803F00F0345
:1011BC003A689A420CD2224B3A68D2B21A70204B3F
:1011CC001B6803F00F033A689A4201D0012332E006
:1011DC007B681B6803F00403002B08D0194B9B6839
:1011EC0023F4E0527B68DB68164913438B607B6801
:1011FC001B6803F00803002B09D0124B9B6823F4E7
:10120C0060427B681B69DB000E4913438B6000F066
:10121C0021F802460B4B9B681B0903F00F030A498C
:10122C00CB5C22FA03F3094A1360094B1B6818467E
:10123C00FFF772F9002318461037BD4680BD00BF7A
:10124C00003C024000380240101800080800002042
:10125C0000000020B0B584B000AF002179600021FF
:10126C00F960002139600021B9605249896801F0A8
:10127C000C0108290DD0082900F29480002902D015
:10128C00042903D08EE04C4BBB608EE04B4BBB6013
:10129C008BE04849496801F03F017960454949684C
:1012AC0001F48001002924D0424949688909084683
:1012BC004FF0000140F2FF144FF0000500EA040269
:1012CC0001EA05033D4901FB03F0002101FB02F19A
:1012DC0044183A49A2FB0101631819467B681A4667
:1012EC004FF00003FEF77CFF02460B461346FB60F3
:1012FC004AE0304B5B689B091A464FF0000340F202
:10130C00FF104FF0000102EA000403EA0105204639
:10131C0029464FF000024FF000034B0143EAD06323
:10132C00420110461946001B61EB05014FF000020B
:10133C004FF000038B0143EA90638201121A63EBB6
:10134C0001034FF000004FF00001D90041EA527147
:10135C00D00002460B46121945EB03034FF0000078
:10136C004FF00001990241EA9251900202460B465D
:10137C00104619467B681A464FF00003FEF730FF03
:10138C0002460B461346FB600A4B5B681B0C03F0D2
:10139C00030301335B003B60FA683B68B2FBF3F379
:1013AC00BB6002E0044BBB6000BFBB681846103743
:1013BC00BD46B0BD003802400024F40040787D01E9
:1013CC0080B500AFFFF786F800F05CF800F0BAF8D3
:1013DC0004212848FFF79EFB0346012BF8D14FF45C
:1013EC00FA70FFF7E5F84FF400612348FFF7C1FBF3
:1013FC006420FFF7DDF84FF480412048FFF7B9FB7C
:10140C006420FFF7D5F802211D48FFF7B2FB6420DA
:10141C00FFF7CEF804211A48FFF7ABFB6420FFF767
:10142C00C7F808211648FFF7A4FB6420FFF7C0F8A3
:10143C0010211348FFF79DFB6420FFF7B9F820211A
:10144C000F48FFF796FB6420FFF7B2F840210C48D9
:10145C00FFF78FFB6420FFF7ABF880210848FFF7FC
:10146C0088FB6420FFF7A4F84FF480710448FFF761
:10147C0080FBADE700040240001002400014024063
:10148C000018024080B594B000AF07F12003302261
:10149C000021184600F0A2F907F10C0300221A6093
:1014AC005A609A60DA601A610023BB60234B1B6C94
:1014BC00224A43F080531364204B1B6C03F080537F
:1014CC00BB60BB6800237B601D4B1B6823F440434F
:1014DC001B4A43F480431360194B1B6803F44043CD
:1014EC007B607B6802233B620123FB6210233B631E
:1014FC000023BB6307F120031846FFF755FB034697
:10150C00002B01D000F0BAF80F23FB6000233B61E5
:10151C0000237B610023BB610023FB6107F10C03FB
:10152C0000211846FFF7B0FD0346002B01D000F058
:10153C00A5F800BF5037BD4680BD00BF0038024043
:10154C000070004080B58AB000AF07F11403002290
:10155C001A605A609A60DA601A6100233B61424B50
:10156C001B6B414A43F0400313633F4B1B6B03F06F
:10157C0040033B613B690023FB603B4B1B6B3A4ACE
:10158C0043F002031363384B1B6B03F00203FB6045
:10159C00FB680023BB60344B1B6B334A43F01003D6
:1015AC001363314B1B6B03F01003BB60BB68002350
:1015BC007B602D4B1B6B2C4A43F0200313632A4B8F
:1015CC001B6B03F020037B607B6800224FF4FF71E0
:1015DC002648FFF7B6FA00224FF400612448FFF7C3
:1015EC00B0FA00224FF480412248FFF7AAFA4FF4D8
:1015FC00FF737B610123BB610023FB6100233B6212
:10160C0007F1140319461948FFF7DAF804237B6134
:10161C000023BB610023FB6107F114031946164834
:10162C00FFF7CEF84FF400637B610123BB6100230D
:10163C00FB6100233B6207F1140319460C48FFF7CA
:10164C00BFF84FF480437B610123BB610023FB6136
:10165C0000233B6207F1140319460648FFF7B0F864
:10166C0000BF2837BD4680BD00380240001802403C
:10167C0000100240001402400004024080B400AF8D
:10168C0000BFBD4680BC704780B483B000AF002360
:10169C007B600F4B5B6C0E4A43F4804353640C4BE2
:1016AC005B6C03F480437B607B6800233B60084BDE
:1016BC001B6C074A43F080531364054B1B6C03F0FF
:1016CC0080533B603B6800BF0C37BD4680BC704705
:1016DC000038024080B400AF00BFBD4680BC7047EC
:1016EC0080B400AFFEE780B400AFFEE780B400AF7B
:1016FC00FEE780B400AFFEE780B400AF00BFBD468C
:10170C0080BC704780B400AF00BFBD4680BC704742
:10171C0080B400AF00BFBD4680BC704780B500AF41
:10172C00FEF72AFF00BF80BD80B400AF034B4FF023
:10173C0000629A6000BFBD4680BC704700ED00E0BF
:10174C00DFF834D0002103E00C4B5B5843500431DC
:10175C000B480C4B42189A42F6D30B4A02E000237A
:10176C0042F8043B094B9A42F9D3FFF7DDFF00F036
:10177C0011F8FFF725FE7047000003203018000811
:10178C00000000200C0000200C0000202C00002089
:10179C00FEE7000070B50D4D0D4C641BA410002627
:1017AC00A64209D10B4D0C4C00F020F8641BA41080
:1017BC000026A64205D170BD55F8043B984701366A
:1017CC00EEE755F8043B98470136F2E72818000875
:1017DC0028180008281800082C1800080244034692
:1017EC00934200D1704703F8011BF9E7F8B500BF2D
:1017FC00F8BC08BC9E467047F8B500BFF8BC08BCE6
:04180C009E4670473D
:1018100000000000000000000102030406070809A0
:08182000FCE9FF7F010000005C
:04182800D1010008E2
:04182C00AD01000802
:0C18300010000000010000000024F40083
:040000050800174D8B
:00000001FF
